:020000040000FA
:1000000008020020C1000000AD020000D90100007C
:10001000FFFFFFFFFFFFFFFFFFFFFFFFFFFFFFFFF0
:10002000FFFFFFFFFFFFFFFFFFFFFFFFC502000015
:10003000FFFFFFFFFFFFFFFFAF020000C70200004E
:1000400003010000030100000301000003010000A0
:100050000301000003010000030100000301000090
:1000600003010000FFFFFFFF030100000301000088
:10007000030100000301000003010000FFFFFFFF78
:10008000FFFFFFFF03010000030100000301000068
:10009000030100000301000003010000C10400008F
:1000A000E904000003010000030100000301000057
:1000B0000301000003010000030100000301000030
:1000C0001048804710488047104800471048016991
:1000D000002910D1416900290DD1816900290AD177
:1000E000C169002907D1BFF34F8F0A490A48C86088
:1000F000BFF34F8FFEE77047FEE7FEE7FEE7FEE740
:10010000FEE7FEE7CD000000C90200001D0100006F
:100110000003084000ED00E00400FA0504488546AD
:1001200000F008F8004800476D060000C046C046D1
:1001300008020020064C0125064E05E0E36807CCC6
:100140002B430C3C98471034B442F7D3FFF7EAFF37
:1001500080060000A0060000F0B596460A46134946
:10016000C000461800230025FF2098402C4610426E
:1001700016D00020012199408C461146C1406746A7
:10018000394206D087000F21B9400D437146B9406E
:100190000C43401C0828F0D33068A843204330604B
:1001A0000833361D082BDEDDF0BD000020200240A4
:1001B000F0B5084F7C6AFD6A3E6B84438D439643DD
:1001C000002B02D004430D4316437C62FD623E6364
:1001D000F0BD000000800840024801680029FCD002
:1001E000704700000000002010220029016F01D09C
:1001F000114300E0914301677047000070B501258D
:100200000024012188B089032B462A462046FFF7A7
:10021000CFFF042202210320FFF79EFF04220221C8
:100220000320FFF799FF042208210320FFF794FF22
:10023000042208210320FFF78FFF1A496846018234
:100240001849194E28314182047529020694818388
:1002500004A9304600F014F9062168464180057172
:1002600044718471C47104724572848102210170E9
:10027000FF24813444816946304600F0AFF8032101
:100280006846017044816946304600F0A7F80121B4
:100290003046FFF7A9FF01220221304600F088F81E
:1002A00008B070BDBF03000000C002407047704737
:1002B0000349C2B20A600A69D205FCD57047000042
:1002C0000000044070477047F0B534491020C86002
:1002D0003349012008603348016B40242143016306
:1002E00031498A68272AFCD1416A0322920291434C
:1002F000416241680122D202114341608168C9080C
:10030000C907FBD04168C908C900C91C4160416BDD
:100310004907490F0329FAD1244B1968C908C900B4
:10032000491C19600025056241685E15B1434160B2
:1003300001689F153943016041681A1511434160F6
:1003400081688908C907FBD0016BA143016301687B
:10035000B94301600321090681614168314341606D
:1003600081684908C907FBD01968C908C900891CF8
:10037000196005624168C908C900491C4160416BA8
:100380004907490F0129FAD118681021084318605C
:100390001868090208431860F0BD00000081084099
:1003A000008308400080084000A106400002084089
:1003B00010B5036D490001248C40A3430365036D10
:1003C0008A401343036510BD0029016902D0012250
:1003D000114301E04908490001617047F0B50C780C
:1003E000A200121815461346A032903594466206B4
:1003F0004033AE46120E03249440204DE443A842FD
:1004000002D001249440E4431C4E056D254005654F
:10041000456D2540B0428E7902D1CF797F003E43B1
:1004200096402E434665154FB84208D1C66E4D7AA8
:1004300026400C7A6D002C4394403443C4661C68FB
:10044000FF250835AC431C601C684D882C431C609C
:100450004C8973461C608C8963461C60B84206D187
:100460000B79497949000B439340016D02E0036D1C
:10047000097991400B430365F0BD000000C00240C4
:1004800010B502460B88803293604B885360036836
:1004900003242404A3430360036801242406A34324
:1004A000036003688C6823430360044B984201D1C6
:1004B0000B79D3608989816710BD000000C00240BC
:1004C00010B520214C06204600F02EF8002806D05A
:1004D000204600F02EF8C1B2204600F02FF820216F
:1004E000204600F01DF810BD10B5094C2021204613
:1004F00000F01AF8002806D0204600F01AF8C1B221
:1005000004A000F027F82021204600F009F810BDD3
:100510000000044064617461203D2025630A0000EE
:1005200002690A40026170470069084000D001205A
:100530007047006880B270470160704710B504468C
:10054000FFF7FAFF80212046FFF7EEFF0028F9D0E1
:1005500010BD00000FB410B503A9044B044A029863
:1005600000F017F810BC08BC04B01847650600007E
:100570000400002002E008C8121F08C1002AFAD1B6
:1005800070477047002001E001C1121F002AFBD113
:100590007047FFB581B00546002706E025280AD040
:1005A000049A039990476D1C7F1C28780028F5D188
:1005B000384605B0F0BD002269786D1C10462E2922
:1005C00013D1697804226D1C2A2909D102996D1C66
:1005D00001C9029109E00A235843303808186D1CFC
:1005E00029780B46303B092BF5D92B78002BDFD02F
:1005F000632B07D0732B10D0049A184603999047A9
:100600007F1C2DE002996C460B782370091D029126
:10061000002161706E46012104E0029940C90291F7
:100620000021C94352070AD5002400E0641C84421B
:100630000DDA8C42FADB325D002AF7D107E00024A4
:1006400000E0641C8C42FCDB305D0028F9D13F19CE
:1006500004E03078049A761C03999047641EF8D21F
:100660006D1CA2E710B5FFF723FE10BDFFF7C6FD16
:1006700001210248FFF7A8FEFEE7000000C002408B
:10068000A006000000000020080000007405000023
:10069000A8060000080000200002000084050000F9
:0806A000000000000000000052
:04000005000000C136
:00000001FF
