:020000040000FA
:1000000030110020C1000000B519000001110000EE
:10001000FFFFFFFFFFFFFFFFFFFFFFFFFFFFFFFFF0
:10002000FFFFFFFFFFFFFFFFFFFFFFFFE9240000CF
:10003000FFFFFFFFFFFFFFFFC92400002D26000088
:1000400003010000030100000301000003010000A0
:100050000301000003010000030100000301000090
:1000600003010000FFFFFFFF030100000301000088
:10007000030100000301000003010000FFFFFFFF78
:10008000FFFFFFFF03010000030100000301000068
:10009000030100000301000003010000B52B000074
:1000A000FD2B0000692B000003010000030100008C
:1000B0000301000003010000030100000301000030
:1000C0001048804710488047104800471048016991
:1000D000002910D1416900290DD1816900290AD177
:1000E000C169002907D1BFF34F8F0A490A48C86088
:1000F000BFF34F8FFEE77047FEE7FEE7FEE7FEE740
:10010000FEE7FEE7CD000000312600001D010000E3
:100110000003084000ED00E00400FA0504488546AD
:1001200000F0AEFB00480047F1390000C046C04671
:100130003011002030B50B4601460020202201245A
:1001400009E00D46D5409D4205D31D469540491B0B
:100150002546954040191546521E002DF1DC30BD54
:1001600003460B439B0703D009E008C9121F08C0D0
:10017000042AFAD203E00B780370401C491C521E7B
:10018000F9D27047D2B201E00270401C491EFBD286
:1001900070470022F6E710B513460A460446194692
:1001A000FFF7F0FF204610BD30B505462A460B4646
:1001B00010781C78521C5B1C002801D0A042F7D09C
:1001C000002C03D0002802D06D1CEFE7284630BD7C
:1001D000CAB2401E4178401C8A4202D00029F9D19F
:1001E00000207047421C0178401C0029FBD1801A76
:1001F000704710B5044600E0401C0378002BFBD18B
:1002000000E0401C521E04D30B78491C0370002BE5
:10021000F7D100210170204610BD03460A78027014
:10022000401C491C002AF9D11846704770B50028B7
:1002300000D11068002514E00B4602E0A64203D06E
:100240005B1C1C78002CF9D1E3B22B4307D0002CA7
:1002500006D0002D04D000210170401C04E00546AA
:10026000401C0678002EE7D11060284670BD014A78
:10027000DCE700006009002070B5064602F0C8FE09
:10028000046805460A220021304600F041FA2C603D
:1002900070BD0000F0B507460846584087B0C00F53
:1002A000049048000E46590040084908BC1A88418D
:1002B00005D2384631461E4617460B4602465800C0
:1002C000400810434DD0300D039040055900400DBB
:1002D000490D0590401A0290402873DA1803012155
:1002E000000B09050843019004980092002806D0ED
:1002F0001146019A494200209041009101900298D4
:1003000040210A1A0199009800F0CEF905460C46E2
:100310006B4607CB00F0E9F9C0197141039A0E0D45
:100320000023D71756401A467A40164344D0049A01
:10033000002A2DD0029A012A039A15DC1205C01A50
:10034000914101263605001C7141D20F059ED2074E
:100350000093019202962A46234600F01EFA07B047
:10036000F0BD38463146FAE71605234A0F46B21863
:10037000C01AB74101210905001C4F4100187F41F7
:10038000114618187941E20F10436D19644113E0CA
:10039000E2076D0815436408C2071443039A012657
:1003A0001205C01A91413605001C7141CE07400864
:1003B00030434908C01851412A46234600F0E0F96D
:1003C000CDE7FFE7049801224000C117121A00236D
:1003D0008B4104983146C417381AA141EEE730B476
:1003E0000124E407634030BC54E730B40124E4073F
:1003F000614030BC4EE700000000E0FFF0B51FB4E4
:1004000088B00B990998002448400999C00F490009
:1004100049080991C0070B990090490049080B91C0
:1004200009990898A64608431CD00B990A980843D6
:1004300018D0099801244000420D4800410D099848
:1004400024050003000B204309900B980003000BC8
:1004500020430B9050181C4940180022019014466C
:10046000104605E0002001460DB0F0BD032801DA7A
:10047000034600E003239C46C11A0AAE0AE05F006F
:1004800008ADED5B4F00F75B7D430027AA187C4168
:10049000491C5B1E6145F2DD410004AB5A52210448
:1004A000120C0A43240C401C0828DFDB0198029040
:1004B0000099704601910090059B049A079906984F
:1004C00000F06BF9D0E700000DFCFFFFF0B50C4623
:1004D0005C4085B0E40FE40703944C0000266408F8
:1004E00059009446490802460296224321D06246AA
:1004F0000A431ED06200570D4A000E032303550D18
:10050000012402462C492405781B1B0B360B40188E
:1005100023432643614600901C46501AB44103D33E
:100520000098401C009002E0921800985B4100285F
:1005300003DA0020014605B0F0BD002001210905C5
:100540000746864611E064461D46141BB54106D396
:100550006546521BB341744607430C43A646CD077C
:1005600040084908284392185B4105460D43EAD1EB
:100570001046184313D06046194650407140084356
:1005800006D06046101AB34106D20122002306E0CD
:1005900000220123DB0702E00122D243531000981E
:1005A00074460105381C6141029C039D0019694194
:1005B00000F0E6F8BFE70000FD0300004A00090371
:1005C0000123090B1B051943094B10B5520D9A4223
:1005D00001DA002010BD064B34339A4203DC9A1A2C
:1005E00000F072F810BD03495118884010BD00009A
:1005F000FF030000CDFBFFFF10B5002904DB012441
:10060000E40740428C412146002B04DB1C460123B9
:10061000DB075242A3418B4200D1824210BD000051
:1006200010B5002904DB0124E40740428C41214637
:10063000002B04DB1C460123DB075242A3419942F5
:1006400000D1904210BD0000F0B51FB40646002056
:1006500082B005464024019100901BE0019922469A
:100660000F46304600F030F8049A059B801A9941F5
:1006700010D310461946224600F016F8361A8F415C
:100680000197224601200021009F00F00DF8381844
:100690004D4100902046641E0028DFDC019B00983D
:1006A0002946324607B0F0BD10B5202A04DB0146CA
:1006B000203A9140002010BD914020239C1A03460F
:1006C000E3401943904010BD10B5202A04DB0846D2
:1006D000203AD040002110BD0B46D340D04020240A
:1006E000A21A91400843194610BD10B5202A06DB16
:1006F000CB170846203A1041C1170B4306E00B46C2
:100700001341D0402024A21A91400843194610BD3D
:10071000F7B5009C0F4600262578641C002D05D0F7
:1007200000F0C0F80068405DC007F5D12B2D02D065
:100730002D2D18D0641E39462046029A00F0B6F8D6
:10074000002F04D03968A14201D1009939607105A8
:10075000022400290BDA4042002803DD02F058FC95
:100760000460A007FEBD012080020643E3E70028E5
:10077000F8DA02F04DFC04600048FEBDFFFFFF7F89
:1007800010B5002B08DA0024401C614192185B412F
:100790001A4301D14008400010BDF0B51FB482B02B
:1007A00005460C0003D0084602F00CFC02E002F003
:1007B00009FC20300246009021462846FFF774FFCE
:1007C000049B059A04460F4618431143084314D06E
:1007D000184610431BD0009840210A1A1846059964
:1007E000FFF772FF05460E46009A05990498FFF739
:1007F0005BFF084305D0012004E02046394607B0DE
:10080000F0BD0020C11705430E432C433743009928
:100810000E986305401A7905E40A00220C43FD0A8C
:100820000A3002D500200146E9E7010510196941A7
:100830000C9C0D9D00196941FFF7A2FFDFE7000046
:100840004A0009030123090B1B0519430A4B10B584
:10085000520D9A4202DA0020014610BD064B343395
:100860009A4203DC9A1AFFF72FFF10BD034BD218F0
:10087000FFF71AFF10BD0000FF030000CDFBFFFFD4
:10088000064C0125064E05E0E36807CC2B430C3CE3
:1008900098471034B442F7D3FFF744FC845C00005F
:1008A000A45C0000004870476C5C0000F7B582B0A3
:1008B000029C00272078641C15460197302802D03E
:1008C000002D15D015E020780127641C782804D06D
:1008D000582802D0002D09D00BE0002D01D0102D9A
:1008E00007D1002710252078641C02E0082500E0CD
:1008F0000A250026009610E0009901276943081890
:10090000020C294680B2714300908E18380486424A
:1009100001D3012001902078641C294600F019F8C9
:100920000028E9DA0398002805D0002F01D0641EC2
:1009300000E0029C04600198002806D002F068FBE9
:1009400002210160C81E05B0F0BD009930040843C3
:10095000F9E73A2800D23038202302469A43412A48
:1009600001D310463738884201D30020C043704776
:1009700070B58D180478401CA207920F01D102783F
:10098000401C231106D10378401C03E006780E704A
:10099000401C491C521EF9D1002B15D002780C26A0
:1009A0008A1A3440401C0C2C03D0A401121B9B1C3F
:1009B00008E004782402121B401CF8E714780C703D
:1009C000491C521C5B1EF9D5A942D3D3002070BD2F
:1009D000F7B50B46009DED00154EAA190020002426
:1009E0000027002120E000240027FF258D401D4026
:1009F000002D17D000200FE01D46C54001268E4077
:100A00003540002D07D086000F25B5402C438600C9
:100A1000029DB5402F43401C0828EDD31568A5431F
:100A20003D431560121D08310829DCDDFEBD0000C4
:100A30002020024070B504461F48406B4607760FE1
:100A400000F03EF82060330002F0D3FA08160508E3
:100A50000B16160E12162068606010E017486060D2
:100A60000DE0164860600AE00120C003606006E007
:100A70007D200002606002E00020606000BF00BFD7
:100A80000D48056A052D02D36068400901E06068E1
:100A9000E840A0600848806A072109040840050C66
:100AA000072D04D10321A068FFF744FB01E0A068F3
:100AB000E840E06070BD00000080084000127A004D
:100AC000F0B517480068FF2701373840040A14487A
:100AD000C069C50F124840687F003840460A002EA2
:100AE00001D10020F0BD002C01D10E4800E00D48DE
:100AF0000346012D01D11846F4E7094880690F2704
:100B0000FF053840C10D002900D11021044880693B
:100B100003277F053840420D18464843D040E1E79F
:100B20000080084000127A007FB504466011800002
:100B30000A49461800252E2C00D10225E406E40EB1
:100B40000321A14030680840E04045196846FFF79E
:100B500071FF0298E84004B070BD00003880084082
:100B60003FB50E4C606AE16A226B0446009DAC43BF
:100B700020460C46019DAC4321461446029DAC43E1
:100B80002246002B05D0009C2043019C2143029C5F
:100B90002243024C6062E16222633FBD0080084054
:100BA00008B502F055F800F0B3FA0321890359485B
:100BB00000F0A3FA00F084FF002000F01FFF0020E7
:100BC00000F02BFF0120102353A2002100900846C3
:100BD00001F0AAF901F00AF87D20C00002F094FEAD
:100BE00000F036F9012008234EA2112100900020C8
:100BF00001F09AF900F0FAFF00BF01F0F9F90028BE
:100C0000FBD17D20000102F07FFE00BF01F0B0FCAF
:100C10000028FBD17D20C00002F076FE01200823D1
:100C200045A21A210090002001F07EF900F0DEFFBD
:100C300001F06CFE7D20C00002F066FE012008235A
:100C400042A223210090002001F06EF900F0CEFFB7
:100C500002F0EAFF03F0B6F87D20C00002F054FE77
:100C6000012008233DA22C210090002001F05CF916
:100C700000F0BCFFFF20F53002F046FE0120082303
:100C80003BA235210090002001F04EF900F0AEFFAC
:100C90007D20C00002F038FE0120082339A2352152
:100CA0000090002001F040F900F0A0FF7D20C0007E
:100CB00002F02AFE0120082337A2352100900020EF
:100CC00001F032F900F092FF7D20C00002F01CFE1E
:100CD00000F07CFE0120082334A2102100900020A7
:100CE00001F022F90120082335A2202100900020E4
:100CF00001F01AF90120082333A22E2100900020D0
:100D000001F012F900F072FF7D20000102F0FCFDFD
:100D100008BD000000400B40496E697469616C2E8B
:100D20002E2E00005769466920436F6E6E6563740E
:100D300020646F6E652E00004F6E656E65742053E3
:100D4000657276657220646F6E652E00414756208D
:100D500043617220646F6E652E0000004D61636810
:100D6000696E6541726D20646F6E652E0000000033
:100D7000496E697469616C20646F6E6521205379D6
:100D8000733A3300496E697469616C20646F6E65F3
:100D900021205379733A3200496E697469616C207D
:100DA000646F6E6521205379733A310057656C6327
:100DB0006F6D6520746F205461694F7800000000EA
:100DC00053746174653A000057616974696E6720F5
:100DD000666F72204F726465722E000010B5FF219D
:100DE00001310348FFF7D5F900200249088010BD02
:100DF0002C0E00205809002070B50546002400BFC5
:100E000000F016F9002812D10EA11048FFF7CCF916
:100E10000446002C0BD03A212046FFF7D9F90446AE
:100E2000002C02D0641C204670BD0020FCE7052089
:100E300002F06AFD2846691E8DB20028E0D100BF8D
:100E4000F2E700004950442C000000002C0E002066
:100E500010B5FFF7C3FF20A1214802F01CF803E002
:100E6000FF20F53002F050FD1EA11FA000F094F805
:100E70000028F5D11EA11A4802F00DF803E0FF206A
:100E8000F53002F041FD17A11CA000F085F8002804
:100E9000F5D11EA1124801F0FEFF03E0FF20F5305E
:100EA00002F032FD1CA11EA000F076F80028F5D15A
:100EB00022A10B4801F0EFFF03E0FF20F53002F024
:100EC00023FD22A123A000F067F80028F5D12CA172
:100ED000034801F0E0FF10BD312E2041540D0A00FF
:100EE000000004404F4B000041540D0A0000000078
:100EF000322E2043574D4F44450D0A0041542B4399
:100F0000574D4F44453D330D0A000000332E20431A
:100F1000574A41500D0A0000474F542049500000E5
:100F200041542B43574A41503D227474222C2232A3
:100F300032363638383838220D0A0000342E204335
:100F4000495053544152540D0A000000434F4E4E35
:100F50004543540041542B43495053544152543D4E
:100F600022544350222C223138332E3233302E3447
:100F7000302E3339222C363030320D0A000000007A
:100F8000352E204553503832363620496E6974204C
:100F90004F4B0D0A00000000F8B504460D467D26B3
:100FA000F6002046FFF71EF987B23A462146F006C2
:100FB00001F0A5FF10E000F03BF8002809D1294618
:100FC0000848FFF7F1F8002803D0FFF707FF0020DB
:100FD000F8BD0A2002F098FC3046761E0028EAD1BF
:100FE0000120F5E72C0E002030B589B004460D46EF
:100FF000FFF7F4FE2A4609A101A801F0B7FF0BA1F3
:1010000001A8FFF7C9FF002805D12A462146012083
:10101000800701F074FF09B030BD000041542B433C
:10102000495053454E443D25640D0A003E000000E2
:101030000A480088002801D101207047074800882D
:1010400007490988884203D1002004490880F4E751
:1010500002480088024908800120EEE75809002074
:101060005A09002081627047002A03D003680B43AD
:10107000036002E003688B4303607047F0B51746D6
:101080000024002500220CE0CE07F60F002E06D02B
:1010900053003E469E40344303269E40354349104C
:1010A000521C102AF0D34669AE4346614669264376
:1010B0004661F0BD002A03D043680B43436002E061
:1010C00043688B4343607047002A06D183680B4313
:1010D0008360C3688B43C3600EE0012A06D1C368F6
:1010E0000B43C36083688B43836005E083688B4355
:1010F0008360C3688B43C3607047416270470000E0
:1011000000BF024800680028FBD070470408002098
:101110003EB50020009001900290012189030198C2
:1011200088434018019009010098884340180090B6
:101130000123684607C8FFF713FD0D4C0022032169
:1011400089030220FFF744FC012203218903204682
:10115000FFF78AFF0222032189032046FFF7B4FF2D
:101160000122032189032046FFF788FF3EBD0000CE
:1011700000400B40002904D0026F10231A4302677D
:1011800003E0026F10239A430267704700B58BB0EB
:10119000002000900190029001218903019888436A
:1011A00040180190029840084000401C0290012322
:1011B000684607C8FFF7D4FC042202210320FFF78A
:1011C00007FC042208210320FFF702FC1D496846A2
:1011D00081830021C18308A8017000200990FF21AC
:1011E00001316846018507A9174801F063FB062114
:1011F0006846C18101210174002141748174C17468
:101200000175012141750021018302210173FF2134
:101210002D31C18203A90C4801F0DCFA0321684694
:101220000173FF212D31C18203A9074801F0D2FAD1
:1012300001210548FFF79EFF0121034801F0BDFA97
:101240000BB000BD5702000000C0024010B50446BC
:10125000207B012802D1206802F0A0FB0020206042
:101260006060A060207310BD10B50246002301230A
:101270000EE05006400E0870D209002A05D008780A
:10128000802420430870491C01E0184610BD5B1CF7
:10129000042BEEDD0020C043F8E770B504460E468F
:1012A00000252068002814D101202073304602F068
:1012B00085FC2060206800281CD000206060A660AB
:1012C00003E00020216848556D1CA068A842F8D8AA
:1012D00010E00220207303E00020216848556D1CB7
:1012E000A068A842F8D800206060A068B04201D28F
:1012F0000020206070BD0000FFB583B0119C002568
:10130000002002900F2701900598FEF76BFF00B2B6
:1013100000900598002802D1012007B0F0BD009888
:10132000801C381887B20C98002801D00220054391
:101330000E9800280FD0042005430E98FEF752FFA8
:10134000C0B202900F98FEF74DFF01460298001DB3
:101350000818C01987B20D98002804D0012804D0BD
:10136000022808D104E000BF07E00C20054304E098
:101370001420054301E00220CFE700BF10980028A9
:1013800001D0242005430398002802D004980028A7
:1013900001D10320C1E7C02005430398FEF722FFD7
:1013A00006460498FEF71EFF3018001DC01987B2CC
:1013B00039462046FFF771FF2068002805D183A138
:1013C000864801F08DFD0420A7E739462068FEF726
:1013D000E0FE10216268501C6060206881546368E0
:1013E0002268D118781FFFF73FFF00B201900198E3
:1013F000002804DA2046FFF729FF05208DE7616801
:1014000001980818606000216268501C60602068C4
:10141000815404216268501C6060206881544D2111
:101420006268501C60602068815451216268501CC1
:1014300060602068815454216268501C606020689C
:1014400081546268501C6060206881540421626885
:10145000501C6060206881546168481C606020688E
:101460004554FF2109020698084001126268501C89
:101470006060206881540698C1B26268501C606048
:1014800020688154FF210902009808400112626817
:10149000501C6060206881540098C1B26268501C82
:1014A000606020688154626821688818009A0599F4
:1014B000FEF79FFE616800980818606004202840CD
:1014C00000283ED000260F98002801D142A00F909E
:1014D0000E98FEF787FE86B2FF2000023040011210
:1014E0006268501C6060206881546268501C6060B3
:1014F0002068865462682168881832460E99FEF783
:1015000078FE6068801960600F98FEF76BFE86B207
:10151000FF200002304001126268501C60602068A9
:1015200081546268501C606020688654626821683B
:10153000881832460F99FEF75CFE6068801960607B
:1015400000BF8020284000281CD00398FEF74AFEE8
:1015500086B2FF200002304001126268501C6060B9
:10156000206881546268501C6060206886546268FC
:101570002168881832460399FEF73BFE606880199F
:10158000606000BF4020284000281CD00498FEF76F
:1015900029FE86B2FF200002304001126268501C12
:1015A0006060206881546268501C606020688654C6
:1015B00062682168881832460499FEF71AFE60684E
:1015C0008019606000BF0020A7E60000B7D6C5E420
:1015D000C4DAB4E6CAA7B0DC000000000000044092
:1015E000FFB583B017460C9C0026002002900190A6
:1015F00000250398002802D1012007B0F0BD0CE0BF
:10160000A8003858002801D10220F6E7A900785830
:10161000FEF7E8FD8619681CC5B206988542EFDB27
:10162000069841004018801C811902910299491DB9
:101630002046FFF732FE2068002801D10320DCE7B6
:1016400082216268501C6060206881546268206852
:1016500081180298FFF708FE00B201900198002857
:1016600004DA2046FFF7F2FD0420C6E7616801981E
:1016700008186060FF21090203980840011262689F
:10168000501C6060206881540398C1B26268501C8D
:10169000606020688154002527E0A9007858FEF793
:1016A000A1FD0646FF2000023040010A6268501C7E
:1016B0006060206881546268501C606020688654B5
:1016C000626820688318A800395832461846FEF729
:1016D00090FD6068801960600498C1B26268501C17
:1016E000606020688154681CC5B206988542D4DBCE
:1016F000002082E7F0B504460D462646012300206F
:101700001060002116E0775C7F067F0E5F43106853
:10171000C0191060705C80273840002801D1481C37
:10172000F0BDDB0101204005834202D30120C0430C
:10173000F6E7491CA942E6DB0020C043F0E701467A
:101740004878022801D0012070478878002802D00C
:101750008878012801D1C878F6E7FF20F4E7000077
:10176000FFB585B00D4614461E4605980078000763
:10177000000F049000200390082104980840029074
:1017800006210498084041100F98017003AA042113
:101790000598401CFFF7AEFF05994018471C0398B9
:1017A000022804D30498C007C00F002802D0FF20ED
:1017B00009B0F0BD3878000279780843208020888D
:1017C000801C0399884201D9FF20F1E759A1B81C78
:1017D000FEF7EAFC002801D00F20E9E70F98007817
:1017E000002804D0012840D002287DD13EE0029894
:1017F000002801D0FF20DBE72188481C02F0DEF939
:1018000028602868002801D1FF20D1E72288511CD8
:101810002868FEF7BEFC2288B91C2868FEF7A0FCE9
:101820000398801E2188401A81B20E9801800E997B
:101830000988481C02F0C2F930603068002804D1E1
:10184000286802F0ABF8FF20B2E70E9A1288511C0C
:101850003068FEF79EFC0E9802882088BB1CC118D9
:1018600030680190FEF77CFC53E000BF2088801CAC
:101870000399884201D9FF209AE72088801C385CB0
:1018800001022088C01C385C014310980180109828
:10189000002801D1FF208BE72188481C02F08EF937
:1018A00028602868002801D1FF2081E72288511C88
:1018B0002868FEF76EFC2288B91C2868FEF750FCE9
:1018C0000398001F2188401A81B20E9801800E995A
:1018D0000988481C02F072F930603068002806D18F
:1018E000286802F05BF800E011E0FF2060E70E9A44
:1018F0001288511C3068FEF74CFC0E980288208834
:101900003B1DC11830680190FEF72AFC01E0FF2062
:101910004EE700BF2B212846FEF75AFC002805D1D0
:1019200023212846FEF754FC002801D0FF203FE782
:1019300000203DE72463726571000000F8B504469D
:10194000FF2720780511012D01DB0E2D01DD384622
:10195000F8BD032D26D1002000906A460421601CAA
:10196000FFF7C8FE0019461C0098022804D320780F
:10197000C007C00F002801D0FF20E9E7307800023F
:1019800071780843801C0099884201D9FF20DFE765
:1019900006A1B01CFEF708FC002801D00F2700E0CC
:1019A000032700E02F463846D2E700002463726523
:1019B0007100000070470000C206D20E0121914064
:1019C000014A11607047000000E100E070B500249A
:1019D0000CE0002506E00020E900074A89180855B8
:1019E000681CC5B2802DF6DB601CC4B2082CF0DB8D
:1019F00000F0FCF870BD0000AC09002010B50446F2
:101A0000002C03D10021A62000F0B0FA012C03D154
:101A10000021A72000F0AAFA10BD10B50446002C42
:101A200007D10021C82000F0A1FA0021A12000F078
:101A30009DFA012C07D10021C02000F097FA002167
:101A4000A02000F093FA10BDF8B514460B46CE174F
:101A5000760FF6187605320ECE17760FF618F610BA
:101A6000F6008E1BF6B200960126009B9E40F5B252
:101A7000002C09D0C300114E9B199B5C2B43C60060
:101A80000E4FF619B35418E0C3000C4E9B199B5C23
:101A9000DB43C600094FF619B354C3003E469B19F9
:101AA0009B5C2B43C600F619B354C3003E469B19FA
:101AB0009B5CDB43C600F619B354F8BDAC090020AB
:101AC0000EB5012149040098884340180090490050
:101AD00000988843401800900123684607C8FFF724
:101AE0003FF8012210213E48FFF7BEFA01223D498E
:101AF0003D48FFF7B9FA10213948FFF7FEFA394996
:101B00003948FFF7FAFA012189033748FFF7AAFAA3
:101B1000C82001F0F9FE012189033348FFF7EDFAEF
:101B20000021FD2000F022FA0021122000F01EFA10
:101B30000021AE2000F01AFA0021D52000F016FA9C
:101B40000021A02000F012FA0021A82000F00EFAD7
:101B500000213F2000F00AFA0021D32000F006FA0D
:101B60000021084600F002FA0021402000F0FEF9B2
:101B70000021A12000F0FAF90021C82000F0F6F9B8
:101B80000021DA2000F0F2F90021122000F0EEF935
:101B90000021812000F0EAF900217F2000F0E6F921
:101BA0000021D92000F0E2F90021822000F0DEF9C6
:101BB0000021DB2000F0DAF90021342000F0D6F912
:101BC0000021A42000F0D2F90021A62000F0CEF9D7
:101BD000FFF7FCFE0021AF2000F0C8F90EBD0000A9
:101BE00000200B4020C1000000400B4070B50024D5
:101BF0001CE02146B031C8B2002100F0B7F9002145
:101C0000084600F0B3F90021102000F0AFF90025DC
:101C100008E0E900074A8918085D012100F0A6F9EB
:101C2000681CC5B2802DF4DB601CC4B2082CE0DB5C
:101C300070BD0000AC090020F7B582B00026002777
:101C400055E0002F09D10498102332461821009046
:101C5000802000F0E5F8701CC6B20298864223D1BD
:101C6000002001901AE0012410E000250AE0E000C5
:101C70001F494018415D601EC0001D4A8018415533
:101C8000681CC5B2082DF2DB601CC4B2902CECDBE2
:101C9000FFF7ACFF0198401CC0B20190039801010E
:101CA00001988142DFDC0026781CC7B2102F00D1DA
:101CB0000027012410E000250AE0E0000C4940184C
:101CC000415D601EC0000A4A80184155681CC5B2BB
:101CD000082DF2DB601CC4B2902CECDBFFF786FF12
:101CE00004480088002802D0012005B0F0BDA8E714
:101CF000AC09002058090020FFB585B01C460598A6
:101D0000029006980190082C02D10620039017E05B
:101D10002046E217520F1218D210E3175B0F1B1860
:101D2000DB10DB000094E31A01D0012300E0002364
:101D3000D2182146E30F5B185B105A43D2B20392CC
:101D400007982038C7B200255CE0082C05D1062092
:101D500078432F494018465D18E00C2C05D10C2023
:101D600078432C494018465D10E0102C04D138010E
:101D700029494018465D09E0182C05D124207843F4
:101D800026494018465D01E009B0F0BD00200490EE
:101D90001DE0F007C00F002805D00E9A069905989F
:101DA000FFF752FE0AE00E98002801D1012000E062
:101DB0000020024606990598FFF746FE7610069821
:101DC000401CC0B206900498401CC0B20490049815
:101DD0000828DEDB0598401CC0B20590082C0DD009
:101DE000E10F09194B10029A0599891A8B4205D106
:101DF0000298059001980830C0B2019001980690B1
:101E0000681CC5B2039885429FDB00BFBCE7000099
:101E1000383E000060400000D4440000C44A000086
:101E2000FFB585B0074616461C46029706980190F6
:101E30002046E217520F1218D2102146E3175B0F0B
:101E40005B18DB10DB00E31A01D0012300E0002364
:101E5000D218624392B20092002558E0102C05D1AE
:101E600070012D494018405D03901AE0182C06D1EE
:101E70004820704329494018405D039011E0202C10
:101E800005D1F00126494018405D039009E0402C3F
:101E900005D1700223494018405D039001E009B06C
:101EA000F0BD0020049020E00398C007C00F002878
:101EB00005D038460E9A0699FFF7C6FD0AE00E983F
:101EC000002801D1012000E0002002463846069992
:101ED000FFF7BAFD0398401003900698401CC0B26B
:101EE00006900498401CC0B2049004980828DBDBDC
:101EF000781CC7B20298381AA04204D1029F0198F8
:101F00000830C0B2019001980690681C85B2009814
:101F10008542A3DB00BFC2E7205800002059000023
:101F200068590000E8590000FFB581B00646144624
:101F30001D460A9F12E0009722782B4630460299F0
:101F4000FFF7DAFE082D02D1B01DC6B205E0284623
:101F5000E90F091849108919CEB2641C207820288D
:101F600002DB20787E28E6DD05B0F0BD70B50446C2
:101F70000E46002E05D00121C9031B48FFF7BDF80E
:101F800004E00121C9031848FFF76CF81021174835
:101F9000FFF768F800251AE020211348FFF762F8E0
:101FA00080202040002805D0FF2101310E48FFF796
:101FB000A4F804E0FF2101310B48FFF753F820217A
:101FC0000948FFF79AF86006040E681CC5B2082D90
:101FD000E2DB10210548FFF790F80121C903024810
:101FE000FFF78BF870BD000000400B4000200B4055
:101FF00030B58BB000200790089009900A90012519
:102000002BA32EA230A132A000F0A0FF07A8002130
:1020100002910391049100912B0225A20191059058
:1020200026A129A0FFF768F900283BD1089A91B2B0
:102030000798FEF7D9FFFA20FEF7DEFE0446002CD3
:102040002CD02046FFF77AFC022827D12046FFF744
:1020500076FB030000F0CDFF0604090D1115191DD4
:1020600027A000F073FF002517E02AA000F06EFF04
:1020700013E02FA000F06AFF0FE036A000F066FF2B
:102080000BE03CA000F062FF07E043A000F05EFF21
:1020900003E04CA000F05AFF00BF00BF07A8FFF705
:1020A000D5F802E04EA000F051FF28460BB030BD3D
:1020B0003130373230383133353800003132333453
:1020C00035363738000000003539323438390000F1
:1020D0004F6E654E65745F4465764C696E6B0D0A94
:1020E00050524F49443A2025732C09415549463AEC
:1020F0002025732C0944455649443A25730D0A009E
:10210000546970733A09C1ACBDD3B3C9B9A60D0AFD
:10211000000000005741524E3A09C1ACBDD3CAA7D6
:10212000B0DCA3BAD0ADD2E9B4EDCEF30D0A000015
:102130005741524E3A09C1ACBDD3CAA7B0DCA3BACD
:10214000B7C7B7A8B5C4636C69656E7469640D0AD6
:10215000000000005741524E3A09C1ACBDD3CAA796
:10216000B0DCA3BAB7FECEF1C6F7CAA7B0DC0D0A41
:10217000000000005741524E3A09C1ACBDD3CAA776
:10218000B0DCA3BAD3C3BBA7C3FBBBF2C3DCC2EBB7
:10219000B4EDCEF30D0A00005741524E3A09C1ACDE
:1021A000BDD3CAA7B0DCA3BAB7C7B7A8C1B4BDD363
:1021B00028B1C8C8E7746F6B656EB7C7B7A8290D9B
:1021C0000A0000004552523A09C1ACBDD3CAA7B0BB
:1021D000DCA3BACEB4D6AAB4EDCEF30D0A0000004B
:1021E0005741524E3A094D5154545F5061636B65EB
:1021F00074436F6E6E656374204661696C65640D2F
:102200000A000000E0B5B4B00025FA20FEF7F4FDA6
:10221000054643A000680D9000200B900A9041A055
:10222000006809900020079005903FA00068049086
:10223000002D71D00EA80FA910AA11AB0092019128
:10224000029012AA13A92846FFF78AFA0746002F20
:102250005AD104212846FDF79CFF14A81199FDF7D7
:10226000DCFF0BAA0DA914A8FDF7E0FF0C900AAA49
:1022700004A90C98FDF7DAFF0AAA04A90020FDF7CB
:10228000D5FF064626600BAA0DA90020FDF7CEFF5C
:102290000C9007AA09A90C98FDF7C8FF07AA09A97D
:1022A0000020FDF7C3FF089005AA04A90898FDF7D0
:1022B000BDFF05AA04A90020FDF7B8FF0690069807
:1022C000FDF7DAFF20710BAA0DA90020FDF7AEFF84
:1022D0000C9007AA09A90C98FDF7A8FF07AA09A95D
:1022E0000020FDF7A3FF089005AA04A90898FDF7B0
:1022F0009DFF05AA04A90020FDF798FF0690069807
:10230000FDF7BAFF607104E0002F02D007A000F0D3
:102310001DFEFEF763FD00BF204634B0E0BD0000A7
:102320003B0000002C0000003A000000BDE2B0FCC1
:10233000CAA7B0DC0D0A00001FB500200190029072
:102340000390FF210131039888434018039049000E
:102350000398884340180390490102988843401825
:102360000290012301A807C8FEF7FAFB042201210D
:102370000020FEF72DFB042202210020FEF728FB9F
:10238000042211460020FEF723FB0422082100202E
:10239000FEF71EFB042210210020FEF719FB042289
:1023A00020210020FEF714FB684600F0A3FA632109
:1023B000684641803C490180002101710020029063
:1023C000FF210131684681816946384800F072FA80
:1023D0000121364800F0E0F9FF210131334800F0D7
:1023E000E7F96946324800F065FA0121304800F00B
:1023F000D3F9FF2101312E4800F0DAF906216846B1
:10240000418001210171002141718171C17101720D
:102410000121417200214181818101706946234877
:1024200000F0D8F901220021204800F0A3F9012191
:102430006846017069461D4800F0CCF9012211463A
:102440001A4800F097F9002168460170694618485B
:1024500000F0C0F901220021154800F08BF901219C
:10246000684601706946124800F0B4F9012211462D
:102470000F4800F07FF902216846017069460C4858
:1024800000F0A8F901220221094800F073F90321A4
:10249000684601706946064800F09CF90122032154
:1024A000034800F067F91FBD7F25000000E00640EB
:1024B00000F0064070B504460D46164632462946E1
:1024C000204600F0EFF970BD70470000C1B2054A28
:1024D000116000BF03490969FF2201321140002940
:1024E000F8D070470000044070470000042806D16F
:1024F0000649096904221143044A116105E00349B0
:10250000096904229143014A1161704700E000E02B
:10251000002803D10021094A91610EE0012806D16B
:102520000649096901221143044A116105E0034982
:10253000096949084900014A1161704700E000E05B
:10254000002806D00649096902221143044A116194
:1025500005E00349096902229143014A116170476C
:1025600000E000E0014948617047000000E000E041
:1025700000B585B00020019002900390049015A052
:1025800000F0E4FC01A801231A4A00210090142065
:10259000FFF726F8002817D1029A91B20198FEF7AA
:1025A00023FD15A0029900F0D1FC6846017C16A01D
:1025B00000F0CCFC14A0039900F0C8FC01A8FEF7C1
:1025C00045FE002005B000BD11A000F0BFFC0120B9
:1025D000F8E70000546970733A094F6E654E6574F0
:1025E0005F5375627363726962654F726465720DE1
:1025F0000A0000005C09002053656E6420256420F9
:1026000042797465730D0A0025640D0A000000000C
:102610005741524E3A09537562736372696265207D
:102620004661696C65640D0A000000007047000097
:1026300010204B49C86001204A4908604A48006B95
:10264000402108434849086300BF4848806827285C
:10265000FBD14548406A03218902884342494862C8
:10266000084640680121C90208433F49486000BF4D
:102670003D4880680007C00F0028F9D03A484068FC
:10268000C008C000C01C3849486000BF3648406BD5
:102690004007400F0328F9D135480068C008C00042
:1026A000401C3349086000202F49086208464068F2
:1026B000491588432C494860084600688915084335
:1026C00029490860084640680915084326494860BA
:1026D00000BF254880684007C00F0028F9D0224875
:1026E000006B40218843204908630846006889152B
:1026F00088431D4908600320000688610846406839
:10270000491508431849486000BF1748806880078A
:10271000C00F0028F9D016480068C008C000801C0F
:102720001349086000201049086208464068C00844
:10273000C000401C486000BF0B48406B4007400F82
:102740000128F9D10A4800681021084308490860A7
:1027500008460068012109030843054908607047DD
:1027600000810840008308400080084000A1064026
:102770000002084030B503468D001C46403428193D
:10278000002A04D0046810252C43046003E0046888
:102790001025AC43046030BD002904D00269022337
:1027A0001A43026103E0026902239A4302617047FF
:1027B000CA43C267BFF34F8F7047002904D0026934
:1027C00001231A43026103E00269520852000261C8
:1027D00070470000FCB50D78AD0006464036AC19D8
:1027E0000D78AD005036AD1901950D78AD0010365D
:1027F000AD1900950D786D062A0E03259540EF431F
:10280000274DA84203D103259540EF4302E001255F
:102810009540EF43224DA84200D100BF056D3D40D9
:102820000565436D3B401E4DA84206D18D79CE799A
:102830007600354395402B4302E08D7995402B433C
:102840004365174DA84209D1C56E3D402B460D7A10
:102850004E7A7600354395402B43C3662568FF26A4
:102860000836B543256025684E88354325604E8976
:10287000019D2E608E89009D2E60094DA84208D1D1
:102880000D794E79760035439540066D35430565E3
:1028900004E0056D0E79964035430565FCBD0000EA
:1028A00000C0024030B58D00044690342B191A60E8
:1028B00030BD00000B88882213504B8884221350AF
:1028C000026803231B049A430260026801231B066B
:1028D0009A43026002688B681A430260044A90427D
:1028E00002D10B798C2213508A89826770470000CD
:1028F00000C0024000218160491E0180002141800A
:10290000FF21013181810021017170470EB5002046
:10291000009001900290012109040098884340181A
:102920000090890000988843401800900911019890
:102930008843401801900123684607C8FEF710F944
:102940000122172189010020FEF742F800221721F9
:1029500089011348FEF788FB0022172189011048DE
:10296000FEF7B2FB0122172189010D48FEF7A2FBF9
:102970000122032109030B48FEF776FB0022032105
:1029800009030848FEF7A0FB032109030548FEF7E9
:10299000B4FBFEF7FBFB01210348FFF70EFF0EBD62
:1029A00000000B4000400B4000C00240F0B589B071
:1029B00004460D4616461F460022604B2046294617
:1029C000FDF768FC00225D4B01910090FDF77EFD54
:1029D00000225B4B03910290FDF75CFC0022594BF7
:1029E00005910490FDF772FD0022574B0791069068
:1029F000FDF704FD554A03C20022504B30463946CC
:102A0000FDF748FC00224D4B01910090FDF75EFD63
:102A100000224B4B03910290FDF73CFC0022494BF6
:102A200005910490FDF752FD0022474B0791069057
:102A3000FDF7E4FC464A03C20022464B0F990E986C
:102A4000FDF728FC0022434B01910090FDF73EFD6D
:102A500000223B4B03910290FDF71CFC0022394BF6
:102A600005910490FDF732FD0022374B0791069047
:102A7000FDF7C4FC384A03C20022304B119910986C
:102A8000FDF708FC00222D4B01910090FDF71EFD83
:102A900000222B4B03910290FDF7FCFB0022294BF7
:102AA00005910490FDF712FD0022274B0791069037
:102AB000FDF7A4FC294A03C20022264B1399129861
:102AC000FDF7E8FB0022234B01910090FDF7FEFC8F
:102AD00000221B4B03910290FDF7DCFB0022194BF7
:102AE00005910490FDF7F2FC0022174B0791069028
:102AF000FDF784FC1A4A03C20022164B159914985C
:102B0000FDF7C8FB0022134B01910090FDF7DEFC9E
:102B100000220B4B03910290FDF7BCFB0022094BF6
:102B200005910490FDF7D2FC0022074B0791069017
:102B3000FDF764FC0B4A03C209B0F0BD00E0604041
:102B40000000E03F0000344000C0C24018080020F0
:102B5000200800200080564028080020300800206F
:102B6000380800204008002010B520210E4800F051
:102B700027F9002816D00D480088142802D3002019
:102B80000A49088008480068C1B2084802880088DD
:102B9000401C064B18800648815401214902024816
:102BA00000F052F810BD0000001000405409002051
:102BB0009809002010B52021480600F001F90028EE
:102BC00017D00C480088FF2802D900200949088046
:102BD000012080070068C1B2064802880088401CB6
:102BE000044B18800448815401214902480500F033
:102BF0002BF810BD580900202C0E002010B5202104
:102C00000E4800F0DDF8002816D00D480088142882
:102C100002D300200A49088008480068C1B2084869
:102C200002880088401C064B188006488154012108
:102C30004902024800F008F810BD000000000440FE
:102C4000500900208409002002690A40026170478F
:102C500000B587B000200190029003900121890304
:102C600002988843401802908900019888434018D0
:102C7000019049000198884340180190490001984B
:102C800088434018019049120298884340180290E6
:102C9000491002988843401802908900029888439E
:102CA00040180290012301A807C8FDF759FF002230
:102CB00002213F48FEF708FA00220121C9033D48DE
:102CC000FEF702FA002208213948FEF7FDF9062234
:102CD00001210846FDF77CFE062202210120FDF7B6
:102CE00077FE0622012189030020FDF771FE0622EE
:102CF0000121C9030020FDF76BFE062204210120FB
:102D0000FDF766FE062208210120FDF761FEE120A5
:102D100040020490FF210131684681820021C18276
:102D20000183418304A9244800F054F804A9012038
:102D3000800700F04FF804A9204800F04BF8182055
:102D4000FEF73AFE1720FEF737FE1920FEF734FE95
:102D500001221146184800F083F80122114690071D
:102D600000F07EF801221146144800F079F80122A3
:102D70000021114800F080F8012211460E4800F0B1
:102D80007BF801220021900700F076F8012211461D
:102D9000900700F071F801220021084800F06CF85B
:102DA00001221146054800F067F807B000BD000099
:102DB00000200B4000000B400000044000100040C9
:102DC000024610690840002801D001207047002009
:102DD000FCE7000070B504460D4660681C490840D9
:102DE000E9880843A9880843298908436989084371
:102DF000606001208007844207D11820FDF794FE0F
:102E000006462968FDF796F960621248844207D1A8
:102E10001A20FDF789FE06462968FDF78BF96062E6
:102E20000D48844207D11C20FDF77EFE0646296826
:102E3000FDF780F960620948844207D11E20FDF742
:102E400073FE06462968FDF775F9606270BD0000E3
:102E5000FCE0FFFF000004400010004000100440B0
:102E6000002A03D0C3680B43C36002E0C3688B43EE
:102E7000C36070470160704710B5002A05D04368F1
:102E800010248C402343436004E0436810248C40AA
:102E9000A343436010BD0FB430B5CBB0054601ACC1
:102EA00050A80090FF21293101A8009B4F9A00F003
:102EB00071F8002000900BE02178641C2846FFF791
:102EC000D9FF00BF80212846FFF77AFF0028F9D0FC
:102ED00020780028F0D14BB030BC08BC04B01847B3
:102EE00070B506460C46002505E0615D304600F0F1
:102EF0001DF8681CC5B2605D0028F6D170BDF8B53C
:102F000007460C46154600260DE02178641C38461D
:102F1000FFF7B0FF00BF80213846FFF751FF0028C0
:102F2000F9D0701C86B2AE42EFDBF8BD70B5044636
:102F30000D4629462046FFF79DFF00BF8021204611
:102F4000FFF73EFF0028F9D070BD00000FB410B5A8
:102F500003A9044B044A029800F028F910BC08BCED
:102F600004B018478D3900000C0800200FB410B5CC
:102F700004A9074B02AA039800F018F9044602A915
:102F8000002000F0BCFC204610BC08BC04B0184770
:102F9000FF3800007CB51D4616460C0001D0611EAE
:102FA00000E0002101910090054B6A462946304619
:102FB00000F0FCF8002C02D0009A002111707CBDBA
:102FC000E93800002021020C01D010211046020A2D
:102FD00001D010460839020901D01046091F8208A5
:102FE00001D01046891E420801D0881E7047081A79
:102FF000704730B47446641E2578641CAB4204D319
:10300000635D5B00E31830BC18471D46F8E700001D
:10301000004870476C09002002E008C8121F08C170
:10302000002AFAD170477047002001E001C1121F49
:10303000002AFBD170470000F0B51FB486B0099894
:10304000089A030D0021024314D05148514A181820
:10305000504305141198012810981AD0281A401CC2
:1030600000264D4F4D49009601910490002812DA38
:10307000444211E01198012449A3012801D110987C
:10308000C1430698119A84600360C26041600BB02E
:10309000F0BD4042E4E70446210500203F4A001C01
:1030A00051410391029012E0E00707D032463B46BF
:1030B00001990098FDF7A2F90191009032463B4634
:1030C00010461946FDF79AF906460F466410002C83
:1030D000EAD10498039B0028029A0999089806DA15
:1030E000FDF78CF9019B009AFDF788F905E0FDF7E3
:1030F000EDF9019B009AFDF7E9F904460E4600221E
:10310000284BFDF78DFA03D80020C043014607E0A5
:103110000022254B20463146FDF7BCF8FDF790FB19
:10312000102409E0002C0ADB0A220023FDF78CFAA8
:10313000079B30321A55641E02460A43F2D111220F
:10314000641C079B121B1C19119B012B03D001232C
:1031500008430ED10AE0084304D01120109000204B
:10316000119077E71098151A6D1E0BE010988242A7
:1031700002DD00236D1C03E0824201DA00236D1E94
:10318000002BEED0069811998260C16030C07EE7B6
:1031900001FCFFFF104D0000000014400000F03F54
:1031A000300000000000F0430000E03FFFB597B0A2
:1031B000064600251BE2252876D100242746F7493C
:1031C000049400E00443761C32780120203A9040B9
:1031D0000842F7D130782A280ED0022230780146F2
:1031E0003039092916D804990A235943303940182F
:1031F0001443761C0490F1E7189802C804911890C3
:10320000002904DA012040030443484204900220CC
:103210000443761C30782E2814D10420044370789F
:10322000761C2A2809D11898761C80C8189009E0C5
:103230000A214F43303FC719761C30780146303998
:103240000929F5D930786C2810D006DC4C281AD022
:1032500068280ED06A2817D104E0742813D07A2881
:1032600012D110E00120400504430CE001210905C2
:1032700001E0032109050C437178814203D101204B
:1032800000052418761C761C307866280BD013DCD9
:1032900058287DD009DC00287BD04528F6D0462868
:1032A000F4D047281AD1A9E118E0632835D0642862
:1032B00070D0652812D1A1E170286CD008DC672895
:1032C000F1D069287DD06E280DD06F2806D1BCE0E2
:1032D00073282ED0752873D0782859D01A9A199946
:1032E00090476D1C82E16002400F022809D003283C
:1032F0000DD00428189801680DD00D60001D18909D
:1033000074E11898EA1701680D604A60F6E71898AA
:1033100001680D80F2E70D70F0E718986A460178B1
:103320001172001D18900020507202A80090012018
:1033300005E0189802C8189000200091C04361076A
:103340000ED5002101E00199491C0191B94213DA1F
:103350008142F8DB019A0099895C0029F3D10BE0E6
:10336000002101E00199491C01918142FADB019A97
:103370000099895C0029F5D1019904981A9B471A94
:1033800021463846199A00F099FA4019019903E04C
:1033900051E030E115E050E0451807E00098009951
:1033A0000078491C00911A9A199990470198401E7B
:1033B0000190401CF2D1214638461A9B199A12E11D
:1033C00037E00A200021009001916002410F02299C
:1033D00007D0189A01CA1892C2179446032908D038
:1033E0000AE01898C01DC108C90005C91891944683
:1033F00007E000B2C2179446042902D140B2C117B7
:103400008C4600226146944506DA0A460021404275
:1034100091418C462D2102E0210504D52B216A46DD
:103420001173012103E0E10701D02021F7E70291A8
:1034300056E00A200AE0102008E010200090002149
:10344000042004430191082703E008200021019192
:1034500000906002410F022907D0189A01CA189201
:1034600000229446032908D008E01898C01DC1081E
:10347000C90005C91891944603E080B2042900D11F
:10348000C0B20021029121072AD531780D9170290F
:1034900006D0009A1021019B4A401A4305D00EE045
:1034A00040216A461173012108E06146014306D0BC
:1034B00030216A4611730D99517302210291009ACD
:1034C0000821019B4A401A430AD16146014301D1B8
:1034D000610705D530216A46117301217F1E0291D3
:1034E0003178582904D02EA10E910DA90D910DE02F
:1034F00030A1F9E76146019B009AFDF7A5F80E9B04
:103500008C469B5C0D9A521E0D92137061460143CE
:10351000F0D10D9805A9081A20300190600703D555
:1035200001200004844300E001270198874201DD67
:10353000381A00E0002001990090411802980918FB
:103540000498401A0490E00306D421461A9B199A65
:10355000049800F0B3F94519002706E003A81A9A69
:10356000C05D199990476D1C7F1C02988742F5DB5E
:10357000E0030CD521461A9B199A049800F09EF995
:10358000451904E01A9A3020199990476D1C00994A
:10359000481E00900029F5DC1FE00000092801000A
:1035A00030313233343536373839616263646566B9
:1035B000000000003031323334353637383941427B
:1035C00043444546000000000D980D990078491CC1
:1035D0000D911A9A199990476D1C0199481E0190F6
:1035E0000029F1DC4DE100F059F94519761C3078DD
:1035F000002800D0DFE528461BB0F0BD600700D4EE
:1036000006271898C01DC108C90048680A68083113
:10361000C30FDB071891190001D09CA108E0210518
:1036200001D59BA104E0E10701D09AA100E09AA195
:103630004300109130785B0865280CD006DC4528E3
:1036400009D046281DD0472841D141E0662818D02E
:1036500067283CD13CE00021112F01DB112000E064
:10366000781C0191009008A911A8FFF7E5FC1399B7
:1036700005910021119A15927F1C129801970091D3
:1036800050E00120C00703900120019008A9009795
:1036900011A8FFF7D1FC139A149905920022119BEF
:1036A000009212981593059A0192002901D01046B4
:1036B00002E0791C40180190381A01D5019804E005
:1036C0004042401E0090781C0190C01B029043E0D5
:1036D000012F00DA01270021112F01DD112000E068
:1036E00038460191009008A911A8FFF7A5FC13998D
:1036F0000591119A002112981592009101972107C6
:103700000CD40599B94201DB019900E0019101292E
:1037100004DD159A491E515C302906D0B84201DA01
:10372000011D05DA0121029115E00199491EEDE71D
:10373000002805DC0099411800910199091A03E05D
:10374000019A411C914200DD01910099401A401CF0
:1037500002900120C0070390200706D40299019827
:10376000814202DB0020C043029000206946C877F6
:1037700007AF012103980337C907884224D00220EC
:1037800011902B201290039800280CDA40420390ED
:103790002D20129007E00A210398FCF7CBFC303172
:1037A0007F1E039039701199481E11900029F2DC98
:1037B00003980028EFD1791E1298087030782021E4
:1037C00008404530BF1E387006A8C01BC01D0390BE
:1037D00010980078002800D0012001994118029823
:1037E000C0170918039809180498401A401E04903D
:1037F000E00306D421461A9B199A049800F05EF85B
:10380000451910980078002803D01A9A1999904702
:103810006D1CE00324D521461A9B199A049800F0E8
:103820004DF845191CE00098002807DB0099059821
:10383000884203DD1598405C199901E01999302000
:103840001A9A904700986D1C401C00900298401EE8
:103850000290002804D11A9A2E20199990476D1CC5
:103860000199481E01900029DDDC05E038781A9A9C
:103870007F1C199990476D1C0399481E03900029DD
:10388000F4DC21461A9B199A0498ACE62D0000003E
:103890002B0000002000000000000000F8B50446E6
:1038A00000251E461746880404D405E0394620202A
:1038B000B0476D1C641EF9D52846F8BDFFB5044617
:1038C000002581B01E46C80301D5302700E020271F
:1038D000880404D505E038460399B0476D1C641E82
:1038E000F9D5284605B0F0BD4A68002A06D00A6816
:1038F000531C0B6010704868401E486070470A688F
:10390000531C0B601070704710B5044603E07D2017
:10391000C00000F007F82046611E8CB20028F6D1E6
:1039200010BD000070B504460420C043FEF7DEFD64
:1039300013490968C8081349FCF7FCFB0646FEF763
:1039400011FE0020FEF7FCFD0020FEF7E1FD012046
:10395000FEF7DEFD002508E000BF0B4800690121ED
:10396000090408400028F8D06D1CA542F4D30120BA
:10397000C043FEF7CDFD0020FEF7CAFD70BD00007C
:103980000808002040420F0000E000E070B5044647
:103990000D462046FEF79AFD70BD000010B50028C8
:1039A00023D0124B0022001F196803E0814203D884
:1039B0000A4649680029F9D1002A0AD01368841AF6
:1039C0009C4204D1006818181060104602E0506054
:1039D00000E01860002907D002680B1A934203D157
:1039E0000B68D21802604968416010BD640900206C
:1039F00008B5FDF7D5F8FF2101315248FCF7C9FBA6
:103A00000020514908809CE0042000F0D7F80446CB
:103A1000002C01D0002020604C480078002826D1DE
:103A2000FDF7D4FF0120082349A2102100900020B7
:103A3000FEF77AFA012008234AA2202100900020F4
:103A4000FEF772FA0120082348A22E2100900020E0
:103A5000FEF76AFAFEF7CAF87D200001FFF754FF6F
:103A6000012204210820FEF7E7F838490870002CED
:103A700001D000202060FDF7A9FF0120082340A20B
:103A8000002100900846FEF74FFAFEF7AFF802E07B
:103A9000FEF7B8FB044620680028F9D0206800280B
:103AA0004AD03CA13D482268FFF760FA0120082374
:103AB0003A4A102100900020FEF736FA14213748C8
:103AC000FCF767FB227936A13448FFF74FFA012053
:103AD0000823324A202100900020FEF725FA142105
:103AE0002E48FCF756FB627930A12C48FFF73EFACE
:103AF00001200823294A302100900020FEF714FA03
:103B000014212648FCF745FBFEF770F80CE02079FD
:103B1000002803D02079401E207105E0607900283C
:103B200002D06079401E607120790028EFD1607961
:103B30000028ECD1054908707D20C000FFF7E4FEA5
:103B400000BF61E72C0E002058090020000800206B
:103B500057656C636F6D6520746F205461694F7891
:103B60000000000053746174653A00005761697485
:103B7000696E6720666F72204F726465722E000056
:103B8000486572652069732061204F7264657221F7
:103B900000000000626F73733A2573007009002003
:103BA0004F72616E67653A25640000004772656573
:103BB0006E4F72616E67653A25640000F0B50B3098
:103BC000C108C900144F0026144A0FE003688B4255
:103BD0000BD38B4205D95C1A4318456830C3083BA8
:103BE00000E04368136002C004E0021D1068002872
:103BF000ECD13046002803D13868002801D00020DD
:103C0000F0BD064A06481060064A121AD208D200D1
:103C100044C001203860D7E768090020640900200B
:103C2000340F0020300F002010B5FEF785FB2D2249
:103C3000120100211448FEF73DFC2D221201012142
:103C40001148FEF737FC2D22120100210F48FEF724
:103C500031FC2D22120101210C48FEF72BFC2D22F4
:103C6000120102210948FEF725FC2D221201032131
:103C70000648FEF71FFC01210348FEF79EFD0121C7
:103C80000248FEF79AFD10BD00E0064000F0064035
:103C9000F0B589B004460D4616461F46159914988E
:103CA0000791069013991298059104901199109814
:103CB000039102900F990E9832463B460191009075
:103CC00020462946FEF772FE00221346354903C9F5
:103CD000FCF792FC0AD0334903C9FCF76FFC80B2B1
:103CE0000246002108903048FEF7E4FB002213460C
:103CF0002E4903C9FCF780FC0AD02C4903C9FCF704
:103D00005DFC80B20246012108902748FEF7D2FBF5
:103D100000221346264903C9FCF76EFC0AD0244949
:103D200003C9FCF74BFC80B20246022108901E48F2
:103D3000FEF7C0FB002213461E4903C9FCF75CFCDA
:103D40000AD01C4903C9FCF739FC80B202460321A2
:103D500008901548FEF7AEFB00221346164903C92A
:103D6000FCF74AFC0AD0144903C9FCF727FC80B2CF
:103D70000246002108901148FEF79CFB00221346E2
:103D80000F4903C9FCF738FC0AD00D4903C9FCF7F9
:103D900015FC80B20246012108900848FEF78AFB14
:103DA00009B0F0BD1808002000F0064020080020EF
:103DB00028080020300800203808002000E00640D5
:103DC0004008002000B589B00021069107910491B8
:103DD00005910291039100910A460B460846019114
:103DE000FFF756FF7D20C000FFF78EFD00210C4A33
:103DF0001160516000200B4A106050600A4A106048
:103E000050600A4A11605160094A11605160094AC4
:103E1000106050607D20C000FFF776FD09B000BD46
:103E200078080020800800208808002090080020E2
:103E300098080020A00800200000000000000000FA
:103E4000002F000000000700070000147F147F14FB
:103E500000242A7F2A120062640813230036495581
:103E6000225000000503000000001C224100000059
:103E700041221C000014083E08140008083E0808EF
:103E8000000000A06000000808080808000060604A
:103E90000000002010080402003E5149453E000089
:103EA000427F4000004261514946002141454B316B
:103EB000001814127F10002745454539003C4A4937
:103EC00049300001710905030036494949360006A9
:103ED0004949291E00003636000000005636000011
:103EE000000814224100001414141414000041228C
:103EF000140800020151090600324959513E007C64
:103F00001211127C007F49494936003E414141224D
:103F1000007F4141221C007F49494941007F090936
:103F20000901003E4149497A007F0808087F0000E6
:103F3000417F4100002040413F01007F08142241A1
:103F4000007F40404040007F020C027F007F040859
:103F5000107F003E4141413E007F09090906003EB5
:103F60004151215E007F09192946004649494931DE
:103F70000001017F0101003F4040403F001F204001
:103F8000201F003F4038403F0063140814630007BF
:103F90000870080700615149454300007F41410016
:103FA00000552A552A55000041417F0000040201B6
:103FB0000204004040404040000001020400002094
:103FC00054545478007F48444438003844444420D2
:103FD00000384444487F00385454541800087E097F
:103FE00001020018A4A4A47C007F08040478000047
:103FF000447D4000004080847D00007F1028440004
:104000000000417F4000007C04180478007C080414
:10401000047800384444443800FC24242418001850
:10402000242418FC007C080404080048545454203C
:1040300000043F444020003C4040207C001C2040C5
:10404000201C003C4030403C004428102844001C08
:10405000A0A0A07C004464544C4414141414141400
:104060000000000000000000000000000000FC0054
:104070000000000002000000000C020C0200000022
:104080000000000090D0BCD0BC90000300030000F2
:104090001824FE448C000302070201001824D8B043
:1040A0004C80000300010201C038E438E000010246
:1040B00002010202080600000000000000000000EB
:1040C000000000F80402000000010204000204F8ED
:1040D00000000004020100009060F8609000000001
:1040E000010000002020FC20200000000100000052
:1040F0000000000000000806000000002020202032
:10410000200000000000000000000000000000028D
:10411000000000000080601C02000403000000009A
:10412000F8040404F8000102020201000008FC0087
:104130000000000203020000188444241800030257
:104140000202020008042424D80001020202010035
:1041500040B088FC80000000000302003C242424BE
:10416000C400010202020100F824242CC000010254
:10417000020201000C04E41C040000000300000023
:10418000D8242424D8000102020201003844444407
:10419000F80000030202010000001000000000000F
:1041A00002000000000020000000000006000000E7
:1041B00000205088040200000000010290909090BE
:1041C000900000000000000000020488502000025F
:1041D000010000001804C4241800000002000000C0
:1041E000F804E494F80001020202020000E09CF0EE
:1041F000800002030000030204FC2424D800020310
:1042000002020100F80404040C0001020202010091
:1042100004FC0404F80002030202010004FC2474FC
:104220000C0002030202030004FC24740C000203CD
:1042300002000000F0080444CC400001020201002A
:1042400004FC2020FC040203000003020404FC041C
:104250000400020203020200000404FC0404060439
:104260000403000004FC24D00C0402030200030237
:1042700004FC04000000020302020203FC3CC03CF8
:10428000FC0003000300030004FC30C4FC04020330
:1042900002000300F8040404F80001020202010015
:1042A00004FC24241800020302000000F8848404A3
:1042B000F80001020207050004FC246498000203D0
:1042C00002000302182424448C00030202020100AD
:1042D0000C04FC040C0000020302000004FC0000BB
:1042E000FC04000102020100047C80E01C040000C8
:1042F000030000001CE03CE01C0000030003000081
:10430000049C609C0400020300030200041CE01CE7
:1043100004000002030200000C84641C0400020379
:10432000020203000000FE02020000000704040075
:10433000000E30C00000000000010200000202FE7A
:104340000000000404070000000402040000000054
:10435000000000000000000000000808080808082D
:104360000000020000000000000000000040A0A0CB
:10437000C00000010202030204FC2020C000000370
:104380000202010000C020206000000102020200C1
:1043900000C02024FC0000010202030200C0A0A013
:1043A000C0000001020202000020F82424040002E0
:1043B000030202000040A0A0602000070A0A0A04CD
:1043C00004FC2020C0000203020003020020E400DD
:1043D0000000000203020000000020E400000808C2
:1043E0000807000004FC80E0202002030200030212
:1043F0000404FC000000020203020200E020E020AE
:10440000C00003000300030020E02020C0000203DE
:104410000200030200C02020C000000102020100CF
:1044200020E02020C000080F0A02010000C0202068
:10443000E0000001020A0F0820E0402020000203F3
:10444000020000000060A0A02000000202020300A1
:104450000020F820000000000102020020E00020FF
:10446000E00000010202030220E020806020000042
:10447000030100006080E080600000030003000092
:1044800020608060200002030003020020E0208002
:1044900060200808070100000020A0602000000242
:1044A00003020200000020DE0200000000070400FA
:1044B000000000FF00000000000F00000002DE20EE
:1044C00000000004070000000201020404020000D2
:1044D00000000000000000000000000000000000DC
:1044E00000000000000000F80000000000000033A1
:1044F0003000000000100C06100C06000000000048
:104500000000000040C07840C0784000043F040430
:104510003F040400007088FC08300000001820FFF1
:10452000211E0000F008F000E018000000211C032C
:104530001E211E0000F00888700000001E212324A8
:104540001927211010160E000000000000000000C6
:1045500000000000000000E0180402000000000756
:104560001820400000020418E0000000004020185D
:1045700007000000404080F0804040000202010F30
:1045800001020200000000F0000000000101011F14
:1045900001010100000000000000000080B0700078
:1045A0000000000000000000000000000001010108
:1045B0000101010100000000000000000030300097
:1045C0000000000000000000806018040060180671
:1045D0000100000000E010080810E000000F1020AB
:1045E00020100F00001010F8000000000020203FF5
:1045F000202000000070080808887000003028247F
:10460000222130000030088888483000001820201F
:1046100020110E000000C02010F800000007042444
:10462000243F240000F80888880808000019212089
:1046300020110E0000E0108888180000000F1120E3
:1046400020110E0000380808C83808000000003F9C
:10465000000000000070880808887000001C2221FB
:1046600021221C0000E010080810E00000003122A8
:1046700022110F00000000C0C00000000000003048
:10468000300000000000008000000000000080609A
:10469000000000000000804020100800000102041B
:1046A0000810200040404040404040000404040402
:1046B00004040400000810204080000000201008BE
:1046C00004020100007048080808F00000000030F3
:1046D00036010000C030C828E810E0000718272481
:1046E00023140B000000C038E0000000203C23022F
:1046F0000227382008F8888888700000203F202092
:1047000020110E00C03008080808380007182020C3
:104710002010080008F808080810E000203F2020BA
:1047200020100F0008F88888E8081000203F20209B
:104730002320180008F88888E8081000203F20008F
:1047400003000000C03008080838000007182020C7
:10475000221E020008F808000008F808203F210186
:1047600001213F20000808F8080800000020203F31
:104770002020000000000808F8080800C0808080A1
:104780007F00000008F888C028180800203F20019A
:104790002638200008F8080000000000203F2020F4
:1047A0002020300008F8F800F8F80800203F003F0B
:1047B000003F200008F830C00008F808203F200023
:1047C00007183F00E01008080810E0000F10202034
:1047D00020100F0008F808080808F000203F210109
:1047E00001010000E01008080810E0000F18242460
:1047F00038504F0008F8888888887000203F2000D3
:10480000030C302000708808080838000038202188
:1048100021221C00180808F8080818000000203F92
:104820002000000008F808000008F808001F2020F9
:1048300020201F000878880000C8380800000738CA
:104840000E010000F80800F80008F800033C07001B
:10485000073C0300081868808068180820302C0383
:10486000032C30200838C800C83808000000203F5A
:104870002000000010080808C83808002038262149
:1048800020201800000000FE020202000000007F4D
:1048900040404000000C30C000000000000000015B
:1048A0000638C00000020202FE0000000040404046
:1048B0007F0000000000040202020400000000006B
:1048C00000000000000000000000000080808080E8
:1048D00080808080000202040000000000000000D0
:1048E0000000000000008080808000000019242269
:1048F00022223F2008F8008080000000003F1120A5
:1049000020110E000000008080800000000E1120A9
:1049100020201100000000808088F800000E112087
:1049200020103F200000808080800000001F222295
:1049300022221300008080F0888888180020203F01
:10494000202000000000808080808000006B949414
:104950009493600008F8008080800000203F2100D0
:1049600000203F2000809898000000000020203F99
:1049700020200000000000809898000000C0808087
:10498000807F000008F8000080808000203F240223
:104990002D302000000808F8000000000020203F13
:1049A000202000008080808080808000203F2000C8
:1049B0003F20003F8080008080800000203F210059
:1049C00000203F200000808080800000001F202009
:1049D00020201F00808000808000000080FFA12038
:1049E00020110E000000008080808000000E112049
:1049F00020A0FF80808080008080800020203F21D8
:104A0000200001000000808080808000003324248A
:104A100024241900008080E0808000000000001F36
:104A2000202000008080000000808000001F2020E7
:104A300020103F20808080000080808000010E30A8
:104A40000806010080800080008080800F300C0309
:104A50000C300F0000808000808080000020312E0C
:104A60000E312000808080000080808080818E70E8
:104A70001806010000808080808080000021302C9A
:104A80002221300000000000807C020200000000B3
:104A9000003F404000000000FF0000000000000058
:104AA000FF0000000002027C800000000040403F48
:104AB00000000000000601010202040400000000E2
:104AC00000000000000000000000000000000000E6
:104AD00000000000000000000000000000000000D6
:104AE00000000000000000000000000000F0F0F0F6
:104AF000000000000000000000017F010000000035
:104B000000000000001C1C1C000000000000806071
:104B1000301C8C60301C0C00000000000000000005
:104B20000000000000000000000000000000000085
:104B3000000000E00000000000E000000086E69FAA
:104B400086868686E69F860000011F01010101011D
:104B50001F010100000080C06020F820E0C00000BC
:104B6000000003070C18FF70E18100000000070F30
:104B700010107F100F070000806020608000000090
:104B8000E02000000F3020309F70DC371030C00074
:104B90000000100E03000718101807000000C020C6
:104BA00020E0C0000000000080E01F38E88703C458
:104BB0003C040000070F1810100B070D1010080020
:104BC00000808C4C38000000000000000000000055
:104BD00000000000000000000000000000000000D5
:104BE0000000000000000000000080E03008040029
:104BF0000000000000FEFF010000000000000000B7
:104C00000000030F1820400000040830E08000007E
:104C1000000000000000000001FFFE000000000096
:104C2000004020180F0300000000000000000000FA
:104C30000000C00000000000004266663C18FF183B
:104C40003C66664200000000000003000000000017
:104C500000000000000080000000000000101010A4
:104C60001010FF10101010100000000000000300D2
:104C70000000000000000000000000000000000034
:104C800000000000000000000000000000808C4CCC
:104C900038000000000000000000000000000000DC
:104CA0000000000000101010101010101010100064
:104CB00000000000000000000000000000000000F4
:104CC00000000000000000000000000000000000E4
:104CD0000000000000001C1C1C0000000000000080
:104CE0000000000000000000E0380C0000000000A0
:104CF00080701C03000000000060380E01000000FE
:104D000000000000000080C060202060C080000023
:104D100000FEFF010000000001FFFE000001070E81
:104D2000181010180E0701000000808080C0E000FD
:104D3000000000000000000000FFFF000000000075
:104D400000001010101F1F101010000000804020E5
:104D500020202060C0800000000303008040203835
:104D60001F070000001C1A1918181818181F000037
:104D70000080C020202060C08000000000030300ED
:104D80001010182FE780000000070F1010101018E7
:104D90000F070000000000000000C0E0F00000006D
:104DA00000C0B088868180FFFF8080000000000086
:104DB0000010101F1F1010000000E06060606060B5
:104DC0006060000000003F1008080818F0E00000D4
:104DD00000070B101010101C0F030000000080C013
:104DE00040202020E0C0000000FCFF21100808083F
:104DF00018F0E0000001070C18101010080F030055
:104E00000000C0E06060606060E0600000000300DF
:104E10000000E0180700000000000000001F1F0055
:104E2000000000000080C0602020202060C08000C2
:104E30000087EF2C1818303068CF830000070F0868
:104E400010101010180F07000000C0C020202020F4
:104E5000C0800000001F3F604040402010FFFE0067
:104E600000000C1C101010080F03000000000000D0
:104E7000000000000000000000000000000E0E0E08
:104E80000000000000000000001C1C1C00000000CE
:104E90000000000000000000000000000000000012
:104EA000000C0C000000000000000000005838005A
:104EB0000000000000000000000000804020100002
:104EC00000001028448201000000000000000000E3
:104ED00000000102040810000000000000000000B3
:104EE000000000000084848484848484848484009A
:104EF0000000000000000000000000000000102082
:104F0000408000000000000000000000000001825E
:104F100044281000000010080402010000000000F6
:104F200000C020201010101030E0C000000303006B
:104F300000F010080C070300000000001C1C1C00FF
:104F400000000000000000C0406020202040C000A1
:104F500000FCFF01F00E03C1FE03807F0001070E7D
:104F600008111110110904020000000080E0E000A7
:104F7000000000000000807C4340477FF880000074
:104F800010181F1000000000131F1C1020E0E0206C
:104F900020202060C080000000FFFF1010101018BB
:104FA0002FE78000101F1F1010101010180F07009F
:104FB000000080C0402020202060E00000FCFF01B5
:104FC00000000000000001000001070E1810101082
:104FD0000804030020E0E02020202040C0800000E2
:104FE00000FFFF000000000001FFFE00101F1F1067
:104FF000101018080E07010020E0E02020202020DB
:105000002060800000FFFF101010107C00000000E6
:10501000101F1F10101010101018060020E0E020C4
:10502000202020206060800000FFFF101010107C06
:1050300000000100101F1F10000000000000000011
:10504000000080C06020202040E0000000FCFF0144
:1050500000004040C0C140400001070E1810101071
:105060000F0F000020E0E0200000000020E0E02022
:1050700000FFFF101010101010FFFF00101F1F1076
:1050800000000000101F1F100000202020E0E02082
:10509000202000000000000000FFFF0000000000D2
:1050A00000001010101F1F10101000000000000062
:1050B000202020E0E020202000000000000000FF71
:1050C000FF0000000060E0808080C07F3F000000A3
:1050D00020E0E020000020A06020200000FFFF3042
:1050E000187CE3C000000000101F1F100000011317
:1050F0001F1C181020E0E02000000000000000004D
:1051000000FFFF000000000000000000101F1F1043
:10511000101010101018060020E0E0E00000000061
:10512000E0E0E02000FF013FFEC0E01E01FFFF00C5
:10513000101F1000031F0300101F1F1020E0E0C00D
:10514000000000000020E02000FF0003071C78E0C2
:105150008000FF00101F100000000000030F1F0060
:10516000000080C060202060C080000000FEFF01C1
:105170000000000000FFFE000001070E18101018CC
:105180000C07010020E0E0202020202060C08000EB
:1051900000FFFF2020202020301F0F00101F1F10B5
:1051A0000000000000000000000080C060202060BF
:1051B000C080000000FEFF010000000000FFFE00B4
:1051C0000001070E1111133C7C67210020E0E02054
:1051D0002020202060C0800000FFFF101030F0D0A1
:1051E000080F0700101F1F10000000030F1C1010F5
:1051F0000080C060202020204040E00000070F0C0D
:105200001818303060E08100001F0C0810101010DA
:10521000180F07008060202020E0E0202020608020
:105220000100000000FFFF0000000001000000007E
:10523000101F1F100000000020E0E0200000000010
:105240000020E02000FFFF00000000000000FF0041
:1052500000070F1810101010100807002060E0E081
:105260002000000020E060200000077FF880008020
:105270007C03000000000000071F1C070000000066
:1052800020E0E02000E0E0200020E0200007FFF820
:10529000E01FFFFCE01F00000000031F0300011FD0
:1052A00003000000002060E0A0000020E06020007B
:1052B000000000038F7CF8C6010000000010181EDB
:1052C000130001171F1810002060E0E0200000000C
:1052D00020E06020000001073EF8E0180700000011
:1052E00000000010101F1F10100000000080602040
:1052F000202020A0E0E0200000000000C0F03E0FD1
:105300000300000000101C1F1710101010180600DA
:105310000000000000FC040404040400000000007D
:1053200000FF00000000000000000000007F40407F
:1053300040404000000010E00000000000000000BD
:1053400000000000031C608000000000000000005E
:10535000000000030C70800000000404040404FC3E
:105360000000000000000000000000FF000000003E
:10537000000040404040407F00000000000000105E
:10538000080C040C081000000000000000000000E1
:10539000000000000000000000000000000000000D
:1053A00000000000000000000000000000000000FD
:1053B00000000000000000008080808080808080ED
:1053C00080808080000000040408080000000000C5
:1053D00000000000000000000000000000000000CD
:1053E00000000000000000000000000000000000BD
:1053F00000000000000098D844642424FCF8000059
:10540000000F1F18101010081F1F10180020E0F0C8
:1054100000000000000000000000FFFF1808040466
:105420000CF8F00000001F0F18101010180F0300E8
:1054300000000000000000000000000000E0F8187C
:105440000404043C3800000000030F0C101010107E
:10545000080600000000000000000020E0F000004E
:1054600000E0F81C04040408FFFF000000030F180C
:10547000101010081F0F08000000000000000000BE
:10548000000000000000E0F8484444444C787000FC
:105490000000030F0C18101010080400000000009A
:1054A00080C0602020E0C00000040404FFFF04046A
:1054B00004040000000010101F1F10101000000056
:1054C000000000000000000000000000000070F874
:1054D0008C04048CF874040C007076CF8D8D8D894B
:1054E000C87870000020E0F000000000000000001C
:1054F0000000FFFF08040404FCF8000000101F1F58
:10550000100000101F1F100000000000006060006D
:10551000000000000000040404FCFC000000000087
:1055200000001010101F1F101010000000000000DD
:10553000000000606000000000000000040404FCA3
:10554000FC0000000000C0C08080C07F3F00000061
:105550000020E0F000000000000000000000FFFF5D
:1055600080C0F41C0404000000101F1F1100031F62
:105570001C1010000000202020E0F00000000000BF
:105580000000000000FFFF000000000000001010FD
:10559000101F1F101010000000000000000000008D
:1055A0000000000004FCFC0804FCFC0804FCFC00F7
:1055B000101F1F10001F1F10001F1F1000000000F1
:1055C00000000000000000000004FCFC08080404C7
:1055D000FCF8000000101F1F100000101F1F10001B
:1055E00000000000000000000000000000E0F018D3
:1055F0000C04040C18F0E00000030F0C1010101045
:105600000C0F03000000000000000000000000007C
:105610000004FCFC080404040CF8F0000080FFFF08
:10562000889010101C0F0300000000000000000014
:105630000000000000E0F81C04040408F8FC00006E
:1056400000030F1810109088FFFF8000000000007A
:105650000000000000000000040404FCFC1008042A
:10566000040C0C001010101F1F1010100000000080
:105670000000000000000000000000000000307882
:10568000CCC48484840C1C0000001E18101010115F
:10569000190F06000000000000C00000000000001C
:1056A00000040404FFFF04040400000000000000E4
:1056B0000F1F1010100C0000000000000000000080
:1056C000000000000004FCFE00000004FCFE0000DE
:1056D00000000F1F181010081F0F08000000000026
:1056E000000000000000000000040C3CFCC40000AE
:1056F000C43C0C0400000000010F1E0E010000005D
:10570000000000000000000000000000043CFCC499
:1057100000E47CFC84807C040000071F0700000775
:105720001F07000000000000000000000000000053
:105730000004041C7CE4C0341C0404000010101C91
:105740001601131F1C1810000000000000000000CC
:105750000000000000040C3CFCC400C43C04040035
:105760000000C080C1370E010000000000000000F2
:10577000000000000000000000001C0404C4F47CD1
:105780001C0400000000101C1F17111010180E0040
:1057900000000000000000F80C0400000000000001
:1057A000001028EF00000000000000000000003F93
:1057B00060400000000000000000FF00000000004A
:1057C000000000000000FF000000000000000000DA
:1057D0000000FF00000000000000040CF8000000C2
:1057E0000000000000000000EF2810000000000092
:1057F000000040603F0000000000000000180602AA
:105800000204081020203008000000000000000002
:105810000000000000000000000000000000000088
:105820004044545454D4745F54D4545454444000A9
:10583000042422121548847F08081512220404004B
:105840000040201E101010FF10101010100000005B
:1058500002020202020202FF02020202020202002D
:1058600000202020A06000FF608040201800000081
:10587000201008060140807F00010204081010007B
:10588000000000FE929292FE929292FE00000000B2
:1058900044442425140C04FF040C1425244444001F
:1058A00008042322262A22FA242322262A0202007E
:1058B000010909091969090949897D0909090100CD
:1058C000008060F8074020180F08C8080828180052
:1058D000010000FF00100C0340807F00010618004B
:1058E000020202020202FE020242820202020200DE
:1058F000000000000000FF000000000106000000A2
:105900000000F8494A4C48F8484C4A49F800000061
:1059100010101312121212FF121212121310100092
:10592000000000C080808080808080FC8480808037
:10593000808080C0C0000000000000FF7F40404029
:10594000404040FF40404040404040FF7F0000005A
:1059500000000000000000000000007F7000000058
:105960000000000000000000000000000000000037
:1059700000000000000000FCF80000000000000033
:10598000000000000000000000000000FFFE020216
:1059900002020202020202FFFF02020202020202ED
:1059A0000202FF0300000000000000001F1F0404AB
:1059B00004040404040404FFFF04040404040404B1
:1059C00004041F00000000000000000000000000B0
:1059D000000000000000007F3F0000000000000009
:1059E00000000000000000000000000000000000B7
:1059F00000000000000000000000000000000000A7
:105A00000000000000F8F8F0F07020000000000036
:105A10000000000000000000000000000000000086
:105A20000000000000000000000000000000000076
:105A300080000000000000000000000000000000E6
:105A40000000000000FFFFFFFF000000000000005A
:105A50000000000000000000000000008080000046
:105A60000000000000000000000000000000000036
:105A700000FFFFFE060606060606060606060606E2
:105A80000606060606FFFFFFFF06060606060606D2
:105A90000606060606060606060606FFFFFFFF07C1
:105AA00002000000000000000000000000000000F4
:105AB00000FFFFFF000000000000000000000000E9
:105AC0000000000000FFFFFFFF00000000000000DA
:105AD0000000000000000000000000FFFFFFFF00CA
