:020000040000FA
:1000000038130020C100000005230000FD18000087
:10001000FFFFFFFFFFFFFFFFFFFFFFFFFFFFFFFFF0
:10002000FFFFFFFFFFFFFFFFFFFFFFFF392E000075
:10003000FFFFFFFFFFFFFFFF192E00007D2F0000D5
:1000400003010000030100000301000003010000A0
:100050000301000003010000030100000301000090
:1000600003010000FFFFFFFF030100000301000088
:10007000030100000301000003010000FFFFFFFF78
:10008000FFFFFFFF03010000030100000301000068
:10009000030100000301000003010000053500001A
:1000A0004D350000B93400000301000003010000D9
:1000B0000301000003010000030100000301000030
:1000C0001048804710488047104800471048016991
:1000D000002910D1416900290DD1816900290AD177
:1000E000C169002907D1BFF34F8F0A490A48C86088
:1000F000BFF34F8FFEE77047FEE7FEE7FEE7FEE740
:10010000FEE7FEE7CD000000812F00001D0100008A
:100110000003084000ED00E00400FA0504488546AD
:1001200000F020FD00480047A5530000C046C0462F
:100130003813002030B50B46014600202022012450
:1001400009E00D46D5409D4205D31D469540491B0B
:100150002546954040191546521E002DF1DC30BD54
:1001600003460B439B0703D009E008C9121F08C0D0
:10017000042AFAD203E00B780370401C491C521E7B
:10018000F9D27047D2B201E00270401C491EFBD286
:1001900070470022F6E710B513460A460446194692
:1001A000FFF7F0FF204610BD30B505462A460B4646
:1001B00010781C78521C5B1C002801D0A042F7D09C
:1001C000002C03D0002802D06D1CEFE7284630BD7C
:1001D000CAB2401E4178401C8A4202D00029F9D19F
:1001E00000207047421C0178401C0029FBD1801A76
:1001F000704710B5044600E0401C0378002BFBD18B
:1002000000E0401C521E04D30B78491C0370002BE5
:10021000F7D100210170204610BD03460A78027014
:10022000401C491C002AF9D11846704770B50028B7
:1002300000D11068002514E00B4602E0A64203D06E
:100240005B1C1C78002CF9D1E3B22B4307D0002CA7
:1002500006D0002D04D000210170401C04E00546AA
:10026000401C0678002EE7D11060284670BD014A78
:10027000DCE700006009002070B5064603F09EFB35
:10028000046805460A220021304600F05DFB2C6020
:1002900070BDF8B502464A40D40F42004B005208E8
:1002A0005B089A4202D20246084611464A0023D011
:1002B000C30D4A00DDB2120EAD1A202D35DA490207
:1002C0000126490AF6058A19002C00D05242202145
:1002D0004F1B1146B9402A411018C20D9A4221D035
:1002E000002C17D0012D08DCDA05801AD20F8019F6
:1002F000D207DBB200F068FBF8BDDA05801A0123F3
:1003000040001B06C01880185A428018CA0F1043BC
:10031000490007E04908C2071143DA05801A80192D
:100320004008801800F048FBF8BD61000122511A16
:10033000001BF7E70122D2075140AAE70122D207AA
:100340005040A6E7F0B507460846584087B0C00FB2
:10035000049048000E46590040084908BC1A8841DC
:1003600005D2384631461E4617460B46024658000F
:10037000400810434DD0300D039040055900400D0A
:10038000490D0590401A0290402873DA18030121A4
:10039000000B09050843019004980092002806D03C
:1003A0001146019A49420020904100910190029823
:1003B00040210A1A0199009800F040FA05460C46BF
:1003C0006B4607CB00F05BFAC0197141039A0E0D22
:1003D0000023D71756401A467A40164344D0049A51
:1003E000002A2DD0029A012A039A15DC1205C01AA0
:1003F000914101263605001C7141D20F059ED2079E
:100400000093019202962A46234600F023FB07B090
:10041000F0BD38463146FAE71605234A0F46B218B2
:10042000C01AB74101210905001C4F4100187F4146
:10043000114618187941E20F10436D19644113E019
:10044000E2076D0815436408C2071443039A0126A6
:100450001205C01A91413605001C7141CE074008B3
:1004600030434908C01851412A46234600F0E5FAB6
:10047000CDE7FFE7049801224000C117121A0023BC
:100480008B4104983146C417381AA141EEE730B4C5
:100490000124E407634030BC54E730B40124E4078E
:1004A000614030BC4EE700000000E0FFF0B51FB433
:1004B00088B00B990998002448400999C00F490059
:1004C00049080991C0070B990090490049080B9110
:1004D00009990898A64608431CD00B990A98084326
:1004E00018D0099801244000420D4800410D099898
:1004F00024050003000B204309900B980003000B18
:1005000020430B9050181C494018002201901446BB
:10051000104605E0002001460DB0F0BD032801DAC9
:10052000034600E003239C46C11A0AAE0AE05F00BE
:1005300008ADED5B4F00F75B7D430027AA187C41B7
:10054000491C5B1E6145F2DD410004AB5A52210497
:10055000120C0A43240C401C0828DFDB019802908F
:100560000099704601910090059B049A079906989E
:1005700000F070FAD0E700000DFCFFFFF0B50C466C
:100580005C4085B0E40FE40703944C000026640847
:1005900059009446490802460296224321D06246F9
:1005A0000A431ED06200570D4A000E032303550D67
:1005B000012402462C492405781B1B0B360B4018DE
:1005C00023432643614600901C46501AB44103D38E
:1005D0000098401C009002E0921800985B410028AF
:1005E00003DA0020014605B0F0BD00200121090515
:1005F0000746864611E064461D46141BB54106D3E6
:100600006546521BB341744607430C43A646CD07CB
:1006100040084908284392185B4105460D43EAD13A
:100620001046184313D060461946504071400843A5
:1006300006D06046101AB34106D20122002306E01C
:1006400000220123DB0702E00122D243531000986D
:1006500074460105381C6141029C039D00196941E3
:1006600000F0EBF9BFE70000FD0300000EB5C21774
:10067000C10F5040CA0740180021054B0293019258
:1006800000910A460B4600F0E5F903B000BD0000FA
:100690003304000070B5CD0F4A0009030123090B94
:1006A0001B0519430B4BED070024520D9A4201DA4A
:1006B000002070BD074B34339A4203DC9A1A00F0D5
:1006C000CDF802E00449511888402C43F1D0404253
:1006D00070BD0000FF030000CDFBFFFF4A000903CF
:1006E0000123090B1B051943094B10B5520D9A4202
:1006F00001DA002010BD064B34339A4203DC9A1A0B
:1007000000F0ACF810BD03495118884010BD00003E
:10071000FF030000CDFBFFFFC20FD20740004008DF
:100720000BD0C10D0723DB01C91840020905400A9F
:100730001143C2084007114370470020014670472B
:1007400010B5002904DB0124E40740428C41214616
:10075000002B04DB1C460123DB075242A3418B42E2
:1007600000D1824210BD000010B5002904DB012435
:10077000E40740428C412146002B04DB1C46012348
:10078000DB075242A341994200D1904210BD0000C4
:10079000CB0FDB07490010B5490802460A4307D0D2
:1007A0000A0D07240903E401090B121B002A01DCCE
:1007B000002010BDC900440F0C43C100E018D20551
:1007C000801800F0F9F810BD0122D207002800DBE4
:1007D000101A002900DB511A81427047F0B51FB48E
:1007E0000646002082B005464024019100901BE09F
:1007F000019922460F46304600F030F8049A059BD6
:10080000801A994110D310461946224600F016F876
:10081000361A8F410197224601200021009F00F0E7
:100820000DF838184D4100902046641E0028DFDC8A
:10083000019B00982946324607B0F0BD10B5202A2A
:1008400004DB0146203A9140002010BD9140202356
:100850009C1A0346E3401943904010BD10B5202A6E
:1008600004DB0846203AD040002110BD0B46D3409F
:10087000D0402024A21A91400843194610BD10B55B
:10088000202A06DBCB170846203A1041C1170B433C
:1008900006E00B461341D0402024A21A91400843A1
:1008A000194610BD0FB400B589B00CA900910B9981
:1008B0000023CB60204B214A069307920422019229
:1008C0001F4A02921F4A089202466B46002000F01F
:1008D000F8F909B008BC04B0184770B586B00646F0
:1008E0000020C0430190002015460C460091029163
:1008F00004903246694604A8FFF7D4FF02460498E4
:100900002118002D05D0002801D0084600E020461F
:100910002860049800280DD0002A02DD0098884243
:1009200008D0081B0190009432466946029404A83E
:10093000FFF7B8FF06B070BD190F0000390F0000B7
:10094000FFFFFF7F910B0000F7B5009C0F460026CC
:100950002578641C002D05D000F016F90068405D74
:10096000C007F5D12B2D02D02D2D18D0641E39468D
:100970002046029A00F0F2FA002F04D03968A14212
:1009800001D1009939607105022400290BDA404237
:10099000002803DD03F012F80460A007FEBD01206B
:1009A00080020643E3E70028F8DA03F007F8046062
:1009B0000048FEBDFFFFFF7F002904DA401C49000C
:1009C00001D140084000704770B40024050C05D1E7
:1009D0001024000402D1002921D01124050E01D1D8
:1009E00000020834050F01D10001241D850F01D13B
:1009F0008000A41C002801DB4000641C002908D0F2
:100A000020252E1B0D46F540A14000D00121294391
:100A1000084301061B1B000ADB1D02D5002070BC29
:100A20007047DB05181880180029F8DA401C4900C7
:100A3000F5D170BC40084000704710B5002B08DAB3
:100A40000024401C614192185B411A4301D14008C7
:100A5000400010BDF0B51FB482B005460C0003D0B5
:100A6000084602F057FF02E002F054FF2030024631
:100A7000009021462846FFF7E1FE049B059A0446B4
:100A80000F4618431143084314D0184610431BD097
:100A9000009840210A1A18460599FFF7DFFE05461F
:100AA0000E46009A05990498FFF7C8FE084305D042
:100AB000012004E02046394607B0F0BD0020C117F0
:100AC00005430E432C43374300990E986305401AA3
:100AD0007905E40A00220C43FD0A0A3002D5002001
:100AE0000146E9E70105101969410C9C0D9D0019AB
:100AF0006941FFF7A2FFDFE770B54B005B080343D6
:100B00000BD04B005C0D002633466542B341D41731
:100B1000AD1AA34102DB0020014670BD120530185A
:100B2000514170BD4A0009030123090B1B051943FC
:100B30000A4B10B5520D9A4202DA0020014610BD50
:100B4000064B34339A4203DC9A1AFFF787FE10BD36
:100B5000034BD218FFF772FE10BD0000FF03000028
:100B6000CDFBFFFF064C0125064E05E0E36807CCF0
:100B70002B430C3C98471034B442F7D3FFF7D2FA1A
:100B8000749E0000949E0000004870475C9E000028
:100B900010B50446FFF7F8FF0068005DC007C00FFE
:100BA00010BD0000FFB5087889B01546FF2805D0B4
:100BB000491C2D2804D00022002407E000240BE06B
:100BC0000122F9E70A235C430419491C0878FF282D
:100BD000F8D1002A00D06442002004902A7801460F
:100BE0002D2A01D02B2A0FD16D1C2D2A02D00022D4
:100BF000049209E00122FBE700260A2233466D1C1D
:100C000000F05EFA381871412F78FF2FF4D10C9A5A
:100C1000A218069202460A4304D0FF23069A913393
:100C2000DA4205DA002109980A4606C00DB0F0BD87
:100C30000024B74AB54D2646079200F08DFA02907F
:100C400006980391002801DA474200E0074639057B
:100C50000020AF4A001C51410191009012E0F807BA
:100C600007D022462B4630460799FFF71FFC064661
:100C7000079122462B4610461946FFF717FC0446FB
:100C80000D467F10002FEAD10698019B0028009A9C
:100C90000399029806DAFFF771FC3246079BFFF7CB
:100CA0006DFC05E0FFF702FC3246079BFFF7FEFBF9
:100CB000049A002A02D00122D2075140099A03C2A5
:100CC000B4E7FFB591B0002009900025ED432E2038
:100CD0009E685C681F460190B9696D1C1298884730
:100CE0000090396A88470028F6D10098401C0AD045
:100CF0000D20C0018443002E12DD00982B2809D05E
:100D00002D280DD103E00020C04315B0F0BD012017
:100D100080020443B9696D1C12988847761E0090C2
:100D200003A9600501D52D2000E02B206A46107331
:100D3000491C0CA80F9102900AE0B9696D1C129829
:100D4000884700900120400204431398761E0560F6
:100D5000002E02DD00983028EFD0019900988842DB
:100D600046D18020044308E00998401E09900120E4
:100D7000400204431399681C0860B9696D1C761E13
:100D80001298884700903028EED031E001998842CF
:100D900005D1200603D480200443761E1EE000986F
:100DA00003F02AFA002826D001204002044307A9B4
:100DB0000F980331761E88420BD200980F99303875
:100DC00008700F98401C0F90200607D50998401E08
:100DD00003E0200602D40998401C0990A00502D522
:100DE0001399681C0860B9696D1C129888470090B7
:100DF000002ECBDC59E0002E57DD0098652801D08D
:100E0000452852D1A00550D5032000028443B9697A
:100E10006D1C761E129888470090002E0CDD2B2842
:100E200004D02D2808D1FF2001300443B9696D1C7E
:100E300012988847761E0090E00501D52D2100E02C
:100E40002B21029801700298401C0290019025E02D
:100E50000120400204430EA902980131761E884207
:100E60000ED20098029930380006000E087003D1A7
:100E70000299019881420AD90298401C029006E02A
:100E8000E00501D5234801E0224840420990B969B4
:100E90006D1C12988847009013980560002E04DDA1
:100EA000009803F0A9F90028D2D1F969129888476F
:100EB0000F99FF200870029903AA087000200A9079
:100EC0000B900CA90AA8099BFFF76CFEA00502D4A1
:100ED0000120C04319E72420044209D0E00713D1C0
:100EE00038680B9A0A99031D3B60006806C00BE046
:100EF0000B990A98FFF74CFC0146E00704D13868CB
:100F0000021D3A60006801602846FEE600001440B9
:100F10000000F03FF1D8FFFF4268002A08D00168C6
:100F20000B78491C002B03D0521E06C01846704790
:100F30000121C160881E70474268002A0BD0C36837
:100F40000168002B07D183688B4204D0491E521CD4
:100F500006C0002070470020C0437047F7B582B03C
:100F6000029C00272078641C15460197302802D087
:100F7000002D15D015E020780127641C782804D0B6
:100F8000582802D0002D09D00BE0002D01D0102DE3
:100F900007D1002710252078641C02E0082500E016
:100FA0000A250026009610E00099012769430818D9
:100FB000020C294680B2714300908E183804864294
:100FC00001D3012001902078641C294600F0B5F877
:100FD0000028E9DA0398002805D0002F01D0641E0C
:100FE00000E0029C04600198002806D002F0E6FCB4
:100FF00002210160C81E05B0F0BD0099300408430D
:10100000F9E7FEB500231A461B1A8A4103DB0020CC
:10101000014603B0F0BD4A000D0301212D0B090567
:10102000520D0D43D10702D100186D41521E5110CF
:10103000FF31FF310131002704463E463846009714
:1010400001910246012100200905FFF707FCC319A1
:101050007141F818324684468E464A416146284618
:10106000611A904104D36046241A954176461F4682
:10107000241900986D41401C00903428E1DDF919D5
:1010800030467041091BA84103D20022D2431346C7
:1010900001E00022134601980105381C7141FFF759
:1010A000CCFCB6E70EB505490291002100910A4635
:1010B0000B460191FFF7CEFC03B000BD33040000E6
:1010C000F0B51FB486B00020009001900290069801
:1010D000069980B204900798090C02040014114389
:1010E00007900027089D099806913E463C460390CC
:1010F0000398A9B20204000C039004982D0C154328
:10110000484300212246FFF799FBC719714110346B
:101110000E46402CECDB3846029AFFF78FFB009A14
:10112000019B801800905941029801911030029063
:101130004028CCDB00980BB0F0BD3A2800D2303804
:10114000202302469A43412A01D310463738884269
:1011500001D30020C04370470EB5054A0292002219
:10116000009213460192FFF775FC03B000BD00002A
:101170003304000070B58D180478401CA207920F4C
:1011800001D10278401C231106D10378401C03E0F2
:1011900006780E70401C491C521EF9D1002B15D048
:1011A00002780C268A1A3440401C0C2C03D0A4016F
:1011B000121B9B1C08E004782402121B401CF8E759
:1011C00014780C70491C521C5B1EF9D5A942D3D36C
:1011D000002070BDF7B50B46009DED00154EAA1915
:1011E000002000240027002120E000240027FF2504
:1011F0008D401D40002D17D000200FE01D46C5403A
:1012000001268E403540002D07D086000F25B540C1
:101210002C438600029DB5402F43401C0828EDD387
:101220001568A5433D431560121D08310829DCDD12
:10123000FEBD00002020024070B504461F48406BF0
:101240004607760F00F03EF82060330002F092FB74
:10125000081605080B16160E12162068606010E0BE
:10126000174860600DE0164860600AE00120C00386
:10127000606006E07D200002606002E000206060A7
:1012800000BF00BF0D48056A052D02D36068400904
:1012900001E06068E840A0600848806A072109040E
:1012A0000840050C072D04D10321A068FEF742FF7A
:1012B00001E0A068E840E06070BD000000800840E8
:1012C00000127A00F0B517480068FF270137384050
:1012D000040A1448C069C50F124840687F003840AE
:1012E000460A002E01D10020F0BD002C01D10E488D
:1012F00000E00D480346012D01D11846F4E70948E6
:1013000080690F27FF053840C10D002900D1102149
:101310000448806903277F053840420D184648433A
:10132000D040E1E70080084000127A007FB5044613
:10133000601180000A49461800252E2C00D1022594
:10134000E406E40E0321A14030680840E04045195E
:101350006846FFF771FF0298E84004B070BD0000D6
:10136000388008403FB50E4C606AE16A226B044643
:10137000009DAC4320460C46019DAC4321461446DB
:10138000029DAC432246002B05D0009C2043019CCB
:101390002143029C2243024C6062E16222633FBD12
:1013A0000080084008B502F0FBF800F059FB03216B
:1013B0008903574800F09FFA01F02AF8002000F056
:1013C000C5FF002000F0D1FF0120102351A2002111
:1013D0000090084601F050FA01F0B0F87D20C000FE
:1013E00003F06CFF00F032F9012008234CA2112118
:1013F0000090002001F040FA01F0A0F800BF01F0D9
:101400009FFA0028FBD17D20000103F057FF00BFA9
:1014100001F056FD0028FBD17D20C00003F04EFFF7
:101420000120082343A21A210090002001F024FA91
:1014300001F084F801F012FF0120082342A22321C9
:101440000090002001F018FA01F078F87D20C0002B
:1014500003F034FF04F03AFE06F0C4FB0120082339
:101460003DA22C210090002001F006FA01F066F860
:101470007D20C00003F022FF012008233BA235217C
:101480000090002001F0F8F901F058F87D20C0002C
:1014900003F014FF0120082339A235210090002019
:1014A00001F0EAF901F04AF87D20C00003F006FFE0
:1014B0000120082337A235210090002001F0DCF93B
:1014C00001F03CF87D20C00003F0F8FE00F026FF9C
:1014D0000120082334A210210090002001F0CCF953
:1014E0000120082335A220210090002001F0C4F93A
:1014F0000120082333A22E210090002001F0BCF926
:1015000001F01CF87D20000103F0D8FE08BD0000AA
:1015100000400B40496E697469616C2E2E2E0000EC
:101520005769466920436F6E6E65637420646F6E01
:10153000652E00004F6E656E65742053657276658A
:101540007220646F6E652E00414756204361722001
:10155000646F6E652E0000004D616368696E6541C1
:10156000726D20646F6E652E00000000496E697414
:1015700069616C20646F6E6521205379733A330082
:10158000496E697469616C20646F6E6521205379BE
:10159000733A3200496E697469616C20646F6E65DC
:1015A00021205379733A310057656C636F6D652064
:1015B000746F205461694F780000000053746174A7
:1015C000653A000057616974696E6720666F722022
:1015D0004F726465722E000010B5FF21013103487F
:1015E000FEF7D7FD00200249088010BD380E00200C
:1015F0005809002070B50546002400BF00F016F918
:10160000002812D10EA11048FEF7CEFD0446002C92
:101610000BD03A212046FEF7DBFD0446002C02D019
:10162000641C204670BD0020FCE7052003F046FE48
:101630002846691E8DB20028E0D100BFF2E7000005
:101640004950442C00000000380E002010B5FFF770
:10165000C3FF20A1214802F0C6F803E0FF20F530C7
:1016600003F02CFE1EA11FA000F094F80028F5D175
:101670001EA11A4802F0B7F803E0FF20F53003F08E
:101680001DFE17A11CA000F085F80028F5D11EA1B1
:10169000124802F0A8F803E0FF20F53003F00EFE38
:1016A0001CA11EA000F076F80028F5D122A10B485D
:1016B00002F099F803E0FF20F53003F0FFFD22A1CE
:1016C00023A000F067F80028F5D12CA1034802F010
:1016D0008AF810BD312E2041540D0A00000004404C
:1016E0004F4B000041540D0A00000000322E2043F1
:1016F000574D4F44450D0A0041542B43574D4F441D
:10170000453D330D0A000000332E2043574A415017
:101710000D0A0000474F54204950000041542B430C
:10172000574A41503D227474222C223232363638C8
:10173000383838220D0A0000342E204349505354C3
:101740004152540D0A000000434F4E4E4543540091
:1017500041542B43495053544152543D2254435019
:10176000222C223138332E3233302E34302E33397E
:10177000222C363030320D0A00000000352E204574
:1017800053503832363620496E6974204F4B0D0A5B
:1017900000000000F8B504460D467D26F600204600
:1017A000FEF720FD87B23A462146F00602F04FF8D8
:1017B00010E000F03BF8002809D129460848FEF760
:1017C000F3FC002803D0FFF707FF0020F8BD0A2034
:1017D00003F074FD3046761E0028EAD10120F5E7BB
:1017E000380E002030B589B004460D46FFF7F4FEF0
:1017F0002A4609A101A802F061F80BA101A8FFF790
:10180000C9FF002805D12A4621460120800702F0A1
:101810001EF809B030BD000041542B4349505345D8
:101820004E443D25640D0A003E0000000A48008831
:10183000002801D10120704707480088074909881E
:10184000884203D1002004490880F4E70248008858
:10185000024908800120EEE7580900205A090020BB
:1018600081627047002A03D003680B43036002E0E3
:1018700003688B4303607047F0B5174600240025CA
:1018800000220CE0CE07F60F002E06D053003E4695
:101890009E40344303269E4035434910521C102A73
:1018A000F0D34669AE434661466926434661F0BDC2
:1018B000002A03D043680B43436002E043688B4334
:1018C00043607047002A06D183680B438360C36876
:1018D0008B43C3600EE0012A06D1C3680B43C3608B
:1018E00083688B43836005E083688B438360C368B0
:1018F0008B43C360704741627047000000BF0248DD
:1019000000680028FBD070470808002010B514219B
:101910000348FEF73EFC00200249088010BD00008D
:10192000A409002054090020F0B591B0074639A061
:101930000068089038490AA8FEF76FFC00BF09AAA2
:1019400008A90AA8FEF772FC0446002C58D02046CD
:1019500003F052FC0022314B03910290FEF79DFDF3
:10196000054600222E4BFEF709FE00222D4B059165
:101970000490FEF79BFD07910690FEF709FF0E907D
:1019800009AA08A90020FEF751FC0446002C31D01A
:10199000204603F031FC05460022204BFEF77DFD7A
:1019A00000221F4B01910090FEF7E8FD00221E4B24
:1019B00003910290FEF77AFD00221C4B05910490E2
:1019C000FEF7C0FC07910690FEF7E2FE0D90FFF7D0
:1019D0009DFF0E98FEF7A0FE05460E460D98FEF7F9
:1019E0009BFE02460B46019600950791069010A0BB
:1019F00001F054FF032080070F900DA811B0F0BD37
:101A0000052003F05BFC3846791E8FB2002896D182
:101A100000BFF3E72C000000A40900200000644090
:101A20000000444000000440000008400000354031
:101A3000783A20252E32662C20793A20252E3266DF
:101A40000D0A000070B504462046FEF7CBFB85B2B8
:101A50002A462146014801F0FAFE70BD0010004000
:101A60003EB5002000900190029001218903019869
:101A7000884340180190090100988843401800905D
:101A80000123684607C8FFF76DFC0D4C00220321B7
:101A900089030220FFF79EFB0122032189032046D0
:101AA000FFF7E0FE0222032189032046FFF70AFF29
:101AB0000122032189032046FFF7DEFE3EBD000020
:101AC00000400B40002904D0026F10231A43026724
:101AD00003E0026F10239A430267704700B58BB092
:101AE0000020009001900290012189030198884311
:101AF00040180190029840084000401C02900123C9
:101B0000684607C8FFF72EFC042202210320FFF7D6
:101B100061FB042208210320FFF75CFB1D49684696
:101B200081830021C18308A8017000200990FF2152
:101B300001316846018507A9174801F063FB0621BA
:101B40006846C18101210174002141748174C1740E
:101B50000175012141750021018302210173FF21DB
:101B60002D31C18203A90C4801F0DCFA032168463B
:101B70000173FF212D31C18203A9074801F0D2FA78
:101B800001210548FFF79EFF0121034801F0BDFA3E
:101B90000BB000BD5702000000C0024010B5044663
:101BA000207B012802D1206803F0D2FB00202060B6
:101BB0006060A060207310BD10B5024600230123B1
:101BC0000EE05006400E0870D209002A05D00878B1
:101BD000802420430870491C01E0184610BD5B1C9E
:101BE000042BEEDD0020C043F8E770B504460E4636
:101BF00000252068002814D101202073304603F00E
:101C000031FD2060206800281CD000206060A660A4
:101C100003E00020216848556D1CA068A842F8D850
:101C200010E00220207303E00020216848556D1C5D
:101C3000A068A842F8D800206060A068B04201D235
:101C40000020206070BD0000FFB583B0119C00250E
:101C5000002002900F2701900598FEF7C3FA00B20A
:101C600000900598002802D1012007B0F0BD00982F
:101C7000801C381887B20C98002801D00220054338
:101C80000E9800280FD0042005430E98FEF7AAFAFC
:101C9000C0B202900F98FEF7A5FA01460298001D07
:101CA0000818C01987B20D98002804D0012804D064
:101CB000022808D104E000BF07E00C20054304E03F
:101CC0001420054301E00220CFE700BF1098002850
:101CD00001D0242005430398002802D0049800284E
:101CE00001D10320C1E7C02005430398FEF77AFA2B
:101CF00006460498FEF776FA3018001DC01987B220
:101D000039462046FFF771FF2068002805D183A1DE
:101D1000864801F08DFD0420A7E739462068FEF7CC
:101D200038FA10216268501C606020688154636832
:101D30002268D118781FFFF73FFF00B20190019889
:101D4000002804DA2046FFF729FF05208DE76168A7
:101D500001980818606000216268501C606020686B
:101D6000815404216268501C6060206881544D21B8
:101D70006268501C60602068815451216268501C68
:101D800060602068815454216268501C6060206843
:101D900081546268501C606020688154042162682C
:101DA000501C6060206881546168481C6060206835
:101DB0004554FF2109020698084001126268501C30
:101DC0006060206881540698C1B26268501C6060EF
:101DD00020688154FF2109020098084001126268BE
:101DE000501C6060206881540098C1B26268501C29
:101DF000606020688154626821688818009A05999B
:101E0000FEF7F7F961680098081860600420284020
:101E100000283ED000260F98002801D142A00F9044
:101E20000E98FEF7DFF986B2FF2000023040011263
:101E30006268501C6060206881546268501C606059
:101E40002068865462682168881832460E99FEF729
:101E5000D0F96068801960600F98FEF7C3F986B208
:101E6000FF200002304001126268501C6060206850
:101E700081546268501C60602068865462682168E2
:101E8000881832460F99FEF7B4F9606880196060CF
:101E900000BF8020284000281CD00398FEF7A2F93C
:101EA00086B2FF200002304001126268501C606060
:101EB000206881546268501C6060206886546268A3
:101EC0002168881832460399FEF793F960688019F3
:101ED000606000BF4020284000281CD00498FEF716
:101EE00081F986B2FF200002304001126268501C66
:101EF0006060206881546268501C6060206886546D
:101F000062682168881832460499FEF772F96068A1
:101F10008019606000BF0020A7E60000B7D6C5E4C6
:101F2000C4DAB4E6CAA7B0DC000000000000044038
:101F3000FFB583B017460C9C00260020029001904C
:101F400000250398002802D1012007B0F0BD0CE065
:101F5000A8003858002801D10220F6E7A9007858D7
:101F6000FEF740F98619681CC5B206988542EFDB7A
:101F7000069841004018801C811902910299491D60
:101F80002046FFF732FE2068002801D10320DCE75D
:101F900082216268501C60602068815462682068F9
:101FA00081180298FFF708FE00B2019001980028FE
:101FB00004DA2046FFF7F2FD0420C6E761680198C5
:101FC00008186060FF210902039808400112626846
:101FD000501C6060206881540398C1B26268501C34
:101FE000606020688154002527E0A9007858FEF73A
:101FF000F9F80646FF2000023040010A6268501CD2
:102000006060206881546268501C6060206886545B
:10201000626820688318A800395832461846FEF7CF
:10202000E8F86068801960600498C1B26268501C6A
:10203000606020688154681CC5B206988542D4DB74
:10204000002082E7F0B504460D4626460123002015
:102050001060002116E0775C7F067F0E5F431068FA
:10206000C0191060705C80273840002801D1481CDE
:10207000F0BDDB0101204005834202D30120C043B3
:10208000F6E7491CA942E6DB0020C043F0E7014621
:102090004878022801D0012070478878002802D0B3
:1020A0008878012801D1C878F6E7FF20F4E700001E
:1020B000FFB585B00D4614461E460598007800070A
:1020C000000F04900020039008210498084002901B
:1020D00006210498084041100F98017003AA0421BA
:1020E0000598401CFFF7AEFF05994018471C039860
:1020F000022804D30498C007C00F002802D0FF2094
:1021000009B0F0BD38780002797808432080208833
:10211000801C0399884201D9FF20F1E759A1B81C1E
:10212000FEF742F8002801D00F20E9E70F98007869
:10213000002804D0012840D002287DD13EE002983A
:10214000002801D0FF20DBE72188481C03F08AFA31
:1021500028602868002801D1FF20D1E72288511C7F
:102160002868FEF716F82288B91C2868FDF7F8FFE2
:102170000398801E2188401A81B20E9801800E9922
:102180000988481C03F06EFA30603068002804D1DA
:10219000286803F0DDF8FF20B2E70E9A1288511C80
:1021A0003068FDF7F6FF0E9802882088BB1CC11826
:1021B00030680190FDF7D4FF53E000BF2088801CF9
:1021C0000399884201D9FF209AE72088801C385C57
:1021D00001022088C01C385C0143109801801098CF
:1021E000002801D1FF208BE72188481C03F03AFA30
:1021F00028602868002801D1FF2081E72288511C2F
:102200002868FDF7C6FF2288B91C2868FDF7A8FFDB
:102210000398001F2188401A81B20E9801800E9900
:102220000988481C03F01EFA30603068002806D187
:10223000286803F08DF800E011E0FF2060E70E9AB7
:102240001288511C3068FDF7A4FF0E980288208880
:102250003B1DC11830680190FDF782FF01E0FF20AF
:102260004EE700BF2B212846FDF7B2FF002805D11D
:1022700023212846FDF7ACFF002801D0FF203FE7CF
:1022800000203DE72463726571000000F8B5044644
:10229000FF2720780511012D01DB0E2D01DD3846C9
:1022A000F8BD032D26D1002000906A460421601C51
:1022B000FFF7C8FE0019461C0098022804D32078B6
:1022C000C007C00F002801D0FF20E9E730780002E6
:1022D00071780843801C0099884201D9FF20DFE70C
:1022E00006A1B01CFDF760FF002801D00F2700E019
:1022F000032700E02F463846D2E7000024637265CA
:102300007100000070470000C206D20E012191400A
:10231000014A11607047000000E100E070B5002440
:102320000CE0002506E00020E900074A891808555E
:10233000681CC5B2802DF6DB601CC4B2082CF0DB33
:1023400000F0FCF870BD0000B809002010B504468C
:10235000002C03D10021A62000F0B0FA012C03D1FB
:102360000021A72000F0AAFA10BD10B50446002CE9
:1023700007D10021C82000F0A1FA0021A12000F01F
:102380009DFA012C07D10021C02000F097FA00210E
:10239000A02000F093FA10BDF8B514460B46CE17F6
:1023A000760FF6187605320ECE17760FF618F61061
:1023B000F6008E1BF6B200960126009B9E40F5B2F9
:1023C000002C09D0C300114E9B199B5C2B43C60007
:1023D0000E4FF619B35418E0C3000C4E9B199B5CCA
:1023E000DB43C600094FF619B354C3003E469B19A0
:1023F0009B5C2B43C600F619B354C3003E469B19A1
:102400009B5CDB43C600F619B354F8BDB809002045
:102410000EB50121490400988843401800904900F6
:1024200000988843401800900123684607C8FEF7CB
:1024300099FF012210213E48FFF714FA01223D497D
:102440003D48FFF70FFA10213948FFF754FA394990
:102450003948FFF750FA012189033748FFF700FA9E
:10246000C82002F02BFF012189033348FFF743FA0C
:102470000021FD2000F022FA0021122000F01EFAB7
:102480000021AE2000F01AFA0021D52000F016FA43
:102490000021A02000F012FA0021A82000F00EFA7E
:1024A00000213F2000F00AFA0021D32000F006FAB4
:1024B0000021084600F002FA0021402000F0FEF959
:1024C0000021A12000F0FAF90021C82000F0F6F95F
:1024D0000021DA2000F0F2F90021122000F0EEF9DC
:1024E0000021812000F0EAF900217F2000F0E6F9C8
:1024F0000021D92000F0E2F90021822000F0DEF96D
:102500000021DB2000F0DAF90021342000F0D6F9B8
:102510000021A42000F0D2F90021A62000F0CEF97D
:10252000FFF7FCFE0021AF2000F0C8F90EBD00004F
:1025300000200B4020C1000000400B4070B500247B
:102540001CE02146B031C8B2002100F0B7F90021EB
:10255000084600F0B3F90021102000F0AFF9002583
:1025600008E0E900074A8918085D012100F0A6F992
:10257000681CC5B2802DF4DB601CC4B2082CE0DB03
:1025800070BD0000B8090020F7B582B00026002712
:1025900055E0002F09D104981023324618210090ED
:1025A000802000F0E5F8701CC6B20298864223D164
:1025B000002001901AE0012410E000250AE0E0006C
:1025C0001F494018415D601EC0001D4A80184155DA
:1025D000681CC5B2082DF2DB601CC4B2902CECDB89
:1025E000FFF7ACFF0198401CC0B2019003980101B5
:1025F00001988142DFDC0026781CC7B2102F00D181
:102600000027012410E000250AE0E0000C494018F2
:10261000415D601EC0000A4A80184155681CC5B261
:10262000082DF2DB601CC4B2902CECDBFFF786FFB8
:1026300004480088002802D0012005B0F0BDA8E7BA
:10264000B809002058090020FFB585B01C46059840
:10265000029006980190082C02D10620039017E002
:102660002046E217520F1218D210E3175B0F1B1807
:10267000DB10DB000094E31A01D0012300E000230B
:10268000D2182146E30F5B185B105A43D2B2039273
:1026900007982038C7B200255CE0082C05D1062039
:1026A00078432F494018465D18E00C2C05D10C20CA
:1026B00078432C494018465D10E0102C04D13801B5
:1026C00029494018465D09E0182C05D1242078439B
:1026D00026494018465D01E009B0F0BD0020049095
:1026E0001DE0F007C00F002805D00E9A0699059846
:1026F000FFF752FE0AE00E98002801D1012000E009
:102700000020024606990598FFF746FE76100698C7
:10271000401CC0B206900498401CC0B204900498BB
:102720000828DEDB0598401CC0B20590082C0DD0AF
:10273000E10F09194B10029A0599891A8B4205D1AC
:102740000298059001980830C0B201900198069057
:10275000681CC5B2039885429FDB00BFBCE7000040
:102760003C7D0000647F0000D8830000C889000021
:10277000FFB585B0074616461C460297069801909D
:102780002046E217520F1218D2102146E3175B0FB2
:102790005B18DB10DB00E31A01D0012300E000230B
:1027A000D218624392B20092002558E0102C05D155
:1027B00070012D494018405D03901AE0182C06D195
:1027C0004820704329494018405D039011E0202CB7
:1027D00005D1F00126494018405D039009E0402CE6
:1027E00005D1700223494018405D039001E009B013
:1027F000F0BD0020049020E00398C007C00F00281F
:1028000005D038460E9A0699FFF7C6FD0AE00E98E5
:10281000002801D1012000E0002002463846069938
:10282000FFF7BAFD0398401003900698401CC0B211
:1028300006900498401CC0B2049004980828DBDB82
:10284000781CC7B20298381AA04204D1029F01989E
:102850000830C0B2019001980690681C85B20098BB
:102860008542A3DB00BFC2E7249700002498000044
:102870006C980000EC980000FFB581B00646144645
:102880001D460A9F12E0009722782B463046029997
:10289000FFF7DAFE082D02D1B01DC6B205E02846CA
:1028A000E90F091849108919CEB2641C2078202834
:1028B00002DB20787E28E6DD05B0F0BD70B5044669
:1028C0000E46002E05D00121C9031B48FFF713F85F
:1028D00004E00121C9031848FEF7C2FF1021174880
:1028E000FEF7BEFF00251AE020211348FEF7B8FFCF
:1028F00080202040002805D0FF2101310E48FEF73E
:10290000FAFF04E0FF2101310B48FEF7A9FF202167
:102910000948FEF7F0FF6006040E681CC5B2082DDA
:10292000E2DB10210548FEF7E6FF0121C90302485A
:10293000FEF7E1FF70BD000000400B4000200B409F
:1029400030B58BB000200790089009900A900125BF
:102950002BA32EA230A132A000F0A0FF07A80021D7
:1029600002910391049100912B0225A201910590FF
:1029700026A129A0FFF768F900283BD1089A91B257
:102980000798FEF72FFFFA20FEF734FE0446002CCE
:102990002CD02046FFF77AFC022827D12046FFF7EB
:1029A00076FB030000F0E6FF0604090D1115191D62
:1029B00027A000F073FF002517E02AA000F06EFFAB
:1029C00013E02FA000F06AFF0FE036A000F066FFD2
:1029D0000BE03CA000F062FF07E043A000F05EFFC8
:1029E00003E04CA000F05AFF00BF00BF07A8FFF7AC
:1029F000D5F802E04EA000F051FF28460BB030BDE4
:102A000031303732303831333538000031323334F9
:102A10003536373800000000353932343839000097
:102A20004F6E654E65745F4465764C696E6B0D0A3A
:102A300050524F49443A2025732C09415549463A92
:102A40002025732C0944455649443A25730D0A0044
:102A5000546970733A09C1ACBDD3B3C9B9A60D0AA4
:102A6000000000005741524E3A09C1ACBDD3CAA77D
:102A7000B0DCA3BAD0ADD2E9B4EDCEF30D0A0000BC
:102A80005741524E3A09C1ACBDD3CAA7B0DCA3BA74
:102A9000B7C7B7A8B5C4636C69656E7469640D0A7D
:102AA000000000005741524E3A09C1ACBDD3CAA73D
:102AB000B0DCA3BAB7FECEF1C6F7CAA7B0DC0D0AE8
:102AC000000000005741524E3A09C1ACBDD3CAA71D
:102AD000B0DCA3BAD3C3BBA7C3FBBBF2C3DCC2EB5E
:102AE000B4EDCEF30D0A00005741524E3A09C1AC85
:102AF000BDD3CAA7B0DCA3BAB7C7B7A8C1B4BDD30A
:102B000028B1C8C8E7746F6B656EB7C7B7A8290D41
:102B10000A0000004552523A09C1ACBDD3CAA7B061
:102B2000DCA3BACEB4D6AAB4EDCEF30D0A000000F1
:102B30005741524E3A094D5154545F5061636B6591
:102B400074436F6E6E656374204661696C65640DD5
:102B50000A000000E0B5B4B00025FA20FEF74AFDF7
:102B6000054643A000680D9000200B900A9041A0FC
:102B7000006809900020079005903FA0006804902D
:102B8000002D72D00EA80FA910AA11AB00920191CE
:102B9000029012AA13A92846FFF78AFA0746002FC7
:102BA0005BD104212846FDF7F4FA002514A81199F9
:102BB000FDF733FB0BAA0DA914A8FDF737FB0C900A
:102BC0000AAA04A90C98FDF731FB0AAA04A900205F
:102BD000FDF72CFB064626600BAA0DA90020FDF789
:102BE00025FB0C9007AA09A90C98FDF71FFB07AA63
:102BF00009A90020FDF71AFB089005AA04A9089866
:102C0000FDF714FB05AA04A90020FDF70FFB0690B1
:102C10000698FDF731FB20710BAA0DA90020FDF7E6
:102C200005FB0C9007AA09A90C98FDF7FFFA07AA63
:102C300009A90020FDF7FAFA089005AA04A9089846
:102C4000FDF7F4FA05AA04A90020FDF7EFFA0690B3
:102C50000698FDF711FB607104E0002F02D007A079
:102C600000F01CFEFEF7B8FC00BF204634B0E0BD0B
:102C70003B0000002C0000003A000000BDE2B0FC68
:102C8000CAA7B0DC0D0A00001FB500200190029019
:102C90000390FF21013103988843401803904900B5
:102CA00003988843401803904901029888434018CC
:102CB0000290012301A807C8FEF754FB042201215A
:102CC0000020FEF787FA042202210020FEF782FA94
:102CD000042211460020FEF77DFA0422082100207C
:102CE000FEF778FA042210210020FEF773FA04227E
:102CF00020210020FEF76EFA684600F0A3FA632157
:102D0000684641803C490180002101710020029009
:102D1000FF210131684681816946384800F072FA26
:102D20000121364800F0E0F9FF210131334800F07D
:102D3000E7F96946324800F065FA0121304800F0B1
:102D4000D3F9FF2101312E4800F0DAF90621684657
:102D5000418001210171002141718171C1710172B4
:102D6000012141720021418181810170694623481E
:102D700000F0D8F901220021204800F0A3F9012138
:102D80006846017069461D4800F0CCF901221146E1
:102D90001A4800F097F90021684601706946184802
:102DA00000F0C0F901220021154800F08BF9012143
:102DB000684601706946124800F0B4F901221146D4
:102DC0000F4800F07FF902216846017069460C48FF
:102DD00000F0A8F901220221094800F073F903214B
:102DE000684601706946064800F09CF901220321FB
:102DF000034800F067F91FBD7F25000000E0064092
:102E000000F0064070B504460D4616463246294687
:102E1000204600F0EFF970BD70470000C1B2054ACE
:102E2000116000BF03490969FF22013211400029E6
:102E3000F8D070470000044070470000042806D115
:102E40000649096904221143044A116105E0034956
:102E5000096904229143014A1161704700E000E0D2
:102E6000002803D10021094A91610EE0012806D112
:102E70000649096901221143044A116105E0034929
:102E8000096949084900014A1161704700E000E002
:102E9000002806D00649096902221143044A11613B
:102EA00005E00349096902229143014A1161704713
:102EB00000E000E0014948617047000000E000E0E8
:102EC00000B585B00020019002900390049015A0F9
:102ED00000F0E4FC01A801231A4A0021009014200C
:102EE000FFF726F8002817D1029A91B20198FEF751
:102EF00079FC15A0029900F0D1FC6846017C16A06F
:102F000000F0CCFC14A0039900F0C8FC01A8FEF767
:102F100045FE002005B000BD11A000F0BFFC01205F
:102F2000F8E70000546970733A094F6E654E657496
:102F30005F5375627363726962654F726465720D87
:102F40000A0000005C09002053656E64202564209F
:102F500042797465730D0A0025640D0A00000000B3
:102F60005741524E3A095375627363726962652024
:102F70004661696C65640D0A00000000704700003E
:102F800010204B49C86001204A4908604A48006B3C
:102F9000402108434849086300BF48488068272803
:102FA000FBD14548406A032189028843424948626F
:102FB000084640680121C90208433F49486000BFF4
:102FC0003D4880680007C00F0028F9D03A484068A3
:102FD000C008C000C01C3849486000BF3648406B7C
:102FE0004007400F0328F9D135480068C008C000E9
:102FF000401C3349086000202F4908620846406899
:10300000491588432C4948600846006889150843DB
:103010002949086008464068091508432649486060
:1030200000BF254880684007C00F0028F9D022481B
:10303000006B4021884320490863084600688915D1
:1030400088431D49086003200006886108464068DF
:10305000491508431849486000BF17488068800731
:10306000C00F0028F9D016480068C008C000801CB6
:103070001349086000201049086208464068C008EB
:10308000C000401C486000BF0B48406B4007400F29
:103090000128F9D10A48006810210843084908604E
:1030A0000846006801210903084305490860704784
:1030B00000810840008308400080084000A10640CD
:1030C0000002084030B503468D001C4640342819E4
:1030D000002A04D0046810252C43046003E004682F
:1030E0001025AC43046030BD002904D002690223DE
:1030F0001A43026103E0026902239A4302617047A6
:10310000CA43C267BFF34F8F7047002904D00269DA
:1031100001231A43026103E002695208520002616E
:1031200070470000FCB50D78AD0006464036AC197E
:103130000D78AD005036AD1901950D78AD00103603
:10314000AD1900950D786D062A0E03259540EF43C5
:10315000274DA84203D103259540EF4302E0012506
:103160009540EF43224DA84200D100BF056D3D4080
:103170000565436D3B401E4DA84206D18D79CE7941
:103180007600354395402B4302E08D7995402B43E3
:103190004365174DA84209D1C56E3D402B460D7AB7
:1031A0004E7A7600354395402B43C3662568FF264B
:1031B0000836B543256025684E88354325604E891D
:1031C000019D2E608E89009D2E60094DA84208D178
:1031D0000D794E79760035439540066D354305658A
:1031E00004E0056D0E79964035430565FCBD000091
:1031F00000C0024030B58D00044690342B191A608F
:1032000030BD00000B88882213504B888422135055
:10321000026803231B049A430260026801231B0611
:103220009A43026002688B681A430260044A904223
:1032300002D10B798C2213508A8982677047000073
:1032400000C0024000218160491E018000214180B0
:10325000FF21013181810021017170470EB50020ED
:1032600000900190029001210904009888434018C1
:103270000090890000988843401800900911019837
:103280008843401801900123684607C8FEF76AF892
:103290000122172189010020FDF79CFF0022172140
:1032A00089011348FEF7DEFA002217218901104830
:1032B000FEF708FB0122172189010D48FEF7F8FAF5
:1032C0000122032109030B48FEF7CCFA0022032157
:1032D00009030848FEF7F6FA032109030548FEF73B
:1032E0000AFBFEF7FBFB01210348FFF70EFF0EBDB3
:1032F00000000B4000400B4000C00240F0B589B018
:1033000004460D4616461F460022604B20462946BD
:10331000FDF718F800225D4B01910090FDF72EF9A2
:1033200000225B4B03910290FDF70CF80022594BF1
:1033300005910490FDF722F90022574B0791069062
:10334000FDF7B4F8554A03C20022504B30463946C7
:10335000FCF7F8FF00224D4B01910090FDF70EF9AC
:1033600000224B4B03910290FCF7ECFF0022494BEB
:1033700005910490FDF702F90022474B0791069052
:10338000FDF794F8464A03C20022464B0F990E9867
:10339000FCF7D8FF0022434B01910090FDF7EEF8B7
:1033A00000223B4B03910290FCF7CCFF0022394BEB
:1033B00005910490FDF7E2F80022374B0791069043
:1033C000FDF774F8384A03C20022304B1199109867
:1033D000FCF7B8FF00222D4B01910090FDF7CEF8CD
:1033E00000222B4B03910290FCF7ACFF0022294BEB
:1033F00005910490FDF7C2F80022274B0791069033
:10340000FDF754F8294A03C20022264B139912985B
:10341000FCF798FF0022234B01910090FDF7AEF8D6
:1034200000221B4B03910290FCF78CFF0022194BEA
:1034300005910490FDF7A2F80022174B0791069022
:10344000FDF734F81A4A03C20022164B1599149856
:10345000FCF778FF0022134B01910090FDF78EF8E6
:1034600000220B4B03910290FCF76CFF0022094BEA
:1034700005910490FDF782F80022074B0791069012
:10348000FDF714F80B4A03C209B0F0BD00E060403C
:103490000000E03F0000344000C0C2401808002097
:1034A0002008002000805640280800203008002016
:1034B000380800204008002010B520210E4800F0F8
:1034C00027F9002816D00D480088142802D30020C0
:1034D0000A49088008480068C1B208480288008884
:1034E000401C064B188006488154012149020248BD
:1034F00000F052F810BD00000010004054090020F8
:10350000A409002010B52021480600F001F9002888
:1035100017D00C480088FF2802D9002009490880EC
:10352000012080070068C1B2064802880088401C5C
:10353000044B18800448815401214902480500F0D9
:103540002BF810BD58090020380E002010B520219E
:103550000E4800F0DDF8002816D00D480088142829
:1035600002D300200A49088008480068C1B2084810
:1035700002880088401C064B1880064881540121AF
:103580004902024800F008F810BD000000000440A5
:10359000500900209009002002690A40026170472A
:1035A00000B587B0002001900290039001218903AB
:1035B0000298884340180290890001988843401877
:1035C00001904900019888434018019049000198F2
:1035D000884340180190491202988843401802908D
:1035E0004910029888434018029089000298884345
:1035F00040180290012301A807C8FDF7B3FE00227E
:1036000002213F48FEF75EF900220121C9033D482F
:10361000FEF758F9002208213948FEF753F906222F
:1036200001210846FDF7D6FD062202210120FDF703
:10363000D1FD0622012189030020FDF7CBFD0622E2
:103640000121C9030020FDF7C5FD06220421012048
:10365000FDF7C0FD062208210120FDF7BBFDE1209A
:1036600040020490FF210131684681820021C1821D
:103670000183418304A9244800F054F804A90120DF
:10368000800700F04FF804A9204800F04BF81820FC
:10369000FEF73AFE1720FEF737FE1920FEF734FE3C
:1036A00001221146184800F083F8012211469007C4
:1036B00000F07EF801221146144800F079F801224A
:1036C0000021114800F080F8012211460E4800F058
:1036D0007BF801220021900700F076F801221146C4
:1036E000900700F071F801220021084800F06CF802
:1036F00001221146054800F067F807B000BD000040
:1037000000200B4000000B4000000440001000406F
:10371000024610690840002801D0012070470020AF
:10372000FCE7000070B504460D4660681C4908407F
:10373000E9880843A9880843298908436989084317
:10374000606001208007844207D11820FDF7EEFD5C
:1037500006462968FCF7EEFC60621248844207D1F5
:103760001A20FDF7E3FD06462968FCF7E3FC6062DA
:103770000D48844207D11C20FDF7D8FD0646296874
:10378000FCF7D8FC60620948844207D11E20FDF78F
:10379000CDFD06462968FCF7CDFC606270BD0000D7
:1037A000FCE0FFFF00000440001000400010044057
:1037B000002A03D0C3680B43C36002E0C3688B4395
:1037C000C36070470160704710B5002A05D0436898
:1037D00010248C402343436004E0436810248C4051
:1037E000A343436010BD0FB430B5CBB0054601AC68
:1037F00050A80090FF21293101A8009B4F9A00F0AA
:1038000071F8002000900BE02178641C2846FFF737
:10381000D9FF00BF80212846FFF77AFF0028F9D0A2
:1038200020780028F0D14BB030BC08BC04B0184759
:1038300070B506460C46002505E0615D304600F097
:103840001DF8681CC5B2605D0028F6D170BDF8B5E2
:1038500007460C46154600260DE02178641C3846C4
:10386000FFF7B0FF00BF80213846FFF751FF002867
:10387000F9D0701C86B2AE42EFDBF8BD70B50446DD
:103880000D4629462046FFF79DFF00BF80212046B8
:10389000FFF73EFF0028F9D070BD00000FB410B54F
:1038A00003A9044B044A029800F0AEFC10BC08BC0B
:1038B00004B0184741530000100800200FB410B5A1
:1038C00004A9074B02AA039800F09EFC044602A933
:1038D000002001F042F8204610BC08BC04B0184794
:1038E0005B4900007CB51D4616460C0001D0611EE8
:1038F00000E0002101910090054B6A4629463046C0
:1039000000F082FC002C02D0009A002111707CBDD6
:10391000454900002021020C01D010211046020A66
:1039200001D010460839020901D01046091F82084B
:1039300001D01046891E420801D0881E7047081A1F
:103940007047F0B4040C8BB2264682B25E430D0C75
:103950001046370C58433604801900217941164629
:103960006E43370C36048019794126466E43891917
:10397000F0BC704730B47446641E2578641CAB42BA
:1039800004D3635D5B00E31830BC18471D46F8E7BD
:103990004900CA020243100000D004204A0D01D0A1
:1039A00001221043044A490D914201D102210843EA
:1039B000012800D105207047FF070000004870472C
:1039C0006C090020F7B596B014460021A160D160C3
:1039D000179909914D00CD496D088D4205DC179965
:1039E00061602060002019B0F0BDC949C94E8D4208
:1039F00038DAD32709997F050029C74A1799334632
:103A000017DDFCF744FDB54206D0C44AC44BFCF7B1
:103A10003EFD6160206009E03A46C14BFCF737FD8E
:103A2000C04AC14BFCF733FD61602060012019B032
:103A3000F0BDFCF787FCB54206D0B84AB84BFCF79E
:103A400081FC6160206009E03A46B54BFCF77AFCE6
:103A5000B44AB54BFCF776FC616020600020C0439F
:103A600019B0F0BDB1498D42179977DC490049087A
:103A70000746AF4AAF4B0491FCF718FD0022AE4B4E
:103A8000FCF760FCFCF706FE0A90FCF7EFFDA24A8B
:103A9000334603910290FCF709FD3A46049BFCF77C
:103AA000FCFC06460F469D4A9D4B03990298FCF785
:103AB000FDFC2A0D01250C9232463B46FCF7EDFC3D
:103AC00061602060032D39D04800410D0C98401AE8
:103AD000690169181139814230DA9849280179441D
:103AE00008960D9008180497436802680399029895
:103AF000FCF7DCFC02460B460791069004990898F7
:103B0000FCF7C5FC06460F46049B089AFCF7C5FC6B
:103B1000079B069AFCF7BBFC059189490490794400
:103B20000D984018C368826803990298FCF7BEFCA0
:103B3000059B049AFCF7ABFC6D1CBDE709980028B7
:103B400009DA01226068D207504060600A9819B013
:103B50004042F0BD02E00A9819B0F0BD090301220D
:103B6000090B12050E90891817981091400075499D
:103B7000400D40184111C006C00E0D911390202138
:103B8000081A149000200690052507901398002825
:103B90000D980CD0401982006B48784487581399CF
:103BA0008F40101841681498C1400F4304E0401939
:103BB000810066487844475810993846FFF7C1FE9F
:103BC00006460A9138460E99FFF7BBFE8A190A9BF2
:103BD0008A4201D2012100E00021C9188C46AF00C1
:103BE000694679188B684E68C318834201D2012058
:103BF00000E0002096193618002802D0964202D91B
:103C000003E0964201D2012000E000206246121833
:103C10004E6068468B60C25128466D1E0028B5DC98
:103C20000121029849074018800F139002980599C6
:103C30008000039E049D0B91FCF718FD074630465B
:103C40000891FDF72FFA1D22D243FCF755FF109083
:103C50000F912846FDF726FA3D22D243FCF74CFF90
:103C60000E900D910B98FDF71DFA5D22D243FCF7E3
:103C700043FF0B910C900D9B0E9AFCF763FB0F9B7F
:103C8000109AFCF75FFB3A46089BFCF75BFB0025AC
:103C90000E463A462846089BFCF7F9FB0F9B109A04
:103CA000FCF7F5FB0D9B0E9AFCF7F1FB0B9B0C9AB6
:103CB000FCF7F3FB264A274BFCF7F8FB07460D9170
:103CC000254A264B31462846FCF7F0FB3A460D9B29
:103CD000FCF738FB0F4615220C9092061D4B31461F
:103CE0002846FCF7E3FB3B460C9AFCF72BFB179AA4
:103CF000002A05DA139A524213920122D207514048
:103D000061602060139819B0F0BD0000FB21E93F0D
:103D10007CD90240FB21F93F000040543163621A14
:103D200061B4D03D7370032E8A19A33BFB21394146
:103D300083C8C96D305FE43F0000E03F06620000C9
:103D4000C66100000BFCFFFF7A61000060610000AB
:103D5000182D4454FB21F93D3326A611460B113C86
:103D6000F0B51FB44E00F9207608800584B00F46E8
:103D7000864204DA0498FCF78DFC002838D0049AB7
:103D80003B4610461946FCF791FB044602462C4878
:103D90000D460B460621784400F05CF822462B467F
:103DA000FCF784FB019100903946079B069A049822
:103DB000FCF77CFB0746029120462946019B009AAE
:103DC000FCF774FB3A46029BFCF761FB07460022B6
:103DD0000091D24320462946FCF78EFE194A9642AE
:103DE0000ADA3A46009BFCF752FB0022164B23E00E
:103DF0000020154909B0F0BD144A964202DD0024A6
:103E0000134D03E001225205B51A002422462B4629
:103E1000FCF73DFB0646019122462B4600200A494D
:103E2000FCF735FB0D4604463A463046009B0199A7
:103E3000FCF72DFB22462B46FCF72FFB09B0F0BD0B
:103E4000165F00003333D33F0000F03F0000E93F2E
:103E50000000D23FF8B504464F1EC80008382118AC
:103E600015461E46086849683A4606239A4310D00C
:103E70002A463346FCF71AFB3A46D200083AA31802
:103E80001A687F1E5B68FCF75DFA06223B46934387
:103E9000EED1022F23D0042F11D0062F2FD12A4686
:103EA0003346FCF703FBE36AA26AFCF74BFA2A46A7
:103EB0003346FCF7FBFA636A226AFCF743FA2A46A8
:103EC0003346FCF7F3FAE369A269FCF73BFA2A46AA
:103ED0003346FCF7EBFA63692269FCF733FA2A46AA
:103EE0003346FCF7E3FAE368A268FCF72BFA2A46AC
:103EF0003346FCF7DBFA63682268FCF723FAF8BD67
:103F0000F0B51FB4054648000C46F9214008890564
:103F100086B088420BDA28462146FFF739FD04288F
:103F200001D100F089F8284621460BB0F0BD2A46A1
:103F3000234610461946FCF7B9FA06460F462A46AC
:103F40002346FCF7B3FA00902548019132463B46E0
:103F500005217844FFF77EFF029010980391002816
:103F600029D0204A204B01990098FCF79FFA049031
:103F7000059168460FC8FCF799FA0022019100905C
:103F8000D24309990898FCF7B7FD019B009AFCF70A
:103F90007EFA32463B46FCF789FA099B089AFCF701
:103FA00076FA059B049AFCF772FA2A462346FCF738
:103FB00074FA0BB0F0BD0B4630463946029AFCF756
:103FC00075FA084A084BFCF7BDF9019B009AFCF70B
:103FD0006DFA2A462346FCF7B5F90BB0F0BD000098
:103FE0005A5E0000495555555555C5BF002210B5BC
:103FF000134610460149FCF7C1FA10BD0000F03F1E
:1040000010B50122FCF778FD10BD10B5FCF79AF948
:1040100010BD002210B5134610461146FCF7AEFA4B
:1040200010BD000010B50721024A00200907FCF767
:1040300063FD10BD01030000034A10B50020110705
:10404000FCF75AFD10BD000001FDFFFF01480068AC
:10405000704700006C09002002E008C8121F08C168
:10406000002AFAD170477047002001E001C1121FF9
:10407000002AFBD17047000001490860704700002A
:104080006C090020F0B51FB486B00998089A030D9A
:104090000021024314D05148514A181850430514C6
:1040A0001198012810981AD0281A401C00264D4F4C
:1040B0004D49009601910490002812DA444211E023
:1040C0001198012449A3012801D11098C1430698F1
:1040D000119A84600360C26041600BB0F0BD404241
:1040E000E4E70446210500203F4A001C51410391AA
:1040F000029012E0E00707D032463B460199009853
:10410000FCF7D4F90191009032463B46104619461F
:10411000FCF7CCF906460F466410002CEAD104984F
:10412000039B0028029A0999089806DAFCF7BEF961
:10413000019B009AFCF7BAF905E0FCF71FFA019B16
:10414000009AFCF71BFA04460E460022284BFCF7A7
:104150000BFB03D80020C043014607E00022254B9B
:1041600020463146FCF7EEF8FCF7DCFC102409E0B1
:10417000002C0ADB0A220023FCF730FB079B3032BD
:104180001A55641E02460A43F2D11122641C079B91
:10419000121B1C19119B012B03D0012308430ED1C4
:1041A0000AE0084304D0112010900020119077E716
:1041B0001098151A6D1E0BE01098824202DD002344
:1041C0006D1C03E0824201DA00236D1E002BEED04D
:1041D000069811998260C16030C07EE701FCFFFF44
:1041E000104D0000000014400000F03F30000000BF
:1041F0000000F0430000E03F30380A2801D20120DF
:104200007047002070470000FFB597B006460025B4
:104210001BE2252876D100242746F749049400E0C4
:104220000443761C32780120203A90400842F7D1AE
:1042300030782A280ED002223078014630390929F8
:1042400016D804990A235943303940181443761C70
:104250000490F1E7189802C804911890002904DA34
:104260000120400304434842049002200443761C8A
:1042700030782E2814D1042004437078761C2A2824
:1042800009D11898761C80C8189009E00A214F437C
:10429000303FC719761C3078014630390929F5D9E5
:1042A00030786C2810D006DC4C281AD068280ED044
:1042B0006A2817D104E0742813D07A2812D110E0AC
:1042C0000120400504430CE00121090501E0032120
:1042D00009050C437178814203D10120000524189F
:1042E000761C761C307866280BD013DC58287DD0DD
:1042F00009DC00287BD04528F6D04628F4D0472892
:104300001AD1A9E118E0632835D0642870D0652857
:1043100012D1A1E170286CD008DC6728F1D069289F
:104320007DD06E280DD06F2806D1BCE073282ED02A
:10433000752873D0782859D01A9A199990476D1C0E
:1043400082E16002400F022809D003280DD0042822
:10435000189801680DD00D60001D189074E1189830
:10436000EA1701680D604A60F6E7189801680D8049
:10437000F2E70D70F0E718986A4601781172001D97
:1043800018900020507202A80090012005E01898B3
:1043900002C8189000200091C04361070ED500218B
:1043A00001E00199491C0191B94213DA8142F8DB1D
:1043B000019A0099895C0029F3D10BE0002101E00A
:1043C0000199491C01918142FADB019A0099895CAB
:1043D0000029F5D1019904981A9B471A21463846BD
:1043E000199A00F099FA4019019903E051E030E17F
:1043F00015E050E0451807E0009800990078491C46
:1044000000911A9A199990470198401E0190401CFA
:10441000F2D1214638461A9B199A12E137E00A2058
:104420000021009001916002410F022907D0189AE3
:1044300001CA1892C2179446032908D00AE01898B6
:10444000C01DC108C90005C91891944607E000B213
:10445000C2179446042902D140B2C1178C460022EB
:104460006146944506DA0A460021404291418C4655
:104470002D2102E0210504D52B216A46117301216B
:1044800003E0E10701D02021F7E7029156E00A207E
:104490000AE0102008E010200090002104200443CE
:1044A0000191082703E0082000210191009060029B
:1044B000410F022907D0189A01CA18920022944687
:1044C000032908D008E01898C01DC108C90005C913
:1044D0001891944603E080B2042900D1C0B20021B3
:1044E000029121072AD531780D91702906D0009AC2
:1044F0001021019B4A401A4305D00EE040216A4634
:104500001173012108E06146014306D030216A465B
:1045100011730D99517302210291009A0821019B98
:104520004A401A430AD16146014301D1610705D5CA
:1045300030216A46117301217F1E0291317858297A
:1045400004D02EA10E910DA90D910DE030A1F9E737
:104550006146019B009AFCF741F90E9B8C469B5CDF
:104560000D9A521E0D92137061460143F0D10D98C1
:1045700005A9081A20300190600703D50120000426
:10458000844300E001270198874201DD381A00E0EA
:104590000020019900904118029809180498401AC7
:1045A0000490E00306D421461A9B199A049800F05F
:1045B000B3F94519002706E003A81A9AC05D1999B6
:1045C00090476D1C7F1C02988742F5DBE0030CD5F9
:1045D00021461A9B199A049800F09EF9451904E0A7
:1045E0001A9A3020199990476D1C0099481E009026
:1045F0000029F5DC1FE000000928010030313233CA
:10460000343536373839616263646566000000000E
:1046100030313233343536373839414243444546F8
:10462000000000000D980D990078491C0D911A9A10
:10463000199990476D1C0199481E01900029F1DCE1
:104640004DE100F059F94519761C3078002800D06A
:10465000DFE528461BB0F0BD600700D40627189898
:10466000C01DC108C90048680A680831C30FDB07CC
:104670001891190001D09CA108E0210501D59BA14A
:1046800004E0E10701D09AA100E09AA14300109153
:1046900030785B0865280CD006DC452809D0462810
:1046A0001DD0472841D141E0662818D067283CD169
:1046B0003CE00021112F01DB112000E0781C01916A
:1046C000009008A911A8FFF7DDFC139905910021BE
:1046D000119A15927F1C12980197009150E00120C9
:1046E000C00703900120019008A9009711A8FFF7C7
:1046F000C9FC139A149905920022119B00921298FA
:104700001593059A0192002901D0104602E0791C08
:1047100040180190381A01D5019804E04042401E2B
:104720000090781C0190C01B029043E0012F00DA3A
:1047300001270021112F01DD112000E038460191F1
:10474000009008A911A8FFF79DFC13990591119AF3
:104750000021129815920091019721070CD4059918
:10476000B94201DB019900E00191012904DD159AAC
:10477000491E515C302906D0B84201DA011D05DA24
:104780000121029115E00199491EEDE7002805DCA1
:104790000099411800910199091A03E0019A411CFE
:1047A000914200DD01910099401A401C02900120C5
:1047B000C0070390200706D402990198814202DBCA
:1047C0000020C043029000206946C87707AF01214E
:1047D00003980337C907884224D0022011902B2068
:1047E0001290039800280CDA404203902D2012907A
:1047F00007E00A210398FBF79DFC30317F1E0390F0
:1048000039701199481E11900029F2DC0398002894
:10481000EFD1791E12980870307820210840453079
:10482000BF1E387006A8C01BC01D039010980078EA
:10483000002800D00120019941180298C0170918DA
:10484000039809180498401A401E0490E00306D407
:1048500021461A9B199A049800F05EF845191098A1
:104860000078002803D01A9A199990476D1CE0032C
:1048700024D521461A9B199A049800F04DF8451941
:104880001CE00098002807DB00990598884203DDAA
:104890001598405C199901E0199930201A9A9047AF
:1048A00000986D1C401C00900298401E0290002849
:1048B00004D11A9A2E20199990476D1C0199481E0F
:1048C00001900029DDDC05E038781A9A7F1C1999DF
:1048D00090476D1C0399481E03900029F4DC214683
:1048E0001A9B199A0498ACE62D0000002B000000DA
:1048F0002000000000000000F8B5044600251E4618
:104900001746880404D405E039462020B0476D1CC2
:10491000641EF9D52846F8BDFFB50446002581B0D0
:104920001E46C80301D5302700E02027880404D59F
:1049300005E038460399B0476D1C641EF9D528463A
:1049400005B0F0BD4A68002A06D00A68531C0B6007
:1049500010704868401E486070470A68531C0B601E
:1049600010707047F0B505460C464800884940086D
:1049700085B0884221DB4942411829430CD0854942
:10498000884203DC884211D1002D0FD028462146F1
:10499000FFF736FB05B0F0BD002C03DD002001461B
:1049A00005B0F0BD7C487D4905B0F0BD0120FFF7A2
:1049B00063FBFFF72EFB05B0F0BD794988423FDA73
:1049C0007849884203DC7448774905B0F0BD2A462F
:1049D000234610461946FBF769FD06460246734812
:1049E0000F460B4606217844FFF734FA32463B4621
:1049F000FBF75CFD00906E48019132463B46042176
:104A00007844FFF727FA32463B46FBF74FFD00227A
:104A10005F4BFBF797FC02460B4601990098FBF7AA
:104A2000ADFD2A462346FBF741FD624A624BFBF788
:104A300034FD2A462346FBF730FD574A5A4B4AE0DD
:104A40000027FF43002C4ADA514E00223346284605
:104A50002146FBF777FC3A46FCF74EF8044602463F
:104A600056480D460B4606217844FFF7F3F92246D7
:104A70002B46FBF71BFD00905148019122462B4627
:104A800004217844FFF7E6F922462B46FBF70EFD9A
:104A900000223346FBF756FC06460F4620462946C1
:104AA00003F028F904460D4632463B46019900982A
:104AB000FBF764FD22462B46FBF7F8FC3D4A3E4BD4
:104AC000FBF7E5FC22462B46FBF73CFC0122FCF7FA
:104AD00013F8314A314BFBF7E0FC05B0F0BD002282
:104AE0002B4B28462146FBF7D8FC3A46FCF704F846
:104AF00005460E4603F0FEF800270C463A460B46E4
:104B00000490FBF71FFC3A462346019100901046A3
:104B10001946FBF7CBFC33462A46FBF7BEFC019B4C
:104B2000009AFBF72BFD00902648019133462A4658
:104B300006217844FFF78EF933462A46FBF7B6FC88
:104B400002902148039133462A4604217844FFF716
:104B500081F933462A46FBF7A9FC00220C4BFBF7F0
:104B6000F1FB02460B4603990298FBF707FD23462B
:104B7000049AFBF79BFC019B009AFBF7E3FB3A4688
:104B80002346FBF7DFFB0122FBF7B6FF05B0F0BDC4
:104B90000000F03F0000F07F182D4454FB21094035
:104BA0000000E03F0000603CFB21F93F065100009F
:104BB0001C510000075C143326A6913C8450000071
:104BC0009A500000BA4F0000D04F0000F0B50446E4
:104BD0004F008E488FB07F080D460D91874228DB2D
:104BE0004042381820430CD08948874203DC874272
:104BF00018D1002C16D020462946FFF701FA0FB035
:104C0000F0BD844A844B20462946FBF74FFC0746FB
:104C10000E46824A824B20462946FBF747FC3A461D
:104C2000334649E00120FFF727FAFFF7F2F90FB00A
:104C3000F0BD7C48874243DAF920800587420BDAD1
:104C400020462946FEF7A4FE042801D1FFF7F4F917
:104C5000204629460FB0F0BD22462B461046294675
:104C6000FBF724FC064602466F480F460B4606211A
:104C70007844FFF7EFF832463B46FBF717FC069007
:104C80006A48079132463B4604217844FFF7E2F830
:104C900032463B46FBF70AFC00225C4BFBF752FB1B
:104CA00002460B4607990698FBF768FC22462B46FE
:104CB000FBF7FCFB22462B46FBF744FB0FB0F0BD95
:104CC0002046524C6900490800222346FBF7E5FBC9
:104CD0000022D243FBF710FF0546024654480E4619
:104CE0000B4606217844FFF7B5F82A463346FBF712
:104CF000DDFB06904F4807912A463346042178444D
:104D0000FFF7A8F82A463346FBF7D0FB00222346DC
:104D1000FBF718FB059104902846314602F0EAFFA4
:104D2000089045480C46874219DB059B049A079971
:104D30000698FBF723FC02460B4621460898FBF732
:104D4000B5FB2346089AFBF7FDFA0122FBF7D4FED8
:104D5000304A314BFBF79BFB304A314B4AE000278E
:104D60003A460B460898FBF7EDFA3A4623460A9175
:104D70000E9010461946FBF799FB2A463346FBF77F
:104D80008CFB0A9B0E9AFBF7F9FB05460E46059B2A
:104D9000049A07990698FBF7F1FB00910490012211
:104DA00028463146FBF7A8FE1A4A1B4BFBF775FB5A
:104DB0000E460546012221460898FBF79DFE009B02
:104DC000049AFBF773FB2A463346FBF760FB054664
:104DD0000E46012238462146FBF78EFE0F4C174F38
:104DE00022463B46FBF759FB2A463346FBF755FB69
:104DF00022463B46FBF751FB0D9A002A00DD5DE79A
:104E00000122D20751400FB0F0BD00000000F03F7A
:104E10000000F07F075C143326A6913C182D445403
:104E2000FB21F93F0000E03FCC4E0000E24E0000C5
:104E3000584E00006E4E00003333EF3FFB21E93F38
:104E4000F0B589B004460D46480006917249400805
:104E5000884215DB7149884203DC884207D1002C67
:104E600005D020462946FFF7CBF809B0F0BD6C48C5
:104E7000002D02DD6B4909B0F0BD6B4909B0F0BDF2
:104E80006A49884211DA6A4988420BDA2046294683
:104E9000FEF77EFD042801D1FFF7CEF82046294613
:104EA00009B0F0BD0026F6435DE06D0061496D0874
:104EB000884232DA6049884219DA002601233246F4
:104EC0009B0720462946FBF73DFA07460191012240
:104ED00020462946FBF710FE0022584BFBF7D7FA75
:104EE0003A46019BFBF74AFB04460D463BE0012690
:104EF0000022524B20462946FBF724FA0746009130
:104F000000224E4B20462946FBF7C1FA3A46009B49
:104F1000FBF734FB04460D4625E04949884219DA7F
:104F200002260022474B20462946FBF7BFFA002203
:104F3000424BFBF707FA074602910022414B2046FD
:104F40002946FBF7A4FA3A46029BFBF717FB0446F7
:104F50000D4608E0032622462B4600203A49FBF77F
:104F60000DFB04460D4622462B4610461946FBF71C
:104F70009DFA07460B4602460191FBF797FA024657
:104F8000029032480B46039106217844FEF762FFF7
:104F90003A46019BFBF78AFA00902D4801910521C2
:104FA0007844039B029AFEF755FF039B029AFBF796
:104FB0007DFA02460B4601990098002E0BDAFBF7AA
:104FC000C1F922462B46FBF771FA22462B46FBF726
:104FD00064FA09B0F0BDFBF7B5F922462B46FBF7A2
:104FE00065FA1C4AF6007A4493191A685B68FBF765
:104FF0004EFA22462B46FBF74AFA174A7A4493198F
:105000001A685B68FBF749FA069A002AE1DA01227E
:10501000D207514009B0F0BD000010440000F07FFD
:10502000182D4454FB21F93FFB21F9BF0000DC3F60
:105030000000203E0000F33F0000E63F0000F03F8C
:10504000008003400000F83F0000F0BFF24C000079
:10505000B44C00004E4C0000184C0000F0B51FB4DA
:10506000039A029D53006E422E439446F40F5B0850
:105070004A00574E52081C438E46B44205D8474258
:105080000743FC0F1443B44205D92A466346FEF792
:10509000BCFF05B0F0BD4F4E66442E430AD0CC0F86
:1050A0006646B61702273E40264304464A4F14433D
:1050B00004D00BE0FFF7C4FE05B0F0BD002EFBD01E
:1050C000012EF9D0022E32D0032E34D01C462C43B0
:1050D0000BD03F4CA34216D1A2420AD1012189072D
:1050E0008B438A43114603930DE0704600280FDB83
:1050F00025E03A4D7D44002E0ED0012E10D0022E18
:1051000015D0032E17D0A2421DD17046002816DA02
:105110003148334905B0F0BD6968286805B0F0BD75
:1051200001226968D2072868514005B0F0BD3846B1
:105130002C4905B0F0BD38462B4905B0F0BD2648D6
:105140002A4905B0F0BDD21A12153C2A02DD224DC3
:10515000264C12E06346002B05DA3C23DA4202DAE1
:1051600000252C4609E0039B029AFBF707FA490049
:105170004908FFF765FE05460C46002E12D0012EA9
:105180000DD01B4A1B4B022E2846214618D0FBF798
:105190007EF93A46134BFBF77AF905B0F0BD0120D2
:1051A000C00744400022134628462146FBF7C8FAB0
:1051B00002D10220FEF760FF2846214605B0F0BD6F
:1051C000FBF765F93A46074BFBF767F905B0F0BD09
:1051D0000000F07F000010C0182D4454E84B000080
:1051E000FB21F9BFFB210940FB2109C0FB21F93F4D
:1051F000075C143326A6A13C30B583B00446FEF705
:1052000025FF054600200090024601902146684691
:10521000FBF763FB2846FEF72FFF0199009803B0C8
:1052200030BD000000B54A00224B520887B09A42B8
:1052300002DC0022134625E01F4B9A4208D10028C9
:1052400008D10120FEF718FFFEF7E3FE07B000BD0E
:105250009A4203DBFEF7D4FE07B000BD02AAFEF7B8
:10526000B1FB8107890F0BD0012001290ED0022943
:1052700016D0009002A80FC8FEF742FE07B000BD8E
:1052800002A80FC8FEF76CFD07B000BD009002A891
:105290000FC8FEF735FE0122D207514007B000BD0E
:1052A00002A80FC8FEF75CFD0122D207514007B0EB
:1052B00000BD0000FB21E93F0000F07F10B504466F
:1052C00003E07D20C00000F007F82046611E8CB28C
:1052D0000028F6D110BD000070B504460420C0437C
:1052E000FDF7ACFD13490968C8081349FAF722FF16
:1052F0000646FDF7DFFD0020FDF7CAFD0020FDF7A3
:10530000AFFD0120FDF7ACFD002508E000BF0B4814
:1053100000690121090408400028F8D06D1CA5424D
:10532000F4D30120C043FDF79BFD0020FDF798FD5D
:1053300070BD00000C08002040420F0000E000E0BB
:1053400070B504460D462046FDF768FD70BD0000AF
:1053500010B5002823D0124B0022001F196803E06B
:10536000814203D80A4649680029F9D1002A0AD0A7
:105370001368841A9C4204D1006818181060104603
:1053800002E0506000E01860002907D002680B1AA4
:10539000934203D10B68D21802604968416010BD86
:1053A0006409002088B0FBF7FDFFFF2101318A4826
:1053B000FAF7EFFE0020894908800BE1042000F095
:1053C00051F90446002C01D0002020608448007868
:1053D000002826D1FCF7A2FF0120082381A210217A
:1053E00000900020FDF748FA0120082382A2202126
:1053F00000900020FDF740FA0120082380A22E2112
:1054000000900020FDF738FAFDF798F87D200001A4
:10541000FFF754FF012204210820FDF7B5F8704979
:105420000870002C01D000202060FCF777FF0120DD
:10543000082378A2002100900846FDF71DFAFDF729
:105440007DF802E0FDF786FB044620680028F9D0CD
:105450002068002873D074A175482268FEF72EFAE0
:1054600001200823724A102100900020FDF704FA61
:1054700014216F48FAF78DFE22796EA16C48FEF771
:105480001DFA012008236A4A202100900020FDF720
:10549000F3F914216648FAF77CFE627968A1644842
:1054A000FEF70CFA01200823614A30210090002009
:1054B000FDF7E2F914215E48FAF76BFEFDF73EF8BE
:1054C0002079634908706079487072E0604800781C
:1054D000002835D000210691079104915D4805917F
:1054E000029100910A460B4601910390084601F093
:1054F00097FF00257D20C000FFF7E0FE56A0FCF7D7
:10550000A1FA6420FFF7DAFEC820FCF70DFA054681
:10551000002D06D001CD5149086001CD48602868B2
:1055200088604E4B9A685968186800F003FE01F0D5
:10553000EFFE47480078401E4549087039E044E0D6
:1055400043484078002834D0002106910791049107
:1055500040480591029100910A460B460191039043
:10556000084601F05DFF00257D20C000FFF7A6FE84
:105570003BA0FCF767FA6420FFF7A0FEC820FCF709
:10558000D3F90546002D06D001CD3449086001CD80
:10559000486028688860314B9A685968186800F03C
:1055A000C9FD01F0B5FE2A484078401E28494870E0
:1055B00000BF2079002889D16079002886D1084968
:1055C00008702046FFF7C4FE00247D20C000FFF7CE
:1055D00075FE00BFF2E60000380E002058090020DA
:1055E0000008002057656C636F6D6520746F205450
:1055F00061694F780000000053746174653A0000DF
:1056000057616974696E6720666F72204F726465B6
:10561000722E0000486572652069732061204F7208
:105620006465722100000000626F73733A25730095
:10563000700900204F72616E67653A2564000000B2
:10564000477265656E4F72616E67653A256400004A
:105650000308002000C060403100000084090020E1
:1056600032000000F0B50B30C108C900144F00260D
:10567000144A0FE003688B420BD38B4205D95C1AA6
:105680004318456830C3083B00E04368136002C01C
:1056900004E0021D10680028ECD13046002803D138
:1056A0003868002801D00020F0BD064A0648106086
:1056B000064A121AD208D20044C001203860D7E747
:1056C00068090020640900203C0F0020380F0020EA
:1056D000F0B51FB496B084460C460246199D189842
:1056E0000390490068006300490840080193002ABC
:1056F00001D0012600E000269E19FE4BF6185B1033
:105700009E422BD36E00039F0296002F00D00127EC
:10571000F719F84EF84BBE199E421FD3039E03465D
:10572000F64F334309D03B469C4201D1002A04D0B6
:10573000019B002A05D0012604E0002039461BB059
:10574000F0BD00269E19EE4B9E4207D8039F029E95
:10575000002F00D00127F6199E4207D92B4660463C
:105760002146189AFEF751FC1BB0F0BD0023002C17
:1057700029DAE44EB04226DAE34EB04201DB0223DE
:1057800021E0DE4EB0421EDBE04E070DBE19142EA6
:1057900009DD3427BF1B039EFE400196BE40039FD8
:1057A000BE420BD00FE0039F002F0CD11427BF1B6C
:1057B0000646FE400196BE40864204D1019BDE07AC
:1057C000F60F02239B1B0E46164318D1002D16DA46
:1057D000002C03D0022B01D0012B06D00220FEF7B3
:1057E0004BFCFEF703FC1BB0F0BD0220FEF744FCAF
:1057F000FEF7FCFB0122D20751401BB0F0BD039E17
:10580000002E61D1BF4EB04220D1C148844201D1A7
:10581000002A08D0B948814209DB002D10DB189816
:1058200029461BB0F0BD0020B4491BB0F0BD002DCF
:1058300006DA01222946D207189851401BB0F0BD64
:10584000B4497944086849681BB0F0BDAB4FB84211
:1058500025D1002D1FDA002904D0B14212D1002A2F
:1058600009D018E0002A72D1A649E20F0020D20721
:1058700011431BB0F0BD0020E20F0146D2071143D7
:105880001BB0F0BDB14206DA234600203946FAF7D4
:1058900075FE1BB0F0BD104621461BB0F0BDB142F5
:1058A00012DA0126B607B54203D12346104619463F
:1058B000FEE3994EB54207D1261E05DB1046314660
:1058C00002F018FA1BB0F0BD67007F081646002AE8
:1058D00040D100290AD08B4A914229D1002C0EDDFB
:1058E000002D1CDB002011461BB0F0BD022B16D092
:1058F000002C14D0012B12D1002C14DB0FE0002C53
:1059000028DA002D09DB012B03D000207D491BB0D4
:10591000F0BD002081491BB0F0BD012B03D0002059
:1059200001461BB0F0BD00200121C9071BB0F0BD2E
:10593000724A91420ED1002C01DA002B17D0022BB3
:1059400006D00020C043FAF791FE1BB0F0BD90E2F4
:105950000120F8E7E217521C94461A4307D00022B0
:105960000892664C62465B1E1A4307D009E001208C
:10597000FEF782FBFEF74DFB1BB0F0BD0022644C2E
:105980000892674A90427DDD664B674A98421FDD68
:10599000914202DC002D05DB4DE05848814217DBC7
:1059A000002D48DD0220FEF767FBFEF73BFB0546B6
:1059B0000E460022534B21460898FAF777FD084619
:1059C00071004908C00FC007014328461BB0F0BD55
:1059D000914215DA002D2EDA0220FEF74DFBFEF77C
:1059E00021FB05460E460022464B21460898FAF751
:1059F0005DFD72005208C80FC0070243114617E050
:105A00003E4B994223DD002D15DD0220FEF734FBCD
:105A1000FEF708FB05460E4600223A4B2146089841
:105A2000FAF744FD084671004908C00FC00701435A
:105A300028461BB0F0BD0220FEF71EFBFEF7FCFA65
:105A400049004908E20FD20711431BB0F0BD002204
:105A500030463946FAF71BFD012205460E46D24371
:105A6000FBF74AF8314A324BFAF717FD2A4633461C
:105A7000FAF71CFD0022284BFAF70FFD07462A46CD
:105A8000334600E064E0039110461946FAF70EFD34
:105A90003A46039BFAF70AFD07460322099152078B
:105AA000244B28463146FAF701FD07910C90224A13
:105AB000204B38460999FAF7F9FC074601911F4A2D
:105AC0001F4B28463146FAF7F1FC3A46019BFAF79C
:105AD000DEFC07460B460246099107990C98FAF737
