:020000040000FA
:1000000080050020C1000000F5140000F11200007E
:10001000FFFFFFFFFFFFFFFFFFFFFFFFFFFFFFFFF0
:10002000FFFFFFFFFFFFFFFFFFFFFFFFBD16000009
:10003000FFFFFFFFFFFFFFFF9D16000045170000B9
:1000400003010000030100000301000003010000A0
:100050000301000003010000030100000301000090
:1000600003010000FFFFFFFF030100000301000088
:10007000030100000301000003010000FFFFFFFF78
:10008000FFFFFFFF03010000030100000301000068
:100090000301000003010000030100000301000050
:1000A0002D1C0000E11B0000030100000301000003
:1000B0000301000003010000030100000301000030
:1000C0001048804710488047104800471048016991
:1000D000002910D1416900290DD1816900290AD177
:1000E000C169002907D1BFF34F8F0A490A48C86088
:1000F000BFF34F8FFEE77047FEE7FEE7FEE7FEE740
:10010000FEE7FEE7CD000000491700001D010000DA
:100110000003084000ED00E00400FA0504488546AD
:1001200000F074FC00480047D1380000C046C046CB
:100130008005002030B50B46014600202022012416
:1001400009E00D46D5409D4205D31D469540491B0B
:100150002546954040191546521E002DF1DC30BD54
:10016000D2B201E00270401C491EFBD2704700224F
:10017000F6E710B513460A4604461946FFF7F0FFA6
:10018000204610BD421C0178401C0029FBD1801A7A
:10019000704703460A780270401C491C002AF9D1B6
:1001A0001846704770B5002800D11068002514E08B
:1001B0000B4602E0A64203D05B1C1C78002CF9D150
:1001C000E3B22B4307D0002C06D0002D04D0002131
:1001D0000170401C04E00546401C0678002EE7D163
:1001E0001060284670BD014ADCE70000580100207D
:1001F000F8B502464A40D40F42004B0052085B0853
:100200009A4202D20246084611464A0023D0C30D44
:100210004A00DDB2120EAD1A202D35DA4902012650
:10022000490AF6058A19002C00D0524220214F1BA2
:100230001146B9402A411018C20D9A4221D0002C13
:1002400017D0012D08DCDA05801AD20F8019D207E9
:10025000DBB200F0F9FAF8BDDA05801A012340009C
:100260001B06C01880185A428018CA0F1043490054
:1002700007E04908C2071143DA05801A80194008CF
:10028000801800F0D9FAF8BD61000122511A001B54
:10029000F7E70122D2075140AAE70122D2075040D6
:1002A000A6E70000F0B507460846584087B0C00FE3
:1002B000049048000E46590040084908BC1A88417D
:1002C00005D2384631461E4617460B4602465800B0
:1002D000400810434DD0300D039040055900400DAB
:1002E000490D0590401A0290402873DA1803012145
:1002F000000B09050843019004980092002806D0DD
:100300001146019A494200209041009101900298C3
:1003100040210A1A0199009800F008FA05460C4697
:100320006B4607CB00F023FAC0197141039A0E0DFA
:100330000023D71756401A467A40164344D0049AF1
:10034000002A2DD0029A012A039A15DC1205C01A40
:10035000914101263605001C7141D20F059ED2073E
:100360000093019202962A46234600F0B3FA07B0A2
:10037000F0BD38463146FAE71605234A0F46B21853
:10038000C01AB74101210905001C4F4100187F41E7
:10039000114618187941E20F10436D19644113E0BA
:1003A000E2076D0815436408C2071443039A012647
:1003B0001205C01A91413605001C7141CE07400854
:1003C00030434908C01851412A46234600F075FAC7
:1003D000CDE7FFE7049801224000C117121A00235D
:1003E0008B4104983146C417381AA141EEE730B466
:1003F0000124E407634030BC54E730B40124E4072F
:10040000614030BC4EE700000000E0FFF0B51FB4D3
:1004100088B00B990998002448400999C00F4900F9
:1004200049080991C0070B990090490049080B91B0
:1004300009990898A64608431CD00B990A980843C6
:1004400018D0099801244000420D4800410D099838
:1004500024050003000B204309900B980003000BB8
:1004600020430B9050181C4940180022019014465C
:10047000104605E0002001460DB0F0BD032801DA6A
:10048000034600E003239C46C11A0AAE0AE05F005F
:1004900008ADED5B4F00F75B7D430027AA187C4158
:1004A000491C5B1E6145F2DD410004AB5A52210438
:1004B000120C0A43240C401C0828DFDB0198029030
:1004C0000099704601910090059B049A079906983F
:1004D00000F000FAD0E700000DFCFFFFF0B50C467D
:1004E0005C4085B0E40FE40703944C0000266408E8
:1004F00059009446490802460296224321D062469A
:100500000A431ED06200570D4A000E032303550D07
:10051000012402462C492405781B1B0B360B40187E
:1005200023432643614600901C46501AB44103D32E
:100530000098401C009002E0921800985B4100284F
:1005400003DA0020014605B0F0BD002001210905B5
:100550000746864611E064461D46141BB54106D386
:100560006546521BB341744607430C43A646CD076C
:1005700040084908284392185B4105460D43EAD1DB
:100580001046184313D06046194650407140084346
:1005900006D06046101AB34106D20122002306E0BD
:1005A00000220123DB0702E00122D243531000980E
:1005B00074460105381C6141029C039D0019694184
:1005C00000F07BF9BFE70000FD0300004A000903CB
:1005D0000123090B1B051943094B10B5520D9A4213
:1005E00001DA002010BD064B34339A4203DC9A1A1C
:1005F00000F0ACF810BD03495118884010BD000050
:10060000FF030000CDFBFFFFC20FD20740004008F0
:100610000BD0C10D0723DB01C91840020905400AB0
:100620001143C2084007114370470020014670473C
:1006300010B5002904DB0124E40740428C41214627
:10064000002B04DB1C460123DB075242A3418B42F3
:1006500000D1824210BD000010B5002904DB012446
:10066000E40740428C412146002B04DB1C46012359
:10067000DB075242A341994200D1904210BD0000D5
:10068000CB0FDB07490010B5490802460A4307D0E3
:100690000A0D07240903E401090B121B002A01DCDF
:1006A000002010BDC900440F0C43C100E018D20562
:1006B000801800F0C1F810BD0122D207002800DB2D
:1006C000101A002900DB511A81427047F0B51FB49F
:1006D0000646002082B005464024019100901BE0B0
:1006E000019922460F46304600F030F8049A059BE7
:1006F000801A994110D310461946224600F016F888
:10070000361A8F410197224601200021009F00F0F8
:100710000DF838184D4100902046641E0028DFDC9B
:10072000019B00982946324607B0F0BD10B5202A3B
:1007300004DB0146203A9140002010BD9140202367
:100740009C1A0346E3401943904010BD10B5202A7F
:1007500004DB0846203AD040002110BD0B46D340B0
:10076000D0402024A21A91400843194610BD10B56C
:10077000202A06DBCB170846203A1041C1170B434D
:1007800006E00B461341D0402024A21A91400843B2
:10079000194610BD0FB400B589B00CA900910B9992
:1007A0000023CB60204B214A06930792042201923A
:1007B0001F4A02921F4A089202466B46002000F030
:1007C000CEF909B008BC04B0184770B586B006462B
:1007D0000020C0430190002015460C460091029174
:1007E00004903246694604A8FFF7D4FF02460498F5
:1007F0002118002D05D0002801D0084600E0204631
:100800002860049800280DD0002A02DD0098884254
:1008100008D0081B0190009432466946029404A84F
:10082000FFF7B8FF06B070BDB50D0000D50D000094
:10083000FFFFFF7F310A0000002904DA401C490055
:1008400001D140084000704770B40024050C05D168
:100850001024000402D1002921D01124050E01D159
:1008600000020834050F01D10001241D850F01D1BC
:100870008000A41C002801DB4000641C002908D073
:1008800020252E1B0D46F540A14000D00121294313
:10089000084301061B1B000ADB1D02D5002070BCAB
:1008A0007047DB05181880180029F8DA401C490049
:1008B000F5D170BC40084000704710B5002B08DA35
:1008C0000024401C614192185B411A4301D1400849
:1008D000400010BDF0B51FB482B005460C0003D037
:1008E000084601F0EBFA02E001F0E8FA2030024697
:1008F000009021462846FFF719FF049B059A0446FD
:100900000F4618431143084314D0184610431BD018
:10091000009840210A1A18460599FFF717FF054667
:100920000E46009A05990498FFF700FF084305D08A
:10093000012004E02046394607B0F0BD0020C11771
:1009400005430E432C43374300990E986305401A24
:100950007905E40A00220C43FD0A0A3002D5002082
:100960000146E9E70105101969410C9C0D9D00192C
:100970006941FFF7A2FFDFE770B54B005B08034357
:100980000BD04B005C0D002633466542B341D417B3
:10099000AD1AA34102DB0020014670BD12053018DC
:1009A000514170BD0EB5C217C10F5040CA07401863
:1009B0000021054B0293019200910A460B46FFF776
:1009C00089FF03B000BD0000330400004A000903A2
:1009D0000123090B1B0519430A4B10B5520D9A420E
:1009E00002DA0020014610BD064B34339A4203DC84
:1009F0009A1AFFF7ABFE10BD034BD218FFF796FE15
:100A000010BD0000FF030000CDFBFFFF064C0125D9
:100A1000064E05E0E36807CC2B430C3C98471034A6
:100A2000B442F7D3FFF77EFBE062000000630000F2
:100A300010B50F21C0B2490200F0A0FA10BD0000AD
:100A4000FFB5087889B01546FF2805D0491C2D2828
:100A500004D00022002407E000240BE00122F9E783
:100A60000A235C430419491C0878FF28F8D1002A9E
:100A700000D06442002004902A7801462D2A01D03B
:100A80002B2A0FD16D1C2D2A02D00022049209E0DE
:100A90000122FBE700260A2233466D1C00F030FAE3
:100AA000381871412F78FF2FF4D10C9AA2180692B2
:100AB00002460A4304D0FF23069A9133DA4205DA4C
:100AC000002109980A4606C00DB0F0BD0024B74ABF
:100AD000B54D2646079200F063FA029006980391FE
:100AE000002801DA474200E0074639050020AF4AF6
:100AF000001C51410191009012E0F80707D02246F6
:100B00002B4630460799FFF781FC0646079122469F
:100B10002B4610461946FFF779FC04460D467F1018
:100B2000002FEAD10698019B0028009A03990298A9
:100B300006DAFFF7D3FC3246079BFFF7CFFC05E050
:100B4000FFF764FC3246079BFFF760FC049A002A1B
:100B500002D00122D2075140099A03C2B4E7FFB57F
:100B600091B0002009900025ED432E209E685C681E
:100B70001F460190B9696D1C129888470090396A28
:100B800088470028F6D10098401C0AD00D20C001EB
:100B90008443002E12DD00982B2809D02D280DD17A
:100BA00003E00020C04315B0F0BD012080020443E3
:100BB000B9696D1C12988847761E009003A96005DC
:100BC00001D52D2000E02B206A461073491C0CA88B
:100BD0000F9102900AE0B9696D1C12988847009045
:100BE0000120400204431398761E0560002E02DDAA
:100BF00000983028EFD001990098884246D1802093
:100C0000044308E00998401E099001204002044373
:100C10001399681C0860B9696D1C761E1298884784
:100C200000903028EED031E00199884205D12006AD
:100C300003D480200443761E1EE0009801F0ACFD32
:100C4000002826D001204002044307A90F98033151
:100C5000761E88420BD200980F99303808700F9892
:100C6000401C0F90200607D50998401E03E020067F
:100C700002D40998401C0990A00502D51399681C5C
:100C80000860B9696D1C129888470090002ECBDC73
:100C900059E0002E57DD0098652801D0452852D133
:100CA000A00550D5032000028443B9696D1C761E4F
:100CB000129888470090002E0CDD2B2804D02D2898
:100CC00008D1FF2001300443B9696D1C1298884790
:100CD000761E0090E00501D52D2100E02B21029821
:100CE00001700298401C0290019025E00120400212
:100CF00004430EA902980131761E88420ED2009854
:100D0000029930380006000E087003D1029901984C
:100D100081420AD90298401C029006E0E00501D504
:100D2000234801E0224840420990B9696D1C12989D
:100D30008847009013980560002E04DD009801F0AC
:100D40002BFD0028D2D1F969129888470F99FF200E
:100D50000870029903AA087000200A900B900CA951
:100D60000AA8099BFFF76CFEA00502D40120C0432E
:100D700019E72420044209D0E00713D138680B9A00
:100D80000A99031D3B60006806C00BE00B990A98A6
:100D9000FFF776FC0146E00704D13868021D3A608F
:100DA000006801602846FEE6000014400000F03FA5
:100DB000F1D8FFFF4268002A08D001680B78491C6F
:100DC000002B03D0521E06C0184670470121C16097
:100DD000881E70474268002A0BD0C3680168002B48
:100DE00007D183688B4204D0491E521C06C00020E4
:100DF00070470020C0437047FEB500231A461B1AF7
:100E00008A4103DB0020014603B0F0BD4A000D0318
:100E100001212D0B0905520D0D43D10702D10018F8
:100E20006D41521E5110FF31FF3101310027044640
:100E30003E463846009701910246012100200905EF
:100E4000FFF784FCC3197141F818324684468E4678
:100E50004A4161462846611A904104D36046241AEB
:100E6000954176461F46241900986D41401C00901C
:100E70003428E1DDF91930467041091BA84103D23D
:100E80000022D243134601E00022134601980105D7
:100E9000381C7141FFF711FDB6E700000EB505499A
:100EA0000291002100910A460B460191FFF712FDC5
:100EB00003B000BD3304000070B5CD0F4A00090334
:100EC0000123090B1B0519430B4BED070024520DA1
:100ED0009A4201DA002070BD074B34339A4203DC9A
:100EE0009A1AFFF733FC02E00449511888402C435A
:100EF000F1D0404270BD0000FF030000CDFBFFFFBA
:100F0000F0B51FB486B000200090019002900698C2
:100F1000069980B204900798090C0204001411434A
:100F200007900027089D099806913E463C4603908D
:100F30000398A9B20204000C039004982D0C1543E9
:100F4000484300212246FFF7F1FBC71971411034D5
:100F50000E46402CECDB3846029AFFF7E7FB009A7E
:100F6000019B801800905941029801911030029025
:100F70004028CCDB00980BB0F0BD00007F2801D9E1
:100F8000002207E0054B42089A5CC00700D1120915
:100F90001207120F0120904008407047A062000025
:100FA0000EB5054A02920022009213460192FFF705
:100FB00091FC03B000BD00003304000030B58C1874
:100FC0000278401C13071B0F01D10378401C120943
:100FD00006D10278401C03E005780D70401C491CC6
:100FE0005B1EF9D101E00B70491C521EFBD1A142DE
:100FF000E6D3002030BD0000F7B50B46009DED00A4
:10100000154EAA19002000240027002120E000240A
:101010000027FF258D401D40002D17D000200FE038
:101020001D46C54001268E403540002D07D0860064
:101030000F25B5402C438600029DB5402F43401C30
:101040000828EDD31568A5433D431560121D0831EE
:101050000829DCDDFEBD00002020024070B50446FA
:101060001F48406B4607760F00F03EF820603300C3
:1010700000F054FF081605080B16160E121620680D
:10108000606010E0174860600DE0164860600AE09C
:101090000120C003606006E07D200002606002E085
:1010A0000020606000BF00BF0D48056A052D02D317
:1010B0006068400901E06068E840A0600848806A14
:1010C000072109040840050C072D04D10321A0685D
:1010D000FFF730F801E0A068E840E06070BD000074
:1010E0000080084000127A00F0B517480068FF271A
:1010F00001373840040A1448C069C50F12484068D7
:101100007F003840460A002E01D10020F0BD002C9F
:1011100001D10E4800E00D480346012D01D11846CB
:10112000F4E7094880690F27FF053840C10D002901
:1011300000D110210448806903277F053840420D03
:1011400018464843D040E1E70080084000127A008A
:101150007FB50446601180000A49461800252E2CF0
:1011600000D10225E406E40E0321A14030680840C6
:10117000E04045196846FFF771FF0298E84004B067
:1011800070BD0000388008403FB50E4C606AE16ACF
:10119000226B0446009DAC4320460C46019DAC43A7
:1011A00021461446029DAC432246002B05D0009CEC
:1011B0002043019C2143029C2243024C6062E16275
:1011C00022633FBD0080084010B500F061F90321A3
:1011D0008903074800F089F803F0B4F804F03EFEF4
:1011E00000F03EFD7D20C00002F028FB10BD000095
:1011F00000400B4030B589B00546002106910791AB
:10120000049117480591029100910A460B460191FD
:101210000390084604F040FA00247D20C00002F04C
:101220000DFB284600F026F9642002F007FBC820D9
:1012300000F074F80446002C06D001CC094908607F
:1012400001CC486020688860064B9A685968186825
:1012500003F0ACF804F098F9012009B030BD0000AB
:1012600000C060407401002081627047002A03D0F2
:1012700003680B43036002E003688B43036070471D
:10128000F0B517460024002500220CE0CE07F60F2B
:10129000002E06D053003E469E40344303269E4017
:1012A00035434910521C102AF0D34669AE434661BB
:1012B000466926434661F0BD002A06D183680B4388
:1012C0008360C3688B43C3600EE0012A06D1C36804
:1012D0000B43C36083688B43836005E083688B4363
:1012E0008360C3688B43C3607047416270470000EE
:1012F00000BF024800680028FBD0704700000020B3
:1013000010B514210348FEF732FF0020024908807F
:1013100010BD00006001002054010020F0B595B020
:10132000074644A000680C9043490EA8FEF731FF21
:1013300000BF0DAA0CA90EA8FEF734FF0446002C2E
:101340006ED0204602F018FA054600223B4BFFF70C
:1013500054F800223A4B07910690FFF7BFF8394A3C
:10136000394B09910890FFF751F80B910A90FFF75C
:1013700087F912900DAA0CA90020FEF713FF04466E
:10138000002C48D01298FFF73FF94900490805465C
:101390002E4A2F4BFFF73AF809910890204602F0A9
:1013A000EBF905460022254BFFF727F80022244BD6
:1013B00001910090FFF792F80022264B03910290D2
:1013C000FFF724F80022244B05910490FEF76AFFF2
:1013D00007910690099B089AFFF709F80B910A906C
:1013E000FFF74EF91190FFF78BFF1298FFF70CF9FA
:1013F00005460E467F21C9051198FEF7F9FE0990B2
:10140000FFF702F902460B46019600950B910A90F0
:1014100012A000F043FD1648139011A815B0F0BDBE
:10142000052002F00BFA3846791E8FB2002880D1D1
:1014300000BFF3E72C0000006001002000006440C2
:1014400000004440CDCCCCCCCCCC08409A999999A2
:101450009999A93F0000084000003840783A2025BB
:101460002E32662C20793A20252E32660D0A000095
:10147000666606C070B504462046FEF783FE85B258
:101480002A462146014800F0E2FC70BD00100040F1
:101490003EB500200090019002900121890301983F
:1014A0008843401801900901009888434018009033
:1014B0000123684607C8FFF767FE0D4C0022032191
:1014C00089030220FFF798FD0122032189032046AA
:1014D000FFF7CCFE0222032189032046FFF7ECFE32
:1014E0000122032189032046FFF7CAFE3EBD00000A
:1014F00000400B4070470000C206D20E012191400F
:10150000014A11607047000000E100E01FB50020B3
:10151000019002900390FF21013103988843401805
:1015200003904900039888434018039049010298AA
:10153000884340180290012301A807C8FFF724FE42
:10154000042201210020FFF757FD04220221002080
:10155000FFF752FD042211460020FFF74DFD042243
:1015600008210020FFF748FD042210210020FFF78A
:1015700043FD042220210020FFF73EFD684600F0D5
:1015800045FA6321684641803C4901800021017190
:1015900000200290FF210131684681816946384868
:1015A00000F014FA0121364800F082F9FF210131E0
:1015B000334800F089F96946324800F007FA012102
:1015C000304800F075F9FF2101312E4800F07CF918
:1015D000062168464180012101710021417181711C
:1015E000C17101720121417200214181818101702B
:1015F0006946234800F07AF901220021204800F0D2
:1016000045F901216846017069461D4800F06EF9F0
:10161000012211461A4800F039F90021684601708C
:101620006946184800F062F901220021154800F0CF
:101630002DF90121684601706946124800F056F9FB
:10164000012211460F4800F021F90221684601707D
:1016500069460C4800F04AF901220221094800F0CD
:1016600015F90321684601706946064800F03EF905
:1016700001220321034800F009F91FBD7F25000066
:1016800000E0064000F0064070B504460D461646E0
:1016900032462946204600F091F970BD704700009F
:1016A000C1B2054A116000BF03490969FF22013236
:1016B00011400029F8D07047000004407047000036
:1016C000042806D10649096904221143044A11611C
:1016D00005E00349096904229143014A11617047F9
:1016E00000E000E0002803D10021094A91610EE0EA
:1016F000012806D10649096901221143044A1161F2
:1017000005E00349096949084900014A1161704728
:1017100000E000E0002806D00649096902221143D2
:10172000044A116105E00349096902229143014A13
:101730001161704700E000E0014948617047000016
:1017400000E000E07047000010204B49C860012015
:101750004A4908604A48006B4021084348490863E9
:1017600000BF484880682728FBD14548406A0321CC
:101770008902884342494862084640680121C902FB
:1017800008433F49486000BF3D4880680007C00FDC
:101790000028F9D03A484068C008C000C01C384949
:1017A000486000BF3648406B4007400F0328F9D11E
:1017B00035480068C008C000401C3349086000205C
:1017C0002F49086208464068491588432C494860FB
:1017D000084600688915084329490860084640689A
:1017E000091508432649486000BF2548806840071E
:1017F000C00F0028F9D02248006B402188432049BF
:10180000086308460068891588431D49086003205D
:101810000006886108464068491508431849486031
:1018200000BF174880688007C00F0028F9D016480D
:101830000068C008C000801C1349086000201049DF
:10184000086208464068C008C000401C486000BFED
:101850000B48406B4007400F0128F9D10A48006847
:10186000102108430849086008460068012109035F
:10187000084305490860704700810840008308401C
:101880000080084000A106400002084030B5034631
:101890008D001C4640342819002A04D00468102505
:1018A0002C43046003E004681025AC43046030BDA1
:1018B000002904D0026902231A43026103E002698D
:1018C00002239A4302617047CA43C267BFF34F8F36
:1018D0007047002904D0026901231A43026103E022
:1018E000026952085200026170470000FCB50D7891
:1018F000AD0006464036AC190D78AD005036AD1936
:1019000001950D78AD001036AD1900950D786D0676
:101910002A0E03259540EF43274DA84203D1032506
:101920009540EF4302E001259540EF43224DA84248
:1019300000D100BF056D3D400565436D3B401E4D28
:10194000A84206D18D79CE797600354395402B4358
:1019500002E08D7995402B434365174DA84209D18C
:10196000C56E3D402B460D7A4E7A76003543954044
:101970002B43C3662568FF260836B54325602568D6
:101980004E88354325604E89019D2E608E89009DCD
:101990002E60094DA84208D10D794E797600354365
:1019A0009540066D3543056504E0056D0E7996405A
:1019B00035430565FCBD000000C0024030B58D0018
:1019C000044690342B191A6030BD00000B88882221
:1019D00013504B8884221350026803231B049A433C
:1019E0000260026801231B069A43026002688B684A
:1019F0001A430260044A904202D10B798C221350A0
:101A00008A8982677047000000C00240002181601F
:101A1000491E018000214180FF2101318181002187
:101A200001717047F0B589B004460D4616461F4651
:101A30000022604B20462946FEF734FC00225D4B15
:101A400001910090FEF74AFD00225B4B039102904A
:101A5000FEF728FC0022594B05910490FEF73EFD4D
:101A60000022574B07910690FEF7D0FC554A03C25F
:101A70000022504B30463946FEF714FC00224D4BF5
:101A800001910090FEF72AFD00224B4B039102903A
:101A9000FEF708FC0022494B05910490FEF71EFD5D
:101AA0000022474B07910690FEF7B0FC464A03C25E
:101AB0000022464B0F990E98FEF7F4FB0022434B91
:101AC00001910090FEF70AFD00223B4B039102902A
:101AD000FEF7E8FB0022394B05910490FEF7FEFC6F
:101AE0000022374B07910690FEF790FC384A03C25C
:101AF0000022304B11991098FEF7D4FB00222D4B99
:101B000001910090FEF7EAFC00222B4B039102901A
:101B1000FEF7C8FB0022294B05910490FEF7DEFC7E
:101B20000022274B07910690FEF770FC294A03C25A
:101B30000022264B13991298FEF7B4FB0022234B88
:101B400001910090FEF7CAFC00221B4B039102900A
:101B5000FEF7A8FB0022194B05910490FEF7BEFC8E
:101B60000022174B07910690FEF750FC1A4A03C259
:101B70000022164B15991498FEF794FB0022134B84
:101B800001910090FEF7AAFC00220B4B03910290FA
:101B9000FEF788FB0022094B05910490FEF79EFC9E
:101BA0000022074B07910690FEF730FC0B4A03C258
:101BB00009B0F0BD00E060400000E03F00003440AC
:101BC00000C0C240180000202000002000805640C5
:101BD00028000020300000203800002040000020B5
:101BE00010B520210E4800F0C3F8002816D00D488B
:101BF0000088142802D300200A4908800848006899
:101C0000C1B2084802880088401C064B188006486C
:101C1000815401214902024800F01EF810BD000065
:101C200000100040540100206001002010B5202168
:101C3000074800F09DF8002805D0054800F0F2F8AC
:101C4000C4B2044804702021014800F005F810BD1A
:101C5000000004401000002002690A400261704741
:101C600000B587B000200190029003900121890304
:101C700002988843401802908900019888434018D0
:101C80000190490001988843401801900912029878
:101C900088434018029049000298884340180290F7
:101CA000012301A807C8FFF76FFA00220121C90329
:101CB0002B48FFF701FB002208212A48FFF7FCFA16
:101CC0000622012189030020FFF796F9062201214F
:101CD000C9030020FFF790F9062204210120FFF735
:101CE0008BF9062208210120FFF786F9E120400246
:101CF0000490FF210131684681820021C182018365
:101D0000418304A9184800F03DF804A9174800F0E1
:101D100039F81820FFF7F0FB1920FFF7EDFB01223F
:101D20001146114800F074F8012211460F4800F0E6
:101D30006FF8012200210C4800F07AF801221146C8
:101D4000094800F075F801220021084800F070F8F9
:101D500001221146054800F06BF807B000BD0000F5
:101D600000000B4000200B40000004400010004029
:101D7000024610690840002801D001207047002069
:101D8000FCE7000070B504460D4660681C49084039
:101D9000E9880843A98808432989084369890843D1
:101DA000606001208007844207D11820FFF7D0F936
:101DB00006462968FEF7BEF960621248844207D1E0
:101DC0001A20FFF7C5F906462968FEF7B3F96062E5
:101DD0000D48844207D11C20FFF7BAF9064629684E
:101DE000FEF7A8F960620948844207D11E20FFF778
:101DF000AFF906462968FEF79DF9606270BD0000E4
:101E0000FCE0FFFF00000440001000400010044010
:101E1000002A03D0C3680B43C36002E0C3688B434E
:101E2000C36070470146086880B270470160704720
:101E300010B5002A05D0436810248C40234343602A
:101E400004E0436810248C40A343436010BDF8B500
:101E500007460C46154600260DE02178641C3846DE
:101E6000FFF7E4FF00BF80213846FFF781FF00281D
:101E7000F9D0701C86B2AE42EFDBF8BD70B50446F7
:101E80000D4629462046FFF7D1FF00BF802120469E
:101E9000FFF76EFF0028F9D070BD00000FB410B539
:101EA00003A9044B044A029800F07EFC10BC08BC55
:101EB00004B01847C1380000080000202021020C9F
:101EC00001D010211046020A01D01046083902093B
:101ED00001D01046091F820801D01046891E420811
:101EE00001D0881E7047081A7047F0B4040C8BB2FA
:101EF000264682B25E430D0C1046370C584336041A
:101F000080190021794116466E43370C360480193A
:101F1000794126466E438919F0BC704730B4744647
:101F2000641E2578641CAB4204D3635D5B00E31838
:101F300030BC18471D46F8E74900CA0202431000AA
:101F400000D004204A0D01D001221043044A490D5B
:101F5000914201D102210843012800D10520704798
:101F6000FF070000F7B596B014460021A160D160CC
:101F7000179909914D00CD496D088D4205DC1799DF
:101F800061602060002019B0F0BDC949C94E8D4282
:101F900038DAD32709997F050029C74A17993346AC
:101FA00017DDFEF724FAB54206D0C44AC44BFEF74B
:101FB0001EFA6160206009E03A46C14BFEF717FA4D
:101FC000C04AC14BFEF713FA61602060012019B0CE
:101FD000F0BDFEF767F9B54206D0B84AB84BFEF738
:101FE00061F96160206009E03A46B54BFEF75AF9A5
:101FF000B44AB54BFEF756F9616020600020C0433B
:1020000019B0F0BDB1498D42179977DC49004908F4
:102010000746AF4AAF4B0491FEF7F8F90022AE4BEA
:10202000FEF740F9FEF748FF0A90FEF7BBFCA24A14
:10203000334603910290FEF7E9F93A46049BFEF716
:10204000DCF906460F469D4A9D4B03990298FEF720
:10205000DDF92A0D01250C9232463B46FEF7CDF9FB
:1020600061602060032D39D04800410D0C98401A62
:10207000690169181139814230DA98492801794497
:1020800008960D900818049743680268039902980F
:10209000FEF7BCF902460B46079106900499089892
:1020A000FEF7A5F906460F46049B089AFEF7A5F928
:1020B000079B069AFEF79BF905918949049079449C
:1020C0000D984018C368826803990298FEF79EF93C
:1020D000059B049AFEF78BF96D1CBDE70998002853
:1020E00009DA01226068D207504060600A9819B08E
:1020F0004042F0BD02E00A9819B0F0BD0903012288
:10210000090B12050E908918179810914000754917
:10211000400D40184111C006C00E0D9113902021B2
:10212000081A14900020069005250790139800289F
:102130000D980CD0401982006B4878448758139949
:102140008F40101841681498C1400F4304E04019B3
:10215000810066487844475810993846FFF7C5FE15
:1021600006460A9138460E99FFF7BFFE8A190A9B68
:102170008A4201D2012100E00021C9188C46AF003B
:10218000694679188B684E68C318834201D20120D2
:1021900000E0002096193618002802D0964202D995
:1021A00003E0964201D2012000E0002062461218AE
:1021B0004E6068468B60C25128466D1E0028B5DC13
:1021C0000121029849074018800F13900298059941
:1021D0008000039E049D0B91FEF7E4FB074630460A
:1021E0000891FEF75BFE1D22D243FEF7C5FB10905F
:1021F0000F912846FEF752FE3D22D243FEF7BCFB6C
:102200000E900D910B98FEF749FE5D22D243FEF72A
:10221000B3FB0B910C900D9B0E9AFEF743F80F9BAE
:10222000109AFEF73FF83A46089BFEF73BF8002568
:102230000E463A462846089BFEF7D9F80F9B109A9F
:10224000FEF7D5F80D9B0E9AFEF7D1F80B9B0C9A72
:10225000FEF7D3F8264A274BFEF7D8F807460D912C
:10226000254A264B31462846FEF7D0F83A460D9BC4
:10227000FEF718F80F4615220C9092061D4B3146BA
:102280002846FEF7C3F83B460C9AFEF70BF8179A60
:10229000002A05DA139A524213920122D2075140C2
:1022A00061602060139819B0F0BD0000FB21E93F88
:1022B0007CD90240FB21F93F000040543163621A8F
:1022C00061B4D03D7370032E8A19A33BFB213941C1
:1022D00083C8C96D305FE43F0000E03F2E4100003D
:1022E000EE4000000BFCFFFFA24000008840000011
:1022F000182D4454FB21F93D3326A611460B113C01
:10230000F0B51FB44E00F9207608800584B00F4662
:10231000864204DA0498FEF7CFFD002838D0049AEC
:102320003B4610461946FEF771F8044602462C4813
:102330000D460B460621784400F05CF822462B46F9
:10234000FEF764F8019100903946079B069A0498BD
:10235000FEF75CF80746029120462946019B009A49
:10236000FEF754F83A46029BFEF741F80746002272
:102370000091D24320462946FEF7FEFA194A9642BA
:102380000ADA3A46009BFEF732F80022164B23E0A9
:102390000020154909B0F0BD144A964202DD002420
:1023A000134D03E001225205B51A002422462B46A4
:1023B000FEF71DF80646019122462B4600200A49E9
:1023C000FEF715F80D4604463A463046009B019943
:1023D000FEF70DF822462B46FEF70FF809B0F0BDC8
:1023E0003E3E00003333D33F0000F03F0000E93FA2
:1023F0000000D23FF8B504464F1EC8000838211827
:1024000015461E46086849683A4606239A4310D086
:102410002A463346FDF7FAFF3A46D200083AA31897
:102420001A687F1E5B68FDF73DFF06223B4693431B
:10243000EED1022F23D0042F11D0062F2FD12A4600
:102440003346FDF7E3FFE36AA26AFDF72BFF2A4656
:102450003346FDF7DBFF636A226AFDF723FF2A4656
:102460003346FDF7D3FFE369A269FDF71BFF2A4658
:102470003346FDF7CBFF63692269FDF713FF2A4658
:102480003346FDF7C3FFE368A268FDF70BFF2A465A
:102490003346FDF7BBFF63682268FDF703FFF8BD15
:1024A000F0B51FB4054648000C46F92140088905DF
:1024B00086B088420BDA28462146FFF73DFD042806
:1024C00001D100F089F8284621460BB0F0BD2A461C
:1024D000234610461946FDF799FF06460F462A4641
:1024E0002346FDF793FF00902548019132463B4675
:1024F00005217844FFF77EFF029010980391002891
:1025000029D0204A204B01990098FDF77FFF0490C5
:10251000059168460FC8FDF779FF002201910090F0
:10252000D24309990898FEF727FA019B009AFDF714
:102530005EFF32463B46FDF769FF099B089AFDF7AF
:1025400056FF059B049AFDF752FF2A462346FDF7E6
:1025500054FF0BB0F0BD0B4630463946029AFDF7EA
:1025600055FF084A084BFDF79DFE019B009AFDF7B9
:102570004DFF2A462346FDF795FE0BB0F0BD000047
:10258000823D0000495555555555C5BF002210B52F
:10259000134610460149FDF7A1FF10BD0000F03FB2
:1025A00010B50122FEF7E8F910BD10B5FDF77AFE6F
:1025B00010BD002210B5134610461146FDF78EFFE0
:1025C00010BD000010B50721024A00200907FEF7E0
:1025D000D3F910BD01030000034A10B50020110714
:1025E000FEF7CAF910BD000001FDFFFF01480068B9
:1025F000704700005C01002002E008C8121F08C1FB
:10260000002AFAD170477047002001E001C1121F73
:10261000002AFBD1704700000149086070470000A4
:102620005C010020F0B51FB486B00998089A030D2C
:102630000021024314D05148514A18185043051440
:102640001198012810981AD0281A401C00264D4FC6
:102650004D49009601910490002812DA444211E09D
:102660001198012449A3012801D11098C14306986B
:10267000119A84600360C26041600BB0F0BD4042BB
:10268000E4E70446210500203F4A001C5141039124
:10269000029012E0E00707D032463B4601990098CD
:1026A000FDF7B4FE0191009032463B4610461946B4
:1026B000FDF7ACFE06460F466410002CEAD10498E4
:1026C000039B0028029A0999089806DAFDF79EFEF6
:1026D000019B009AFDF79AFE05E0FDF7FFFE019BC6
:1026E000009AFDF7FBFE04460E460022284BFDF73C
:1026F000B3FF03D80020C043014607E00022254B6A
:1027000020463146FDF7CEFDFEF760F9102409E0C2
:10271000002C0ADB0A220023FDF7D8FF079B30328A
:102720001A55641E02460A43F2D11122641C079B0B
:10273000121B1C19119B012B03D0012308430ED13E
:102740000AE0084304D0112010900020119077E790
:102750001098151A6D1E0BE01098824202DD0023BE
:102760006D1C03E0824201DA00236D1E002BEED0C7
:10277000069811998260C16030C07EE701FCFFFFBE
:10278000104D0000000014400000F03F3000000039
:102790000000F0430000E03F30380A2801D2012059
:1027A0007047002070470000FFB597B0064600252F
:1027B0001BE2252876D100242746F749049400E03F
:1027C0000443761C32780120203A90400842F7D129
:1027D00030782A280ED00222307801463039092973
:1027E00016D804990A235943303940181443761CEB
:1027F0000490F1E7189802C804911890002904DAAF
:102800000120400304434842049002200443761C04
:1028100030782E2814D1042004437078761C2A289E
:1028200009D11898761C80C8189009E00A214F43F6
:10283000303FC719761C3078014630390929F5D95F
:1028400030786C2810D006DC4C281AD068280ED0BE
:102850006A2817D104E0742813D07A2812D110E026
:102860000120400504430CE00121090501E003219A
:1028700009050C437178814203D101200005241819
:10288000761C761C307866280BD013DC58287DD057
:1028900009DC00287BD04528F6D04628F4D047280C
:1028A0001AD1A9E118E0632835D0642870D06528D2
:1028B00012D1A1E170286CD008DC6728F1D069281A
:1028C0007DD06E280DD06F2806D1BCE073282ED0A5
:1028D000752873D0782859D01A9A199990476D1C89
:1028E00082E16002400F022809D003280DD004289D
:1028F000189801680DD00D60001D189074E11898AB
:10290000EA1701680D604A60F6E7189801680D80C3
:10291000F2E70D70F0E718986A4601781172001D11
:1029200018900020507202A80090012005E018982D
:1029300002C8189000200091C04361070ED5002105
:1029400001E00199491C0191B94213DA8142F8DB97
:10295000019A0099895C0029F3D10BE0002101E084
:102960000199491C01918142FADB019A0099895C25
:102970000029F5D1019904981A9B471A2146384637
:10298000199A00F099FA4019019903E051E030E1F9
:1029900015E050E0451807E0009800990078491CC0
:1029A00000911A9A199990470198401E0190401C75
:1029B000F2D1214638461A9B199A12E137E00A20D3
:1029C0000021009001916002410F022907D0189A5E
:1029D00001CA1892C2179446032908D00AE0189831
:1029E000C01DC108C90005C91891944607E000B28E
:1029F000C2179446042902D140B2C1178C46002266
:102A00006146944506DA0A460021404291418C46CF
:102A10002D2102E0210504D52B216A4611730121E5
:102A200003E0E10701D02021F7E7029156E00A20F8
:102A30000AE0102008E01020009000210420044348
:102A40000191082703E00820002101910090600215
:102A5000410F022907D0189A01CA18920022944601
:102A6000032908D008E01898C01DC108C90005C98D
:102A70001891944603E080B2042900D1C0B200212D
:102A8000029121072AD531780D91702906D0009A3C
:102A90001021019B4A401A4305D00EE040216A46AE
:102AA0001173012108E06146014306D030216A46D6
:102AB00011730D99517302210291009A0821019B13
:102AC0004A401A430AD16146014301D1610705D545
:102AD00030216A46117301217F1E029131785829F5
:102AE00004D02EA10E910DA90D910DE030A1F9E7B2
:102AF0006146019B009AFDF7E9FD0E9B8C469B5CAD
:102B00000D9A521E0D92137061460143F0D10D983B
:102B100005A9081A20300190600703D501200004A0
:102B2000844300E001270198874201DD381A00E064
:102B30000020019900904118029809180498401A41
:102B40000490E00306D421461A9B199A049800F0D9
:102B5000B3F94519002706E003A81A9AC05D199930
:102B600090476D1C7F1C02988742F5DBE0030CD573
:102B700021461A9B199A049800F09EF9451904E021
:102B80001A9A3020199990476D1C0099481E0090A0
:102B90000029F5DC1FE00000092801003031323344
:102BA0003435363738396162636465660000000089
:102BB0003031323334353637383941424344454673
:102BC000000000000D980D990078491C0D911A9A8B
:102BD000199990476D1C0199481E01900029F1DC5C
:102BE0004DE100F059F94519761C3078002800D0E5
:102BF000DFE528461BB0F0BD600700D40627189813
:102C0000C01DC108C90048680A680831C30FDB0746
:102C10001891190001D09CA108E0210501D59BA1C4
:102C200004E0E10701D09AA100E09AA143001091CD
:102C300030785B0865280CD006DC452809D046288A
:102C40001DD0472841D141E0662818D067283CD1E3
:102C50003CE00021112F01DB112000E0781C0191E4
:102C6000009008A911A8FFF7DDFC13990591002138
:102C7000119A15927F1C12980197009150E0012043
:102C8000C00703900120019008A9009711A8FFF741
:102C9000C9FC139A149905920022119B0092129874
:102CA0001593059A0192002901D0104602E0791C83
:102CB00040180190381A01D5019804E04042401EA6
:102CC0000090781C0190C01B029043E0012F00DAB5
:102CD00001270021112F01DD112000E0384601916C
:102CE000009008A911A8FFF79DFC13990591119A6E
:102CF0000021129815920091019721070CD4059993
:102D0000B94201DB019900E00191012904DD159A26
:102D1000491E515C302906D0B84201DA011D05DA9E
:102D20000121029115E00199491EEDE7002805DC1B
:102D30000099411800910199091A03E0019A411C78
:102D4000914200DD01910099401A401C029001203F
:102D5000C0070390200706D402990198814202DB44
:102D60000020C043029000206946C87707AF0121C8
:102D700003980337C907884224D0022011902B20E2
:102D80001290039800280CDA404203902D201290F4
:102D900007E00A210398FDF7CDF930317F1E03903B
:102DA00039701199481E11900029F2DC039800280F
:102DB000EFD1791E129808703078202108404530F4
:102DC000BF1E387006A8C01BC01D03901098007865
:102DD000002800D00120019941180298C017091855
:102DE000039809180498401A401E0490E00306D482
:102DF00021461A9B199A049800F05EF8451910981C
:102E00000078002803D01A9A199990476D1CE003A6
:102E100024D521461A9B199A049800F04DF84519BB
:102E20001CE00098002807DB00990598884203DD24
:102E30001598405C199901E0199930201A9A904729
:102E400000986D1C401C00900298401E02900028C3
:102E500004D11A9A2E20199990476D1C0199481E89
:102E600001900029DDDC05E038781A9A7F1C199959
:102E700090476D1C0399481E03900029F4DC2146FD
:102E80001A9B199A0498ACE62D0000002B00000054
:102E90002000000000000000F8B5044600251E4692
:102EA0001746880404D405E039462020B0476D1C3D
:102EB000641EF9D52846F8BDFFB50446002581B04B
:102EC0001E46C80301D5302700E02027880404D51A
:102ED00005E038460399B0476D1C641EF9D52846B5
:102EE00005B0F0BDF0B505460C46480088494008DD
:102EF00085B0884221DB4942411829430CD08549DD
:102F0000884203DC884211D1002D0FD0284621468B
:102F1000FFF746FB05B0F0BD002C03DD00200146A5
:102F200005B0F0BD7C487D4905B0F0BD0120FFF73C
:102F300073FBFFF73EFB05B0F0BD794988423FDAED
:102F40007849884203DC7448774905B0F0BD2A46C9
:102F5000234610461946FDF759FA064602467348BD
:102F60000F460B4606217844FFF744FA32463B46AB
:102F7000FDF74CFA00906E48019132463B46042121
:102F80007844FFF737FA32463B46FDF73FFA002216
:102F90005F4BFDF787F902460B4601990098FDF754
:102FA0009DFA2A462346FDF731FA624A624BFDF745
:102FB00024FA2A462346FDF720FA574A5A4B4AE09C
:102FC0000027FF43002C4ADA514E002233462846A0
:102FD0002146FDF767F93A46FDF7CEFC0446024666
:102FE00056480D460B4606217844FFF703FA224661
:102FF0002B46FDF70BFA00905148019122462B46D3
:1030000004217844FFF7F6F922462B46FDF7FEF936
:1030100000223346FDF746F906460F46204629466C
:1030200002F0A4FF04460D4632463B460199009843
:10303000FDF754FA22462B46FDF7E8F93D4A3E4B90
:10304000FDF7D5F922462B46FDF72CF90122FDF7B5
:1030500093FC314A314BFDF7D0F905B0F0BD0022A9
:103060002B4B28462146FDF7C8F93A46FDF784FC6C
:1030700005460E4602F07AFF00270C463A460B46FC
:103080000490FDF70FF93A4623460191009010464F
:103090001946FDF7BBF933462A46FDF7AEF9019B09
:1030A000009AFDF71BFA00902648019133462A4604
:1030B00006217844FFF79EF933462A46FDF7A6F924
:1030C00002902148039133462A4604217844FFF7B1
:1030D00091F933462A46FDF799F900220C4BFDF78A
:1030E000E1F802460B4603990298FDF7F7F92346EB
:1030F000049AFDF78BF9019B009AFDF7D3F83A4645
:103100002346FDF7CFF80122FDF736FC05B0F0BDF0
:103110000000F03F0000F07F182D4454FB210940CF
:103120000000E03F0000603CFB21F93F4E30000012
:1031300064300000075C143326A6913CCC2F0000BD
:10314000E22F0000022F0000182F0000F0B5044607
:103150004F008E488FB07F080D460D91874228DBC7
:103160004042381820430CD08948874203DC87420C
:1031700018D1002C16D020462946FFF711FA0FB0BF
:10318000F0BD844A844B20462946FDF73FF90746A7
:103190000E46824A824B20462946FDF737F93A46C9
:1031A000334649E00120FFF737FAFFF702FA0FB084
:1031B000F0BD7C48874243DAF920800587420BDA6C
:1031C00020462946FEF7B8FE042801D1FFF704FA8D
:1031D000204629460FB0F0BD22462B461046294610
:1031E000FDF714F9064602466F480F460B460621C6
:1031F0007844FFF7FFF832463B46FDF707F90690A3
:103200006A48079132463B4604217844FFF7F2F8BA
:1032100032463B46FDF7FAF800225C4BFDF742F8D8
:1032200002460B4607990698FDF758F922462B46A9
:10323000FDF7ECF822462B46FDF734F80FB0F0BD51
:103240002046524C6900490800222346FDF7D5F874
:103250000022D243FDF790FB0546024654480E4635
:103260000B4606217844FFF7C5F82A463346FDF79A
:10327000CDF806904F4807912A46334604217844FA
:10328000FFF7B8F82A463346FDF7C0F80022234678
:10329000FDF708F8059104902846314602F066FED5
:1032A000089045480C46874219DB059B049A07990C
:1032B0000698FDF713F902460B4621460898FDF7DC
:1032C000A5F82346089AFCF7EDFF0122FDF754FB11
:1032D000304A314BFDF78BF8304A314B4AE000273A
:1032E0003A460B460898FCF7DDFF3A4623460A911A
:1032F0000E9010461946FDF789F82A463346FDF729
:103300007CF80A9B0E9AFDF7E9F805460E46059BE8
:10331000049A07990698FDF7E1F8009104900122BC
:1033200028463146FDF728FB1A4A1B4BFDF765F886
:103330000E460546012221460898FDF71DFB009B1D
:10334000049AFDF763F82A463346FDF750F8054620
:103350000E46012238462146FDF70EFB0F4C174F53
:1033600022463B46FDF749F82A463346FDF745F825
:1033700022463B46FDF741F80D9A002A00DD5DE745
:103380000122D20751400FB0F0BD00000000F03F15
:103390000000F07F075C143326A6913C182D44549E
:1033A000FB21F93F0000E03F142E00002A2E000010
:1033B000A02D0000B62D00003333EF3FFB21E93F85
:1033C000F0B589B004460D464800069172494008A0
:1033D000884215DB7149884203DC884207D1002C02
:1033E00005D020462946FFF7DBF809B0F0BD6C4850
:1033F000002D02DD6B4909B0F0BD6B4909B0F0BD8D
:103400006A49884211DA6A4988420BDA204629461D
:10341000FEF792FD042801D1FFF7DEF82046294689
:1034200009B0F0BD0026F6435DE06D0061496D080E
:10343000884232DA6049884219DA0026012332468E
:103440009B0720462946FCF72DFF074601910122E4
:1034500020462946FDF790FA0022584BFCF7C7FF9B
:103460003A46019BFDF73AF804460D463BE001263B
:103470000022524B20462946FCF714FF07460091D4
:1034800000224E4B20462946FCF7B1FF3A46009BEE
:10349000FDF724F804460D4625E04949884219DA2B
:1034A00002260022474B20462946FCF7AFFF0022A8
:1034B000424BFCF7F7FE074602910022414B2046A3
:1034C0002946FCF794FF3A46029BFDF707F80446AD
:1034D0000D4608E0032622462B4600203A49FCF719
:1034E000FDFF04460D4622462B4610461946FCF7C2
:1034F0008DFF07460B4602460191FCF787FF024607
:10350000029032480B46039106217844FEF772FF81
:103510003A46019BFCF77AFF00902D480191052166
:103520007844039B029AFEF765FF039B029AFCF71F
:103530006DFF02460B4601990098002E0BDAFCF74E
:10354000B1FE22462B46FCF761FF22462B46FCF7D4
:1035500054FF09B0F0BDFCF7A5FE22462B46FCF750
:1035600055FF1C4AF6007A4493191A685B68FCF709
:103570003EFF22462B46FCF73AFF174A7A4493193E
:103580001A685B68FCF739FF069A002AE1DA012223
:10359000D207514009B0F0BD000010440000F07F98
:1035A000182D4454FB21F93FFB21F9BF0000DC3FFB
:1035B0000000203E0000F33F0000E63F0000F03F27
:1035C000008003400000F83F0000F0BF3A2C0000EC
:1035D000FC2B0000962B0000602B0000F0B51FB400
:1035E000039A029D53006E422E439446F40F5B08EB
:1035F0004A00574E52081C438E46B44205D84742F3
:103600000743FC0F1443B44205D92A466346FEF72C
:10361000CCFF05B0F0BD4F4E66442E430AD0CC0F10
:103620006646B61702273E40264304464A4F1443D7
:1036300004D00BE0FFF7C4FE05B0F0BD002EFBD0B8
:10364000012EF9D0022E32D0032E34D01C462C434A
:103650000BD03F4CA34216D1A2420AD101218907C7
:103660008B438A43114603930DE0704600280FDB1D
:1036700025E03A4D7D44002E0ED0012E10D0022EB2
:1036800015D0032E17D0A2421DD17046002816DA9D
:103690003148334905B0F0BD6968286805B0F0BD10
:1036A00001226968D2072868514005B0F0BD38464C
:1036B0002C4905B0F0BD38462B4905B0F0BD264871
:1036C0002A4905B0F0BDD21A12153C2A02DD224D5E
:1036D000264C12E06346002B05DA3C23DA4202DA7C
:1036E00000252C4609E0039B029AFCF7F7FE4900EF
:1036F0004908FFF765FE05460C46002E12D0012E44
:103700000DD01B4A1B4B022E2846214618D0FCF731
:103710006EFE3A46134BFCF76AFE05B0F0BD012081
:10372000C00744400022134628462146FCF780FF8C
:1037300002D10220FEF770FF2846214605B0F0BDF9
:10374000FCF755FE3A46074BFCF757FE05B0F0BDB7
:103750000000F07F000010C0182D4454302B0000F2
:10376000FB21F9BFFB210940FB2109C0FB21F93FE7
:10377000075C143326A6A13C30B583B00446FEF79F
:1037800035FF05460020009002460190214668461C
:10379000FDF71BF82846FEF73FFF0199009803B09C
:1037A00030BD000000B54A00224B520887B09A4253
:1037B00002DC0022134625E01F4B9A4208D1002864
:1037C00008D10120FEF728FFFEF7F3FE07B000BD89
:1037D0009A4203DBFEF7E4FE07B000BD02AAFEF743
:1037E000C1FB8107890F0BD0012001290ED00229CE
:1037F00016D0009002A80FC8FEF752FE07B000BD19
:1038000002A80FC8FEF77CFD07B000BD009002A81B
:103810000FC8FEF745FE0122D207514007B000BD98
:1038200002A80FC8FEF76CFD0122D207514007B075
:1038300000BD0000FB21E93F0000F07F10B5044609
:1038400003E07D20C00000F007F82046611E8CB226
:103850000028F6D110BD000070B504460420C04316
:10386000FDF72EFF13490968C8081349FCF762FCED
:103870000646FDF761FF0020FDF74CFF0020FDF735
:1038800031FF0120FDF72EFF002508E000BF0B48A7
:1038900000690121090408400028F8D06D1CA542E8
:1038A000F4D30120C043FDF71DFF0020FDF71AFFF0
:1038B00070BD00000400002040420F0000E000E066
:1038C00070B504460D462046FDF7EAFE70BD0000C7
:1038D000FDF77AFC2CE017480078F8280FD100207B
:1038E00014490870032189031348FDF7BDFC13A098
:1038F000FDF780FCA5211248FEF7C0FA18E00D483C
:103900000078F9280FD100200A49087003218903A3
:103910000948FDF7A9FC0BA0FDF76CFCA5210848A0
:10392000FEF7ACFA04E0032189030348FDF7DDFC50
:10393000D1E700001000002000400B4031000000E3
:103940000000044032000000F0B51FB496B0844679
:103950000C460246199D18980390490068006300C0
:10396000490840080193002A01D0012600E0002602
:103970009E19FE4BF6185B109E422BD36E00039FE0
:103980000296002F00D00127F719F84EF84BBE1908
:103990009E421FD3039E0346F64F334309D03B4656
:1039A0009C4201D1002A04D0019B002A05D00126A7
:1039B00004E0002039461BB0F0BD00269E19EE4BF6
:1039C0009E4207D8039F029E002F00D00127F619C0
:1039D0009E4207D92B4660462146189AFEF7E5FD20
:1039E0001BB0F0BD0023002C29DAE44EB04226DAE9
:1039F000E34EB04201DB022321E0DE4EB0421EDB8B
:103A0000E04E070DBE19142E09DD3427BF1B039E9F
:103A1000FE400196BE40039FBE420BD00FE0039FC5
:103A2000002F0CD11427BF1B0646FE400196BE4056
:103A3000864204D1019BDE07F60F02239B1B0E4634
:103A4000164318D1002D16DA002C03D0022B01D01A
:103A5000012B06D00220FEF7DFFDFEF797FD1BB01D
:103A6000F0BD0220FEF7D8FDFEF790FD0122D2073F
:103A700051401BB0F0BD039E002E61D1BF4EB0423D
:103A800020D1C148844201D1002A08D0B9488142DE
:103A900009DB002D10DB189829461BB0F0BD002073
:103AA000B4491BB0F0BD002D06DA01222946D20729
:103AB000189851401BB0F0BDB44979440868496872
:103AC0001BB0F0BDAB4FB84225D1002D1FDA002945
:103AD00004D0B14212D1002A09D018E0002A72D1D4
:103AE000A649E20F0020D20711431BB0F0BD002011
:103AF000E20F0146D20711431BB0F0BDB14206DA16
:103B0000234600203946FCF7E9FC1BB0F0BD104607
:103B100021461BB0F0BDB14212DA0126B607B5420C
:103B200003D1234610461946FEE3994EB54207D10C
:103B3000261E05DB1046314602F018FA1BB0F0BD18
:103B400067007F081646002A40D100290AD08B4A18
:103B5000914229D1002C0EDD002D1CDB00201146E6
:103B60001BB0F0BD022B16D0002C14D0012B12D1AB
:103B7000002C14DB0FE0002C28DA002D09DB012BD0
:103B800003D000207D491BB0F0BD002081491BB04F
:103B9000F0BD012B03D0002001461BB0F0BD00207A
:103BA0000121C9071BB0F0BD724A91420ED1002C11
:103BB00001DA002B17D0022B06D00020C043FCF7FF
:103BC000F1FE1BB0F0BD90E20120F8E7E217521CB5
:103BD00094461A4307D000220892664C62465B1E48
:103BE0001A4307D009E00120FEF716FDFEF7E1FCBD
:103BF0001BB0F0BD0022644C0892674A90427DDD04
:103C0000664B674A98421FDD914202DC002D05DBBE
:103C10004DE05848814217DB002D48DD0220FEF7B9
:103C2000FBFCFEF7CFFC05460E460022534B214617
:103C30000898FCF7EBFB084671004908C00FC00765
:103C4000014328461BB0F0BD914215DA002D2EDA53
:103C50000220FEF7E1FCFEF7B5FC05460E46002209
:103C6000464B21460898FCF7D1FB72005208C80F5A
:103C7000C0070243114617E03E4B994223DD002D59
:103C800015DD0220FEF7C8FCFEF79CFC05460E463B
:103C900000223A4B21460898FCF7B8FB0846710011
:103CA0004908C00FC007014328461BB0F0BD0220E1
:103CB000FEF7B2FCFEF790FC49004908E20FD2077C
:103CC00011431BB0F0BD002230463946FCF78FFB94
:103CD000012205460E46D243FCF74EFE314A324BD6
:103CE000FCF78BFB2A463346FCF790FB0022284B5F
:103CF000FCF783FB07462A46334600E064E0039165
:103D000010461946FCF782FB3A46039BFCF77EFB04
:103D10000746032209915207244B28463146FCF7F7
:103D200075FB07910C90224A204B38460999FCF705
:103D30006DFB074601911F4A1F4B28463146FCF791
:103D400065FB3A46019BFCF752FB07460B460246D1
:103D5000099107990C98FCF7A5FA00250E4628460C
:103D6000079B0C9AFCF743FB3A4627E0FFFF1F0036
:103D7000FFFF0F000000F03F0000E0FF0000F07FB9
:103D80000000404301FCFFFF0000F0BFEA260000F6
:103D90000000E03F0000F0FF0000E0410000F043C1
:103DA000FFFFEF3F555555555555D53F4715F73F43
:103DB000FE822B6544DF5DF80BAE543E099BFCF799
:103DC0001CFB02460B4652E1012500202D05A942AD
:103DD00007DA352230463946FCF7CEFD0646342058
:103DE000C0430A151218FE48101803900803FD4935
:103DF000000B01430F46FC49884201DC002003E030
:103E0000FA49884202DA0120119005E00020119061
:103E10000398401C7F1B039011980597C200F4483B
:103E20000F927844801843680268394630460D93F3
:103E30000292FCF7DCFA07910C9030460D9B029A37
:103E40000599FCF72FFA02460B460020E549FCF7DE
:103E500045FB09910490079B0C9AFCF7D7FA129046
:103E600000201090E3480D46784400680E90012130
:103E700078104907084311990D9B890440180121C6
:103E8000C90447183946029A0E98FCF7B0FA324630
:103E9000059BFCF7B2FA02460B4629461098FCF740
:103EA000B5FA064602913B4629460E9A1098FCF751
:103EB000ADFA079B0C9AFCF7A0FA3246029BFCF77E
:103EC00096FA099B049AFCF7A1FA0591129A0A90B6
:103ED0002B4610461946FCF799FA06460246C64894
:103EE0000F460B4606217844FEF784FA32463B46DD
:103EF0000091049010461946FCF788FA009B049A3A
:103F0000FCF784FA06460F462B461946129A10987B
:103F1000FCF7C8F9059B0A9AFCF778FA32463B464B
:103F2000FCF7C0F9109A079104902B4610461946E9
:103F3000FCF76CFAB14E0022334609910290FCF76F
:103F4000B1F9079B049AFCF7ADF900200746024639
:103F500033460091FCF74BFA099B029AFCF747FAAB
:103F6000079B049AFCF749FA06460D913A46294602
:103F7000009B1098FCF74AFA07910C902B463046AC
:103F8000129A0D99FCF742FA05460E463A46009BF6
:103F900005990A98FCF73AFA33462A46FCF782F963
:103FA00002460B460746099107990C98FCF77AF9E7
:103FB00000250E462846079B0C9AFCF718FA3A464D
:103FC000099BFCF71AFA07460722099152078C4B06
:103FD00031462846FCF71AFA07910090894A884B27
:103FE00038460999FCF712FA07460191864A874B31
:103FF00031462846FCF70AFA3A46019BFCF752F98B
:10400000834B7B440F9A9B181A685B68FCF74AF94C
:10401000029009910398FCF7C5FC05910490099B57
:10402000029A07990098FCF73DF97A4B7B440F9A66
:104030009B181A685B6817460393FCF733F9059BD6
:10404000049AFCF72FF90E462846059B049AFCF7C4
:10405000CEF93A46039BFCF7CAF9079B009AFCF796
:10406000C6F9099B029AFCF7C8F902460B46199952
:1040700000200C900F461898FCF7C8F902910490A4
:104080003B460C9A19991898FCF7B1F92A46334621
:10409000FCF7BCF9029B049AFCF704F909910E9015
:1040A0002A46334639460C98FCF7B0F906460F46C7
:1040B000099B0E9AFCF7F6F8574A0D46914220DB11
:1040C0005242AA18024310D132463B46FCF78FF900
:1040D00004900391514A524B09990E98FCF7E2F86B
:1040E000039B049AFCF7B8FA1ED20220FEF794FA5A
:1040F000FEF768FA49004908E20FD20711431BB0E6
:10410000F0BD6A00474B52089A420DD3464AAA189E
:10411000024300D0CBE532463B46FCF768F9099BE9
:104120000E9AFCF799FAF5D96800002340082C494B
:104130000393020D3D4B5218984223DD01200005E8
:10414000521CD04042195000400D40183849794463
:10415000096813468C463749C1408B43120301213D
:10416000120B090551181422101AC1400391002D99
:1041700001DA48420390624630463946FCF737F987
:1041800006460F4632463B4609990E98FCF78AF8D8
:1041900000252A46284B28460591FCF737F9079158
:1041A0000C90264A264B28460599FCF72FF90091DA
:1041B000029032463B4628460599FCF718F9099BC0
:1041C0000E9AFCF71AF91F4A1F4BFCF71FF9009BC8
:1041D000029AFCF767F807460B460246099135E05C
:1041E00001FCFFFF0000F03F8E9803007AB60B0041
:1041F000322200003C2300009E2100000000084005
:1042000009C7EE3FFD033ADCF5015B14E02F3EBE2B
:10421000722000003820000000009040FE822B65D4
:104220004715973C00CC904000346F3F0000E03FC2
:1042300056200000FFFF0F00432EE63F396CA80C0C
:10424000615C20BEEF39FAFE422EE63F07990C98DA
:10425000FCF728F805460E46079B0C9AFCF7C7F8B2
:104260003A46099BFCF7C9F809912A4633460E9055
:1042700010461946FCF7CAF8074602462F480B4677
:10428000059105217844FEF7B5F83A46059BFCF701
:10429000BDF82A463346FCF7B0F807460191284698
:1042A0003146099B0E9AFCF7B1F8099B0E9AFBF771
:1042B000F9FF012304910C9000229B0738460199D5
:1042C000FCF795F805910E903A4628463146019B39
:1042D000FCF79CF8059B0E9AFCF700F9049B0C9ADE
:1042E000FCF785F82A463346FCF781F80022144B88
:1042F000FCF783F8064603980D4600054119091599
:10430000002912DC30462946039AFCF735FBFDF7FD
:1043100013FE042801D1FEF75FF930462946039ABF
:10432000FCF72AFB064601E004E029180B4632465A
:1043300021460898FCF76AF81BB0F0BD301E00005B
:104340000000F03F10B5FDF7E1F82D221201002129
:104350001448FDF799F92D22120101211148FDF7AA
:1043600093F92D22120100210F48FDF78DF92D221E
:10437000120101210C48FDF787F92D2212010221BB
:104380000948FDF781F92D22120103210648FDF7A6
:104390007BF901210348FDF79CFA01210248FDF752
:1043A00098FA10BD00E0064000F0064007B5CAB01C
:1043B0000021FE4842914390FD48FE493D913C90CA
:1043C000FD48FE493B913A90FD48FE4939913890AD
:1043D00000201F904A98FCF717F91D911C904B98EC
:1043E000FCF712F91B911A901D9B1C9AFFF7F6F827
:1043F0002791269027992698FFF7D4F91D911C90B4
:104400004A98FCF701F91B911A901D9B1C9AFCF726
:1044100065F84191409000214A98FCF74DF904D18C
:104420004B98FCF7F1F8419140904C98FCF7ECF870
:104430003F913E900021E4482C912D90FEE3E34A09
:10444000E34B2D992C98FBF7E1FF2D912C90002048
:10445000012189073B9B3A9AFBF7D8FF17911690E9
:10446000399B389AFBF7D2FF1B911A902D992C9803
:10447000FFF798F9139112900020012189073F9BC3
:104480003E9AFBF7C3FF0F910E903D9B3C9AFBF7C2
:10449000BDFF11911090139B129AFBF7B7FF179174
:1044A00016902D992C9801F013FD0F910E9000207D
:1044B00001218907419B409AFBF7A8FF0B910A90C5
:1044C0003D9B3C9AFBF7A2FF0D910C900F9B0E9A1F
:1044D000FBF79CFF002201239B071391129039994F
:1044E0003898FFF731FA002201239B070F910E90B5
:1044F0003B993A98FFF728FA002201239B070B917A
:104500000A903D993C98FFF71FFA002201239B0770
:10451000079106903F993E98FFF716FA0022012373
:104520009B070391029041994098FFF70DFA019182
:104530000090039B029AFBF7B5FE05910490079B40
:10454000069AFBF7AFFE099108900B9B0A9AFBF7BE
:104550004EFF0D910C900F9B0E9AFBF748FF1191A7
:104560001090139B129AFBF742FF15911490179B22
:10457000169AFBF73CFF199118901B9B1A9AFBF7B0
:10458000ADFF1D911C90FEF7ADFC29912890299953
:10459000289801F09DFC199118902D992C98FFF7FF
:1045A00001F915911490399B389AFBF72FFF179159
:1045B0001690199B189AFBF729FF1D911C902999B9
:1045C0002898FFF7EFF8159114902D992C9801F089
:1045D0007FFC11911090399B389AFBF717FF1391CC
:1045E0001290159B149AFBF711FF199118902D99B1
:1045F0002C9801F06DFC159114903B9B3A9AFBF7B7
:1046000005FF17911690199B189AFBF74BFE1B910B
:104610001A901D9B1C9AFBF745FE379136902999FD
:10462000289801F055FC199118902D992C9801F0BB
:104630004FFC15911490399B389AFBF7E7FE1791C0
:104640001690199B189AFBF7E1FE1D911C90299971
:104650002898FFF7A7F8159114902D992C98FFF73B
:10466000A1F811911090399B389AFBF7CFFE139166
:104670001290159B149AFBF7C9FE199118902D9969
:104680002C98FFF78FF8159114903B9B3A9AFBF703
:10469000BDFE17911690199B189AFBF703FE1B910C
:1046A0001A901D9B1C9AFBF7A2FE359134902D9910
:1046B0002C9801F00DFC1B911A903D9B3C9AFBF746
:1046C000A5FE1D911C90419B409AFBF796FE3391ED
:1046D0003290002201239B0737993698FFF734F96F
:1046E000002201239B071B911A9035993498FFF7FC
:1046F0002BF9199118901B9B1A9AFBF7D3FD0022F6
:10470000344B1D911C90FFF71FF92F912E902F9B7A
:104710002E9A37993698FBF7E1FE1D911C90FEF713
:1047200015FD319130902F9B2E9A33993298FBF7DB
:10473000D5FE1B911A90FEF709FD1D911C90319B2F
:10474000309AFBF754FE2B912A9027992698FFF771
:1047500029F81D911C902B9B2A9A2D992C98FBF7D8
:10476000A1FD11911090299B289AFBF79BFD1391B5
:10477000129001F0ADFB15911490399B389AFBF71C
:1047800045FE199118902B9B2A9A2D992C98FBF78E
:1047900089FD0F910E9001F09BFB119110903B9BB6
:1047A0003A9AFBF733FE1591149015E0000059403A
:1047B000F38E5374249720407CF2B0506B9A1E40C5
:1047C0003D9B559FABAD2E40008056C0449D52A2EC
:1047D00046DF913F0000E03F2D992C9801F078FBD7
:1047E000119110903D9B3C9AFBF710FE1391129093
:1047F000159B149AFBF756FD17911690199B189A62
:10480000FBF750FD1B911A901D9B1C9AFBF7FEFDB8
:10481000259124902799269801F05AFB1D911C9010
:104820002B9B2A9A2D992C98FBF73CFD1191109007
:10483000299B289AFBF736FD1391129001F048FB53
:1048400015911490399B389AFBF7E0FD1991189057
:104850002B9B2A9A2D992C98FBF724FD0F910E90F3
:1048600001F036FB119110903B9B3A9AFBF7CEFD7D
:10487000159114902D992C9801F02AFB119110900C
:104880003D9B3C9AFBF7C2FD13911290159B149A25
:10489000FBF708FD17911690199B189AFBF702FD7C
:1048A0001B911A901D9B1C9AFBF7B0FD239122903F
:1048B0002B9B2A9A2D992C98FBF7F4FC15911490B8
:1048C000299B289AFBF7EEFC17911690FEF76AFFDA
:1048D00019911890399B389AFBF798FD1D911C90FF
:1048E0002B9B2A9A2D992C98FBF7DCFC13911290A4
:1048F000FEF758FF159114903B9B3A9AFBF786FD03
:10490000199118902D992C98FEF74CFF1591149041
:104910003D9B3C9AFBF77AFD17911690199B189ACC
:10492000FBF7C0FC1B911A901D9B1C9AFBF7BAFC6D
:1049300021912090FD4AFE4B2D992C98FBF766FDA6
:104940002D912C90F94AFA4B2B992A98FBF75EFD92
:104950002B912A90F54AF64B29992898FBF756FD9A
:10496000299128907F21C9054A98FBF741FC1B90AB
:10497000FBF74AFE1D911C90259B249AFBF76CFEC9
:104980007ED27F21C9054A98FBF783FC1B90FBF779
:104990003BFE1D911C90259B249AFBF749FEEFD20C
:1049A0007F21C9054B98FBF723FC1B90FBF72CFEDE
:1049B0001D911C90239B229AFBF74EFEE0D27F2193
:1049C000C9054B98FBF765FC1B90FBF71DFE1D917D
:1049D0001C90239B229AFBF72BFED1D27F21C90585
:1049E0004C98FBF705FC1B90FBF70EFE1D911C90ED
:1049F000219B209AFBF730FEC2D27F21C9054C983B
:104A0000FBF747FC1B90FBF7FFFD1D911C90219BC2
:104A1000209AFBF70DFEB3D22B9B2A9A2D992C9846
:104A2000FBF740FC1B911A90299B289AFBF73AFC54
:104A30000022C04B1D911C90FBF70EFE20D80022D7
:104A4000BD4B2D992C98FBF7F3FD99D20022BB4B5F
:104A50002D992C98FBF700FE92D20022B54B2B9992
:104A60002A98FBF7E5FD8BD20022B54B2B992A98AB
:104A7000FBF7F2FD84D20022AE4B2999289800E082
:104A8000DDE0FBF7D5FD8AD20022AD4B29992898AD
:104A9000FBF7E2FD92D201201F904C98FBF7B4FD8A
:104AA00013911290219B209AFBF7A7FC1791169067
:104AB0004C98FBF7A9FD13911290219B209AFBF7CC
:104AC0009CFC15911490179B169AFBF79FFC1B9169
:104AD0001A904B98FBF798FD0F910E90239B229A0A
:104AE000FBF78BFC139112904B98FBF78DFD0F9108
:104AF0000E90239B229AFBF780FC11911090139B40
:104B0000129AFBF783FC179116904A98FBF77CFDED
:104B10000F910E90259B249AFBF76FFC1391129036
:104B20004A98FBF771FD0F910E90259B249AFBF795
:104B300064FC11911090139B129AFBF767FC15917E
:104B40001490179B169AFBF7ADFB199118901B9BBD
:104B50001A9AFBF7A7FB1D911C90439B429AFBF707
:104B600067FD71D24C98FBF74FFD15911490219B76
:104B7000209AFBF742FC199118904C98FBF744FDE2
:104B800015911490219B209AFBF737FC17911690F2
:104B9000199B189AFBF73AFC1D911C904B98FBF758
:104BA00033FD11911090239B229AFBF726FC15915F
:104BB00014904B98FBF728FD11911090239B229A9B
:104BC000FBF71BFC13911290159B149AFBF71EFC2C
:104BD000199118904A98FBF717FD11911090259B99
:104BE000249AFBF70AFC159114904A98FBF70CFDE8
:104BF00011911090259B249AFBF7FFFB13911290C3
:104C0000159B149AFBF702FC17911690199B189AA2
:104C1000FBF748FB1B911A901D9B1C9AFBF742FB6C
:104C20004391429000BF00BF00BF2D992C9849913D
:104C300048902B992A984791469001E00CE003E0B8
:104C4000299928984591449000223E4B2D992C9803
:104C5000FBF728FB2D912C900022364B2D992C9898
:104C6000FBF7E6FC01D2FFF7EAFB002134482C9168
:104C70002D90FDE3344A354B2D992C98FBF7C6FB5C
:104C80002D912C900020012189073B9B3A9AFBF73C
:104C9000BDFB17911690399B389AFBF7B7FB1B9118
:104CA0001A902D992C98FEF77DFD139112900020FB
:104CB000012189073F9B3E9AFBF7A8FB0F910E90BD
:104CC0003D9B3C9AFBF7A2FB11911090139B129A0B
:104CD000FBF79CFB179116902D992C9801F0F8F892
:104CE0000F910E90002001218907419B409AFBF70C
:104CF0008DFB0B910A903D9B3C9AFBF787FB0D9136
:104D00000C900F9B0E9AFBF781FB002201239B075F
:104D10001391129039993898FEF716FE002201235C
:104D20009B070F910E903B993A9811E0E6C1631AE8
:104D3000DCA54C400080564000E0604000E060C0D0
:104D4000008056C00000F03F449D52A246DF913FD4
:104D5000FEF7FAFD002201239B070B910A903D9973
:104D60003C98FEF7F1FD002201239B070791069076
:104D70003F993E98FEF7E8FD002201239B0703912F
:104D8000029041994098FEF7DFFD01910090039B4E
:104D9000029AFBF787FA05910490079B069AFBF7A6
:104DA00081FA099108900B9B0A9AFBF720FB0D9161
:104DB0000C900F9B0E9AFBF71AFB11911090139B0E
:104DC000129AFBF714FB15911490179B169AFBF798
:104DD0000EFB199118901B9B1A9AFBF77FFB1D91F4
:104DE0001C90FEF77FF8299128902999289801F0C6
:104DF0006FF8199118902D992C98FEF7D3FC159106
:104E00001490399B389AFBF701FB17911690199B68
:104E1000189AFBF7FBFA1D911C9029992898FEF728
:104E2000C1FC159114902D992C9801F051F8119115
:104E30001090399B389AFBF7E9FA13911290159B61
:104E4000149AFBF7E3FA199118902D992C9801F018
:104E50003FF8159114903B9B3A9AFBF7D7FA1791BC
:104E60001690199B189AFBF71DFA1B911A901D9B1F
:104E70001C9AFBF717FA379136902999289801F078
:104E800027F8199118902D992C9801F021F8159177
:104E90001490399B389AFBF7B9FA17911690199B21
:104EA000189AFBF7B3FA1D911C9029992898FEF7E0
:104EB00079FC159114902D992C98FEF773FC1191A3
:104EC0001090399B389AFBF7A1FA13911290159B19
:104ED000149AFBF79BFA199118902D992C98FEF7CC
:104EE00061FC159114903B9B3A9AFBF78FFA17914E
:104EF0001690199B189AFBF7D5F91B911A901D9BD8
:104F00001C9AFBF774FA359134902D992C9800F087
:104F1000DFFF1B911A903D9B3C9AFBF777FA1D919E
:104F20001C90419B409AFBF768FA33913290002223
:104F300001239B0737993698FEF706FD00220123CF
:104F40009B071B911A9035993498FEF7FDFC199137
:104F500018901B9B1A9AFBF7A5F90022FE4B1D9196
:104F60001C90FEF7F1FC2F912E902F9B2E9A3799D3
:104F70003698FBF7B3FA1D911C90FEF7E7F83191D4
:104F800030902F9B2E9A33993298FBF7A7FA1B91FA
:104F90001A90FEF7DBF81D911C90319B309AFBF7BD
:104FA00026FA0122D20751402B912A902799269860
:104FB000FEF7F8FB1D911C902B9B2A9A2D992C989B
:104FC000FBF770F911911090299B289AFBF76AF969
:104FD0001391129000F07CFF15911490399B389A30
:104FE000FBF714FA199118902B9B2A9A2D992C985B
:104FF000FBF758F90F910E9000F06AFF1191109095
:105000003B9B3A9AFBF702FA159114902D992C9834
:1050100000F05EFF119110903D9B3C9AFBF7F6F972
:1050200013911290159B149AFBF73CF91791169067
:10503000199B189AFBF736F91B911A901D9B1C9A25
:10504000FBF7E4F9259124902799269800F040FF7A
:105050001D911C902B9B2A9A2D992C98FBF722F9D5
:1050600011911090299B289AFBF71CF9139112902B
:1050700000F02EFF15911490399B389AFBF7C6F972
:10508000199118902B9B2A9A2D992C98FBF70AF9C5
:105090000F910E9000F01CFF119110903B9B3A9ADB
:1050A000FBF7B4F9159114902D992C9800F010FF8E
:1050B000119110903D9B3C9AFBF7A8F91391129027
:1050C000159B149AFBF7EEF817911690199B189AF6
:1050D000FBF7E8F81B911A901D9B1C9AFBF796F9B9
:1050E000239122902B9B2A9A2D992C98FBF7DAF882
:1050F00015911490299B289AFBF7D4F817911690D4
:10510000FEF750FB19911890399B389AFBF77EF9FE
:105110001D911C902B9B2A9A2D992C98FBF7C2F875
:1051200013911290FEF73EFB159114903B9B3A9A17
:10513000FBF76CF9199118902D992C98FEF732FB1A
:10514000159114903D9B3C9AFBF760F917911690CE
:10515000199B189AFBF7A6F81B911A901D9B1C9A95
:10516000FBF7A0F8219120907C4A7D4B2D992C983B
:10517000FBF74CF92D912C90784A794B2B992A9872
:10518000FBF744F92B912A90744A754B299928987A
:10519000FBF73CF9299128907F21C9054A98FBF734
:1051A00027F81B90FBF730FA1D911C90259B249A41
:1051B000FBF752FA7ED27F21C9054A98FBF769F8BE
:1051C0001B90FBF721FA1D911C90259B249AFBF75D
:1051D0002FFAEFD27F21C9054B98FBF709F81B90F6
:1051E000FBF712FA1D911C90239B229AFBF734FACD
:1051F000E0D27F21C9054B98FBF74BF81B90FBF7DA
:1052000003FA1D911C90239B229AFBF711FAD1D22D
:105210007F21C9054C98FAF7EBFF1B90FBF7F4F9D7
:105220001D911C90219B209AFBF716FAC2D27F2178
:10523000C9054C98FBF72DF81B90FBF7E5F91D917C
:105240001C90219B209AFBF7F3F9B3D22B9B2A9A4F
:105250002D992C98FBF726F81B911A90299B289AD8
:10526000FBF720F800223F4B1D911C90FBF7F4F94F
:1052700020D800223C4B2D992C98FBF7D9F999D2D4
:1052800000223A4B2D992C98FBF7E6F992D2002296
:10529000344B2B992A98FBF7CBF98BD20022344B55
:1052A0002B992A98FBF7D8F984D200222D4B299903
:1052B000289800E0F0E0FBF7BBF98AD200222C4BE3
:1052C00029992898FBF7C8F992D201201F904C9891
:1052D000FBF79AF913911290219B209AFBF78DF816
:1052E000179116904C98FBF78FF913911290219B10
:1052F000209AFBF782F815911490179B169AFBF7EA
:1053000085F81B911A904B98FBF77EF90F910E9040
:10531000239B229AFBF771F8139112904B98FBF79D
:1053200073F90F910E90239B229AFBF766F8119167
:105330001090139B129AFBF769F8179116904A98F0
:10534000FBF762F90F910E90259B249AFBF755F815
:10535000139112904A980DE00000E03FE6C1631AF5
:10536000DCA54C400080564000E0604000E060C09A
:10537000008056C0FBF748F90F910E90259B249AA8
:10538000FBF73BF811911090139B129AFBF73EF834
:1053900015911490179B169AFAF784FF199118909B
:1053A0001B9B1A9AFAF77EFF1D911C90439B429A11
:1053B000FBF73EF970D24C98FBF726F91591149043
:1053C000219B209AFBF719F8199118904C98FBF73C
:1053D0001BF915911490219B209AFBF70EF8179159
:1053E0001690199B189AFBF711F81D911C904B9879
:1053F000FBF70AF911911090239B229AFAF7FDFF0F
:10540000159114904B98FBF7FFF811911090239B86
:10541000229AFAF7F2FF13911290159B149AFAF759
:10542000F5FF199118904A98FBF7EEF8119110903A
:10543000259B249AFAF7E1FF159114904A98FBF7FF
:10544000E3F811911090259B249AFAF7D6FF139157
:105450001290159B149AFAF7D9FF17911690199B81
:10546000189AFAF71FFF1B911A901D9B1C9A00E0D7
:105470001AE0FAF717FF4391429000BF00BF00BF48
:105480002D992C98499148902B992A9847914690AC
:10549000299928984591449000222F4B2D992C98BA
:1054A000FAF700FF2D912C9000222C4B2D992C986F
:1054B000FBF7BEF801D2FFF7DDFB1F98002802D1F1
:1054C00027A0FCF7EBFC284A284B27992698FAF7E7
:1054D0009DFF279126900022254B27992698FBF7C0
:1054E000A7F812D2234A2799269803C2224A49993B
:1054F000489803C2214A4699479811605060204A53
:10550000449945981160506023E00022184B279978
:105510002698FBF7A1F81CD800221A4B2799269849
:10552000FAF765FF134A03C20122D2074999514095
:10553000114A489803C20122D207479951400F4AA5
:10554000469803C20122D207459951400C4A44981B
:1055500003C24DB000BD00000000F03F0080564087
:10556000E697A0E8A7A30000E6C1631ADCA54C40BB
:1055700000E06040A8000020B0000020B80000203B
:10558000C00000200080664000B589B0002106916F
:105590000791049105910291039100910A460B46EF
:1055A0000846019100F078F80021069107910491D6
:1055B0003048059103C8039102902F4803C8019118
:1055C00000902E482E490CC803C900F065F87D20D4
:1055D000C000FEF733F900212A4806910491059195
:1055E0000790244803C803910290234803C80191FF
:1055F0000090224822490CC803C900F04DF87D20D4
:10560000C000FEF71BF900211E4806910491059188
:105610000291039100910A460B46019107900846BA
:1056200000F03AF80021069107910491164805917F
:1056300002910390084615490022154B01910090F4
:105640001046114600F028F87D200001FEF7F6F81C
:1056500000210691079104910E4805910291009155
:105660000A460B4601910390084600F015F809B070
:1056700000BD0000C0000020B8000020B0000020E5
:10568000A800002000804140000039C0008046C0D2
:10569000000034C000C06040F0B51FB48AB00646B8
:1056A0000F46159D149CFE480CC830463946FAF743
:1056B0009EFE49004908FB4A03C2FB480CC80D99ED
:1056C0000C98FAF794FE49004908F84A03C2F848D2
:1056D0000CC820462946FAF78AFE49004908F54ACF
:1056E00003C2F5480CC817991698FAF780FE4900CE
:1056F0004908F24A03C2F2480CC819991898FAF7F7
:1057000076FE49004908EF4A03C2EF480CC81B99CE
:105710001A98FAF76CFE49004908EC4A03C2E149BD
:1057200003C9EB4A03C2E14801684068E94A1160D5
:105730005060E04903C9E84A03C2E04903C9E74AA7
:1057400003C2E04801684068E54A11605060DF48E4
:1057500001684068E34A116050600022E24B304625
:105760003946FAF765FF61D80022E04B30463946EA
:10577000FAF772FF5AD83AE0C9480CC830463946A1
:10578000FAF76AFF06D2C7480CC830463946FAF71E
:105790002EFE05E0C3480CC830463946FAF782FDB4
:1057A00009910890C84803C807910690C44803C8E7
:1057B00005910490C04803C803910290BC4803C8F7
:1057C00001910090B8480CC80999089800F0ACFA0B
:1057D0001420FEF733F8B24A0999089803C2002250
:1057E000C34BB04903C9FAF702FEAE4A03C2002216
:1057F000C04BAC4903C9FAF72FFFBDD9A848C0C0B8
:10580000B14803C807910690AD4903C905910490BA
:10581000A94903C903910290A54803C801910090CA
:10582000A1480CC83046394600F07EFA0022AE4B43
:105830000D990C98FAF7FCFE64D80022AB4B0D9939
:105840000C98FAF709FF5DD83AE097480CC80D9913
:105850000C98FAF701FF06D294480CC80D990C98E1
:10586000FAF7C5FD05E091480CC80D990C98FAF7B8
:1058700019FD09910890944803C807910690904833
:1058800003C8059104908C4903C90391029088488C
:1058900003C80191009030463946099B089A00F0F0
:1058A00043FA1420FDF7CAFF7F4A0999089803C2FA
:1058B00000228F4B7D4903C9FAF799FD7B4A03C249
:1058C00000228C4B794903C9FAF7C6FEBDD9764A46
:1058D0000C990D98116050607B4903C9079106909F
:1058E000774903C905910490734803C80391029056
:1058F0006F4903C901910090304639460D9B0C9ABF
:1059000000F012FA0022784B20462946FAF790FE62
:105910005FD80022754B20462946FAF79DFE58D8DD
:105920003AE063480CC820462946FAF795FE06D2AD
:1059300060480CC820462946FAF759FD05E05D4845
:105940000CC820462946FAF7ADFC099108905E483C
:1059500003C8079106905A4903C905910490564817
:1059600003C803910290099908980191009030466C
:1059700039460D9B0C9A00F0D7F91420FDF75EFF15
:105980004B4A0999089803C20022594B494903C957
:10599000FAF72DFD474A03C20022564B454903C979
:1059A000FAF75AFEBDD9424830C0474903C90791AA
:1059B0000690434803C8059104903F4803C80195E9
:1059C000009403910290304639460D9B0C9A00F0EA
:1059D000ABF90022444B17991698FAF729FE5DD8C7
:1059E0000022424B17991698FAF736FE56D838E03F
:1059F00031480CC817991698FAF72EFE06D22F4890
:105A00000CC817991698FAF7F2FC05E02B480CC859
:105A100017991698FAF746FC099108902A4803C886
:105A200007910690264903C90591049009990898A1
:105A30000195009403910290304639460D9B0C9AD3
:105A400000F072F91420FDF7F9FE1B4A0999089835
:105A500003C20022264B194903C9FAF7C8FC174AAA
:105A600003C20022234B154903C9FAF7F5FDBFD93C
:105A7000114A1799169803C2134803C80791069054
:105A80000F4803C805910490179916980195009442
:105A900003910290304639460D9B2DE02FE0000027
:105AA0007800002020010020800000202801002034
:105AB00088000020300100209000002038010020E4
:105AC0009800002040010020A00000204801002094
:105AD000F0000020F8000020000100200801002054
