:020000040000FA
:1000000018020020C1000000FD04000041040000AF
:10001000FFFFFFFFFFFFFFFFFFFFFFFFFFFFFFFFF0
:10002000FFFFFFFFFFFFFFFFFFFFFFFF1D050000BA
:10003000FFFFFFFFFFFFFFFF070500008105000036
:1000400003010000030100000301000003010000A0
:100050000301000003010000030100000301000090
:1000600003010000FFFFFFFF030100000301000088
:10007000030100000301000003010000FFFFFFFF78
:10008000FFFFFFFF03010000030100000301000068
:100090000301000003010000030100000301000050
:1000A0000301000003010000030100000301000040
:1000B0000301000003010000030100000301000030
:1000C0001048804710488047104800471048016991
:1000D000002910D1416900290DD1816900290AD177
:1000E000C169002907D1BFF34F8F0A490A48C86088
:1000F000BFF34F8FFEE77047FEE7FEE7FEE7FEE740
:10010000FEE7FEE7CD000000850500001D010000B0
:100110000003084000ED00E00400FA0504488546AD
:1001200000F01EF8004800475D0A0000C046C046C7
:100130001802002030B50B46014600202022012481
:1001400009E00D46D5409D4205D31D469540491B0B
:100150002546954040191546521E002DF1DC30BD54
:10016000064C0125064E05E0E36807CC2B430C3C0A
:1001700098471034B442F7D3FFF7D4FF040B0000C4
:10018000240B0000F0B596460A461349C0004618F5
:1001900000230025FF2098402C46104216D0002056
:1001A000012199408C461146C1406746394206D02C
:1001B00087000F21B9400D437146B9400C43401CE4
:1001C0000828F0D33068A843204330600833361D38
:1001D000082BDEDDF0BD00002020024070B5184D78
:1001E0000446686B4607760F00F02EF8154920602C
:1001F000330000F0C7FB081405070714140E111490
:10020000606000E06160296A6068052909D34009DF
:1002100008E00120C003F3E77D200002F0E70020A2
:10022000EEE7C840A060A96A4903490F072902D038
:10023000C840E06070BD0321FFF77CFFF9E70000D4
:100240000080084000127A000C490868C869C20F93
:100250004868400AC007C00F0ED00948002A0BD1D9
:100260008869C00D0007000F00D110208969044A79
:100270004902890F5043C840704700000080084081
:1002800000127A001FB541090A4A89008A18002124
:100290002E2800D10221C006C00E1268032383401D
:1002A0001A40C24054186846FFF798FF029804B0FD
:1002B000E04010BD38800840F0B5084F7C6AFD6A08
:1002C0003E6B84438D439643002B02D004430D4381
:1002D00016437C62FD623E63F0BD00000080084072
:1002E00070B5344D4021284600F091F8324C802101
:1002F0006070284600F08BF8A070A915284600F021
:1003000086F8E0702915284600F081F820716178A0
:10031000002901D1012804D0002808D0012911D0DA
:1003200021E0E278012A1ED100F0CCFB06E0012991
:1003300019D1A278012A16D100F0D4FB642000F074
:100340004CFB70BD01280ED1A278002A02D0012AF0
:1003500006D008E0E278012A05D100F0B3FB09E0FD
:10036000E278002A04D0A278E3781A4304D007E0A8
:1003700000F0B8FB0A20E2E7012901D1012815D0DD
:100380000A430243DDD100F08DFBE0880B49401C9D
:1003900080B2E0808842D4D30021E1802078401CE4
:1003A000C0B220700528CCD3217070BD00F036F8A3
:1003B00070BD000000000B400C000020FFFF00009B
:1003C00081627047002A026801D00A4300E08A4334
:1003D00002607047002A426801D00A4300E08A4365
:1003E00042607047002A08D0012A09D082688A43F7
:1003F0008260C2688A43C260704782680A43F7E736
:10040000C2680A43C26082688A4382607047C069DA
:10041000084000D0012070474162704770B5FF244A
:10042000064D5D3422460221284600F068F8224637
:100430000321284600F063F870BD000000C00240B0
:10044000024801680029FCD070470000000000202D
:1004500010220029016F01D0114300E09143016790
:100460007047000070B501250024012188B0890380
:100470002B462A462046FFF71FFF042202210320B5
:10048000FFF780FE042208210320FFF77BFE1949B5
:100490006846018244820475290206948183164EBF
:1004A00004A9304600F044F90621684641800571F0
:1004B00044718471C4710472457284810221017097
:1004C000FF242D3444816946304600F0D9F80321D9
:1004D0006846017044816946304600F0D1F8012138
:1004E0003046FFF7B5FF0121304600F0BFF808B0F5
:1004F00070BD00005702000000C00240704710B5F8
:1005000000F010F910BD70470349C2B20A600A69D1
:10051000D205FCD570470000000004407047000081
:10052000042204490428086902D0904308617047F6
:100530001043FBE700E000E00749002806D001284F
:10054000086906D0400840000861704700208861B3
:10055000704701221043F7E700E000E0044902225F
:100560000028086901D0104300E0904308617047FB
:1005700000E000E0014948617047000000E000E051
:1005800070470000F0B534491020C860334901209D
:1005900008603348016B40242143016331498A6874
:1005A000272AFCD1416A03229202914341624168A9
:1005B0000122D202114341608168C908C907FBD0FA
:1005C0004168C908C900C91C4160416B4907490F0E
:1005D0000329FAD1244B1968C908C900491C1960BC
:1005E0000025056241685E15B143416001689F15B1
:1005F0003943016041681A151143416081688908D7
:10060000C907FBD0016BA14301630168B9430160D5
:1006100003210906816141683143416081684908CD
:10062000C907FBD01968C908C900891C196005628F
:100630004168C908C900491C4160416B4907490F1D
:100640000129FAD1186810210843186018680902B6
:1006500008431860F0BD0000008108400083084096
:100660000080084000A106400002084000290169FE
:1006700002D00122114301E049084900016170479D
:10068000F0B50C78A200121815461346A03290352A
:10069000944662064033AE46120E03249440204D29
:1006A000E443A84202D001249440E4431C4E056D6B
:1006B00025400565456D2540B0428E7902D1CF7940
:1006C0007F003E4396402E434665154FB84208D101
:1006D000C66E4D7A26400C7A6D002C43944034430C
:1006E000C4661C68FF250835AC431C601C684D8837
:1006F0002C431C604C8973461C608C8963461C60CB
:10070000B84206D10B79497949000B439340016DFA
:1007100002E0036D097991400B430365F0BD0000D1
:1007200000C0024089000818903002607047000045
:1007300010B502460B88803293604B885360036883
:1007400003242404A3430360036801242406A34371
:10075000036003688C6823430360044B984201D113
:100760000B79D3608989816710BD000000C0024009
:1007700070B5052001210022000489030123FFF741
:100780009BFD1724A401012221460020FFF7FAFC5B
:10079000164D002221462846FFF714FE002221466E
:1007A0002846FFF71FFE012221462846FFF712FECA
:1007B0000F240F4D2403012221462846FFF702FE95
:1007C000002221462846FFF70DFE03210903284693
:1007D000FFF722FE032189032846FFF7F1FDFFF70B
:1007E00041FE01210348FFF741FF70BD00000B40AF
:1007F00000400B4000C002403EB500240520FF250C
:10080000432100040135090201232246FFF754FD6C
:10081000002280212848FFF7E5FD002220212748FB
:10082000FFF7E0FD062240210220FFF7ABFC062285
:1008300080210220FFF7A6FC062210210020FFF7EE
:10084000A1FC062220210020FFF79CFCE1204002B1
:10085000009068468580C48004814481184C6946B4
:10086000204600F031F825036946284600F02CF8B0
:100870001449A0010860401008600122114620467A
:1008800000F064F801221146284600F05FF80122CA
:100890000021204600F062F801221146204600F0B7
:1008A0005DF801220021284600F058F80122114687
:1008B000284600F053F83EBD00400B4000000B40BE
:1008C0000000044000E100E070B504460D46C88811
:1008D0008988626808432989184B1A4011430843E4
:1008E00069890843606001208007844206D118208E
:1008F000FFF7C8FC2968FFF71DFC606210488442BE
:1009000006D11A20FFF7BEFC2968FFF713FC6062CE
:100910000C48844206D11C20FFF7B4FC2968FFF77D
:1009200009FC60620848844206D11E20FFF7AAFC39
:100930002968FFF7FFFB606270BD0000FCE0FFFF6D
:10094000000004400010004000100440002AC2686B
:1009500001D00A4300E08A43C260704710238B40F5
:100960004168002A01D0194300E099434160704773
:1009700010B5024A024900F021F810BD550A0000E6
:100980000800002030B47446641E2578641CAB4215
:1009900000D21D46635D5B00E31830BC184702E0DF
:1009A00008C8121F08C1002AFAD1704770470020FA
:1009B00001E001C1121F002AFBD17047F8B51646AD
:1009C0000F460446002503E03946B047641C6D1C01
:1009D00020780028F8D12846F8BD70B57D2504465A
:1009E000ED0002E0284600F007F82046641EA4B29D
:1009F0000028F7D170BD000010B504460420C043A4
:100A0000FFF78EFD114810490068FFF793FBFFF7D1
:100A1000B1FD0020FFF7A2FD0020FFF78DFD0120B2
:100A2000FFF78AFD00210A4A03E01369D803FCD5C9
:100A3000491CA142F9D30120C043FFF77DFD0020EE
:100A4000FFF77AFD10BD000000127A0004000020BC
:100A500000E000E010B5FFF757FD10BDFFF7CCFE3A
:100A60000DA0FFF785FF7D200001FFF7B6FFFFF720
:100A70007FFEFFF7D3FC7D26094CF6000125207888
:100A8000002802D0FFF72CFCF9E700F02BF83046E5
:100A9000FFF7A3FF2570F2E768686868680D0A0031
:100AA0000C00002010B5064C002202212046FFF762
:100AB00026FD002203212046FFF721FD10BD000086
:100AC00000C0024010B5064C002202212046FFF76C
:100AD00016FDFF22E13203212046FFF710FD10BD75
:100AE00000C0024010B5064CFF22E1320221204630
:100AF000FFF705FD002203212046FFF700FD10BD92
:100B000000C00240240B0000000000201400000080
:100B10009E090000380B00001400002004020000B1
:100B2000AE09000000000000006CDC0200000000C4
:080B30000100000000000000BC
:04000005000000C136
:00000001FF
