:020000040000FA
:1000000010020020C1000000F103000035030000D1
:10001000FFFFFFFFFFFFFFFFFFFFFFFFFFFFFFFFF0
:10002000FFFFFFFFFFFFFFFFFFFFFFFFFD030000DC
:10003000FFFFFFFFFFFFFFFFFB0300006104000065
:1000400003010000030100000301000003010000A0
:100050000301000003010000030100000301000090
:1000600003010000FFFFFFFF030100000301000088
:10007000030100000301000003010000FFFFFFFF78
:10008000FFFFFFFF03010000030100000301000068
:100090000301000003010000030100000301000050
:1000A0000301000003010000030100000301000040
:1000B0000301000003010000030100000301000030
:1000C0001048804710488047104800471048016991
:1000D000002910D1416900290DD1816900290AD177
:1000E000C169002907D1BFF34F8F0A490A48C86088
:1000F000BFF34F8FFEE77047FEE7FEE7FEE7FEE740
:10010000FEE7FEE7CD000000650400001D010000D1
:100110000003084000ED00E00400FA0504488546AD
:1001200000F01EF80048004765070000C046C046C2
:100130001002002030B50B46014600202022012489
:1001400009E00D46D5409D4205D31D469540491B0B
:100150002546954040191546521E002DF1DC30BD54
:10016000064C0125064E05E0E36807CC2B430C3C0A
:1001700098471034B442F7D3FFF7D4FFD4070000F8
:10018000F4070000F0B596460A461349C000461829
:1001900000230025FF2098402C46104216D0002056
:1001A000012199408C461146C1406746394206D02C
:1001B00087000F21B9400D437146B9400C43401CE4
:1001C0000828F0D33068A843204330600833361D38
:1001D000082BDEDDF0BD000020200240F0B5084F06
:1001E0007C6AFD6A3E6B84438D439643002B02D0AC
:1001F00004430D4316437C62FD623E63F0BD000084
:100200000080084070B52A4D4021284600F079F85A
:10021000284C80212070284600F073F86070A915E2
:10022000284600F06EF8A0702915284600F069F8FD
:10023000E0702178002901D1012804D0002808D0DD
:10024000012911D021E0A278012A1ED100F0A2FAE2
:1002500006E0012919D16278012A16D100F0AAFA24
:10026000642000F042FA70BD01280ED16278002AA5
:1002700002D0012A06D008E0A278012A05D100F0B8
:1002800089FA0BE0A278002A06D06278A3781A4394
:1002900006D000F06FFA70BD00F08CFA0A20E0E79B
:1002A0000129F6D10128F4D100F032F870BD000028
:1002B00000000B4008000020002A026801D00A4319
:1002C00000E08A4302607047002A426801D00A4376
:1002D00000E08A4342607047002A08D0012A09D012
:1002E00082688A438260C2688A43C26070478268BB
:1002F0000A43F7E7C2680A43C26082688A438260A1
:100300007047C069084000D00120704741627047C3
:1003100070B5FF24064D753422460221284600F0B0
:1003200068F822460321284600F063F870BD0000FB
:1003300000C00240024801680029FCD0704700005C
:100340000000002010220029016F01D0114300E0BD
:10035000914301677047000070B501250024012119
:1003600088B089032B462A462046FFF737FF042230
:1003700002210320FFF706FF042208210320FFF7D4
:1003800001FF1949684601824482047529020694D6
:100390008183164E04A9304600F03AF906216846DA
:1003A0004180057144718471C47104724572848105
:1003B00002210170FF242D3444816946304600F04B
:1003C000CFF803216846017044816946304600F049
:1003D000C7F801213046FFF7B5FF0121304600F094
:1003E000B5F808B070BD00005702000000C0024020
:1003F000704710B500F006F910BD70477047000057
:10040000042204490428086902D090430861704717
:100410001043FBE700E000E00749002806D0012870
:10042000086906D0400840000861704700208861D4
:10043000704701221043F7E700E000E00449022280
:100440000028086901D0104300E09043086170471C
:1004500000E000E0014948617047000000E000E072
:1004600070470000F0B534491020C86033490120BE
:1004700008603348016B40242143016331498A6895
:10048000272AFCD1416A03229202914341624168CA
:100490000122D202114341608168C908C907FBD01B
:1004A0004168C908C900C91C4160416B4907490F2F
:1004B0000329FAD1244B1968C908C900491C1960DD
:1004C0000025056241685E15B143416001689F15D2
:1004D0003943016041681A151143416081688908F8
:1004E000C907FBD0016BA14301630168B9430160F7
:1004F00003210906816141683143416081684908EF
:10050000C907FBD01968C908C900891C19600562B0
:100510004168C908C900491C4160416B4907490F3E
:100520000129FAD1186810210843186018680902D7
:1005300008431860F0BD00000081084000830840B7
:100540000080084000A1064000020840002901691F
:1005500002D00122114301E04908490001617047BE
:10056000F0B50C78A200121815461346A03290354B
:10057000944662064033AE46120E03249440204D4A
:10058000E443A84202D001249440E4431C4E056D8C
:1005900025400565456D2540B0428E7902D1CF7961
:1005A0007F003E4396402E434665154FB84208D122
:1005B000C66E4D7A26400C7A6D002C43944034432D
:1005C000C4661C68FF250835AC431C601C684D8858
:1005D0002C431C604C8973461C608C8963461C60EC
:1005E000B84206D10B79497949000B439340016D1C
:1005F00002E0036D097991400B430365F0BD0000F3
:1006000000C0024089000818903002607047000066
:1006100010B502460B88803293604B8853600368A4
:1006200003242404A3430360036801242406A34392
:10063000036003688C6823430360044B984201D134
:100640000B79D3608989816710BD000000C002402A
:1006500070B5052001210022000489030123FFF762
:10066000BDFD1724A401012221460020FFF78AFDC9
:10067000134D002221462846FFF71EFE0022214688
:100680002846FFF729FE012221462846FFF71CFED7
:1006900003240C4D2403012221462846FFF70CFEBB
:1006A000002221462846FFF717FE21462846FFF77D
:1006B0002DFEFFF751FE01210348FFF747FF70BDF4
:1006C00000000B4000400B4000C0024002E008C8A0
:1006D000121F08C1002AFAD170477047002001E0BC
:1006E00001C1121F002AFBD1704770B57D25044659
:1006F000ED0002E0284600F007F82046641EA4B290
:100700000028F7D170BD000010B504460420C04396
:10071000FFF776FE114810490068FFF70BFDFFF761
:1007200099FE0020FFF78AFE0020FFF775FE0120EA
:10073000FFF772FE00210A4A03E01369D803FCD5D3
:10074000491CA142F9D30120C043FFF765FE0020F8
:10075000FFF762FE10BD000000127A0004000020C6
:1007600000E000E0FFF774FFFFF7D2FDFFF74AFD5E
:10077000FCE7000010B5064C002202212046FFF7DE
:1007800038FE002203212046FFF733FE10BD000093
:1007900000C0024010B5064C002202212046FFF79F
:1007A00028FEFF22873203212046FFF722FE10BDDC
:1007B00000C0024010B5064CFF22873202212046BD
:1007C000FFF717FE002203212046FFF712FE10BD9F
:1007D00000C00240F4070000000000200C000000F0
:1007E000CC060000000800000C00002004020000FD
:1007F000DC06000000000000006CDC0200000000CD
:04000005000000C136
:00000001FF
