:020000040000FA
:1000000068030020C1000000690A0000590A0000CE
:10001000FFFFFFFFFFFFFFFFFFFFFFFFFFFFFFFFF0
:10002000FFFFFFFFFFFFFFFFFFFFFFFF1D0C0000B3
:10003000FFFFFFFFFFFFFFFFFD0B0000A50C00000F
:1000400003010000030100000301000003010000A0
:100050000301000003010000030100000301000090
:1000600003010000FFFFFFFF030100000301000088
:10007000030100000301000003010000FFFFFFFF78
:10008000FFFFFFFF03010000030100000301000068
:100090000301000003010000030100000301000050
:1000A00051110000030100000301000003010000E2
:1000B0000301000003010000030100000301000030
:1000C0001048804710488047104800471048016991
:1000D000002910D1416900290DD1816900290AD177
:1000E000C169002907D1BFF34F8F0A490A48C86088
:1000F000BFF34F8FFEE77047FEE7FEE7FEE7FEE740
:10010000FEE7FEE7CD000000A90C00001D01000085
:100110000003084000ED00E00400FA0504488546AD
:1001200000F094FB00480047F9220000C046C0469A
:100130006803002030B50B46014600202022012430
:1001400009E00D46D5409D4205D31D469540491B0B
:100150002546954040191546521E002DF1DC30BD54
:1001600070B500242546002801DA01244042002908
:1001700001DA01254942FFF7DDFFAC4200D04042E1
:10018000002C00D0494270BDD2B201E00270401C88
:10019000491EFBD270470022F6E710B513460A4607
:1001A00004461946FFF7F0FF204610BDF8B5024699
:1001B0004A40D40F42004B0052085B089A4202D2D8
:1001C0000246084611464A0023D0C30D4A00DDB25C
:1001D000120EAD1A202D35DA49020126490AF6051C
:1001E0008A19002C00D0524220214F1B1146B940E1
:1001F0002A411018C20D9A4221D0002C17D0012D8F
:1002000008DCDA05801AD20F8019D207DBB200F0C1
:100210005BFAF8BDDA05801A012340001B06C018FE
:1002200080185A428018CA0F1043490007E0490855
:10023000C2071143DA05801A80194008801800F0BF
:100240003BFAF8BD61000122511A001BF7E70122B9
:10025000D2075140AAE70122D2075040A6E700008A
:10026000F0B507460846584087B0C00F04904800D4
:100270000E46590040084908BC1A884105D2384644
:1002800031461E4617460B460246580040081043AA
:100290004DD0300D039040055900400D490D05909B
:1002A000401A0290402873DA18030121000B090557
:1002B0000843019004980092002806D01146019A44
:1002C00049420020904100910190029840210A1A71
:1002D0000199009800F0BCF905460C466B4607CB27
:1002E00000F0D7F9C0197141039A0E0D0023D717FA
:1002F00056401A467A40164344D0049A002A2DD01C
:10030000029A012A039A15DC1205C01A91410126AE
:100310003605001C7141D20F059ED2070093019251
:1003200002962A46234600F015FA07B0F0BD38467B
:100330003146FAE71605234A0F46B218C01AB741EC
:1003400001210905001C4F4100187F411146181872
:100350007941E20F10436D19644113E0E2076D0823
:1003600015436408C2071443039A01261205C01AF4
:1003700091413605001C7141CE07400830434908C1
:10038000C01851412A46234600F0D7F9CDE7FFE7D0
:10039000049801224000C117121A00238B410498CF
:1003A0003146C417381AA141EEE730B40124E407FE
:1003B000634030BC54E730B40124E407614030BCF2
:1003C0004EE700000000E0FFF0B51FB488B00B99C5
:1003D0000998002448400999C00F4900490809912B
:1003E000C0070B990090490049080B91099908989A
:1003F000A64608431CD00B990A98084318D00998C0
:1004000001244000420D4800410D099824050003D5
:10041000000B204309900B980003000B20430B9026
:1004200050181C494018002201901446104605E05F
:10043000002001460DB0F0BD032801DA034600E0BC
:1004400003239C46C11A0AAE0AE05F0008ADED5BCB
:100450004F00F75B7D430027AA187C41491C5B1EB7
:100460006145F2DD410004AB5A522104120C0A43EB
:10047000240C401C0828DFDB01980290009970468C
:1004800001910090059B049A0799069800F062F983
:10049000D0E700000DFCFFFFF0B50C465C4085B0D6
:1004A000E40FE40703944C000026640859009446C6
:1004B000490802460296224321D062460A431ED0D2
:1004C0006200570D4A000E032303550D0124024616
:1004D0002C492405781B1B0B360B4018234326435D
:1004E000614600901C46501AB44103D30098401C4A
:1004F000009002E0921800985B41002803DA002087
:10050000014605B0F0BD00200121090507468646D9
:1005100011E064461D46141BB54106D36546521BC7
:10052000B341744607430C43A646CD07400849082B
:10053000284392185B4105460D43EAD11046184303
:1005400013D06046194650407140084306D06046BB
:10055000101AB34106D20122002306E00022012333
:10056000DB0702E00122D2435310009874460105D4
:10057000381C6141029C039D0019694100F0DDF8BF
:10058000BFE70000FD0300004A0009030123090B37
:100590001B051943094B10B5520D9A4201DA002090
:1005A00010BD064B34339A4203DC9A1A00F060F80F
:1005B00010BD03495118884010BD0000FF03000022
:1005C000CDFBFFFFC20FD207400040080BD0C10D8A
:1005D0000723DB01C91840020905400A1143C2087C
:1005E00040071143704700200146704710B50029AD
:1005F00004DB0124E40740428C412146002B04DB4C
:100600001C460123DB075242A3418B4200D18242A8
:1006100010BD000010B5002904DB0124E4074042AE
:100620008C412146002B04DB1C460123DB07524290
:10063000A341994200D1904210BD00000122D2078F
:10064000002800DB101A002900DB511A8142704794
:1006500010B5202A04DB0146203A9140002010BD4D
:10066000914020239C1A0346E3401943904010BD5B
:1006700010B5202A04DB0846203AD040002110BDE6
:100680000B46D340D0402024A21A9140084319467B
:1006900010BD10B5202A06DBCB170846203A1041C2
:1006A000C1170B4306E00B461341D0402024A21A89
:1006B00091400843194610BD002904DA401C490046
:1006C00001D140084000704770B40024050C05D1EA
:1006D0001024000402D1002921D01124050E01D1DB
:1006E00000020834050F01D10001241D850F01D13E
:1006F0008000A41C002801DB4000641C002908D0F5
:1007000020252E1B0D46F540A14000D00121294394
:10071000084301061B1B000ADB1D02D5002070BC2C
:100720007047DB05181880180029F8DA401C4900CA
:10073000F5D170BC40084000704710B5002B08DAB6
:100740000024401C614192185B411A4301D14008CA
:10075000400010BDF0B51FB482B005460C0003D0B8
:10076000084600F039FD02E000F036FD2030024678
:10077000009021462846FFF76BFF049B059A04462C
:100780000F4618431143084314D0184610431BD09A
:10079000009840210A1A18460599FFF769FF054697
:1007A0000E46009A05990498FFF752FF084305D0BA
:1007B000012004E02046394607B0F0BD0020C117F3
:1007C00005430E432C43374300990E986305401AA6
:1007D0007905E40A00220C43FD0A0A3002D5002004
:1007E0000146E9E70105101969410C9C0D9D0019AE
:1007F0006941FFF7A2FFDFE770B54B005B080343D9
:100800000BD04B005C0D002633466542B341D41734
:10081000AD1AA34102DB0020014670BD120530185D
:10082000514170BD0EB5C217C10F5040CA074018E4
:100830000021054B0293019200910A460B46FFF7F7
:1008400089FF03B000BD000033040000064C012501
:10085000064E05E0E36807CC2B430C3C9847103468
:10086000B442F7D3FFF75EFC184B0000384B000092
:10087000FEB500231A461B1A8A4103DB00200146FD
:1008800003B0F0BD4A000D0301212D0B0905520DE7
:100890000D43D10702D100186D41521E5110FF3196
:1008A000FF310131002704463E463846009701914A
:1008B0000246012100200905FFF7DAFEC319714144
:1008C000F818324684468E464A4161462846611AE7
:1008D000904104D36046241A954176461F46241958
:1008E00000986D41401C00903428E1DDF919304634
:1008F0007041091BA84103D20022D243134601E0F4
:100900000022134601980105381C7141FFF715FFBD
:10091000B6E700000EB505490291002100910A4694
:100920000B460191FFF716FF03B000BD3304000032
:1009300070B5CD0F4A0009030123090B1B051943AC
:100940000B4BED070024520D9A4201DA002070BDD6
:10095000074B34339A4203DC9A1AFFF789FE02E010
:100960000449511888402C43F1D0404270BD00002A
:10097000FF030000CDFBFFFF30B58C180278401C50
:1009800013071B0F01D10378401C120906D102780E
:10099000401C03E005780D70401C491C5B1EF9D11A
:1009A00001E00B70491C521EFBD1A142E6D300208E
:1009B00030BD0000F7B50B46009DED00154EAA199D
:1009C000002000240027002120E000240027FF252C
:1009D0008D401D40002D17D000200FE01D46C54062
:1009E00001268E403540002D07D086000F25B540EA
:1009F0002C438600029DB5402F43401C0828EDD3B0
:100A00001568A5433D431560121D08310829DCDD3A
:100A1000FEBD0000202002403FB50E4C606AE16A36
:100A2000226B0446009DAC4320460C46019DAC431E
:100A300021461446029DAC432246002B05D0009C63
:100A40002043019C2143029C2243024C6062E162EC
:100A500022633FBD0080084000BF024800680028B4
:100A6000FBD0704704000020704700001FB5002035
:100A7000019002900390FF210131039888434018B0
:100A80000390490003988843401803904901029855
:100A9000884340180290012301A807C8FFF7BCFF54
:100AA000042201210020FFF785FF042202210020FB
:100AB000FFF780FF042211460020FFF77BFF04228E
:100AC00008210020FFF776FF042210210020FFF705
:100AD00071FF042220210020FFF76CFF684600F020
:100AE00045FA6321684641803C490180002101713B
:100AF00000200290FF210131684681816946384813
:100B000000F014FA0121364800F082F9FF2101318A
:100B1000334800F089F96946324800F007FA0121AC
:100B2000304800F075F9FF2101312E4800F07CF9C2
:100B300006216846418001210171002141718171C6
:100B4000C1710172012141720021418181810170D5
:100B50006946234800F07AF901220021204800F07C
:100B600045F901216846017069461D4800F06EF99B
:100B7000012211461A4800F039F900216846017037
:100B80006946184800F062F901220021154800F07A
:100B90002DF90121684601706946124800F056F9A6
:100BA000012211460F4800F021F902216846017028
:100BB00069460C4800F04AF901220221094800F078
:100BC00015F90321684601706946064800F03EF9B0
:100BD00001220321034800F009F91FBD7F25000011
:100BE00000E0064000F0064070B504460D4616468B
:100BF00032462946204600F091F970BD704700004A
:100C0000C1B2054A116000BF03490969FF220132E0
:100C100011400029F8D070470000044070470000E0
:100C2000042806D10649096904221143044A1161C6
:100C300005E00349096904229143014A11617047A3
:100C400000E000E0002803D10021094A91610EE094
:100C5000012806D10649096901221143044A11619C
:100C600005E00349096949084900014A11617047D3
:100C700000E000E0002806D006490969022211437D
:100C8000044A116105E00349096902229143014ABE
:100C90001161704700E000E00149486170470000C1
:100CA00000E000E07047000010204B49C8600120C0
:100CB0004A4908604A48006B402108434849086394
:100CC00000BF484880682728FBD14548406A032177
:100CD0008902884342494862084640680121C902A6
:100CE00008433F49486000BF3D4880680007C00F87
:100CF0000028F9D03A484068C008C000C01C3849F4
:100D0000486000BF3648406B4007400F0328F9D1C8
:100D100035480068C008C000401C33490860002006
:100D20002F49086208464068491588432C494860A5
:100D30000846006889150843294908600846406844
:100D4000091508432649486000BF254880684007C8
:100D5000C00F0028F9D02248006B40218843204969
:100D6000086308460068891588431D490860032008
:100D700000068861084640684915084318494860DC
:100D800000BF174880688007C00F0028F9D01648B8
:100D90000068C008C000801C13490860002010498A
:100DA000086208464068C008C000401C486000BF98
:100DB0000B48406B4007400F0128F9D10A480068F2
:100DC000102108430849086008460068012109030A
:100DD00008430549086070470081084000830840C7
:100DE0000080084000A106400002084030B50346DC
:100DF0008D001C4640342819002A04D004681025B0
:100E00002C43046003E004681025AC43046030BD4B
:100E1000002904D0026902231A43026103E0026937
:100E200002239A4302617047CA43C267BFF34F8FE0
:100E30007047002904D0026901231A43026103E0CC
:100E4000026952085200026170470000FCB50D783B
:100E5000AD0006464036AC190D78AD005036AD19E0
:100E600001950D78AD001036AD1900950D786D0621
:100E70002A0E03259540EF43274DA84203D10325B1
:100E80009540EF4302E001259540EF43224DA842F3
:100E900000D100BF056D3D400565436D3B401E4DD3
:100EA000A84206D18D79CE797600354395402B4303
:100EB00002E08D7995402B434365174DA84209D137
:100EC000C56E3D402B460D7A4E7A760035439540EF
:100ED0002B43C3662568FF260836B5432560256881
:100EE0004E88354325604E89019D2E608E89009D78
:100EF0002E60094DA84208D10D794E797600354310
:100F00009540066D3543056504E0056D0E79964004
:100F100035430565FCBD000000C0024030B58D00C2
:100F2000044690342B191A6030BD00000B888822CB
:100F300013504B8884221350026803231B049A43E6
:100F40000260026801231B069A43026002688B68F4
:100F50001A430260044A904202D10B798C2213504A
:100F60008A8982677047000000C0024000218160CA
:100F7000491E018000214180FF2101318181002132
:100F800001717047F0B58BB004460D4616461F46FA
:100F90000022634B20462946FFF762F90022604B8E
:100FA00003910290FFF778FA00225E4B05910490BE
:100FB000FFF756F900225C4B07910690FFF76CFA99
:100FC00000225A4B09910890FFF7FEF9584A03C2D4
:100FD0000022534B30463946FFF742F90022504B6E
:100FE00003910290FFF758FA00224E4B05910490AE
:100FF000FFF736F900224C4B07910690FFF74CFAA9
:1010000000224A4B09910890FFF7DEF9494A03C2D2
:101010000022494B11991098FFF722F90022464B04
:1010200003910290FFF738FA00223E4B059104909D
:10103000FFF716F900223C4B07910690FFF72CFAB8
:1010400000223A4B09910890FFF7BEF93B4A03C2D0
:1010500000223B4B13991298FFF702F90022364BFE
:1010600001910090FFF7FCF80022334B03910290AE
:10107000FFF712FA00222B4B05910490FFF7F0F8CE
:101080000022294B07910690FFF706FA0022274B12
:1010900009910890FFF798F92A4A03C20022264BCB
:1010A00015991498FFF7DCF80022234B0391029066
:1010B000FFF7F2F900221B4B05910490FFF7D0F8DF
:1010C0000022194B07910690FFF7E6F90022174B13
:1010D00009910890FFF778F91B4A03C20022164BCA
:1010E00017991698FFF7BCF80022134B0391029052
:1010F000FFF7D2F900220B4B05910490FFF7B0F8EF
:101100000022094B07910690FFF7C6F90022074B12
:1011100009910890FFF758F90C4A03C20BB0F0BDD3
:1011200000E060400000E03F0000344000C0C240EA
:1011300018000020200000200080564028000020D9
:101140000000244030000020380000204000002033
:1011500010B520210F4800F027F8002815D00D48C1
:1011600000F02BF8C4B20C4908780978491C0A4BE6
:1011700019701421FEF7F4FF08484454064800781B
:10118000142802DB0020044908702021014800F0E7
:1011900007F810BD000004400000002054010020AA
:1011A00002690A400261704702461069084000283F
:1011B00001D0012070470020FCE70146086880B29A
:1011C0007047000010B5024A024900F0A5FB10BDAF
:1011D000E92200000C0000202021020C01D0102187
:1011E0001046020A01D010460839020901D0104603
:1011F000091F820801D01046891E420801D0881EAE
:101200007047081A7047F0B4040C8BB2264682B2BD
:101210005E430D0C1046370C5843360480190021EC
:10122000794116466E43370C3604801979412646BB
:101230006E438919F0BC70474900CA02024310008E
:1012400000D004204A0D01D001221043044A490D68
:10125000914201D102210843012800D105207047A5
:10126000FF070000F7B596B014460021A160D160D9
:10127000179909914D00CD496D088D4205DC1799EC
:1012800061602060002019B0F0BDC949C94E8D428F
:1012900038DAD32709997F050029C74A17993346B9
:1012A00017DDFFF782F8B54206D0C44AC44BFFF7FA
:1012B0007CF86160206009E03A46C14BFFF775F8A1
:1012C000C04AC14BFFF771F861602060012019B07E
:1012D000F0BDFEF7C5FFB54206D0B84AB84BFEF7E1
:1012E000BFFF6160206009E03A46B54BFEF7B8FFEA
:1012F000B44AB54BFEF7B4FF616020600020C043E4
:1013000019B0F0BDB1498D42179977DC4900490801
:101310000746AF4AAF4B0491FFF756F80022AE4B99
:10132000FEF79EFFFFF704FB0A90FFF77BFAA24A45
:10133000334603910290FFF747F83A46049BFFF7C4
:101340003AF806460F469D4A9D4B03990298FFF7CF
:101350003BF82A0D01250C9232463B46FFF72BF84D
:1013600061602060032D39D04800410D0C98401A6F
:10137000690169181139814230DA984928017944A4
:1013800008960D900818049743680268039902981C
:10139000FFF71AF802460B46079106900499089841
:1013A000FFF703F806460F46049B089AFFF703F879
:1013B000079B069AFEF7F9FF059189490490794445
:1013C0000D984018C368826803990298FEF7FCFFE5
:1013D000059B049AFEF7E9FF6D1CBDE709980028FC
:1013E00009DA01226068D207504060600A9819B09B
:1013F0004042F0BD02E00A9819B0F0BD0903012295
:10140000090B12050E908918179810914000754924
:10141000400D40184111C006C00E0D9113902021BF
:10142000081A1490002006900525079013980028AC
:101430000D980CD0401982006B4878448758139956
:101440008F40101841681498C1400F4304E04019C0
:10145000810066487844475810993846FFF7D3FE14
:1014600006460A9138460E99FFF7CDFE8A190A9B67
:101470008A4201D2012100E00021C9188C46AF0048
:10148000694679188B684E68C318834201D20120DF
:1014900000E0002096193618002802D0964202D9A2
:1014A00003E0964201D2012000E0002062461218BB
:1014B0004E6068468B60C25128466D1E0028B5DC20
:1014C0000121029849074018800F1390029805994E
:1014D0008000039E049D0B91FFF7A4F90746304658
:1014E0000891FFF717FA1D22D243FFF785F91090F4
:1014F0000F912846FFF70EFA3D22D243FFF77CF901
:101500000E900D910B98FFF705FA5D22D243FFF77D
:1015100073F90B910C900D9B0E9AFEF7A1FE0F9B99
:10152000109AFEF79DFE3A46089BFEF799FE0025AD
:101530000E463A462846089BFEF737FF0F9B109A47
:10154000FEF733FF0D9B0E9AFEF72FFF0B9B0C9AB5
:10155000FEF731FF264A274BFEF736FF07460D916F
:10156000254A264B31462846FEF72EFF3A460D9B6C
:10157000FEF776FE0F4615220C9092061D4B314663
:101580002846FEF721FF3B460C9AFEF769FE179AA4
:10159000002A05DA139A524213920122D2075140CF
:1015A00061602060139819B0F0BD0000FB21E93F95
:1015B0007CD90240FB21F93F000040543163621A9C
:1015C00061B4D03D7370032E8A19A33BFB213941CE
:1015D00083C8C96D305FE43F0000E03FA6360000DD
:1015E000663600000BFCFFFF1A36000000360000D4
:1015F000182D4454FB21F93D3326A611460B113C0E
:10160000F0B51FB44E00F9207608800584B00F466F
:10161000864204DA0498FFF78BF9002838D0049A40
:101620003B4610461946FEF7CFFE044602462C48BC
:101630000D460B460621784400F05CF822462B4606
:10164000FEF7C2FE019100903946079B069A049866
:10165000FEF7BAFE0746029120462946019B009AF2
:10166000FEF7B2FE3A46029BFEF79FFE07460022B7
:101670000091D24320462946FFF7BEF8194A964208
:101680000ADA3A46009BFEF790FE0022164B23E052
:101690000020154909B0F0BD144A964202DD00242D
:1016A000134D03E001225205B51A002422462B46B1
:1016B000FEF77BFE0646019122462B4600200A4992
:1016C000FEF773FE0D4604463A463046009B0199EC
:1016D000FEF76BFE22462B46FEF76DFE09B0F0BD0D
:1016E000B63300003333D33F0000F03F0000E93F42
:1016F0000000D23FF8B504464F1EC8000838211834
:1017000015461E46086849683A4606239A4310D093
:101710002A463346FEF758FE3A46D200083AA31846
:101720001A687F1E5B68FEF79BFD06223B469343CB
:10173000EED1022F23D0042F11D0062F2FD12A460D
:101740003346FEF741FEE36AA26AFEF789FD2A46A8
:101750003346FEF739FE636A226AFEF781FD2A46A8
:101760003346FEF731FEE369A269FEF779FD2A46AA
:101770003346FEF729FE63692269FEF771FD2A46AA
:101780003346FEF721FEE368A268FEF769FD2A46AC
:101790003346FEF719FE63682268FEF761FDF8BD67
:1017A000F0B51FB4054648000C46F92140088905EC
:1017B00086B088420BDA28462146FFF73DFD042813
:1017C00001D100F089F8284621460BB0F0BD2A4629
:1017D000234610461946FEF7F7FD06460F462A46F1
:1017E0002346FEF7F1FD00902548019132463B4625
:1017F00005217844FFF77EFF02901098039100289E
:1018000029D0204A204B01990098FEF7DDFD049075
:10181000059168460FC8FEF7D7FD002201910090A0
:10182000D24309990898FEF7E7FF019B009AFEF75B
:10183000BCFD32463B46FEF7C7FD099B089AFEF702
:10184000B4FD059B049AFEF7B0FD2A462346FEF739
:10185000B2FD0BB0F0BD0B4630463946029AFEF79A
:10186000B3FD084A084BFEF7FBFC019B009AFEF70C
:10187000ABFD2A462346FEF7F3FC0BB0F0BD00009B
:10188000FA320000495555555555C5BF002210B5CF
:10189000134610460149FEF7FFFD10BD0000F03F62
:1018A00010B50122FEF7A8FF10BD10B5FEF7D8FC59
:1018B00010BD002210B5134610461146FEF7ECFD90
:1018C00010BD000010B50721024A00200907FEF7ED
:1018D00093FF10BD01030000034A10B5002011075B
:1018E000FEF78AFF10BD000001FDFFFF02E008C8FF
:1018F000121F08C1002AFAD170477047002001E08A
:1019000001C1121F002AFBD1704700000149086085
:101910007047000050010020F8B516460F460446F7
:10192000002503E03946B047641C6D1C2078002870
:10193000F8D12846F8BD0000F0B505460C46480031
:101940008849400885B0884221DB49424118294333
:101950000CD08549884203DC884211D1002D0FD07C
:1019600028462146FFF79CFF05B0F0BD002C03DDA3
:101970000020014605B0F0BD7C487D4905B0F0BDB2
:101980000120FFF7C3FFFFF794FF05B0F0BD7949D1
:1019900088423FDA7849884203DC7448774905B0C9
:1019A000F0BD2A46234610461946FEF70DFD0646B1
:1019B000024673480F460B4606217844FFF79AFE0D
:1019C00032463B46FEF700FD00906E4801913246DC
:1019D0003B4604217844FFF78DFE32463B46FEF736
:1019E000F3FC00225F4BFEF73BFC02460B460199DD
:1019F0000098FEF751FD2A462346FEF7E5FC624AB1
:101A0000624BFEF7D8FC2A462346FEF7D4FC574A21
:101A10005A4B4AE00027FF43002C4ADA514E00227D
:101A2000334628462146FEF71BFC3A46FEF7E4FE05
:101A30000446024656480D460B4606217844FFF7F9
:101A400059FE22462B46FEF7BFFC009051480191FB
:101A500022462B4604217844FFF74CFE22462B46B3
:101A6000FEF7B2FC00223346FEF7FAFB06460F46AD
:101A70002046294602F0B6FE04460D4632463B4655
:101A800001990098FEF708FD22462B46FEF79CFCC4
:101A90003D4A3E4BFEF789FC22462B46FEF7E0FB13
:101AA0000122FEF7A9FE314A314BFEF784FC05B056
:101AB000F0BD00222B4B28462146FEF77CFC3A461F
:101AC000FEF79AFE05460E4602F08CFE00270C46F5
:101AD0003A460B460490FEF7C3FB3A462346019173
:101AE000009010461946FEF76FFC33462A46FEF773
:101AF00062FC019B009AFEF7CFFC00902648019102
:101B000033462A4606217844FFF7F4FD33462A4639
:101B1000FEF75AFC02902148039133462A460421DD
:101B20007844FFF7E7FD33462A46FEF74DFC0022D6
:101B30000C4BFEF795FB02460B4603990298FEF705
:101B4000ABFC2346049AFEF73FFC019B009AFEF78C
:101B500087FB3A462346FEF783FB0122FEF74CFE45
:101B600005B0F0BD0000F03F0000F07F182D445498
:101B7000FB2109400000E03F0000603CFB21F93FF1
:101B8000722E0000882E0000075C143326A6913CBC
:101B9000F02D0000062E0000262D00003C2D000038
:101BA000F0B504464F008E488FB07F080D460D916A
:101BB000874228DB4042381820430CD089488742AE
:101BC00003DC874218D1002C16D020462946FFF7A7
:101BD00067FE0FB0F0BD844A844B20462946FEF7CD
:101BE000F3FB07460E46824A824B20462946FEF703
:101BF000EBFB3A46334649E00120FFF787FEFFF74B
:101C000058FE0FB0F0BD7C48874243DAF9208005CA
:101C100087420BDA20462946FFF70EFB042801D144
:101C2000FFF75AFE204629460FB0F0BD22462B464C
:101C300010462946FEF7C8FB064602466F480F4687
:101C40000B4606217844FFF755FD32463B46FEF72A
:101C5000BBFB06906A48079132463B460421784414
:101C6000FFF748FD32463B46FEF7AEFB00225C4BD9
:101C7000FEF7F6FA02460B4607990698FEF70CFCAB
:101C800022462B46FEF7A0FB22462B46FEF7E8FA3B
:101C90000FB0F0BD2046524C69004908002223468F
:101CA000FEF789FB0022D243FEF7A6FD0546024659
:101CB00054480E460B4606217844FFF71BFD2A4682
:101CC0003346FEF781FB06904F4807912A4633467C
:101CD00004217844FFF70EFD2A463346FEF774FBD5
:101CE00000222346FEF7BCFA0591049028463146AF
:101CF00002F078FD089045480C46874219DB059BA9
:101D0000049A07990698FEF7C7FB02460B46214640
:101D10000898FEF759FB2346089AFEF7A1FA01221C
:101D2000FEF76AFD304A314BFEF73FFB304A314B3C
:101D30004AE000273A460B460898FEF791FA3A46E1
:101D400023460A910E9010461946FEF73DFB2A469F
:101D50003346FEF730FB0A9B0E9AFEF79DFB0546C5
:101D60000E46059B049A07990698FEF795FB00918D
:101D70000490012228463146FEF73EFD1A4A1B4BCD
:101D8000FEF719FB0E460546012221460898FEF78C
:101D900033FD009B049AFEF717FB2A463346FEF7F5
:101DA00004FB05460E46012238462146FEF724FD77
:101DB0000F4C174F22463B46FEF7FDFA2A463346A4
:101DC000FEF7F9FA22463B46FEF7F5FA0D9A002A8D
:101DD00000DD5DE70122D20751400FB0F0BD0000E9
:101DE0000000F03F0000F07F075C143326A6913C12
:101DF000182D4454FB21F93F0000E03F382C00002F
:101E00004E2C0000C42B0000DA2B00003333EF3FD0
:101E1000FB21E93FF0B589B004460D464800069124
:101E200072494008884215DB7149884203DC8842C8
:101E300007D1002C05D020462946FFF731FD09B017
:101E4000F0BD6C48002D02DD6B4909B0F0BD6B4957
:101E500009B0F0BD6A49884211DA6A4988420BDA52
:101E600020462946FFF7E8F9042801D1FFF734FDA1
:101E70002046294609B0F0BD0026F6435DE06D001E
:101E800061496D08884232DA6049884219DA0026D1
:101E9000012332469B0720462946FEF7E1F9074613
:101EA0000191012220462946FEF7A6FC0022584B4C
:101EB000FEF77BFA3A46019BFEF7EEFA04460D4622
:101EC0003BE001260022524B20462946FEF7C8F986
:101ED0000746009100224E4B20462946FEF765FA40
:101EE0003A46009BFEF7D8FA04460D4625E04949DC
:101EF000884219DA02260022474B20462946FEF77F
:101F000063FA0022424BFEF7ABF90746029100222A
:101F1000414B20462946FEF748FA3A46029BFEF717
:101F2000BBFA04460D4608E0032622462B46002055
:101F30003A49FEF7B1FA04460D4622462B461046B2
:101F40001946FEF741FA07460B4602460191FEF795
:101F50003BFA0246029032480B4603910621784430
:101F6000FFF7C8FB3A46019BFEF72EFA00902D487A
:101F7000019105217844039B029AFFF7BBFB039B69
:101F8000029AFEF721FA02460B4601990098002EAC
:101F90000BDAFEF765F922462B46FEF715FA2246C4
:101FA0002B46FEF708FA09B0F0BDFEF759F92246B4
:101FB0002B46FEF709FA1C4AF6007A4493191A6870
:101FC0005B68FEF7F2F922462B46FEF7EEF9174A58
:101FD0007A4493191A685B68FEF7EDF9069A002AAD
:101FE000E1DA0122D207514009B0F0BD00001044EF
:101FF0000000F07F182D4454FB21F93FFB21F9BF6D
:102000000000DC3F0000203E0000F33F0000E63F00
:102010000000F03F008003400000F83F0000F0BFE8
:102020005E2A0000202A0000BA290000842900004E
:10203000F0B51FB4039A029D53006E422E4394469E
:10204000F40F5B084A00574E52081C438E46B442B8
:1020500005D847420743FC0F1443B44205D92A462A
:102060006346FFF722FC05B0F0BD4F4E66442E4399
:102070000AD0CC0F6646B61702273E4026430446D8
:102080004A4F144304D00BE0FFF7C4FE05B0F0BD87
:10209000002EFBD0012EF9D0022E32D0032E34D0E8
:1020A0001C462C430BD03F4CA34216D1A2420AD16E
:1020B000012189078B438A43114603930DE0704643
:1020C00000280FDB25E03A4D7D44002E0ED0012E76
:1020D00010D0022E15D0032E17D0A2421DD170466B
:1020E000002816DA3148334905B0F0BD6968286820
:1020F00005B0F0BD01226968D2072868514005B0DB
:10210000F0BD38462C4905B0F0BD38462B4905B026
:10211000F0BD26482A4905B0F0BDD21A12153C2A56
:1021200002DD224D264C12E06346002B05DA3C23EB
:10213000DA4202DA00252C4609E0039B029AFEF7F8
:10214000ABF949004908FFF765FE05460C46002E2D
:1021500012D0012E0DD01B4A1B4B022E28462146C1
:1021600018D0FEF722F93A46134BFEF71EF905B0D8
:10217000F0BD0120C00744400022134628462146F6
:10218000FEF734FA02D10220FFF7C0FB28462146B1
:1021900005B0F0BDFEF709F93A46074BFEF70BF91B
:1021A00005B0F0BD0000F07F000010C0182D4454B1
:1021B00054290000FB21F9BFFB210940FB2109C084
:1021C000FB21F93F075C143326A6A13C00B54A0069
:1021D000224B520887B09A4202DC0022134625E0C7
:1021E0001F4B9A4208D1002808D10120FFF78EFB2F
:1021F000FFF75FFB07B000BD9A4203DBFFF750FB20
:1022000007B000BD02AAFFF72DF88107890F0BD098
:10221000012001290ED0022916D0009002A80FC873
:10222000FFF7BEFA07B000BD02A80FC8FFF7E8F934
:1022300007B000BD009002A80FC8FFF7B1FA012255
:10224000D207514007B000BD02A80FC8FFF7D8F968
:102250000122D207514007B000BD0000FB21E93F39
:102260000000F07F10B5044603E07D20C00000F0C0
:1022700007F82046611E8CB20028F6D110BD000080
:1022800070B504460420C043FEF7CAFC1349096830
:10229000C8081349FDF74EFF0646FEF7FDFC002077
:1022A000FEF7E8FC0020FEF7CDFC0120FEF7CAFC9B
:1022B000002508E000BF0B4800690121090408401F
:1022C0000028F8D06D1CA542F4D30120C043FEF7CE
:1022D000B9FC0020FEF7B6FC70BD0000080000202D
:1022E00040420F0000E000E070B504460D46204675
:1022F000FEF786FC70BD000088B014213A48FDF757
:102300004AFF00F07FFD00221146384800F0AEFD84
:1023100037490C6849680122D20751400D46002117
:102320000691079104913348059103C803910290E7
:10233000314903C922462B46019100902F4903C918
:1023400001F020FE7D20C000FFF78CFF28490C68BB
:1023500049680122D20751400D46002028490690C5
:10236000049007910590234803C8039102902248E6
:1023700003C822462B4601910090204903C901F071
:1023800001FE002211461F4800F070FD18490C683C
:1023900049680122D20751400D460021069107915C
:1023A00004910591134903C903910290124903C98D
:1023B00022462B4601910090104903C901F0E2FD2D
:1023C0007D20C000FFF74EFF002106910791049188
:1023D00005910291039100910A460B46084601912E
:1023E00001F0D0FD00BFFEE7540100200000B8411D
:1023F000B0000020C0000020B8000020A80000208D
:10240000000034400000B8C1F0B51FB496B0844657
:102410000C460246199D1898039049006800630015
:10242000490840080193002A01D0012600E0002657
:102430009E19FE4BF6185B109E422BD36E00039F35
:102440000296002F00D00127F719F84EF84BBE195D
:102450009E421FD3039E0346F64F334309D03B46AB
:102460009C4201D1002A04D0019B002A05D00126FC
:1024700004E0002039461BB0F0BD00269E19EE4B4B
:102480009E4207D8039F029E002F00D00127F61915
:102490009E4207D92B4660462146189AFFF705FA57
:1024A0001BB0F0BD0023002C29DAE44EB04226DA3E
:1024B000E34EB04201DB022321E0DE4EB0421EDBE0
:1024C000E04E070DBE19142E09DD3427BF1B039EF5
:1024D000FE400196BE40039FBE420BD00FE0039F1B
:1024E000002F0CD11427BF1B0646FE400196BE40AC
:1024F000864204D1019BDE07F60F02239B1B0E468A
:10250000164318D1002D16DA002C03D0022B01D06F
:10251000012B06D00220FFF7F9F9FFF7B7F91BB03E
:10252000F0BD0220FFF7F2F9FFF7B0F90122D20760
:1025300051401BB0F0BD039E002E61D1BF4EB04292
:1025400020D1C148844201D1002A08D0B948814233
:1025500009DB002D10DB189829461BB0F0BD0020C8
:10256000B4491BB0F0BD002D06DA01222946D2077E
:10257000189851401BB0F0BDB449794408684968C7
:102580001BB0F0BDAB4FB84225D1002D1FDA00299A
:1025900004D0B14212D1002A09D018E0002A72D129
:1025A000A649E20F0020D20711431BB0F0BD002066
:1025B000E20F0146D20711431BB0F0BDB14206DA6B
:1025C000234600203946FDF767FF1BB0F0BD1046DB
:1025D00021461BB0F0BDB14212DA0126B607B54262
:1025E00003D1234610461946FEE3994EB54207D162
:1025F000261E05DB1046314602F0F4F81BB0F0BD94
:1026000067007F081646002A40D100290AD08B4A6D
:10261000914229D1002C0EDD002D1CDB002011463B
:102620001BB0F0BD022B16D0002C14D0012B12D100
:10263000002C14DB0FE0002C28DA002D09DB012B25
:1026400003D000207D491BB0F0BD002081491BB0A4
:10265000F0BD012B03D0002001461BB0F0BD0020CF
:102660000121C9071BB0F0BD724A91420ED1002C66
:1026700001DA002B17D0022B06D00020C043FEF752
:10268000D1F81BB0F0BD90E20120F8E7E217521C30
:1026900094461A4307D000220892664C62465B1E9D
:1026A0001A4307D009E00120FFF730F9FFF701F9DD
:1026B0001BB0F0BD0022644C0892674A90427DDD59
:1026C000664B674A98421FDD914202DC002D05DB14
:1026D0004DE05848814217DB002D48DD0220FFF70E
:1026E00015F9FFF7EFF805460E460022534B214639
:1026F0000898FDF769FE084671004908C00FC00739
:10270000014328461BB0F0BD914215DA002D2EDAA8
:102710000220FFF7FBF8FFF7D5F805460E4600222A
:10272000464B21460898FDF74FFE72005208C80F2D
:10273000C0070243114617E03E4B994223DD002DAE
:1027400015DD0220FFF7E2F8FFF7BCF805460E465C
:1027500000223A4B21460898FDF736FE08467100E4
:102760004908C00FC007014328461BB0F0BD022036
:10277000FFF7CCF8FFF7B0F849004908E20FD2079D
:1027800011431BB0F0BD002230463946FDF70DFE67
:10279000012205460E46D243FEF72EF8314A324B4F
:1027A000FDF709FE2A463346FDF70EFE0022284BB0
:1027B000FDF701FE07462A46334600E064E0039138
:1027C00010461946FDF700FE3A46039BFDF7FCFD57
:1027D0000746032209915207244B28463146FDF74C
:1027E000F3FD07910C90224A204B38460999FDF7DA
:1027F000EBFD074601911F4A1F4B28463146FDF766
:10280000E3FD3A46019BFDF7D0FD07460B46024625
:10281000099107990C98FDF723FD00250E462846DF
:10282000079B0C9AFDF7C1FD3A4627E0FFFF1F000A
:10283000FFFF0F000000F03F0000E0FF0000F07F0E
:102840000000404301FCFFFF0000F0BFA224000095
:102850000000E03F0000F0FF0000E0410000F04316
:10286000FFFFEF3F555555555555D53F4715F73F98
:10287000FE822B6544DF5DF80BAE543E099BFDF7ED
:102880009AFD02460B4652E1012500202D05A94282
:1028900007DA352230463946FDF7AEFF06463420CA
:1028A000C0430A151218FE48101803900803FD498A
:1028B000000B01430F46FC49884201DC002003E085
:1028C000FA49884202DA0120119005E000201190B7
:1028D0000398401C7F1B039011980597C200F44891
:1028E0000F927844801843680268394630460D9349
:1028F0000292FDF75AFD07910C9030460D9B029A0B
:102900000599FDF7ADFC02460B460020E549FDF7B1
:10291000C3FD09910490079B0C9AFDF755FD129099
:1029200000201090E3480D46784400680E90012185
:1029300078104907084311990D9B8904401801211B
:10294000C90447183946029A0E98FDF72EFD324603
:10295000059BFDF730FD02460B4629461098FDF712
:1029600033FD064602913B4629460E9A1098FDF724
:102970002BFD079B0C9AFDF71EFD3246029BFDF7CF
:1029800014FD099B049AFDF71FFD0591129A0A9008
:102990002B4610461946FDF717FD06460246C64867
:1029A0000F460B4606217844FEF7A4FE32463B460E
:1029B0000091049010461946FDF706FD009B049A0D
:1029C000FDF702FD06460F462B461946129A10984F
:1029D000FDF746FC059B0A9AFDF7F6FC32463B469E
:1029E000FDF73EFC109A079104902B4610461946BD
:1029F000FDF7EAFCB14E0022334609910290FDF743
:102A00002FFC079B049AFDF72BFC0020074602468B
:102A100033460091FDF7C9FC099B029AFDF7C5FCFE
:102A2000079B049AFDF7C7FC06460D913A462946D6
:102A3000009B1098FDF7C8FC07910C902B46304680
:102A4000129A0D99FDF7C0FC05460E463A46009BCA
:102A500005990A98FDF7B8FC33462A46FDF700FCB5
:102A600002460B460746099107990C98FDF7F8FBBB
:102A700000250E462846079B0C9AFDF796FC3A4621
:102A8000099BFDF798FC07460722099152078C4BDA
:102A900031462846FDF798FC07910090894A884BFB
:102AA00038460999FDF790FC07460191864A874B05
:102AB00031462846FDF788FC3A46019BFDF7D0FBDE
:102AC000834B7B440F9A9B181A685B68FDF7C8FB21
:102AD000029009910398FDF7A5FE05910490099BCA
:102AE000029A07990098FDF7BBFB7A4B7B440F9A3B
:102AF0009B181A685B6817460393FDF7B1FB059BAB
:102B0000049AFDF7ADFB0E462846059B049AFDF797
:102B10004CFC3A46039BFDF748FC079B009AFDF7E7
:102B200044FC099B029AFDF746FC02460B461999A4
:102B300000200C900F461898FDF746FC0291049077
:102B40003B460C9A19991898FDF72FFC2A463346F4
:102B5000FDF73AFC029B049AFDF782FB09910E9067
:102B60002A46334639460C98FDF72EFC06460F469A
:102B7000099B0E9AFDF774FB574A0D46914220DBE4
:102B80005242AA18024310D132463B46FDF70DFCD3
:102B900004900391514A524B09990E98FDF760FB3E
:102BA000039B049AFDF736FD1ED20220FEF7AEFE0F
:102BB000FEF788FE49004908E20FD20711431BB017
:102BC000F0BD6A00474B52089A420DD3464AAA18F4
:102BD000024300D0CBE532463B46FDF7E6FB099BBE
:102BE0000E9AFDF717FDF5D96800002340082C491F
:102BF0000393020D3D4B5218984223DD012000053E
:102C0000521CD04042195000400D401838497944B8
:102C1000096813468C463749C1408B431203012192
:102C2000120B090551181422101AC1400391002DEE
:102C300001DA48420390624630463946FDF7B5FB5B
:102C400006460F4632463B4609990E98FDF708FBAB
:102C500000252A46284B28460591FDF7B5FB07912C
:102C60000C90264A264B28460599FDF7ADFB0091AE
:102C7000029032463B4628460599FDF796FB099B94
:102C80000E9AFDF798FB1F4A1F4BFDF79DFB009B1B
:102C9000029AFDF7E5FA07460B460246099135E030
:102CA00001FCFFFF0000F03F8E9803007AB60B0096
:102CB000EA1F0000F4200000561F0000000008403A
:102CC00009C7EE3FFD033ADCF5015B14E02F3EBE81
:102CD0002A1E0000F01D000000009040FE822B65BF
:102CE0004715973C00CC904000346F3F0000E03F18
:102CF0000E1E0000FFFF0F00432EE63F396CA80CAC
:102D0000615C20BEEF39FAFE422EE63F07990C982F
:102D1000FDF7A6FA05460E46079B0C9AFDF745FB04
:102D20003A46099BFDF747FB09912A4633460E9028
:102D300010461946FDF748FB074602462F480B464A
:102D4000059105217844FEF7D5FC3A46059BFDF731
:102D50003BFB2A463346FDF72EFB074601912846EA
:102D60003146099B0E9AFDF72FFB099B0E9AFDF742
:102D700077FA012304910C9000229B0738460199B1
:102D8000FDF713FB05910E903A4628463146019B0C
:102D9000FDF71AFB059B0E9AFDF77EFB049B0C9A30
:102DA000FDF703FB2A463346FDF7FFFA0022144BDA
:102DB000FDF701FB064603980D460005411909156C
:102DC000002912DC30462946039AFDF715FDFEF76F
:102DD00033FA042801D1FEF77FFD30462946039AD5
:102DE000FDF70AFD064601E004E029180B463246CD
:102DF00021460898FDF7E8FA1BB0F0BDE81B00007B
:102E00000000F03F10B5FDF731FE2D221201002128
:102E10001448FDF7E9FE2D22120101211148FDF7AA
:102E2000E3FE2D22120100210F48FDF7DDFE2D22C9
:102E3000120101210C48FDF7D7FE2D2212010221BB
:102E40000948FDF7D1FE2D22120103210648FDF7A6
:102E5000CBFE01210348FDF7ECFF01210248FDF7FD
:102E6000E8FF10BD00E0064000F0064007B5CAB01C
:102E70000021FE4842914390FD48FE493D913C901F
:102E8000FD49FE483A913B90FD49FE483891399002
:102E900000201F904A98FDF795FB1D911C904B98C0
:102EA000FDF790FB1B911A901D9B1C9AFFF7C0F831
:102EB0002791269027992698FFF788F91D911C9055
:102EC0004A98FDF77FFB1B911A901D9B1C9AFDF7FA
:102ED000E3FA4191409000214A98FDF7AFFB04D1FD
:102EE0004B98FDF76FFB419140904C98FDF76AFBC2
:102EF0003F913E900021E4482C912D90DFE3E34A7E
:102F0000E34B2D992C98FDF75FFA2D912C90002022
:102F1000012189073B9B3A9AFDF756FA17911690C3
:102F2000399B389AFDF750FA1B911A902D992C98DD
:102F3000FFF74CF9139112900020012189073F9B64
:102F40003E9AFDF741FA0F910E903D9B3C9AFDF79A
:102F50003BFA11911090139B129AFDF735FA1791D5
:102F600016902D992C9801F0EFFB0F910E900020F8
:102F700001218907419B409AFDF726FA0B910A909F
:102F80003D9B3C9AFDF720FA0D910C900F9B0E9AF9
:102F9000FDF71AFA002201239B0713911290399929
:102FA0003898FFF731FA002201239B070F910E900A
:102FB0003B993A98FFF728FA002201239B070B91CF
:102FC0000A903D993C98FFF71FFA002201239B07C6
:102FD000079106903F993E98FFF716FA00220123C9
:102FE0009B070391029041994098FFF70DFA0191D8
:102FF0000090039B029AFDF733F905910490079B1B
:10300000069AFDF72DF9099108900B9B0A9AFDF796
:10301000CCF90D910C900F9B0E9AFDF7C6F911910A
:103020001090139B129AFDF7C0F915911490179BFD
:10303000169AFDF7BAF9199118901B9B1A9AFDF789
:103040002BFA1D911C90FEF777FC29912890299965
:10305000289801F079FB199118902D992C98FFF779
:10306000B5F815911490399B389AFDF7ADF9179181
:103070001690199B189AFDF7A7F91D911C90299994
:103080002898FFF7A3F8159114902D992C9801F02A
:103090005BFB11911090399B389AFDF795F91391CC
:1030A0001290159B149AFDF78FF9199118902D998C
:1030B0002C9801F049FB159114903B9B3A9AFDF72F
:1030C00083F917911690199B189AFDF7C9F81B916F
:1030D0001A901D9B1C9AFDF7C3F8379136902999D9
:1030E000289801F031FB199118902D992C9801F036
:1030F0002BFB15911490399B389AFDF765F91791C0
:103100001690199B189AFDF75FF91D911C9029994B
:103110002898FFF75BF8159114902D992C98FFF7DC
:1031200055F811911090399B389AFDF74DF913918C
:103130001290159B149AFDF747F9199118902D9943
:103140002C98FFF743F8159114903B9B3A9AFDF7A2
:103150003BF917911690199B189AFDF781F81B916E
:103160001A901D9B1C9AFDF720F9359134902D99EA
:103170002C9801F0E9FA1B911A903D9B3C9AFDF7BF
:1031800023F91D911C90419B409AFDF714F933914E
:103190003290002201239B0737993698FFF734F9C4
:1031A000002201239B071B911A9035993498FFF751
:1031B0002BF9199118901B9B1A9AFDF751F80022D0
:1031C000344B1D911C90FFF71FF92F912E902F9BD0
:1031D0002E9A37993698FDF75FF91D911C90FEF7EE
:1031E000DFFC319130902F9B2E9A33993298FDF766
:1031F00053F91B911A90FEF7D3FC1D911C90319B43
:10320000309AFDF7D2F82B912A9027992698FEF74D
:10321000DDFF1D911C902B9B2A9A2D992C98FDF770
:103220001FF811911090299B289AFDF719F8139116
:10323000129001F089FA15911490399B389AFDF794
:10324000C3F8199118902B9B2A9A2D992C98FDF769
:1032500007F80F910E9001F077FA119110903B9BB7
:103260003A9AFDF7B1F81591149015E00000594015
:10327000F38E5374249720407CF2B0506B9A1E401A
:103280003D9B559FABAD2E40008056C0449D52A241
:1032900046DF913F0000E03F2D992C9801F054FA51
:1032A000119110903D9B3C9AFDF78EF8139112906E
:1032B000159B149AFCF7D4FF17911690199B189A36
:1032C000FCF7CEFF1B911A901D9B1C9AFDF77CF812
:1032D000259124902799269801F036FA1D911C908B
:1032E0002B9B2A9A2D992C98FCF7BAFF11911090DC
:1032F000299B289AFCF7B4FF1391129001F024FA4D
:1033000015911490399B389AFDF75EF81991189031
:103310002B9B2A9A2D992C98FCF7A2FF0F910E90C7
:1033200001F012FA119110903B9B3A9AFDF74CF87C
:10333000159114902D992C9801F006FA1191109086
:103340003D9B3C9AFDF740F813911290159B149AFF
:10335000FCF786FF17911690199B189AFCF780FFCF
:103360001B911A901D9B1C9AFDF72EF82391229019
:103370002B9B2A9A2D992C98FCF772FF159114908B
:10338000299B289AFCF76CFF17911690FEF71EFFF9
:1033900019911890399B389AFDF716F81D911C90D9
:1033A0002B9B2A9A2D992C98FCF75AFF1391129077
:1033B000FEF70CFF159114903B9B3A9AFDF704F829
:1033C000199118902D992C98FEF700FF15911490E3
:1033D0003D9B3C9AFCF7F8FF17911690199B189AA1
:1033E000FCF73EFF1B911A901D9B1C9AFCF738FFBF
:1033F00021912090FD4AFE4B2D992C98FCF7E4FF7B
:103400002D912C90F94AFA4B2B992A98FCF7DCFF66
:103410002B912A90F54AF64B29992898FCF7D4FF6E
:10342000299128907F21C9054A98FCF7BFFE1B907F
:10343000FDF7C8F81D911C90259B249AFDF7EAF82A
:103440007DD27F21C9054A98FCF701FF1B90FDF74B
:10345000B9F81D911C90259B249AFDF7C7F8EFD26F
:103460007F21C9054B98FCF7A1FE1B90FDF7AAF838
:103470001D911C90239B229AFDF7CCF8E0D27F216E
:10348000C9054B98FCF7E3FE1B90FDF79BF81D91D7
:103490001C90239B229AFDF7A9F8D1D27F21C90560
:1034A0004C98FCF783FE1B90FDF78CF81D911C9047
:1034B000219B209AFDF7AEF8C2D27F21C9054C9816
:1034C000FCF7C5FE1B90FDF77DF81D911C90219B1C
:1034D000209AFDF78BF8B3D22B9B2A9A2D992C9822
:1034E000FCF7BEFE1B911A90299B289AFCF7B8FEA8
:1034F0000022C04B1D911C90FDF78CF81FD80120B5
:103500001F904C98FDF75EF813911290219B209A22
:10351000FCF751FF179116904C98FDF753F8139153
:103520001290219B209AFCF746FF15911490179B4F
:10353000169AFCF749FF1B911A904B9800E0B6E0F1
:10354000FDF740F80F910E90239B229AFCF733FF72
:10355000139112904B98FDF735F80F910E90239B25
:10356000229AFCF728FF11911090139B129AFCF7F6
:103570002BFF179116904A98FDF724F80F910E90A3
:10358000259B249AFCF717FF139112904A98FDF798
:1035900019F80F910E90259B249AFCF70CFF1191BE
:1035A0001090139B129AFCF70FFF15911490179B24
:1035B000169AFCF755FE199118901B9B1A9AFCF766
:1035C0004FFE1D911C90439B429AFDF70FF86ED25F
:1035D0004C98FCF7F7FF15911490219B209AFCF76B
:1035E000EAFE199118904C98FCF7ECFF1591149095
:1035F000219B209AFCF7DFFE17911690199B189AD1
:10360000FCF7E2FE1D911C904B98FCF7DBFF11913B
:103610001090239B229AFCF7CEFE159114904B98A4
:10362000FCF7D0FF11911090239B229AFCF7C3FE68
:1036300013911290159B149AFCF7C6FE19911890DD
:103640004A98FCF7BFFF11911090259B249AFCF734
:10365000B2FE159114904A98FCF7B4FF11911090A6
:10366000259B249AFCF7A7FE13911290159B149AA0
:10367000FCF7AAFE17911690199B189AFCF7F0FD1B
:103680001B911A901D9B1C9AFCF7EAFD43914290F6
:1036900000BF00BF00BF2D992C98499148902B99ED
:1036A0002A9847914690299928984591449000225C
:1036B000514B2D992C98FCF7D3FD2D912C90002285
:1036C0004C4B2D992C98FCF791FF00D217E4002069
:1036D0004A492D912C90E5E3494A4A4B2D992C9863
:1036E000FCF772FE2D912C900020012189073B9B55
:1036F0003A9AFCF769FE17911690399B389AFCF7B5
:1037000063FE1B911A902D992C98FEF75FFD139183
:1037100012900020012189073F9B3E9AFCF754FE3E
:103720000F910E903D9B3C9AFCF74EFE119110902C
:10373000139B129AFCF748FE179116902D992C981E
:1037400001F002F80F910E90002001218907419BA2
:10375000409AFCF739FE0B910A903D9B3C9AFCF78E
:1037600033FE0D910C900F9B0E9AFCF72DFE00225C
:1037700001239B071391129039993898FEF744FE64
:10378000002201239B070F910E903B993A98FEF778
:103790003BFE002201239B070B910A903D993C9828
:1037A000FEF732FE002201239B07079106903F9906
:1037B0003E98FEF729FE002201239B070391029009
:1037C00041994098FEF720FE01910090039B029AD8
:1037D000FCF746FD05910490079B069AFCF740FD17
:1037E000099108900B9B0A9A0EE00000E6C1631A4B
:1037F000DCA54C40008056400000F03F008056C0E1
:10380000449D52A246DF913FFCF7CFFD0D910C90F5
:103810000F9B0E9AFCF7C9FD11911090139B129A01
:10382000FCF7C3FD15911490179B169AFCF7BDFD8C
:10383000199118901B9B1A9AFCF72EFE1D911C9053
:10384000FEF77AF8299128902999289800F07CFFB2
:10385000199118902D992C98FEF7B8FC1591149099
:10386000399B389AFCF7B0FD17911690199B189A5E
:10387000FCF7AAFD1D911C9029992898FEF7A6FC3B
:10388000159114902D992C9800F05EFF11911090D5
:10389000399B389AFCF798FD13911290159B149A56
:1038A000FCF792FD199118902D992C9800F04CFF7F
:1038B000159114903B9B3A9AFCF786FD1791169050
:1038C000199B189AFCF7CCFC1B911A901D9B1C9A13
:1038D000FCF7C6FC379136902999289800F034FF00
:1038E000199118902D992C9800F02EFF1591149095
:1038F000399B389AFCF768FD17911690199B189A16
:10390000FCF762FD1D911C9029992898FEF75EFC3A
:10391000159114902D992C98FEF758FC1191109048
:10392000399B389AFCF750FD13911290159B149A0D
:10393000FCF74AFD199118902D992C98FEF746FC3A
:10394000159114903B9B3A9AFCF73EFD1791169007
:10395000199B189AFCF784FC1B911A901D9B1C9ACA
:10396000FCF723FD359134902D992C9800F0ECFE56
:103970001B911A903D9B3C9AFCF726FD1D911C90D3
:10398000419B409AFCF717FD3391329000220123AE
:103990009B0737993698FEF737FD002201239B07D6
:1039A0001B911A9035993498FEF72EFD19911890B5
:1039B0001B9B1A9AFCF754FC0022FE4B1D911C9095
:1039C000FEF722FD2F912E902F9B2E9A3799369835
:1039D000FCF762FD1D911C90FEF7E2F831913090EA
:1039E0002F9B2E9A33993298FCF756FD1B911A9013
:1039F000FEF7D6F81D911C90319B309AFCF7D5FC50
:103A00000122D20751402B912A9027992698FEF740
:103A1000DDFB1D911C902B9B2A9A2D992C98FCF76D
:103A20001FFC11911090299B289AFCF719FC139107
:103A3000129000F089FE15911490399B389AFCF78A
:103A4000C3FC199118902B9B2A9A2D992C98FCF75E
:103A500007FC0F910E9000F077FE119110903B9BA8
:103A60003A9AFCF7B1FC159114902D992C9800F01E
:103A70006BFE119110903D9B3C9AFCF7A5FC1391B5
:103A80001290159B149AFCF7EBFB17911690199B5B
:103A9000189AFCF7E5FB1B911A901D9B1C9AFCF7EA
:103AA00093FC259124902799269800F04DFE1D91B6
:103AB0001C902B9B2A9A2D992C98FCF7D1FB1191E5
:103AC0001090299B289AFCF7CBFB1391129000F0E1
:103AD0003BFE15911490399B389AFCF775FC1991AF
:103AE00018902B9B2A9A2D992C98FCF7B9FB0F91D3
:103AF0000E9000F029FE119110903B9B3A9AFCF732
:103B000063FC159114902D992C9800F01DFE1191D5
:103B100010903D9B3C9AFCF757FC13911290159B1B
:103B2000149AFCF79DFB17911690199B189AFCF7B5
:103B300097FB1B911A901D9B1C9AFCF745FC239147
:103B400022902B9B2A9A2D992C98FCF789FB159192
:103B50001490299B289AFCF783FB17911690FEF787
:103B600035FB19911890399B389AFCF72DFC1D9163
:103B70001C902B9B2A9A2D992C98FCF771FB139182
:103B80001290FEF723FB159114903B9B3A9AFCF799
:103B90001BFC199118902D992C98FEF717FB159185
:103BA00014903D9B3C9AFCF70FFC17911690199BC3
:103BB000189AFCF755FB1B911A901D9B1C9AFCF759
:103BC0004FFB219120907C4A7C4B2D992C98FCF73F
:103BD000FBFB2D912C90784A784B2B992A98FCF777
:103BE000F3FB2B912A90744A744B29992898FCF77F
:103BF000EBFB299128907F21C9054A98FCF7D6FA5A
:103C00001B90FCF7DFFC1D911C90259B249AFCF770
:103C100001FD7DD27F21C9054A98FCF718FB1B9056
:103C2000FCF7D0FC1D911C90259B249AFCF7DEFC30
:103C3000EFD27F21C9054B98FCF7B8FA1B90FCF72F
:103C4000C1FC1D911C90239B229AFCF7E3FCE0D25F
:103C50007F21C9054B98FCF7FAFA1B90FCF7B2FCE0
:103C60001D911C90239B229AFCF7C0FCD1D27F218E
:103C7000C9054C98FCF79AFA1B90FCF7A3FC1D9120
:103C80001C90219B209AFCF7C5FCC2D27F21C9055C
:103C90004C98FCF7DCFA1B90FCF794FC1D911C90EF
:103CA000219B209AFCF7A2FCB3D22B9B2A9A2D9938
:103CB0002C98FCF7D5FA1B911A90299B289AFCF7AF
:103CC000CFFA00223E4B1D911C90FCF7A3FC1FD89D
:103CD00001201F904C98FCF775FC13911290219BCA
:103CE000209AFCF768FB179116904C98FCF76AFC39
:103CF00013911290219B209AFCF75DFB1591149073
:103D0000179B169AFCF760FB1B911A904B9800E0EA
:103D1000C0E0FCF757FC0F910E90239B229AFCF712
:103D20004AFB139112904B98FCF74CFC0F910E90AC
:103D3000239B229AFCF73FFB11911090139B129A40
:103D4000FCF742FB179116904A98FCF73BFC0F9149
:103D50000E90259B249AFCF72EFB139112904A9803
:103D6000FCF730FC0F910E90259B249AFCF723FB67
:103D700011911090139B129AFCF726FB1591149049
:103D8000179B169AFCF76CFA199118901B9B1A9ABC
:103D9000FCF766FA1D911C90439B429AFCF726FCA7
:103DA00078D24C98FCF70EFC15911490219B209A28
:103DB00008E000000000E03FE6C1631ADCA54C40CB
:103DC00000805640FCF7F7FA199118904C98FCF7D0
:103DD000F9FB15911490219B209AFCF7ECFA1791AE
:103DE0001690199B189AFCF7EFFA1D911C904B98AE
:103DF000FCF7E8FB11911090239B229AFCF7DBFA69
:103E0000159114904B98FCF7DDFB11911090239BBA
:103E1000229AFCF7D0FA13911290159B149AFCF792
:103E2000D3FA199118904A98FCF7CCFB1191109095
:103E3000259B249AFCF7BFFA159114904A98FCF739
:103E4000C1FB11911090259B249AFCF7B4FA1391B1
:103E50001290159B149AFCF7B7FA17911690199BBC
:103E6000189AFCF7FDF91B911A901D9B1C9AFCF700
:103E7000F7F94391429000BF00BF00BF2D992C98E5
:103E8000499148902B992A984791469029992898CA
:103E90004591449000222F4B2D992C98FCF7E0F986
:103EA0002D912C9000222C4B2D992C98FCF79EFBE9
:103EB00000D211E41F98002802D128A0FDF782F952
:103EC000284A294B27992698FCF77EFA27912690B5
:103ED0000022264B27992698FCF788FB13D2244A08
:103EE0002699279811605060224A4999489803C240
:103EF000214A4699479811605060204A4499459854
:103F00001160506023E00022184B27992698FCF797
:103F100081FB1CD800221A4B27992698FCF745FAFA
:103F2000134A03C20122D20749995140114A4898C5
:103F300003C20122D207479951400F4A469803C253
:103F40000122D207459951400C4A449803C24DB012
:103F500000BD00000000F03F00805640E697A0E85A
:103F6000A7A30000E6C1631ADCA54C4000E0604056
:103F7000A8000020B0000020B8000020C0000020F1
:103F800000806640F0B51FB48AB006460F46159D06
:103F9000149CFE480CC830463946FCF706FA490026
:103FA0004908FB4A03C2FB480CC80D990C98FCF762
:103FB000FCF949004908F84A03C2F8480CC82046F1
:103FC0002946FCF7F2F949004908F54A03C2F548C9
:103FD0000CC817991698FCF7E8F949004908F24A05
:103FE00003C2F2480CC819991898FCF7DEF9490089
:103FF0004908EF4A03C2EF480CC81B991A98FCF70E
:10400000D4F949004908EC4A03C2E14903C9EB4A23
:1040100003C2E14801684068E94A11605060E04924
:1040200003C9E84A03C2E04903C9E74A03C2E048BA
:1040300001684068E54A11605060DF4801684068E7
:10404000E34A116050600022E24B30463946FCF7EB
:10405000CDFA61D80022E04B30463946FCF7DAFA57
:104060005AD83AE0C9480CC830463946FCF7D2FA6B
:1040700006D2C7480CC830463946FCF796F905E029
:10408000C3480CC830463946FCF7EAF80991089055
:10409000C84803C807910690C44803C80591049016
:1040A000C04803C803910290BC4803C80191009026
:1040B000B8480CC80999089800F0ACFA1420FEF72B
:1040C000D1F8B24A0999089803C20022C34BB049FB
:1040D00003C9FCF76AF9AE4A03C20022C04BAC49DF
:1040E00003C9FCF797FABDD9A848C0C0B14803C8B6
:1040F00007910690AD4903C905910490A94903C9E8
:1041000003910290A54803C801910090A1480CC8F2
:104110003046394600F07EFA0022AE4B0D990C98DD
:10412000FCF764FA64D80022AB4B0D990C98FCF7AD
:1041300071FA5DD83AE097480CC80D990C98FCF7D5
:1041400069FA06D294480CC80D990C98FCF72DF921
:1041500005E091480CC80D990C98FCF781F809917D
:104160000890944803C807910690904803C80591A9
:1041700004908C4903C903910290884803C80191B7
:10418000009030463946099B089A00F043FA142003
:10419000FEF768F87F4A0999089803C200228F4BFE
:1041A0007D4903C9FCF701F97B4A03C200228C4B0D
:1041B000794903C9FCF72EFABDD9764A0C990D98B6
:1041C000116050607B4903C907910690774903C984
:1041D00005910490734803C8039102906F4903C985
:1041E00001910090304639460D9B0C9A00F012FA6E
:1041F0000022784B20462946FCF7F8F95FD80022C8
:10420000754B20462946FCF705FA58D83AE0634832
:104210000CC820462946FCF7FDF906D260480CC8B8
:1042200020462946FCF7C1F805E05D480CC8204649
:104230002946FCF715F8099108905E4803C80791D4
:1042400006905A4903C905910490564803C8039142
:1042500002900999089801910090304639460D9BCB
:104260000C9A00F0D7F91420FDF7FCFF4B4A09998E
:10427000089803C20022594B494903C9FCF795F835
:10428000474A03C20022564B454903C9FCF7C2F90D
:10429000BDD9424830C0474903C9079106904348F9
:1042A00003C8059104903F4803C801950094039109
:1042B0000290304639460D9B0C9A00F0ABF9002273
:1042C000444B17991698FCF791F95DD80022424BA0
:1042D00017991698FCF79EF956D838E031480CC863
:1042E00017991698FCF796F906D22F480CC817991B
:1042F0001698FCF75AF805E02B480CC81799169841
:10430000FBF7AEFF099108902A4803C80791069071
:10431000264903C9059104900999089801950094CC
:1043200003910290304639460D9B0C9A00F072F9C9
:104330001420FDF797FF1B4A0999089803C2002231
:10434000264B194903C9FCF730F8174A03C200226B
:10435000234B154903C9FCF75DF9BFD9114A1799D9
:10436000169803C2134803C8079106900F4803C864
:104370000591049017991698019500940391029065
:10438000304639460D9B2DE02FE0000078000020DC
:10439000200100208000002028010020880000204B
:1043A00030010020900000203801002098000020FB
:1043B00040010020A000002048010020F000002063
:1043C000F80000200001002008010020100100205A
:1043D0001801002000E0604000E060C00000F03FF5
:1043E000000008400C9A00F015F90022774B19994B
:1043F0001898FCF7FBF860D80022754B19991898AB
:10440000FCF708F959D838E072480CC8199918987F
:10441000FCF700F906D270480CC819991898FBF7F8
:10442000C4FF05E06C480CC819991898FBF718FFF1
:1044300009910890694803C807910690099908985E
:104440000591049017991698019500940391029094
:10445000304639460D9B0C9A00F0DCF81420FDF72D
:1044600001FF5C4A0999089803C200225C4B5A4933
:1044700003C9FBF79AFF584A03C20022594B564919
:1044800003C9FCF7C7F8BFD9524A189919981160A7
:104490005060524903C907910690199918980591DF
:1044A0000490179916980195009403910290304654
:1044B00039460D9B0C9A00F0ADF80022434B1B9936
:1044C0001A98FCF793F860D80022414B1B991A9870
:1044D000FCF7A0F859D838E040480CC81B991A9846
:1044E000FCF798F806D240480CC81B991A98FBF7BD
:1044F0005CFF05E03C480CC81B991A98FBF7B0FE1E
:1045000009910890099908980791069019991898A7
:1045100005910490179916980195009403910290C3
:10452000304639460D9B0C9A00F074F80520FDF7D3
:1045300099FE2A4A0999089803C20022284B2A4961
:1045400003C9FBF732FF284A03C20022254B264944
:1045500003C9FCF75FF8BFD9204A1A991B9811606C
:1045600050601B991A98079106901999189805910F
:104570000490179916980195009403910290304683
:1045800039460D9B0C9A00F045F8184801684068C0
:10459000174A11605060174903C9174A03C21748E8
:1045A00001684068164A11605060164903C9164AEE
:1045B00003C2164801684068074A116050601449F8
:1045C00003C9094A03C20FB0F0BD000000E060401B
:1045D00000E060C09800002040010020A000002002
:1045E0000000F03F0000084048010020F0000020DB
:1045F00020010020F80000202801002000010020F8
:1046000030010020080100203801002010010020A6
:1046100018010020F0B589B004460D4616461F4625
:104620001599149807910690139912980591049082
:1046300011991098039102900F990E9832463B46BB
:104640000191009020462946FCF79CFC002213466D
:10465000354903C9FBF7CAFF0AD0334903C9FBF741
:1046600093FF80B20246002108903048FCF7BCFA64
:10467000002213462E4903C9FBF7B8FF0AD02C4984
:1046800003C9FBF781FF80B2024601210890274849
:10469000FCF7AAFA00221346264903C9FBF7A6FF36
:1046A0000AD0244903C9FBF76FFF80B202460221FA
:1046B00008901E48FCF798FA002213461E4903C9C9
:1046C000FBF794FF0AD01C4903C9FBF75DFF80B2DA
:1046D0000246032108901548FCF786FA002213468B
:1046E000164903C9FBF782FF0AD0144903C9FBF737
:1046F0004BFF80B20246002108901148FCF774FA83
:10470000002213460F4903C9FBF770FF0AD00D4979
:1047100003C9FBF739FF80B202460121089008481F
:10472000FCF762FA09B0F0BD1800002000F0064066
:104730002000002028000020300000203800002049
:1047400000E006404000002000B54A00234B52081C
:1047500087B09A4203DC00221346009229E0204BE6
:104760009A4208D1002808D10120FDF7CFF8FDF7C3
:10477000A0F807B000BD9A4203DBFDF791F807B03F
:1047800000BD02AAFCF76EFD8107890F01200029F8
:104790000CD0012911D0022915D002A80FC8FCF7AE
:1047A0002FFF0122D207514007B000BD009002A8A0
:1047B0000FC8FCF7F5FF07B000BD02A80FC8FCF753
:1047C0001FFF07B000BD009002A80FC8FCF7E8FF6C
:1047D0000122D207514007B000BD0000FB21E93F94
:1047E0000000F07FF8B506460C46FCF741F8051EC0
:1047F0000F4600D00120014349000B484908411AE7
:10480000C90F0DD0002E01D0012100E000210C4382
:1048100061004908401AC00F02D10120FDF776F867
:1048200028463946F8BD00000000F07F0000000077
:10483000555555555555C53F7D6FEB0312D6D4BF21
:104840005544880E55C1C93F3B8F68B52882A4BF27
:1048500088B20175E0EF493F09F7FD0DE13D023FE8
:104860004B2D8A1C273A03C0C88A599CE52A004070
:1048700059018D1B6C06E6BF82922EB1C5B8B33FBD
:10488000555555555555C53F7D6FEB0312D6D4BFD1
:104890005544880E55C1C93F3B8F68B52882A4BFD7
:1048A00088B20175E0EF493F09F7FD0DE13D023F98
:1048B0004B2D8A1C273A03C0C88A599CE52A004020
:1048C00059018D1B6C06E6BF82922EB1C5B8B33F6D
:1048D000000000000000F03F000000000000F83F72
:1048E00000000000000000000000004003B8E23FAC
:1048F000000000000000000006D0CF43EBFD4C3E5E
:10490000033333333333E33FFFAB6FDBB66DDB3F52
:104910004D268F515555D53F01411DA96074D13F9A
:1049200065DBC9934A86CD3FEF4E454A287ECA3F94
:104930003E5555555555C53F93BDBE166CC166BF16
:104940002CDE25AF6A56113FF16BD2C541BDBBBE0F
:10495000D0A4BE726937663E4FBB610567ACDD3FD0
:10496000182D4454FB21E93F9BF681D20B73EF3F96
:10497000182D4454FB21F93FE2652F227F2B7A3C0E
:10498000075C143326A6813CBDCBF07A8807703CC7
:10499000075C143326A6913CC4EB98999999C9BF3A
:1049A000711623FEC671BCBF6D9A74AFF2B0B3BF6F
:1049B0009AFDDE522DDEADBF2F6C6A2C44B4A2BF2F
:1049C0000D5555555555D53FFF8300922449C23F9B
:1049D0006E204CC5CD45B73F513DD0A0660DB13FCF
:1049E000EB0D76244B7BA93F11DA22E33AAD903FE1
:1049F0004C5555555555A53F7751C1166CC156BFFD
:104A00009015CB19A001FA3EAD529C804F7E92BE0C
:104A1000C4B1B4BD9EEE213ED43888BEE9FAA8BD2B
:104A2000000000000000000000004054FB21F93F9E
:104A30003163621A61B4D03D0000601A61B4D03DA8
:104A40007370032E8A19A33B0000002E8A19A33B22
:104A5000C14920259A837B39000000000000000036
:104A60006E83F9A22915444ED15727FCC0DD34F5D9
:104A7000999562DB4190433CAB6351FE61C5BBDE5F
:104A80003A6E24B7E0D24D42EA2E49061C92D10973
:104A90001CEB1DFE3EA729B1F53582E88444BB2EF0
:104AA00026709CE9417E5FB439D69139F43953833D
:104AB0008B5F849C3B28F9BDFF97F81F0F9805DE9C
:104AC0008B112FEF1F6D0A5ACF7E366DB709CB279A
:104AD000663F464F2DEA5F9EC7BA27757BF1E5EB2F
:104AE000F739073DEA92528AB15FFB6B085D8D1F73
:104AF000A6F810111111813FD561C119A0012ABF7B
:104B00007DFEB157E31DC73EEB9C2B8AE6E55ABEFE
:104B10007CD5CF5A3AD9E53D384B00000000002043
:104B20005401000078090000404B000054010020AF
:104B300014020000FC180000A104FF6CDC02014B11
:04000005000000C136
:00000001FF
