:020000040000FA
:1000000068030020C1000000FD080000ED080000AA
:10001000FFFFFFFFFFFFFFFFFFFFFFFFFFFFFFFFF0
:10002000FFFFFFFFFFFFFFFFFFFFFFFFC50A00000D
:10003000FFFFFFFFFFFFFFFFA50A00004D0B0000C1
:1000400003010000030100000301000003010000A0
:100050000301000003010000030100000301000090
:1000600003010000FFFFFFFF030100000301000088
:10007000030100000301000003010000FFFFFFFF78
:10008000FFFFFFFF03010000030100000301000068
:100090000301000003010000030100000301000050
:1000A000E90F00000301000003010000030100004C
:1000B0000301000003010000030100000301000030
:1000C0001048804710488047104800471048016991
:1000D000002910D1416900290DD1816900290AD177
:1000E000C169002907D1BFF34F8F0A490A48C86088
:1000F000BFF34F8FFEE77047FEE7FEE7FEE7FEE740
:10010000FEE7FEE7CD000000510B00001D010000DE
:100110000003084000ED00E00400FA0504488546AD
:1001200000F0B2FA0048004751130000C046C04634
:100130006803002030B50B46014600202022012430
:1001400009E00D46D5409D4205D31D469540491B0B
:100150002546954040191546521E002DF1DC30BD54
:1001600070B500242546002801DA01244042002908
:1001700001DA01254942FFF7DDFFAC4200D04042E1
:10018000002C00D0494270BDD2B201E00270401C88
:10019000491EFBD270470022F6E710B513460A4607
:1001A00004461946FFF7F0FF204610BDF0B507469C
:1001B0000846584087B0C00F049048000E465900CA
:1001C00040084908BC1A884105D2384631461E46C7
:1001D00017460B4602465800400810434DD0300DDC
:1001E000039040055900400D490D0590401A0290BA
:1001F000402873DA18030121000B09050843019018
:1002000004980092002806D01146019A4942002025
:10021000904100910190029840210A1A019900989A
:1002200000F09EF905460C466B4607CB00F0B9F985
:10023000C0197141039A0E0D0023D71756401A4674
:100240007A40164344D0049A002A2DD0029A012AFB
:10025000039A15DC1205C01A914101263605001CCF
:100260007141D20F059ED2070093019202962A4651
:10027000234600F0B6F907B0F0BD38463146FAE73C
:100280001605234A0F46B218C01AB74101210905C5
:10029000001C4F4100187F41114618187941E20FA8
:1002A00010436D19644113E0E2076D0815436408BB
:1002B000C2071443039A01261205C01A914136055C
:1002C000001C7141CE07400830434908C018514115
:1002D0002A46234600F078F9CDE7FFE7049801228B
:1002E0004000C117121A00238B4104983146C417ED
:1002F000381AA141EEE730B40124E407634030BC72
:1003000054E730B40124E407614030BC4EE70000FC
:100310000000E0FFF0B51FB488B00B9909980024E5
:1003200048400999C00F490049080991C0070B9935
:100330000090490049080B9109990898A64608437E
:100340001CD00B990A98084318D009980124400042
:10035000420D4800410D099824050003000B20437D
:1003600009900B980003000B20430B9050181C4978
:100370004018002201901446104605E00020014676
:100380000DB0F0BD032801DA034600E003239C46CC
:10039000C11A0AAE0AE05F0008ADED5B4F00F75BE3
:1003A0007D430027AA187C41491C5B1E6145F2DD94
:1003B000410004AB5A522104120C0A43240C401C85
:1003C0000828DFDB019802900099704601910090A7
:1003D000059B049A0799069800F003F9D0E70000FE
:1003E0000DFCFFFFF0B50C465C4085B0E40FE40760
:1003F00003944C00002664085900944649080246BC
:100400000296224321D062460A431ED06200570D55
:100410004A000E032303550D012402462C492405EE
:10042000781B1B0B360B4018234326436146009074
:100430001C46501AB44103D30098401C009002E0BF
:10044000921800985B41002803DA0020014605B0AD
:10045000F0BD0020012109050746864611E06446EB
:100460001D46141BB54106D36546521BB341744665
:1004700007430C43A646CD07400849082843921875
:100480005B4105460D43EAD11046184313D0604640
:10049000194650407140084306D06046101AB341D7
:1004A00006D20122002306E000220123DB0702E03E
:1004B0000122D2435310009874460105381C614153
:1004C000029C039D0019694100F07EF8BFE700001F
:1004D000FD0300004A0009030123090B1B05194312
:1004E000094B10B5520D9A4201DA002010BD064B9F
:1004F00034339A4203DC9A1A00F042F810BD0349E3
:100500005118884010BD0000FF030000CDFBFFFF25
:1005100010B5002904DB0124E40740428C41214648
:10052000002B04DB1C460123DB075242A3418B4214
:1005300000D1824210BD000010B5002904DB012467
:10054000E40740428C412146002B04DB1C4601237A
:10055000DB075242A341994200D1904210BD0000F6
:1005600010B5202A04DB0146203A9140002010BD3E
:10057000914020239C1A0346E3401943904010BD4C
:1005800010B5202A04DB0846203AD040002110BDD7
:100590000B46D340D0402024A21A9140084319466C
:1005A00010BD10B5202A06DBCB170846203A1041B3
:1005B000C1170B4306E00B461341D0402024A21A7A
:1005C00091400843194610BD10B5002B08DA0024ED
:1005D000401C614192185B411A4301D14008400020
:1005E00010BDF0B51FB482B005460C0003D008461C
:1005F00000F022FE02E000F01FFE203002460090D4
:1006000021462846FFF7ACFF049B059A04460F4697
:1006100018431143084314D0184610431BD00098C8
:1006200040210A1A18460599FFF7AAFF05460E460B
:10063000009A05990498FFF793FF084305D001201D
:1006400004E02046394607B0F0BD0020C11705433D
:100650000E432C43374300990E986305401A7905E1
:10066000E40A00220C43FD0A0A3002D500200146AC
:10067000E9E70105101969410C9C0D9D00196941BC
:10068000FFF7A2FFDFE70000064C0125064E05E05C
:10069000E36807CC2B430C3C98471034B442F7D3A3
:1006A000FFF740FDC01B0000E01B000030B58C18B8
:1006B0000278401C13071B0F01D10378401C12095C
:1006C00006D10278401C03E005780D70401C491CDF
:1006D0005B1EF9D101E00B70491C521EFBD1A142F7
:1006E000E6D3002030BD0000F7B50B46009DED00BD
:1006F000154EAA19002000240027002120E0002424
:100700000027FF258D401D40002D17D000200FE051
:100710001D46C54001268E403540002D07D086007D
:100720000F25B5402C438600029DB5402F43401C49
:100730000828EDD31568A5433D431560121D083107
:100740000829DCDDFEBD00002020024070B5044613
:100750001F48406B4607760F00F03EF820603300DC
:1007600000F081FD081605080B16160E12162068FB
:10077000606010E0174860600DE0164860600AE0B5
:100780000120C003606006E07D200002606002E09E
:100790000020606000BF00BF0D48056A052D02D330
:1007A0006068400901E06068E840A0600848806A2D
:1007B000072109040840050C072D04D10321A06876
:1007C000FFF7B8FC01E0A068E840E06070BD000001
:1007D0000080084000127A00F0B517480068FF2733
:1007E00001373840040A1448C069C50F12484068F0
:1007F0007F003840460A002E01D10020F0BD002CB9
:1008000001D10E4800E00D480346012D01D11846E4
:10081000F4E7094880690F27FF053840C10D00291A
:1008200000D110210448806903277F053840420D1C
:1008300018464843D040E1E70080084000127A00A3
:100840007FB50446601180000A49461800252E2C09
:1008500000D10225E406E40E0321A14030680840DF
:10086000E04045196846FFF771FF0298E84004B080
:1008700070BD0000388008403FB50E4C606AE16AE8
:10088000226B0446009DAC4320460C46019DAC43C0
:1008900021461446029DAC432246002B05D0009C05
:1008A0002043019C2143029C2243024C6062E1628E
:1008B00022633FBD00800840002A06D183680B43B5
:1008C0008360C3688B43C3600EE0012A06D1C3680E
:1008D0000B43C36083688B43836005E083688B436D
:1008E0008360C3688B43C3607047000000BF024849
:1008F00000680028FBD0704704000020704700000B
:10090000C206D20E01219140014A116070470000D9
:1009100000E100E01FB50020019002900390FF214C
:100920000131039888434018039049000398884395
:10093000401803904901029888434018029001230F
:1009400001A807C8FFF798FF042201210020FFF744
:10095000CBFE042202210020FFF7C6FE042211462E
:100960000020FFF7C1FE042208210020FFF7BCFE93
:10097000042210210020FFF7B7FE042220210020CE
:10098000FFF7B2FE684600F045FA632168464180F1
:100990003C4901800021017100200290FF210131BA
:1009A000684681816946384800F014FA01213648CA
:1009B00000F082F9FF210131334800F089F96946DE
:1009C000324800F007FA0121304800F075F9FF21A4
:1009D00001312E4800F07CF9062168464180012152
:1009E0000171002141718171C17101720121417256
:1009F00000214181818101706946234800F07AF924
:100A000001220021204800F045F9012168460170CB
:100A100069461D4800F06EF9012211461A4800F09F
:100A200039F90021684601706946184800F062F9FA
:100A300001220021154800F02DF9012168460170BE
:100A40006946124800F056F9012211460F4800F09D
:100A500021F902216846017069460C4800F04AF904
:100A600001220221094800F015F9032168460170AE
:100A70006946064800F03EF901220321034800F0D0
:100A800009F91FBD7F25000000E0064000F0064088
:100A900070B504460D46164632462946204600F0FB
:100AA00091F970BD70470000C1B2054A116000BFE6
:100AB00003490969FF22013211400029F8D070472B
:100AC0000000044070470000042806D10649096967
:100AD00004221143044A116105E003490969042213
:100AE0009143014A1161704700E000E0002803D102
:100AF0000021094A91610EE0012806D106490969E1
:100B000001221143044A116105E0034909694908BA
:100B10004900014A1161704700E000E0002806D05A
:100B20000649096902221143044A116105E003499B
:100B3000096902229143014A1161704700E000E017
:100B4000014948617047000000E000E07047000084
:100B500010204B49C86001204A4908604A48006B90
:100B6000402108434849086300BF48488068272857
:100B7000FBD14548406A03218902884342494862C3
:100B8000084640680121C90208433F49486000BF48
:100B90003D4880680007C00F0028F9D03A484068F7
:100BA000C008C000C01C3849486000BF3648406BD0
:100BB0004007400F0328F9D135480068C008C0003D
:100BC000401C3349086000202F49086208464068ED
:100BD000491588432C494860084600688915084330
:100BE00029490860084640680915084326494860B5
:100BF00000BF254880684007C00F0028F9D0224870
:100C0000006B402188432049086308460068891525
:100C100088431D4908600320000688610846406833
:100C2000491508431849486000BF17488068800785
:100C3000C00F0028F9D016480068C008C000801C0A
:100C40001349086000201049086208464068C0083F
:100C5000C000401C486000BF0B48406B4007400F7D
:100C60000128F9D10A4800681021084308490860A2
:100C700008460068012109030843054908607047D8
:100C800000810840008308400080084000A1064021
:100C90000002084030B503468D001C464034281938
:100CA000002A04D0046810252C43046003E0046883
:100CB0001025AC43046030BD002904D00269022332
:100CC0001A43026103E0026902239A4302617047FA
:100CD000CA43C267BFF34F8F7047002904D002692F
:100CE00001231A43026103E00269520852000261C3
:100CF00070470000FCB50D78AD0006464036AC19D3
:100D00000D78AD005036AD1901950D78AD00103657
:100D1000AD1900950D786D062A0E03259540EF4319
:100D2000274DA84203D103259540EF4302E001255A
:100D30009540EF43224DA84200D100BF056D3D40D4
:100D40000565436D3B401E4DA84206D18D79CE7995
:100D50007600354395402B4302E08D7995402B4337
:100D60004365174DA84209D1C56E3D402B460D7A0B
:100D70004E7A7600354395402B43C3662568FF269F
:100D80000836B543256025684E88354325604E8971
:100D9000019D2E608E89009D2E60094DA84208D1CC
:100DA0000D794E79760035439540066D35430565DE
:100DB00004E0056D0E79964035430565FCBD0000E5
:100DC00000C0024030B58D00044690342B191A60E3
:100DD00030BD00000B88882213504B8884221350AA
:100DE000026803231B049A430260026801231B0666
:100DF0009A43026002688B681A430260044A904278
:100E000002D10B798C2213508A89826770470000C7
:100E100000C0024000218160491E01800021418004
:100E2000FF2101318181002101717047F0B589B046
:100E300004460D4616461F460022604B20462946B2
:100E4000FFF7B4F900225D4B01910090FFF7CAFA59
:100E500000225B4B03910290FFF7A8F90022594B47
:100E600005910490FFF7BEFA0022574B07910690B8
:100E7000FFF750FA554A03C20022504B304639461C
:100E8000FFF794F900224D4B01910090FFF7AAFA69
:100E900000224B4B03910290FFF788F90022494B47
:100EA00005910490FFF79EFA0022474B07910690A8
:100EB000FFF730FA464A03C20022464B0F990E98BC
:100EC000FFF774F90022434B01910090FFF78AFA73
:100ED00000223B4B03910290FFF768F90022394B47
:100EE00005910490FFF77EFA0022374B0791069098
:100EF000FFF710FA384A03C20022364B11991098B6
:100F0000FFF754F90022334B01910090FFF76AFA82
:100F100000222B4B03910290FFF748F90022294B46
:100F200005910490FFF75EFA0022274B0791069087
:100F3000FFF7F0F9294A03C20022264B13991298B1
:100F4000FFF734F90022234B01910090FFF74AFA92
:100F500000221B4B03910290FFF728F90022194B46
:100F600005910490FFF73EFA0022174B0791069077
:100F7000FFF7D0F91A4A03C20022164B15991498AC
:100F8000FFF714F90022134B01910090FFF72AFAA2
:100F900000220B4B03910290FFF708F90022094B46
:100FA00005910490FFF71EFA0022074B0791069067
:100FB000FFF7B0F90B4A03C209B0F0BD00E0604092
:100FC0000000E03F0000344000C0C2401800002094
:100FD0002000002000805640280000203000002023
:100FE000380000204000002010B520210F4800F0FC
:100FF000ABF8002815D00D4800F000F9C4B20C4938
:1010000008780978491C0A4B19701421FFF7A8F8D1
:101010000848445406480078142802DB002004499C
:1010200008702021014800F007F810BD00000440BE
:10103000000000205001002002690A400261704750
:1010400000B587B000200190029003900121890330
:1010500002988843401802908900019888434018FC
:101060000190890001988843401801904912029824
:101070008843401802904910029888434018029013
:10108000012301A807C8FFF7F7FB002280212B48A6
:10109000FFF712FC002220212948FFF70DFC062251
:1010A00040210220FFF720FB062280210220FFF7CB
:1010B0001BFB062210210020FFF716FB0622202131
:1010C0000020FFF711FBE12040020490FF210131D5
:1010D000684681820021C1820183418304A91948A5
:1010E00000F03CF804A90120800700F037F8182030
:1010F000FFF706FC1720FFF703FC012211461148F9
:1011000000F072F801221146900700F06DF80122FC
:1011100000210C4800F076F801221146094800F041
:1011200071F801220021900700F06CF801221146AD
:10113000900700F067F807B000BD000000400B40CA
:1011400000000B40000004400246106908400028DF
:1011500001D0012070470020FCE7000070B5044674
:101160000D4660681C490840E9880843A98808437F
:101170002989084369890843606001208007844207
:1011800007D11820FFF75CFB06462968FEF7D2FF5F
:1011900060621248844207D11A20FFF751FB0646CD
:1011A0002968FEF7C7FF60620D48844207D11C2002
:1011B000FFF746FB06462968FEF7BCFF6062094858
:1011C000844207D11E20FFF73BFB06462968FEF745
:1011D000B1FF606270BD0000FCE0FFFF0000044052
:1011E0000010004000100440002A03D0C3680B43E5
:1011F000C36002E0C3688B43C36070470146086860
:1012000080B2704710B5002A05D0436810248C4086
:101210002343436004E0436810248C40A3434360AD
:1012200010BD000010B5024A024900F039F810BDA7
:10123000411300000C0000202021020C01D01021DD
:101240001046020A01D010460839020901D01046A2
:10125000091F820801D01046891E420801D0881E4D
:101260007047081A704730B47446641E2578641CB1
:10127000AB4204D3635D5B00E31830BC18471D46E6
:10128000F8E702E008C8121F08C1002AFAD1704727
:101290007047002001E001C1121F002AFBD17047F6
:1012A000F8B516460F460446002503E03946B04718
:1012B000641C6D1C20780028F8D12846F8BD10B5B4
:1012C000044603E07D20C00000F006F82046611EC1
:1012D0008CB20028F6D110BD70B504460420C0437E
:1012E000FFF7F2FB13490968C8081349FEF722FF0C
:1012F0000646FFF725FC0020FFF710FC0020FFF753
:10130000F5FB0120FFF7F2FB002508E000BF0B48CA
:1013100000690121090408400028F8D06D1CA5428D
:10132000F4D30120C043FFF7E1FB0020FFF7DEFB11
:1013300070BD00000800002040420F0000E000E007
:1013400070B504460D462046FFF7AEFB70BD0000A9
:1013500088B014210C48FEF71EFFFFF771FE0BA0AA
:10136000FFF760FF00F016F8002106910791049145
:1013700005910291039100910A460B46084601919E
:1013800000F03CF800BFFEE7500100206868686884
:101390000D0A000010B5FFF7BDFA2D221201002141
:1013A0001448FFF775FB2D22120101211148FFF7A8
:1013B0006FFB2D22120100210F48FFF769FB2D2240
:1013C000120101210C48FFF763FB2D2212010221BB
:1013D0000948FFF75DFB2D22120103210648FFF7A4
:1013E00057FB01210348FFF778FC01210248FFF772
:1013F00074FC10BD00E0064000F00640F0B51FB4DC
:101400008AB006460F46159D149CFE480CC830460F
:101410003946FEF770FF49004908FB4A03C2FB4802
:101420000CC80D990C98FEF766FF49004908F84A68
:1014300003C2F8480CC820462946FEF75CFF490065
:101440004908F54A03C2F5480CC817991698FEF7E3
:1014500052FF49004908F24A03C2F2480CC81999E0
:101460001898FEF748FF49004908EF4A03C2EF48C1
:101470000CC81B991A98FEF73EFF49004908EC4A30
:1014800003C2E14903C9EB4A03C2E148016840686D
:10149000E94A11605060E04903C9E84A03C2E049E3
:1014A00003C9E74A03C2E04801684068E54A1160A1
:1014B0005060DF4801684068E34A116050600022D4
:1014C000E24B30463946FFF723F861D80022E04B63
:1014D00030463946FFF730F85AD83AE0C9480CC8C8
:1014E00030463946FFF728F806D2C7480CC83046C0
:1014F0003946FEF700FF05E0C3480CC830463946C0
:10150000FEF754FE09910890C84803C80791069059
:10151000C44803C805910490C04803C803910290D1
:10152000BC4803C801910090B8480CC809990898B4
:1015300000F0ACFA1420FFF7C2FEB24A09990898ED
:1015400003C20022C34BB04903C9FEF7D4FEAE4A22
:1015500003C20022C04BAC4903C9FEF7EDFFBDD961
:10156000A848C0C0B14803C807910690AD4903C957
:1015700005910490A94903C903910290A54803C8A5
:1015800001910090A1480CC83046394600F07EFA1F
:101590000022AE4B0D990C98FEF7BAFF64D80022DA
:1015A000AB4B0D990C98FEF7C7FF5DD83AE0974812
:1015B0000CC80D990C98FEF7BFFF06D294480CC8D2
:1015C0000D990C98FEF797FE05E091480CC80D990F
:1015D0000C98FEF7EBFD09910890944803C8079119
:1015E0000690904803C8059104908C4903C9039163
:1015F0000290884803C80191009030463946099B03
:10160000089A00F043FA1420FFF759FE7F4A09991F
:10161000089803C200228F4B7D4903C9FEF76BFE79
:101620007B4A03C200228C4B794903C9FEF784FF31
:10163000BDD9764A0C990D98116050607B4903C959
:1016400007910690774903C905910490734803C830
:10165000039102906F4903C90191009030463946C9
:101660000D9B0C9A00F012FA0022784B2046294676
:10167000FEF74EFF5FD80022754B20462946FEF745
:101680005BFF58D83AE063480CC820462946FEF76D
:1016900053FF06D260480CC820462946FEF72BFEB1
:1016A00005E05D480CC820462946FEF77FFD0991FC
:1016B00008905E4803C8079106905A4903C90591EE
:1016C0000490564803C80391029009990898019123
:1016D0000090304639460D9B0C9A00F0D7F9142043
:1016E000FFF7EDFD4B4A0999089803C20022594BB8
:1016F000494903C9FEF7FFFD474A03C20022564B82
:10170000454903C9FEF718FFBDD9424830C04749D3
:1017100003C907910690434803C8059104903F48C8
:1017200003C80195009403910290304639460D9B01
:101730000C9A00F0ABF90022444B17991698FEF76B
:10174000E7FE5DD80022424B17991698FEF7F4FE8B
:1017500056D838E031480CC817991698FEF7ECFEB9
:1017600006D22F480CC817991698FEF7C4FD05E05D
:101770002B480CC817991698FEF718FD0991089088
:101780002A4803C807910690264903C90591049089
:1017900009990898019500940391029030463946C2
:1017A0000D9B0C9A00F072F91420FFF788FD1B4A7C
:1017B0000999089803C20022264B194903C9FEF76C
:1017C0009AFD174A03C20022234B154903C9FEF7AD
:1017D000B3FEBFD9114A1799169803C2134803C81C
:1017E000079106900F4803C8059104901799169821
:1017F0000195009403910290304639460D9B2DE0EF
:101800002FE0000078000020200100208000002050
:1018100028010020880000203001002090000020D6
:10182000380100209800002040010020A000002086
:1018300048010020F0000020F800002000010020F6
:1018400008010020100100201801002000E0604085
:1018500000E060C00000F03F000008400C9A00F07B
:1018600015F90022774B19991898FEF751FE60D8A8
:101870000022754B19991898FEF75EFE59D838E08A
:1018800072480CC819991898FEF756FE06D270488F
:101890000CC819991898FEF72EFD05E06C480CC885
:1018A00019991898FEF782FC09910890694803C8B5
:1018B0000791069009990898059104901799169830
:1018C0000195009403910290304639460D9B0C9A85
:1018D00000F0DCF81420FFF7F2FC5C4A0999089844
:1018E00003C200225C4B5A4903C9FEF704FD584A63
:1018F00003C20022594B564903C9FEF71DFEBFD94A
:10190000524A1899199811605060524903C90791B9
:1019100006901999189805910490179916980195B1
:10192000009403910290304639460D9B0C9A00F0CA
:10193000ADF80022434B1B991A98FEF7E9FD60D8D9
:101940000022414B1B991A98FEF7F6FD59D838E052
:1019500040480CC81B991A98FEF7EEFD06D2404885
:101960000CC81B991A98FEF7C6FC05E03C480CC849
:101970001B991A98FEF71AFC099108900999089882
:10198000079106901999189805910490179916983F
:101990000195009403910290304639460D9B0C9AB4
:1019A00000F074F80520FFF78AFC2A4A0999089884
:1019B00003C20022284B2A4903C9FEF79CFC284A8F
:1019C00003C20022254B264903C9FEF7B5FDBFD946
:1019D000204A1A991B98116050601B991A98079118
:1019E00006901999189805910490179916980195E1
:1019F000009403910290304639460D9B0C9A00F0FA
:101A000045F8184801684068174A11605060174946
:101A100003C9174A03C2174801684068164A116093
:101A20005060164903C9164A03C216480168406847
:101A3000074A11605060144903C9094A03C20FB034
:101A4000F0BD000000E0604000E060C098000020B1
:101A500040010020A00000200000F03F00000840EE
:101A600048010020F000002020010020F8000020A4
:101A70002801002000010020300100200801002082
:101A8000380100201001002018010020F0B589B0B5
:101A900004460D4616461F46159914980791069060
:101AA000139912980591049011991098039102903E
:101AB0000F990E9832463B460191009020462946E8
:101AC000FFF7B4F900221346354903C9FEF720FD9C
:101AD0000AD0334903C9FEF7FDFC80B2024600215B
:101AE00008903048FEF7D4FF002213462E4903C960
:101AF000FEF70EFD0AD02C4903C9FEF7EBFC80B2BD
:101B00000246012108902748FEF7C2FF0022134633
:101B1000264903C9FEF7FCFC0AD0244903C9FEF795
:101B2000D9FC80B20246022108901E48FEF7B0FFA1
:101B3000002213461E4903C9FEF7EAFC0AD01C49DD
:101B400003C9FEF7C7FC80B202460321089015487E
:101B5000FEF79EFF00221346164903C9FEF7D8FC84
:101B60000AD0144903C9FEF7B5FC80B20246002131
:101B700008901148FEF78CFF002213460F4903C955
:101B8000FEF7C6FC0AD00D4903C9FEF7A3FC80B2DC
:101B90000246012108900848FEF77AFF09B0F0BD1F
:101BA0001800002000F0064020000020280000203F
:101BB000300000203800002000E0064040000020F7
:101BC000E01B00000000002050010000AC060000F7
:101BD000E81B0000500100201802000092120000D3
:081BE000A104FF6CDC020147C7
:04000005000000C136
:00000001FF
