:020000040000FA
:10000000A0030020C1000000A91200009912000006
:10001000FFFFFFFFFFFFFFFFFFFFFFFFFFFFFFFFF0
:10002000FFFFFFFFFFFFFFFFFFFFFFFF7114000057
:10003000FFFFFFFFFFFFFFFF51140000F914000056
:1000400003010000030100000301000003010000A0
:100050000301000003010000030100000301000090
:1000600003010000FFFFFFFF030100000301000088
:10007000030100000301000003010000FFFFFFFF78
:10008000FFFFFFFF03010000030100000301000068
:100090000301000003010000030100000301000050
:1000A000911900000301000003010000030100009A
:1000B0000301000003010000030100000301000030
:1000C0001048804710488047104800471048016991
:1000D000002910D1416900290DD1816900290AD177
:1000E000C169002907D1BFF34F8F0A490A48C86088
:1000F000BFF34F8FFEE77047FEE7FEE7FEE7FEE740
:10010000FEE7FEE7CD000000FD1400001D01000029
:100110000003084000ED00E00400FA0504488546AD
:1001200000F09EFD00480047B1270000C046C046D1
:10013000A003002030B50B460146002020220124F8
:1001400009E00D46D5409D4205D31D469540491B0B
:100150002546954040191546521E002DF1DC30BD54
:1001600070B500242546002801DA01244042002908
:1001700001DA01254942FFF7DDFFAC4200D04042E1
:10018000002C00D0494270BDD2B201E00270401C88
:10019000491EFBD270470022F6E710B513460A4607
:1001A00004461946FFF7F0FF204610BD0FB400B516
:1001B0008DB009900B9010A900200091C0430A90C7
:1001C00000200C9006480690064807906A4609A849
:1001D0000F9900F00BFC0DB008BC04B018470000EC
:1001E0000D0A00002D0A0000FFB50027FF4383B071
:1001F00000205C6801909E681D46A9697F1C0498D8
:1002000088470090296A88470028F6D10098401C4A
:100210000CD0032040028443002E19DD600614D563
:1002200000982B2809D02D280FD103E00020C043CF
:1002300007B0F0BD012080020443A9697F1C049827
:100240008847761E0090002E02DD0098302803D0EB
:100250000598002825D035E0012040020443A96913
:10026000761E7F1C049888470090002E03DD7828B6
:1002700005D0582803D00598002810D022E0059812
:10028000002801D010281DD1012040028443A96913
:10029000761E7F1C049888470090102002E00820FA
:1002A00000E00A2005900DE0012149020C43059A67
:1002B0000199761E514308180190A9697F1C049882
:1002C00088470090002E05DD0599009800F078FB26
:1002D0000028E9DAE96904988847A00502D40120DA
:1002E000C043A5E7E00722D1600611D5600501985B
:1002F00000D5404229680A1D2A600968220501D5F7
:10030000087014E0220701D5088010E008600EE0B4
:100310002868011D29600068210502D50199017036
:1003200005E02107019901D5018000E00160384610
:100330007EE7F8B502464A40D40F42004B0052080F
:100340005B089A4202D20246084611464A0023D070
:10035000C30D4A00DDB2120EAD1A202D35DA490266
:100360000126490AF6058A19002C00D052422021A4
:100370004F1B1146B9402A411018C20D9A4221D094
:10038000002C17D0012D08DCDA05801AD20F801955
:10039000D207DBB200F064FBF8BDDA05801A012356
:1003A00040001B06C01880185A428018CA0F10431C
:1003B000490007E04908C2071143DA05801A80198D
:1003C0004008801800F044FBF8BD61000122511A7A
:1003D000001BF7E70122D2075140AAE70122D2070A
:1003E0005040A6E7024670B54A40D30FDB074000F5
:1003F0002DD04A002AD0010E140E00021202091953
:10040000400A520A8418E50104465443000A120ABD
:100410002E045043A4194219200CC543AA18120CEB
:100420000125AD03521C521912047F39240400D057
:10043000521C104301D44000491EC2B20C06C00930
:100440002018401C4008802A02D003E0002070BD24
:1004500040084000002900DA0020184370BD70B544
:1004600002464A40D50F40004A00ED0740085208B6
:10047000002814D0002A12D0C40DD30D410201204F
:10048000C0055202490A520AE41A091812187D34AA
:10049000914201D3641C00E04900002C01DA0020E5
:1004A00070BD0023914201D3891A034340084900DB
:1004B0000028F7D100290AD0914202D10121C907B1
:1004C00005E0914201D2012101E00121C943E0058B
:1004D000C018401900F0BCFA70BD0000F0B5074626
:1004E0000846584087B0C00F049048000E46590097
:1004F00040084908BC1A884105D2384631461E4694
:1005000017460B4602465800400810434DD0300DA8
:10051000039040055900400D490D0590401A029086
:10052000402873DA18030121000B090508430190E4
:1005300004980092002806D01146019A49420020F2
:10054000904100910190029840210A1A0199009867
:1005500000F002FA05460C466B4607CB00F01DFA88
:10056000C0197141039A0E0D0023D71756401A4641
:100570007A40164344D0049A002A2DD0029A012AC8
:10058000039A15DC1205C01A914101263605001C9C
:100590007141D20F059ED2070093019202962A461E
:1005A000234600F0A3FA07B0F0BD38463146FAE71B
:1005B0001605234A0F46B218C01AB7410121090592
:1005C000001C4F4100187F41114618187941E20F75
:1005D00010436D19644113E0E2076D081543640888
:1005E000C2071443039A01261205C01A9141360529
:1005F000001C7141CE07400830434908C0185141E2
:100600002A46234600F065FACDE7FFE70498012269
:100610004000C117121A00238B4104983146C417B9
:10062000381AA141EEE730B40124E407634030BC3E
:1006300054E730B40124E407614030BC4EE70000C9
:100640000000E0FFF0B51FB488B00B9909980024B2
:1006500048400999C00F490049080991C0070B9902
:100660000090490049080B9109990898A64608434B
:100670001CD00B990A98084318D00998012440000F
:10068000420D4800410D099824050003000B20434A
:1006900009900B980003000B20430B9050181C4945
:1006A0004018002201901446104605E00020014643
:1006B0000DB0F0BD032801DA034600E003239C4699
:1006C000C11A0AAE0AE05F0008ADED5B4F00F75BB0
:1006D0007D430027AA187C41491C5B1E6145F2DD61
:1006E000410004AB5A522104120C0A43240C401C52
:1006F0000828DFDB01980290009970460191009074
:10070000059B049A0799069800F0F0F9D0E70000DD
:100710000DFCFFFFF0B50C465C4085B0E40FE4072C
:1007200003944C0000266408590094464908024688
:100730000296224321D062460A431ED06200570D22
:100740004A000E032303550D012402462C492405BB
:10075000781B1B0B360B4018234326436146009041
:100760001C46501AB44103D30098401C009002E08C
:10077000921800985B41002803DA0020014605B07A
:10078000F0BD0020012109050746864611E06446B8
:100790001D46141BB54106D36546521BB341744632
:1007A00007430C43A646CD07400849082843921842
:1007B0005B4105460D43EAD11046184313D060460D
:1007C000194650407140084306D06046101AB341A4
:1007D00006D20122002306E000220123DB0702E00B
:1007E0000122D2435310009874460105381C614120
:1007F000029C039D0019694100F06BF9BFE70000FE
:10080000FD030000C217C10F504010B54018CA07C1
:100810009623002100F024F910BD00000EB5C21788
:10082000C10F5040CA0740180021054B02930192A6
:1008300000910A460B4600F059F903B000BD0000D4
:10084000330400004A0009030123090B1B05194367
:10085000094B10B5520D9A4201DA002010BD064B2B
:1008600034339A4203DC9A1A00F086F810BD03492B
:100870005118884010BD0000FF030000CDFBFFFFB2
:10088000C20FD207400040080BD0C10D0723DB0187
:10089000C91840020905400A1143C2084007114324
:1008A000704700200146704710B5002904DB012481
:1008B000E40740428C412146002B04DB1C46012307
:1008C000DB075242A3418B4200D1824210BD00009F
:1008D00010B5002904DB0124E40740428C41214685
:1008E000002B04DB1C460123DB075242A341994243
:1008F00000D1904210BD0000CB0FDB07490010B5BE
:10090000490802460A4307D00A0D07240903E401F7
:10091000090B121B002A01DC002010BDC900440F86
:100920000C43C100E018D205801800F091F810BD0A
:100930000122D207002800DB101A002900DB511A1F
:10094000814270470122D207002800DB101A0029DB
:1009500000DB511A8842704710B5202A04DB01469B
:10096000203A9140002010BD914020239C1A03465C
:10097000E3401943904010BD10B5202A04DB08461F
:10098000203AD040002110BD0B46D340D040202457
:10099000A21A91400843194610BD10B5202A06DB63
:1009A000CB170846203A1041C1170B4306E00B460F
:1009B0001341D0402024A21A91400843194610BD8B
:1009C0003A2800D23038202302469A43412A01D3E4
:1009D00010463738884201D30020C04370470000DA
:1009E00002681378511801601846704710B5D1603D
:1009F000044951610449116200211161114600F05E
:100A000049F910BDE1090000850C00004268002A88
:100A100008D001680B78491C002B03D0521E06C079
:100A2000184670470121C160881E70474268002A3D
:100A30000BD0C3680168002B07D183688B4204D0B8
:100A4000491E521C06C0002070470020C04370475A
:100A5000002904DA401C490001D1400840007047D9
:100A600070B40024050C05D11024000402D1002923
:100A700021D01124050E01D100020834050F01D147
:100A80000001241D850F01D18000A41C002801DB7A
:100A90004000641C002908D020252E1B0D46F5407F
:100AA000A14000D001212943084301061B1B000A75
:100AB000DB1D02D5002070BC7047DB0518188018BC
:100AC0000029F8DA401C4900F5D170BC400840000C
:100AD000704710B5002B08DA0024401C61419218C1
:100AE0005B411A4301D14008400010BDF0B51FB46E
:100AF00082B005460C0003D0084601F077F802E00A
:100B000001F074F820300246009021462846FFF795
:100B100023FF049B059A04460F46184311430843DC
:100B200014D0184610431BD0009840210A1A1846CA
:100B30000599FFF721FF05460E46009A059904988E
:100B4000FFF70AFF084305D0012004E0204639469C
:100B500007B0F0BD0020C11705430E432C433743B7
:100B600000990E986305401A7905E40A00220C43A7
:100B7000FD0A0A3002D500200146E9E701051019F7
:100B800069410C9C0D9D00196941FFF7A2FFDFE749
:100B900070B54B005B0803430BD04B005C0D002687
:100BA00033466542B341D417AD1AA34102DB00209E
:100BB000014670BD12053018514170BDFEB50023CD
:100BC0001A461B1A8A4103DB0020014603B0F0BD20
:100BD0004A000D0301212D0B0905520D0D43D107CC
:100BE00002D100186D41521E5110FF31FF31013109
:100BF000002704463E4638460097019102460121EF
:100C000000200905FFF7B8FEC3197141F8183246F4
:100C100084468E464A4161462846611A904104D373
:100C20006046241A954176461F46241900986D4166
:100C3000401C00903428E1DDF91930467041091B51
:100C4000A84103D20022D243134601E000221346FA
:100C500001980105381C7141FFF73BFFB6E7000022
:100C6000064C0125064E05E0E36807CC2B430C3CFF
:100C700098471034B442F7D3FFF754FA783B00009A
:100C8000983B000010B50F21C0B2490200F0D2F924
:100C900010BD0000F3B58DB000200A9001200B902C
:100CA000002608460C300C4609906269012109981B
:100CB0009047051E2ED0252D2DD0216A884700286B
:100CC00018D06269012109989047216A8847002855
:100CD000F7D1411E62690998904700E0761CA1692E
:100CE0000D988847216A88470028F7D1E1690D9857
:100CF0008847DAE7A1690D9888470746A84201D1DD
:100D0000761CD2E7E1690D9888477F1C02D10A98CA
:100D1000002877D04AE1002762693D4639460998A4
:100D200090472A280CD16269012109989047012532
:100D300006E00A214F433F18303FEBD41020054313
:100D40006269012109989047014630390A2903D286
:100D50009C498F42DEDCECE7E90600D49A4F6C2810
:100D60000AD04C2810D0682824D06A282ED07428A5
:100D70000CD07A280AD00DE06269012109989047C9
:100D80006C2823D004211CE0202005436269012146
:100D900009989047A760656065284FD026DC5828E1
:100DA00039D01ADC452849D012DC252834D0412816
:100DB000B0D143E06269012109989047682802D0C8
:100DC00008210D43E6E70120C002DEE70220DCE750
:100DD000462833D047282CD130E05B2870D06128DA
:100DE0002CD063286CD0642823D161E06F284FD0C9
:100DF00009DC662822D0672820D0692826D06E28F2
:100E000017D12EE0CEE070284DD073286FD0752812
:100E10004ED078280DD154E0A1690D988847054639
:100E2000252800D16CE7E1690D9888476D1C00D139
:100E30006DE7BBE00A224CE00A2252E00120234683
:100E40006A46C0430D99C046C046A4E028464021EA
:100E500008436060A807234601D5002239E000223C
:100E60003FE0E80700D020E72068011D216000680E
:100E7000290501D5067018E7290701D5068014E772
:100E8000A90703D5F117066041600EE706600CE77D
:100E90002846402108436060A807234601D5082260
:100EA00017E008221DE0494928460840606016E026
:100EB0002846402108436060A8072346BCD5B9E70F
:100EC00015E02846402108436060A80707D523465F
:100ED00010220120C0430D99C046C0465BE0234666
:100EE00010220120C0430D99FFF77EF953E0002145
:100EF0000C910B460091632802D05B2808D044E097
:100F00002079C00601D40120A060012000903CE0BF
:100F100062690121099890475E2805D101200C9053
:100F200001466269099890472169002906D10B465C
:100F300001AA8F00491CD3510829FADB002835D0BB
:100F4000216900290ED1C117C90E09184A11930051
:100F500001AA9A1849094901411A012013688840D9
:100F60000343136062690121099890475D28E5D128
:100F70000C98002808D0002001AB81005A58401C72
:100F8000D2435A500828F8DB01AB01202246C04367
:100F90000D99C046C04600280ADA401C06D10B98BD
:100FA000002803D00020C0430FB0F0BD0A98FBE733
:100FB000E90702D10A99491C0A91361800200B90C2
:100FC00073E60000CCCCCC0CFFFFFF7FF1F7FFFFF6
:100FD0000EB505490291002100910A460B46019188
:100FE000FFF784FD03B000BD3304000070B5CD0FE2
:100FF0004A0009030123090B1B0519430B4BED079D
:101000000024520D9A4201DA002070BD074B3433A0
:101010009A4203DC9A1AFFF7AFFC02E00449511828
:1010200088402C43F1D0404270BD0000FF03000017
:10103000CDFBFFFF7F2801D9002207E0054B4208C6
:101040009A5CC00700D112091207120F01209040CC
:1010500008407047383B000030B58C180278401CBF
:1010600013071B0F01D10378401C120906D1027827
:10107000401C03E005780D70401C491C5B1EF9D133
:1010800001E00B70491C521EFBD1A142E6D30020A7
:1010900030BD0000F7B50B46009DED00154EAA19B6
:1010A000002000240027002120E000240027FF2545
:1010B0008D401D40002D17D000200FE01D46C5407B
:1010C00001268E403540002D07D086000F25B54003
:1010D0002C438600029DB5402F43401C0828EDD3C9
:1010E0001568A5433D431560121D08310829DCDD54
:1010F000FEBD00002020024070B504461F48406B32
:101100004607760F00F03EF82060330000F09EFDA9
:10111000081605080B16160E12162068606010E0FF
:10112000174860600DE0164860600AE00120C003C7
:10113000606006E07D200002606002E000206060E8
:1011400000BF00BF0D48056A052D02D36068400945
:1011500001E06068E840A0600848806A072109044F
:101160000840050C072D04D10321A068FEF7E2FF1B
:1011700001E0A068E840E06070BD00000080084029
:1011800000127A00F0B517480068FF270137384091
:10119000040A1448C069C50F124840687F003840EF
:1011A000460A002E01D10020F0BD002C01D10E48CE
:1011B00000E00D480346012D01D11846F4E7094827
:1011C00080690F27FF053840C10D002900D110218B
:1011D0000448806903277F053840420D184648437C
:1011E000D040E1E70080084000127A007FB5044655
:1011F000601180000A49461800252E2C00D10225D6
:10120000E406E40E0321A14030680840E04045199F
:101210006846FFF771FF0298E84004B070BD000017
:10122000388008403FB50E4C606AE16A226B044684
:10123000009DAC4320460C46019DAC43214614461C
:10124000029DAC432246002B05D0009C2043019C0C
:101250002143029C2243024C6062E16222633FBD53
:1012600000800840002A06D183680B438360C3686E
:101270008B43C3600EE0012A06D1C3680B43C360F1
:1012800083688B43836005E083688B438360C36816
:101290008B43C3607047000000BF0248006800280D
:1012A000FBD070470400002070470000C206D20E39
:1012B00001219140014A11607047000000E100E007
:1012C0001FB50020019002900390FF210131039887
:1012D00088434018039049000398884340180390BE
:1012E00049010298884340180290012301A807C8C9
:1012F000FFF798FF042201210020FFF7CBFE042214
:1013000002210020FFF7C6FE042211460020FFF74D
:10131000C1FE042208210020FFF7BCFE0422102198
:101320000020FFF7B7FE042220210020FFF7B2FEC5
:10133000684600F045FA6321684641803C490180D7
:101340000021017100200290FF2101316846818156
:101350006946384800F014FA0121364800F082F955
:10136000FF210131334800F089F96946324800F025
:1013700007FA0121304800F075F9FF2101312E48AC
:1013800000F07CF9062168464180012101710021AD
:1013900041718171C171017201214172002141814C
:1013A000818101706946234800F07AF90122002109
:1013B000204800F045F901216846017069461D4842
:1013C00000F06EF9012211461A4800F039F90021A7
:1013D000684601706946184800F062F90122002150
:1013E000154800F02DF90121684601706946124840
:1013F00000F056F9012211460F4800F021F90221B0
:101400006846017069460C4800F04AF90122022141
:10141000094800F015F9032168460170694606483D
:1014200000F03EF901220321034800F009F91FBD35
:101430007F25000000E0064000F0064070B504463D
:101440000D46164632462946204600F091F970BDF9
:1014500070470000C1B2054A116000BF0349096925
:10146000FF22013211400029F8D0704700000440EB
:1014700070470000042806D1064909690422114377
:10148000044A116105E00349096904229143014AB4
:101490001161704700E000E0002803D10021094AF3
:1014A00091610EE0012806D1064909690122114324
:1014B000044A116105E00349096949084900014AE4
:1014C0001161704700E000E0002806D00649096974
:1014D00002221143044A116105E00349096902220D
:1014E0009143014A1161704700E000E00149486101
:1014F0007047000000E000E07047000010204B49FA
:10150000C86001204A4908604A48006B40210843EE
:101510004849086300BF484880682728FBD14548F0
:10152000406A03218902884342494862084640686C
:101530000121C90208433F49486000BF3D48806817
:101540000007C00F0028F9D03A484068C008C00022
:10155000C01C3849486000BF3648406B4007400F08
:101560000328F9D135480068C008C000401C334941
:10157000086000202F4908620846406849158843E2
:101580002C494860084600688915084329490860C5
:1015900008464068091508432649486000BF2548A9
:1015A00080684007C00F0028F9D02248006B402116
:1015B00088432049086308460068891588431D4907
:1015C0000860032000068861084640684915084302
:1015D0001849486000BF174880688007C00F00287E
:1015E000F9D016480068C008C000801C1349086084
:1015F00000201049086208464068C008C000401C2E
:10160000486000BF0B48406B4007400F0128F9D1EC
:101610000A48006810210843084908600846006825
:10162000012109030843054908607047008108400B
:10163000008308400080084000A1064000020840E6
:1016400030B503468D001C4640342819002A04D0CA
:10165000046810252C43046003E004681025AC43A3
:10166000046030BD002904D0026902231A430261DC
:1016700003E0026902239A4302617047CA43C267CA
:10168000BFF34F8F7047002904D0026901231A432A
:10169000026103E0026952085200026170470000D3
:1016A000FCB50D78AD0006464036AC190D78AD009E
:1016B0005036AD1901950D78AD001036AD19009575
:1016C0000D786D062A0E03259540EF43274DA8425D
:1016D00003D103259540EF4302E001259540EF43F8
:1016E000224DA84200D100BF056D3D400565436D08
:1016F0003B401E4DA84206D18D79CE797600354308
:1017000095402B4302E08D7995402B434365174D5F
:10171000A84209D1C56E3D402B460D7A4E7A76001F
:10172000354395402B43C3662568FF260836B543ED
:10173000256025684E88354325604E89019D2E60C1
:101740008E89009D2E60094DA84208D10D794E79F1
:10175000760035439540066D3543056504E0056D1B
:101760000E79964035430565FCBD000000C002407F
:1017700030B58D00044690342B191A6030BD00003E
:101780000B88882213504B8884221350026803234D
:101790001B049A430260026801231B069A430260FD
:1017A00002688B681A430260044A904202D10B79A6
:1017B0008C2213508A8982677047000000C0024063
:1017C00000218160491E018000214180FF210131FB
:1017D0008181002101717047F0B589B004460D4642
:1017E00016461F460022604B20462946FEF776FE2D
:1017F00000225D4B01910090FEF78CFF00225B4BB5
:1018000003910290FEF76AFE0022594B0591049065
:10181000FEF780FF0022574B07910690FEF712FF5C
:10182000554A03C20022504B30463946FEF756FE59
:1018300000224D4B01910090FEF76CFF00224B4BB4
:1018400003910290FEF74AFE0022494B0591049055
:10185000FEF760FF0022474B07910690FEF7F2FE6D
:10186000464A03C20022404B0F990E98FEF736FEFF
:1018700000223D4B01910090FEF74CFF00223B4BB4
:1018800003910290FEF72AFE0022394B0591049045
:10189000FEF740FF0022374B07910690FEF7D2FE7D
:1018A000374A03C20022304B11991098FEF716FEFA
:1018B00000222D4B01910090FEF72CFF00222B4BB4
:1018C00003910290FEF70AFE0022294B0591049035
:1018D000FEF720FF0022274B07910690FEF7B2FE8D
:1018E000284A03C20022204B13991298FEF7F6FDF6
:1018F00000221D4B01910090FEF70CFF00221B4BB4
:1019000003910290FEF7EAFD0022194B0591049025
:10191000FEF700FF0022174B07910690FEF792FE9C
:10192000194A03C20022104B15991498FEF7D6FDF0
:1019300000220D4B01910090FEF7ECFE00220B4BB4
:1019400003910290FEF7CAFD0022094B0591049015
:10195000FEF7E0FE0022074B07910690FEF772FEAD
:101960000A4A03C209B0F0BD008056400000E03FC3
:101970000000344000C0C2401800002020000020B9
:101980002800002030000020380000204000002007
:1019900010B520210F4800F0ABF8002815D00D48F5
:1019A00000F000F9C4B20C4908780978491C0A4BC8
:1019B00019701421FEF7D4FB0848445406480078F7
:1019C000142802DB0020044908702021014800F09F
:1019D00007F810BD0000044000000020880100202E
:1019E00002690A400261704700B587B0002001908B
:1019F00002900390012189030298884340180290C5
:101A00008900019888434018019089000198884313
:101A100040180190491202988843401802904910DA
:101A20000298884340180290012301A807C8FFF7D5
:101A3000F9FB002280212B48FFF714FC0022202113
:101A40002948FFF70FFC062240210220FFF722FB66
:101A5000062280210220FFF71DFB06221021002014
:101A6000FFF718FB062220210020FFF713FBE120DF
:101A700040020490FF210131684681820021C18229
:101A80000183418304A9194800F03CF804A901200E
:101A9000800700F037F81820FFF708FC1720FFF741
:101AA00005FC01221146114800F072F8012211468E
:101AB000900700F06DF8012200210C4800F076F844
:101AC00001221146094800F071F801220021900717
:101AD00000F06CF801221146900700F067F807B09B
:101AE00000BD000000400B4000000B40000004401F
:101AF000024610690840002801D0012070470020EC
:101B0000FCE7000070B504460D4660681C490840BB
:101B1000E9880843A9880843298908436989084353
:101B2000606001208007844207D11820FFF75EFB28
:101B300006462968FEF7FEFA60621248844207D121
:101B40001A20FFF753FB06462968FEF7F3FA606296
:101B50000D48844207D11C20FFF748FB0646296840
:101B6000FEF7E8FA60620948844207D11E20FFF7B9
:101B70003DFB06462968FEF7DDFA606270BD000095
:101B8000FCE0FFFF00000440001000400010044093
:101B9000002A03D0C3680B43C36002E0C3688B43D1
:101BA000C36070470146086880B2704710B5002ACC
:101BB00005D0436810248C402343436004E043680D
:101BC00010248C40A343436010BD00000FB410B537
:101BD00003A9044B044A029800F09EFB10BC08BC09
:101BE00004B01847A12700000C0000202021020C9F
:101BF00001D010211046020A01D01046083902090E
:101C000001D01046091F820801D01046891E4208E3
:101C100001D0881E7047081A7047F0B4040C8BB2CC
:101C2000264682B25E430D0C1046370C58433604EC
:101C300080190021794116466E43370C360480190D
:101C4000794126466E438919F0BC704730B474461A
:101C5000641E2578641CAB4204D3635D5B00E3180B
:101C600030BC18471D46F8E74900CA02024310007D
:101C700000D004204A0D01D001221043044A490D2E
:101C8000914201D102210843012800D1052070476B
:101C9000FF070000F7B596B014460021A160D1609F
:101CA000179909914D00CD496D088D4205DC1799B2
:101CB00061602060002019B0F0BDC949C94E8D4255
:101CC00038DAD32709997F050029C74A179933467F
:101CD00017DDFEF7A8FCB54206D0C44AC44BFEF798
:101CE000A2FC6160206009E03A46C14BFEF79BFC14
:101CF000C04AC14BFEF797FC61602060012019B01B
:101D0000F0BDFEF7EBFBB54206D0B84AB84BFEF784
:101D1000E5FB6160206009E03A46B54BFEF7DEFB6B
:101D2000B44AB54BFEF7DAFB616020600020C04387
:101D300019B0F0BDB1498D42179977DC49004908C7
:101D40000746AF4AAF4B0491FEF77CFC0022AE4B36
:101D5000FEF7C4FBFFF74AF90A90FEF75FFDA24ABF
:101D6000334603910290FEF76DFC3A46049BFEF762
:101D700060FC06460F469D4A9D4B03990298FEF76C
:101D800061FC2A0D01250C9232463B46FEF751FCC0
:101D900061602060032D39D04800410D0C98401A35
:101DA000690169181139814230DA9849280179446A
:101DB00008960D90081804974368026803990298E2
:101DC000FEF740FC02460B460791069004990898DE
:101DD000FEF729FC06460F46049B089AFEF729FCED
:101DE000079B069AFEF71FFC0591894904907944E8
:101DF0000D984018C368826803990298FEF722FC88
:101E0000059B049AFEF70FFC6D1CBDE7099800289E
:101E100009DA01226068D207504060600A9819B060
:101E20004042F0BD02E00A9819B0F0BD090301225A
:101E3000090B12050E9089181798109140007549EA
:101E4000400D40184111C006C00E0D911390202185
:101E5000081A149000200690052507901398002872
:101E60000D980CD0401982006B487844875813991C
:101E70008F40101841681498C1400F4304E0401986
:101E8000810066487844475810993846FFF7C5FEE8
:101E900006460A9138460E99FFF7BFFE8A190A9B3B
:101EA0008A4201D2012100E00021C9188C46AF000E
:101EB000694679188B684E68C318834201D20120A5
:101EC00000E0002096193618002802D0964202D968
:101ED00003E0964201D2012000E000206246121881
:101EE0004E6068468B60C25128466D1E0028B5DCE6
:101EF0000121029849074018800F13900298059914
:101F00008000039E049D0B91FEF788FC0746304637
:101F10000891FFF75DF81D22D243FEF739FE1090BD
:101F20000F912846FFF754F83D22D243FEF730FECA
:101F30000E900D910B98FFF74BF85D22D243FEF700
:101F400027FE0B910C900D9B0E9AFEF7C7FA0F9B84
:101F5000109AFEF7C3FA3A46089BFEF7BFFA00252F
:101F60000E463A462846089BFEF75DFB0F9B109AEB
:101F7000FEF759FB0D9B0E9AFEF755FB0B9B0C9A37
:101F8000FEF757FB264A274BFEF75CFB07460D91F1
:101F9000254A264B31462846FEF754FB3A460D9B10
:101FA000FEF79CFA0F4615220C9092061D4B314607
:101FB0002846FEF747FB3B460C9AFEF78FFA179A26
:101FC000002A05DA139A524213920122D207514095
:101FD00061602060139819B0F0BD0000FB21E93F5B
:101FE0007CD90240FB21F93F000040543163621A62
:101FF00061B4D03D7370032E8A19A33BFB21394194
:1020000083C8C96D305FE43F0000E03F961C0000CC
:10201000561C00000BFCFFFF0A1C0000F01B000018
:10202000182D4454FB21F93D3326A611460B113CD3
:10203000F0B51FB44E00F9207608800584B00F4635
:10204000864204DA0498FEF7D1FF002838D0049ABB
:102050003B4610461946FEF7F5FA044602462C4860
:102060000D460B460621784400F05CF822462B46CC
:10207000FEF7E8FA019100903946079B069A04980A
:10208000FEF7E0FA0746029120462946019B009A96
:10209000FEF7D8FA3A46029BFEF7C5FA0746002239
:1020A0000091D24320462946FEF772FD194A964216
:1020B0000ADA3A46009BFEF7B6FA0022164B23E0F6
:1020C0000020154909B0F0BD144A964202DD0024F3
:1020D000134D03E001225205B51A002422462B4677
:1020E000FEF7A1FA0646019122462B4600200A4936
:1020F000FEF799FA0D4604463A463046009B019990
:10210000FEF791FA22462B46FEF793FA09B0F0BD8E
:10211000AE1900003333D33F0000F03F0000E93F29
:102120000000D23FF8B504464F1EC80008382118F9
:1021300015461E46086849683A4606239A4310D059
:102140002A463346FEF77EFA3A46D200083AA318EA
:102150001A687F1E5B68FEF7C1F906223B4693436F
:10216000EED1022F23D0042F11D0062F2FD12A46D3
:102170003346FEF767FAE36AA26AFEF7AFF92A462A
:102180003346FEF75FFA636A226AFEF7A7F92A462A
:102190003346FEF757FAE369A269FEF79FF92A462C
:1021A0003346FEF74FFA63692269FEF797F92A462C
:1021B0003346FEF747FAE368A268FEF78FF92A462E
:1021C0003346FEF73FFA63682268FEF787F9F8BDE9
:1021D000F0B51FB4054648000C46F92140088905B2
:1021E00086B088420BDA28462146FFF73DFD0428D9
:1021F00001D100F071F8284621460BB0F0BD2A4607
:10220000234610461946FEF71DFA06460F462A4693
:102210002346FEF717FA00902548019132463B46C7
:1022200005217844FFF77EFF029010980391002863
:1022300029D0204A204B01990098FEF703FA049018
:10224000059168460FC8FEF7FDF900220191009044
:10225000D24309990898FEF79BFC019B009AFEF770
:10226000E2F932463B46FEF7EDF9099B089AFEF784
:10227000DAF9059B049AFEF7D6F92A462346FEF7BB
:10228000D8F90BB0F0BD0B4630463946029AFEF73E
:10229000D9F9084A084BFEF721F9019B009AFEF78D
:1022A000D1F92A462346FEF719F90BB0F0BD00001C
:1022B000EA180000495555555555C5BF10B50122BE
:1022C000FEF766FC10BD002210B5134610461146FD
:1022D000FEF720FA10BD0000034A10B500201107D8
:1022E000FEF756FC10BD000001FDFFFF02E008C82C
:1022F000121F08C1002AFAD170477047002001E080
:1023000001C1121F002AFBD170470000014908607B
:102310007047000078010020FFB58DB0044600250D
:1023200006E025280AD0109A0F999047641C6D1C6E
:1023300020780028F5D1284611B0F0BD00270121F2
:10234000484A009700E00743641C23780846203B76
:1023500098401042F7D120782E2817D10420074347
:102360006078641C2A280CD10E98641C02C8009165
:102370000E900BE000990A22514330394018641C3A
:1023800000902078014630390929F3D920780028B7
:10239000D1D0642808D0692806D075281ED0109A9C
:1023A0000F9990476D1C5BE00A200E99019001C9BE
:1023B0000E91002802DA40422D2102E0390504D5B1
:1023C0002B216A461172012103E0F90704D0202174
:1023D000F7E70BAE0B910DE00021FAE70A200E990A
:1023E000019001C90E91F7E70199FDF7A3FE303185
:1023F000761E31700028F7D103A8801B2030019091
:10240000780701D5009801E00120009001998842E9
:1024100001DD401A00E000200027009006E002A83D
:10242000109AC05D0F9990476D1C7F1C0B988742D6
:10243000F5DB04E0109A30200F9990476D1C00994D
:10244000481E00900029F5DC05E03078109A761CD3
:102450000F9990476D1C0199481E01900029F4DCEA
:10246000641C65E709280100F0B589B004460D46F3
:102470004800069172494008884215DB714988423C
:1024800003DC884207D1002C05D020462946FFF7FF
:1024900015FF09B0F0BD6C48002D02DD6B4909B095
:1024A000F0BD6B4909B0F0BD6A49884211DA6A494A
:1024B00088420BDA20462946FFF7D6FB042801D1D3
:1024C000FFF70AFF2046294609B0F0BD0026F64373
:1024D0005DE06D0061496D08884232DA60498842EA
:1024E00019DA0026012332469B0720462946FDF7CC
:1024F000F5FF07460191012220462946FEF748FBD9
:102500000022584BFEF78FF83A46019BFEF702F97E
:1025100004460D463BE001260022524B2046294648
:10252000FDF7DCFF0746009100224E4B204629466E
:10253000FEF779F83A46009BFEF7ECF804460D46A4
:1025400025E04949884219DA02260022474B2046F5
:102550002946FEF777F80022424BFDF7BFFF0746FA
:1025600002910022414B20462946FEF75CF83A468C
:10257000029BFEF7CFF804460D4608E003262246EC
:102580002B4600203A49FEF7C5F804460D46224680
:102590002B4610461946FEF755F807460B460246ED
:1025A0000191FEF74FF80246029032480B46039124
:1025B00006217844FFF7B6FD3A46019BFEF742F844
:1025C00000902D48019105217844039B029AFFF762
:1025D000A9FD039B029AFEF735F802460B460199C6
:1025E0000098002E0BDAFDF779FF22462B46FEF706
:1025F00029F822462B46FEF71CF809B0F0BDFDF77E
:102600006DFF22462B46FEF71DF81C4AF6007A4461
:1026100093191A685B68FEF706F822462B46FEF708
:1026200002F8174A7A4493191A685B68FEF701F8B2
:10263000069A002AE1DA0122D207514009B0F0BD22
:10264000000010440000F07F182D4454FB21F93F96
:10265000FB21F9BF0000DC3F0000203E0000F33FFB
:102660000000E63F0000F03F008003400000F83F1C
:102670000000F0BF32140000F41300008E130000BD
:102680005813000000B54A00224B520887B09A4206
:1026900002DC0022134625E01F4B9A4208D1002895
:1026A00008D10120FFF732FEFFF70DFE07B000BD95
:1026B0009A4203DBFFF702FE07B000BD02AAFFF754
:1026C000E9FA8107890F0BD0012001290ED00229D8
:1026D00016D0009002A80FC8FFF77AFD07B000BD22
:1026E00002A80FC8FFF7A4FC07B000BD009002A825
:1026F0000FC8FFF76DFD0122D207514007B000BDA2
:1027000002A80FC8FFF794FC0122D207514007B07E
:1027100000BD0000FB21E93F0000F07F10B504463A
:1027200003E07D20C00000F007F82046611E8CB257
:102730000028F6D110BD000070B504460420C04347
:10274000FEF798FE13490968C8081349FDF7F2FC23
:102750000646FEF7CBFE0020FEF7B6FE0020FEF791
:102760009BFE0120FEF798FE002508E000BF0B4805
:1027700000690121090408400028F8D06D1CA54219
:10278000F4D30120C043FEF787FE0020FEF784FE4D
:1027900070BD00000800002040420F0000E000E093
:1027A00070B504460D462046FEF754FE70BD00008D
:1027B00088B014212748FDF7EEFC00F065F8FFF71C
:1027C00013F946E02448031F1A1F24A10090214852
:1027D000FDF7ECFC2048083883684268016822A0B5
:1027E000FFF7F4F91C4908398868FEF70BF804462E
:1027F000194908394868FEF705F8054616490839A9
:102800000868FDF7FFFF06462246294600F070F8EB
:1028100000201849087018490C6849680122D2073D
:1028200051400D46002106910791049113480591EE
:1028300003C803910290124903C922462B46019115
:102840000090104903C900F087FC7D20C000FFF70D
:1028500065FFB7E78801002084010020256420255A
:102860006420256400000000256420256420256480
:102870000D0A000000000020B0000020C000002071
:10288000B8000020A800002010B5FEF719FD2D2289
:10289000120100211448FEF7D1FD2D221201012161
:1028A0001148FEF7CBFD2D22120100210F48FEF743
:1028B000C5FD2D22120101210C48FEF7BFFD2D227E
:1028C000120102210948FEF7B9FD2D221201032150
:1028D0000648FEF7B3FD01210348FEF7D4FE0121AF
:1028E0000248FEF7D0FE10BD00E0064000F00640B2
:1028F00007B5A8B0FE492998FEF724F802D8FC488D
:10290000299006E0FB492998FEF712F801D8F9480A
:10291000299000201190002110911C91F6492691D8
:10292000F6492591F6492491F649239100212898EA
:10293000FDF7FEFF02D1F448229020E01C9929986F
:10294000FDF7F7FC014606902898FDF788FD0790F3
:10295000FDF796FF09910890FFF786FDEB4AEC4BD7
:102960000B910A90FDF76EFE0022EA4B0D910C9040
:10297000FDF75FFE0F910E90FDF7BEFF2290002045
:102980001290D9E11298FDF749FFE34AE34B0B910E
:102990000A90FDF757FE0022E14B0D910C90FDF7D8
:1029A000B9FE0F910E90FDF7A7FF1B9028990846DE
:1029B000FDF718FD0A901C992998FDF7BAFC0890BC
:1029C0001C992998FDF7B5FC07900899FDF70AFDB9
:1029D00009900A99FDF7ADFC0B90FDF751FF0D91A1
:1029E0000C9000F0A9FF0F910E90FDF785FF1A9053
:1029F0002A9819901B98FDF743FF0591049000F069
:102A00004DFF099108902398FDF73AFF0791069032
:102A1000099B089AFDF716FE0D910C901A98FDF788
:102A20002FFF0B910A900D9B0C9AFDF7FCFD0F9167
:102A30000E90FDF761FF1E902698FDF721FF0D9186
:102A40000C901B98FDF71CFF01910090FFF71AFEF8
:102A5000059104902398FDF713FF03910290059BC5
:102A6000049AFDF7EFFD099108901998FDF708FF0A
:102A700007910690099B089AFDF7D5FD0B910A90E6
:102A80000D9B0C9AFDF7CFFD0F910E90FDF734FFD3
:102A90001D90012080072599FDF7A4FC0D90249935
:102AA000FDF7A0FC0F9024990846FDF79BFC0D90C4
:102AB00025990846FDF796FC0B901D990846FDF7F1
:102AC00091FC09901E990846FDF78CFC0890099925
:102AD000FDF72FFC0A900B99FDF77CFC0C900D99EB
:102AE000FDF778FC0E900F99FDF7B9FC1890189936
:102AF0000846FDF777FC7F21C9050A90FDF76EFCBB
:102B00000B90FDF7BDFE0D910C9000F015FF0F919D
:102B10000E90FDF7F1FE179018991798FDF79FFC9E
:102B20000990FDF7ADFE0B910A90FFF79DFC774AE7
:102B3000774B0D910C90FDF785FD0F910E90FDF7F1
:102B4000DBFE20902098FDF79BFE704A704B0791AA
:102B50000690FDF7DFFD0991089000F09FFE0D91B2
:102B60000C902498FDF78CFE0B910A900D9B0C9A0B
:102B7000FDF768FD0F910E90FDF7BEFE13902098B3
:102B8000FDF77EFE614A624B03910290FDF7C2FDA4
:102B900005910490FFF776FD099108902498FDF7C0
:102BA0006FFE07910690099B089AFDF74BFD0D916A
:102BB0000C902598FDF764FE0B910A900D9B0C9AE2
:102BC000FDF78CFC0F910E90FDF796FE1490139973
:102BD0000846FDF707FC0D9014990846FDF702FC26
:102BE0000C900D99FDF7A5FB0F901D991498FDF71A
:102BF000F9FB0D901E991398FDF7F4FB0C900D99BD
:102C0000FDF797FB0E900F99FDF729FC169016998A
:102C10000846FDF7E7FB7F21C9050A90FDF7DEFBBB
:102C20000B90FDF72DFE0D910C9000F085FE0F919D
:102C30000E90FDF761FE159016991598FDF70FFCA3
:102C40000990FDF71DFE0B910A90FFF70DFC2F4A2E
:102C50002F4B0D910C90FDF7F5FC0F910E90FDF7A9
:102C60004BFE21902098FDF70BFE0D910C902198C2
:102C7000FDF706FE099108901B98FDF701FE234A17
:102C8000234B05910490FDF7DDFC07910690099B0D
:102C9000089AFDF7C8FC0B910A900D9B0C9AFDF762
:102CA000C2FC0F910E90FDF727FE1F900021219886
:102CB000FDF748FE3DD800212098FDF743FE38D8A7
:102CC00018491F98FDF73EFE33D817492198FDF7A4
:102CD0002FFE2ED814492098FDF72AFE29D80A493C
:102CE0001F98FDF725FE24D87F21C90511981DE006
:102CF00000009041000040408195CF4025060541ED
:102D00003333F3402B875A410000B442666666664F
:102D100066A64C400080564097D17E5AFB21094060
:102D2000008066400000B4C200003443FDF701FBA0
:102D300011901298401C12901298B42800DC21E6E1
:102D400000201290D4E11298FDF768FDF64AF74B87
:102D50000B910A90FDF776FC0022F54B0D910C903B
:102D6000FDF7D8FC0F910E90FDF7C6FD1B9028993A
:102D70000846FDF737FB0A901C992998FDF7D9FA08
:102D800008901C992998FDF7D4FA07900899FDF747
:102D900029FB09900A99FDF7CCFA0B90FDF770FD1D
:102DA0000D910C9000F0C8FD0F910E90FDF7A4FD61
:102DB0001A902A9919911B98FDF762FD05910490CC
:102DC00000F06CFD099108902398FDF759FD0791DB
:102DD0000690099B089AFDF735FC0D910C901A9806
:102DE000FDF74EFD0B910A900D9B0C9AFDF71BFC15
:102DF0000F910E90FDF780FD1E902698FDF740FD87
:102E00000D910C901B98FDF73BFD01910090FFF791
:102E100039FC059104902398FDF732FD039102904F
:102E2000059B049AFDF70EFC099108901998FDF78F
:102E300027FD07910690099B089AFDF7F4FB0B917B
:102E40000A900D9B0C9AFDF7EEFB0F910E90FDF78B
:102E500053FD1D90012080072599FDF7C3FA0D90C1
:102E60002499FDF7BFFA0F9024990846FDF7BAFAA6
:102E70000D9025990846FDF7B5FA0B901D99084667
:102E8000FDF7B0FA09901E990846FDF7ABFA0890D5
:102E90000999FDF74EFA0A900B99FDF79BFA0C90F1
:102EA0000D99FDF797FA0E900F99FDF7D8FA189043
:102EB00018990846FDF796FA7F21C9050A90FDF793
:102EC0008DFA0B90FDF7DCFC0D910C9000F034FDB9
:102ED0000F910E90FDF710FD179018991798FDF7B8
:102EE000BEFA0990FDF7CCFC0B910A90FFF7BCFAF3
:102EF000904A914B0D910C90FDF7A4FB0F910E9011
:102F0000FDF7FAFC20902098FDF7BAFC894A8A4B1D
:102F100007910690FDF7FEFB0991089000F0BEFCBA
:102F20000D910C902498FDF7ABFC0B910A900D9B32
:102F30000C9AFDF787FB0F910E90FDF7DDFC1390C7
:102F40002098FDF79DFC7B4A7B4B03910290FDF797
:102F5000E1FB05910490FFF795FB099108902498F7
:102F6000FDF78EFC07910690099B089AFDF76AFB16
:102F70000D910C902598FDF783FC0B910A900D9B09
:102F80000C9AFDF7ABFA0F910E90FDF7B5FC14907B
:102F900013990846FDF726FA0D9014990846FDF797
:102FA00021FA0C900D99FDF7C4F90F901D99149812
:102FB000FDF718FA0D901E991398FDF713FA0C906F
:102FC0000D99FDF7B6F90E900F99FDF748FA169096
:102FD00016990846FDF706FA7F21C9050A90FDF704
:102FE000FDF90B90FDF74CFC0D910C9000F0A4FC4A
:102FF0000F910E90FDF780FC159016991598FDF72E
:103000002EFA0990FDF73CFC0B910A90FFF72CFA81
:10301000484A494B0D910C90FDF714FB0F910E900F
:10302000FDF76AFC21902098FDF72AFC0D910C9089
:103030002198FDF725FC099108901B98FDF720FCCD
:103040003C4A3D4B05910490FDF7FCFA0791069030
:10305000099B089AFDF7E7FA0B910A900D9B0C9AD1
:10306000FDF7E1FA0F910E90FDF746FC1F9000214D
:103070002198FDF767FC38D800212098FDF762FC05
:1030800033D82E491F98FDF75DFC2ED82C49219886
:10309000FDF74EFC29D82A492098FDF749FC24D891
:1030A00028491F98FDF744FC1FD87F21C9051098B7
:1030B000FDF73FF91090012189071198FDF7CFF92D
:1030C0000F901099FDF734FC0ED07F21C90511989F
:1030D000FDF72FF9012189070E90FDF7C0F90F9038
:1030E0001099FDF725FC00D106E01298411C1291C1
:1030F0001298B42800DC26E600BF2298FDF7C0FB3A
:10310000114A03C22198FDF7BBFB104A03C2209865
:10311000FDF7B6FB0E4A03C21F98FDF7B1FB0D4A3F
:1031200003C22BB000BD000097D17E5AFB2109409D
:10313000008066406666666666A64C400000B4C2C3
:10314000000034430000B442A8000020B00000207A
:10315000B8000020C0000020F0B51FB48AB00646B9
:103160000F46159D149CFE480CC830463946FDF7A5
:103170005AFA49004908FB4A03C2FB480CC80D999A
:103180000C98FDF750FA49004908F84A03C2F8487C
:103190000CC820462946FDF746FA49004908F54A79
:1031A00003C2F5480CC817991698FDF73CFA490078
:1031B0004908F24A03C2F2480CC819991898FDF759
:1031C00032FA49004908EF4A03C2EF480CC81B997C
:1031D0001A98FDF728FA49004908EC4A03C2E14869
:1031E00001684068EA4A11605060E0480168406840
:1031F000E84A11605060DF4801684068E64A1160A3
:103200005060DE4903C9E54A03C2DE4903C9E44A06
:1032100003C2DE4801684068E24A11605060002243
:10322000E14B30463946FDF73FFB61D80022DF4BCA
:1032300030463946FDF74CFB5AD83AE0C8480CC82E
:1032400030463946FDF744FB06D2C6480CC8304626
:103250003946FDF7E8F905E0C2480CC83046394662
:10326000FDF73CF909910890C74903C907910690F9
:10327000C34803C805910490BF4803C80391029056
:10328000BB4803C801910090B7480CC80999089839
:1032900000F06AFA1420FFF741FAB14A0999089838
:1032A00003C20022C24BAF4903C9FDF7BCF9AD4AC6
:1032B00003C20022BF4BAB4903C9FDF709FBBDD9CF
:1032C000A748C0C0B04803C807910690AC4803C8DF
:1032D00005910490A84803C803910290A44803C82C
:1032E00001910090A0480CC83046394600F03CFAE5
:1032F0000022AD4B0D990C98FDF7D6FA64D8002248
:10330000AA4B0D990C98FDF7E3FA5DD83AE0964880
:103310000CC80D990C98FDF7DBFA06D293480CC83F
:103320000D990C98FDF77FF905E090480CC80D99B0
:103330000C98FDF7D3F809910890934803C80791BA
:1033400006908F4903C9059104908B4803C80391E7
:103350000290874803C80191009030463946099B86
:10336000089A00F001FA1420FFF7D8F97E4A09996B
:10337000089803C200228E4B7C4903C9FDF753F91C
:103380007A4A03C200228B4B784903C9FDF7A0FAA1
:10339000BDD9754A0C990D98116050607A4903C9DE
:1033A00007910690764803C805910490724903C9B5
:1033B000039102906E4803C801910090304639464F
:1033C0000D9B0C9A00F0D0F90022774B204629463D
:1033D000FDF76AFA5FD80022744B20462946FDF7B4
:1033E00077FA58D83AE062480CC820462946FDF7DB
:1033F0006FFA06D25F480CC820462946FDF713F93C
:1034000005E05C480CC820462946FDF767F809919D
:1034100008905D4903C907910690594803C8059172
:103420000490554903C903910290099908980191A4
:103430000090304639460D9B0C9A00F095F9142007
:10344000FFF76CF94A4A0999089803C20022584BC1
:10345000484903C9FDF7E7F8464A03C20022554B25
:10346000444903C9FDF734FABDD9414830C0464844
:1034700003C807910690424903C9059104903E494B
:1034800003C90195009403910290304639460D9B83
:103490000C9A00F069F90022434B17991698FDF732
:1034A00003FA5BD80022414B17991698FDF710FAE2
:1034B00054D838E030480CC817991698FDF708FA28
:1034C00006D22E480CC817991698FDF7ACF805E0FF
:1034D0002A480CC817991698FDF700F8099108902A
:1034E000294903C907910690254803C8059104900E
:1034F0000999089801950094039102903046394645
:103500000D9B0C9A00F030F91420FFF707F91A4AC6
:103510000999089803C20022254B184903C9FDF7F1
:1035200082F8164A03C20022224B144903C9FDF750
:10353000CFF9BFD9104A1799169803C2124803C889
:10354000079106900E4903C90591049017991698A2
:10355000019500940391029030462DE031E0000087
:103560007800002048010020800000205001002049
:1035700088000020580100209000002060010020F9
:103580009800002068010020A000002070010020A9
:103590001801002020010020280100203001002017
:1035A000380100204001002000805640008056C0B5
:1035B0000000F03F0000084039460D9B0C9A00F0D7
:1035C000D3F80022544B19991898FDF76DF95FD87C
:1035D0000022524B19991898FDF77AF958D838E01B
:1035E0004F480CC819991898FDF772F906D24D4842
:1035F0000CC819991898FDF716F805E049480CC849
:1036000019991898FCF76AFF09910890464903C96F
:1036100007910690099908980591049017991698B2
:103620000195009403910290304639460D9B0C9A07
:1036300000F09AF81420FFF771F8394A09990898B0
:1036400003C20022394B374903C9FCF7ECFF354A66
:1036500003C20022364B334903C9FDF739F9BFD9FC
:103660002F4A1999189803C22F4803C8079106904A
:103670001999189805910490179916980195009436
:1036800003910290304639460D9B0C9A00F06CF87D
:103690000022284B1B991A98FDF706F91AD8002228
:1036A000254B1B991A98FDF713F913D81B991A98F3
:1036B00007910690199918980591049017991698F2
:1036C0000195009403910290304639460D9B0C9A67
:1036D00000F04AF8194801684068194A11605060C2
:1036E000184903C9184A03C2184903C9184A03C232
:1036F000184801684068184A11605060174801680E
:103700004068084A11605060154801684068154AD1
:10371000116050600FB0F0BD00805640008056C070
:103720009800002068010020A00000200000F03F69
:103730000000084000806640008066C0180100203C
:103740004801002020010020500100202801002015
:1037500058010020300100206001002038010020C5
:103760004001002070010020F0B589B004460D46EC
:1037700016461F46159914980791069013991298AA
:103780000591049011991098039102900F990E9849
:1037900032463B460191009020462946FEF71CF830
:1037A00000221346354903C9FDF77EF80AD0334994
:1037B00003C9FDF747F880B202460021089030485F
:1037C000FDF73CFE002213462E4903C9FDF76CF8B5
:1037D0000AD02C4903C9FDF735F880B20246012111
:1037E00008902748FDF72AFE00221346264903C900
:1037F000FDF75AF80AD0244903C9FDF723F880B22F
:103800000246022108901E48FDF718FE00221346CA
:103810001E4903C9FDF748F80AD01C4903C9FDF742
:1038200011F880B20246032108901548FDF706FE04
:1038300000221346164903C9FDF736F80AD0144989
:1038400003C9FCF7FFFF80B202460021089011482F
:10385000FDF7F4FD002213460F4903C9FDF724F8D4
:103860000AD00D4903C9FCF7EDFF80B202460121E1
:1038700008900848FDF7E2FD09B0F0BD18000020EF
:1038800000F006402000002028000020300000202A
:103890003800002000E006404000002000B54A004B
:1038A000234B520887B09A4203DC00221346009251
:1038B00029E0204B9A4208D1002808D10120FEF7C8
:1038C00025FDFEF700FD07B000BD9A4203DBFEF7C1
:1038D000F5FC07B000BD02AAFEF7DCF98107890FED
:1038E000012000290CD0012911D0022915D002A8ED
:1038F0000FC8FEF79DFB0122D207514007B000BD63
:10390000009002A80FC8FEF763FC07B000BD02A834
:103910000FC8FEF78DFB07B000BD009002A80FC8CE
:10392000FEF756FC0122D207514007B000BD00004F
:10393000FB21E93F0000F07FF8B506460C46FDF795
:103940003DF9051E0F4600D00120014349000B48F8
:103950004908411AC90F0DD0002E01D0012100E005
:1039600000210C4361004908401AC00F02D1012018
:10397000FEF7CCFC28463946F8BD00000000F07F79
:103980004FBB610567ACDD3F182D4454FB21E93F77
:103990009BF681D20B73EF3F182D4454FB21F93F66
:1039A000E2652F227F2B7A3C075C143326A6813CEC
:1039B000BDCBF07A8807703C075C143326A6913C97
:1039C000C4EB98999999C9BF711623FEC671BCBF03
:1039D0006D9A74AFF2B0B3BF9AFDDE522DDEADBF6B
:1039E0002F6C6A2C44B4A2BF0D5555555555D53F83
:1039F000FF8300922449C23F6E204CC5CD45B73F9E
:103A0000513DD0A0660DB13FEB0D76244B7BA93F15
:103A100011DA22E33AAD903F4C5555555555A53F27
:103A20007751C1166CC156BF9015CB19A001FA3E53
:103A3000AD529C804F7E92BEC4B1B4BD9EEE213E7D
:103A4000D43888BEE9FAA8BD00004054FB21F93FF4
:103A50003163621A61B4D03D0000601A61B4D03D98
:103A60007370032E8A19A33B0000002E8A19A33B12
:103A7000C14920259A837B39000000000000000026
:103A80006E83F9A22915444ED15727FCC0DD34F5C9
:103A9000999562DB4190433CAB6351FE61C5BBDE4F
:103AA0003A6E24B7E0D24D42EA2E49061C92D10963
:103AB0001CEB1DFE3EA729B1F53582E88444BB2EE0
:103AC00026709CE9417E5FB439D69139F43953832D
:103AD0008B5F849C3B28F9BDFF97F81F0F9805DE8C
:103AE0008B112FEF1F6D0A5ACF7E366DB709CB278A
:103AF000663F464F2DEA5F9EC7BA27757BF1E5EB1F
:103B0000F739073DEA92528AB15FFB6B085D8D1F62
:103B1000A6F810111111813FD561C119A0012ABF6A
:103B20007DFEB157E31DC73EEB9C2B8AE6E55ABEEE
:103B30007CD5CF5A3AD9E53DDDDDDDDDDCBBBBDD33
:103B4000DDDDDDDDDDDDDDDD98888888888888883D
:103B5000777777777788888885555556666666665D
:103B6000666666666668888883333332222222223C
:103B7000222222222228888D983B0000000000206B
:103B80007C01000058100000A43B00007C010020D4
:103B900024020000FC220000A104F56CDC0205797F
:043BA000DC0F4940AD
:04000005000000C136
:00000001FF
