:020000040000FA
:10000000E8110020C1000000DD1C000029140000E0
:10001000FFFFFFFFFFFFFFFFFFFFFFFFFFFFFFFFF0
:10002000FFFFFFFFFFFFFFFFFFFFFFFF792600003D
:10003000FFFFFFFFFFFFFFFF59260000BD27000065
:1000400003010000030100000301000003010000A0
:100050000301000003010000030100000301000090
:1000600003010000FFFFFFFF030100000301000088
:10007000030100000301000003010000FFFFFFFF78
:10008000FFFFFFFF03010000030100000301000068
:100090000301000003010000030100005D2B0000CC
:1000A000A52B0000112B000003010000030100003C
:1000B0000301000003010000030100000301000030
:1000C0001048804710488047104800471048016991
:1000D000002910D1416900290DD1816900290AD177
:1000E000C169002907D1BFF34F8F0A490A48C86088
:1000F000BFF34F8FFEE77047FEE7FEE7FEE7FEE740
:10010000FEE7FEE7CD000000C12700001D01000052
:100110000003084000ED00E00400FA0504488546AD
:1001200000F07CFB0048004729390000C046C0466B
:10013000E811002030B50B460146002020220124A2
:1001400009E00D46D5409D4205D31D469540491B0B
:100150002546954040191546521E002DF1DC30BD54
:1001600003460B439B0703D009E008C9121F08C0D0
:10017000042AFAD203E00B780370401C491C521E7B
:10018000F9D27047D2B201E00270401C491EFBD286
:1001900070470022F6E710B513460A460446194692
:1001A000FFF7F0FF204610BD30B505462A460B4646
:1001B00010781C78521C5B1C002801D0A042F7D09C
:1001C000002C03D0002802D06D1CEFE7284630BD7C
:1001D000CAB2401E4178401C8A4202D00029F9D19F
:1001E00000207047421C0178401C0029FBD1801A76
:1001F000704710B5044600E0401C0378002BFBD18B
:1002000000E0401C521E04D30B78491C0370002BE5
:10021000F7D100210170204610BD03460A78027014
:10022000401C491C002AF9D11846704770B50028B7
:1002300000D11068002514E00B4602E0A64203D06E
:100240005B1C1C78002CF9D1E3B22B4307D0002CA7
:1002500006D0002D04D000210170401C04E00546AA
:10026000401C0678002EE7D11060284670BD014A78
:10027000DCE700002C08002070B5064602F064FEA2
:10028000046805460A220021304600F00FFA2C606F
:1002900070BD0000F0B507460846584087B0C00F53
:1002A000049048000E46590040084908BC1A88418D
:1002B00005D2384631461E4617460B4602465800C0
:1002C000400810434DD0300D039040055900400DBB
:1002D000490D0590401A0290402873DA1803012155
:1002E000000B09050843019004980092002806D0ED
:1002F0001146019A494200209041009101900298D4
:1003000040210A1A0199009800F09CF905460C4614
:100310006B4607CB00F0B7F9C0197141039A0E0D77
:100320000023D71756401A467A40164344D0049A01
:10033000002A2DD0029A012A039A15DC1205C01A50
:10034000914101263605001C7141D20F059ED2074E
:100350000093019202962A46234600F0ECF907B07A
:10036000F0BD38463146FAE71605234A0F46B21863
:10037000C01AB74101210905001C4F4100187F41F7
:10038000114618187941E20F10436D19644113E0CA
:10039000E2076D0815436408C2071443039A012657
:1003A0001205C01A91413605001C7141CE07400864
:1003B00030434908C01851412A46234600F0AEF99F
:1003C000CDE7FFE7049801224000C117121A00236D
:1003D0008B4104983146C417381AA141EEE730B476
:1003E0000124E407634030BC54E730B40124E4073F
:1003F000614030BC4EE700000000E0FFF0B51FB4E4
:1004000088B00B990998002448400999C00F490009
:1004100049080991C0070B990090490049080B91C0
:1004200009990898A64608431CD00B990A980843D6
:1004300018D0099801244000420D4800410D099848
:1004400024050003000B204309900B980003000BC8
:1004500020430B9050181C4940180022019014466C
:10046000104605E0002001460DB0F0BD032801DA7A
:10047000034600E003239C46C11A0AAE0AE05F006F
:1004800008ADED5B4F00F75B7D430027AA187C4168
:10049000491C5B1E6145F2DD410004AB5A52210448
:1004A000120C0A43240C401C0828DFDB0198029040
:1004B0000099704601910090059B049A079906984F
:1004C00000F039F9D0E700000DFCFFFFF0B50C4655
:1004D0005C4085B0E40FE40703944C0000266408F8
:1004E00059009446490802460296224321D06246AA
:1004F0000A431ED06200570D4A000E032303550D18
:10050000012402462C492405781B1B0B360B40188E
:1005100023432643614600901C46501AB44103D33E
:100520000098401C009002E0921800985B4100285F
:1005300003DA0020014605B0F0BD002001210905C5
:100540000746864611E064461D46141BB54106D396
:100550006546521BB341744607430C43A646CD077C
:1005600040084908284392185B4105460D43EAD1EB
:100570001046184313D06046194650407140084356
:1005800006D06046101AB34106D20122002306E0CD
:1005900000220123DB0702E00122D243531000981E
:1005A00074460105381C6141029C039D0019694194
:1005B00000F0B4F8BFE70000FD03000010B500290B
:1005C00004DB0124E40740428C412146002B04DB7C
:1005D0001C460123DB075242A341994200D19042BD
:1005E00010BD0000F0B51FB40646002082B00546DD
:1005F0004024019100901BE0019922460F463046AD
:1006000000F030F8049A059B801A994110D31046E7
:100610001946224600F016F8361A8F4101972246F5
:1006200001200021009F00F00DF838184D41009086
:100630002046641E0028DFDC019B009829463246D4
:1006400007B0F0BD10B5202A04DB0146203A9140E6
:10065000002010BD914020239C1A0346E34019431B
:10066000904010BD10B5202A04DB0846203AD04047
:10067000002110BD0B46D340D0402024A21A914047
:100680000843194610BD10B5202A06DBCB170846D3
:10069000203A1041C1170B4306E00B461341D040EE
:1006A0002024A21A91400843194610BDF7B5009CBA
:1006B0000F4600262578641C002D05D000F0C0F8F8
:1006C0000068405DC007F5D12B2D02D02D2D18D02C
:1006D000641E39462046029A00F0B6F8002F04D076
:1006E0003968A14201D100993960710502240029BD
:1006F0000BDA4042002803DD02F026FC0460A0076C
:10070000FEBD012080020643E3E70028F8DA02F08C
:100710001BFC04600048FEBDFFFFFF7F10B5002BEF
:1007200008DA0024401C614192185B411A4301D150
:100730004008400010BDF0B51FB482B005460C0063
:1007400003D0084602F0DAFB02E002F0D7FB2030CB
:100750000246009021462846FFF774FF049B059A45
:1007600004460F4618431143084314D0184610435B
:100770001BD0009840210A1A18460599FFF772FF0E
:1007800005460E46009A05990498FFF75BFF08435B
:1007900005D0012004E02046394607B0F0BD002016
:1007A000C11705430E432C43374300990E98630548
:1007B000401A7905E40A00220C43FD0A0A3002D5EA
:1007C00000200146E9E70105101969410C9C0D9DC7
:1007D00000196941FFF7A2FFDFE700004A000903A3
:1007E0000123090B1B0519430A4B10B5520D9A4200
:1007F00002DA0020014610BD064B34339A4203DC76
:100800009A1AFFF72FFF10BD034BD218FFF71AFFFC
:1008100010BD0000FF030000CDFBFFFF064C0125CB
:10082000064E05E0E36807CC2B430C3C9847103498
:10083000B442F7D3FFF776FC705A0000905A0000DC
:1008400000487047585A0000F7B582B0029C002754
:100850002078641C15460197302802D0002D15D051
:1008600015E020780127641C782804D0582802D08D
:10087000002D09D00BE0002D01D0102D07D100274D
:1008800010252078641C02E0082500E00A250026D7
:10089000009610E00099012769430818020C2946C8
:1008A00080B2714300908E183804864201D3012033
:1008B00001902078641C294600F019F80028E9DA34
:1008C0000398002805D0002F01D0641E00E0029C90
:1008D00004600198002806D002F036FB0221016076
:1008E000C81E05B0F0BD009930040843F9E73A2866
:1008F00000D23038202302469A43412A01D31046C1
:100900003738884201D30020C043704770B58D1836
:100910000478401CA207920F01D10278401C2311D9
:1009200006D10378401C03E006780E70401C491C79
:10093000521EF9D1002B15D002780C268A1A3440A9
:10094000401C0C2C03D0A401121B9B1C08E0047853
:100950002402121B401CF8E714780C70491C521C2E
:100960005B1EF9D5A942D3D3002070BDF7B50B4665
:10097000009DED00154EAA1900200024002700213B
:1009800020E000240027FF258D401D40002D17D0BA
:1009900000200FE01D46C54001268E403540002D49
:1009A00007D086000F25B5402C438600029DB54038
:1009B0002F43401C0828EDD31568A5433D4315601F
:1009C000121D08310829DCDDFEBD00002020024098
:1009D00070B504461F48406B4607760F00F03EF89E
:1009E0002060330002F0A1FA081605080B16160E57
:1009F00012162068606010E0174860600DE016482D
:100A000060600AE00120C003606006E07D20000213
:100A1000606002E00020606000BF00BF0D48056A12
:100A2000052D02D36068400901E06068E840A060DD
:100A30000848806A072109040840050C072D04D1E5
:100A40000321A068FFF776FB01E0A068E840E060C2
:100A500070BD00000080084000127A00F0B5174811
:100A60000068FF2701373840040A1448C069C50FE1
:100A7000124840687F003840460A002E01D100200D
:100A8000F0BD002C01D10E4800E00D480346012DB9
:100A900001D11846F4E7094880690F27FF0538405F
:100AA000C10D002900D110210448806903277F056A
:100AB0003840420D18464843D040E1E700800840E6
:100AC00000127A007FB50446601180000A4946187A
:100AD00000252E2C00D10225E406E40E0321A140BE
:100AE00030680840E04045196846FFF771FF0298FA
:100AF000E84004B070BD0000388008403FB50E4C9F
:100B0000606AE16A226B0446009DAC4320460C46B5
:100B1000019DAC4321461446029DAC432246002B66
:100B200005D0009C2043019C2143029C2243024C9F
:100B30006062E16222633FBD0080084010B503217E
:100B400009035A4800F05EFC03218903574800F06E
:100B500005FCA7E04021564800F04BFC55490870C1
:100B60008021534800F045FC53490870FF210131B2
:100B70004F4800F03EFC51490870012189024C4861
:100B800000F037FC4E4908704A48007800280DD123
:100B900008460078012809D148480078012805D185
:100BA00003F020F8642002F04BFE7BE0444800781C
:100BB00000280DD13F480078012809D13E4800782F
:100BC000012805D103F01EF8642002F039FE69E027
:100BD00038480078012811D13948007801280DD112
:100BE00035480078002809D134480078012805D11B
:100BF00002F0F8FF0A2002F023FE53E02D480078AF
:100C0000012811D12E48007801280DD12A480078FA
:100C1000012809D129480078002805D102F0F2FF07
:100C20000A2002F00DFE3DE02348007800280ED196
:100C30002248007800280AD11E480078012806D1F1
:100C40001F480078012802D100F0DEFB2AE01A4894
:100C50000078002826D119480078002822D11548AC
:100C6000007800281ED11648007800281AD102F01A
:100C7000ABFF14480088401C80B21249088012491A
:100C800088420FDB00200F49088010480078401C84
:100C9000C0B20E490870022804DB002008700C491D
:100CA000087000E056E700BF10BD000000400B4098
:100CB00000000B401B0800201C0800201D0800201D
:100CC0001E08002020080020FFFF00001F08002051
:100CD0001A08002010B5032109035C4800F03EFB10
:100CE00003218903594800F08DFB00F08DFB7D2026
:100CF000C00002F0A5FDA6E00821554800F079FBF0
:100D0000544908700421524800F073FB524908709E
:100D100002214F4800F06DFB5049087001214C48FA
:100D200000F067FB4E4908704A48007800280DD152
:100D300008460078012809D148480078012805D1E3
:100D400002F050FF642002F07BFD7CE04448007814
:100D500000280DD13F480078012809D13E4800788D
:100D6000012805D102F04EFF642002F069FD6AE01F
:100D700038480078012811D13948007801280DD170
:100D800035480078002809D134480078012805D179
:100D900002F028FF0A2002F053FD54E02D480078AD
:100DA000012811D12E48007801280DD12A48007859
:100DB000012809D129480078002805D102F022FF36
:100DC0000A2002F03DFD3EE02348007800280ED1C5
:100DD0002248007800280AD11E480078012806D150
:100DE0001F480078012802D100F00EFB2BE01A48C2
:100DF0000078002827D119480078002823D1154809
:100E0000007800281FD11648007800281BD102F076
:100E1000DBFE14480088401C80B212490880124949
:100E2000884210DB00200F49088010480078401CE1
:100E3000C0B20E490870022805DB002008700120AE
:100E40000B49087000E057E700BF10BD00400B40A1
:100E500000000B401B0800201C0800201D0800207B
:100E60001E08002020080020FFFF00001F080020AF
:100E70001A08002008B501F0B3FE00F0DDFA0321E6
:100E800089034F4800F0BEFA00F0AEFF002000F0EA
:100E900049FF002000F055FF0120102349A2002146
:100EA0000090084601F0CEF901F02EF87D20C00038
:100EB00002F0C6FC00F018F90120082344A2112119
:100EC0000090002001F0BEF901F01EF800BF01F013
:100ED00015FA0028FBD17D20000102F0B1FC00BF13
:100EE00001F00EFC0028FBD17D20C00002F0A8FC20
:100EF000012008233BA21A210090002001F0A2F952
:100F000001F002F801F09AFD012008233AA2232102
:100F10000090002001F096F902F056FE00F0F4FF78
:100F20007D20C00002F08CFC0120082336A2352170
:100F30000090002001F086F900F0E6FF7D20C0005F
:100F400002F07EFC0120082334A23521009000200D
:100F500001F078F900F0D8FF7D20C00002F070FCAD
:100F60000120082332A235210090002001F06AF907
:100F700000F0CAFF7D20C00002F062FC00F0BAFE63
:100F8000012008232FA210210090002001F05AF91F
:100F90000120082330A220210090002001F052F906
:100FA000012008232EA22E210090002001F04AF9F2
:100FB00000F0AAFF7D20000102F042FC08BD000005
:100FC00000400B40496E697469616C2E2E2E000042
:100FD0005769466920436F6E6E65637420646F6E57
:100FE000652E00004F6E656E6574205365727665E0
:100FF0007220646F6E652E00414756204361722057
:10100000646F6E652E000000496E697469616C2022
:10101000646F6E6521205379733A3300496E6974A9
:1010200069616C20646F6E6521205379733A3200D8
:10103000496E697469616C20646F6E652120537913
:10104000733A310057656C636F6D6520746F20547F
:1010500061694F780000000053746174653A0000C4
:1010600057616974696E6720666F72204F7264659C
:10107000722E000010B5FF2101310348FFF789F8F7
:1010800000200249088010BDE40C00202208002046
:1010900070B50546002400BF00F046F9002812D1C3
:1010A0000EA11048FFF780F80446002C0BD03A211F
:1010B0002046FFF78DF80446002C02D0641C204621
:1010C00070BD0020FCE7052002F0BAFB2846691E2F
:1010D0008DB20028E0D100BFF2E700004950442C57
:1010E00000000000E40C00200EB5002000900190EC
:1010F0000290012149040098884340180090012380
:10110000684607C8FFF7FAFC012240212F4800F08B
:1011100027F9022240212D4800F052F901224021F6
:101120002A4800F027F94021284800F017F9FA2052
:1011300002F086FB4021254800F064F9FF20F530DD
:1011400002F07EFBFFF796FF21A1234801F03FFE4E
:1011500003E0FF20F53002F073FB20A120A000F097
:1011600097F80028F5D120A11B4801F030FE03E0DC
:10117000FF20F53002F064FB18A11EA000F088F8F3
:101180000028F5D11FA1144801F021FE03E0FF2043
:10119000F53002F055FB1EA11FA000F079F80028E1
:1011A000F5D124A10C4801F012FE03E0FF20F53038
:1011B00002F046FB23A125A000F06AF80028F5D133
:1011C0002DA1054801F003FE0EBD000000200B40DC
:1011D000312E2041540D0A00000004404F4B000006
:1011E00041540D0A00000000322E2043574D4F4459
:1011F000450D0A0041542B43574D4F44453D330D97
:101200000A000000332E2043574A41500D0A0000C7
:10121000474F54204950000041542B43574A4150F6
:101220003D227474222C2232323636383838382235
:101230000D0A0000342E2043495053544152540D9E
:101240000A000000434F4E4E4543540041542B4387
:10125000495053544152543D22544350222C223180
:1012600038332E3233302E34302E3339222C363070
:1012700030320D0A00000000352E20455350383220
:10128000363620496E6974204F4B0D0A000000006D
:10129000F8B504460D467D26F6002046FEF7A2FF6F
:1012A00087B23A462146F00601F0C5FD10E000F095
:1012B0003BF8002809D129460848FEF775FF0028A9
:1012C00003D0FFF7D7FE0020F8BD0A2002F0B8FADD
:1012D0003046761E0028EAD10120F5E7E40C002014
:1012E00030B589B004460D46FFF7C4FE2A4609A171
:1012F00001A801F0D7FD0BA101A8FFF7C9FF002845
:1013000005D12A4621460120800701F094FD09B04D
:1013100030BD000041542B43495053454E443D25B8
:10132000640D0A003E0000000A480088002801D130
:10133000012070470748008807490988884203D17F
:10134000002004490880F4E7024800880249088028
:101350000120EEE722080020240800208162704767
:10136000002A03D003680B43036002E003688B4349
:1013700003607047F0B517460024002500220CE0FA
:10138000CE07F60F002E06D053003E469E40344353
:1013900003269E4035434910521C102AF0D346695B
:1013A000AE434661466926434661F0BD002A03D03C
:1013B00043680B43436002E043688B4343607047DC
:1013C000002A06D183680B438360C3688B43C360E4
:1013D0000EE0012A06D1C3680B43C36083688B43C8
:1013E000836005E083688B438360C3688B43C3607D
:1013F00070470246D3690B40002B01D0012000E06A
:10140000002070474162704710B5FF226932022107
:10141000044801F017F9FF2269320321014801F065
:1014200011F910BD00C0024000BF0248006800284A
:10143000FBD07047040800203EB5002000900190CA
:101440000290012189030198884340180190090105
:1014500000988843401800900123684607C8FFF7AA
:101460004DFB0D4C0022032189030220FFF77EFA79
:101470000122032189032046FFF772FF0222032184
:1014800089032046FFF79CFF0122032189032046A0
:10149000FFF770FF3EBD000000400B40002904D064
:1014A000026F10231A43026703E0026F10239A436E
:1014B0000267704700B58BB0002000900190029049
:1014C000012189030198884340180190029840083F
:1014D0004000401C02900123684607C8FFF70EFB3E
:1014E000042202210320FFF741FA042208210320ED
:1014F000FFF73CFA1D49684681830021C18308A893
:10150000017000200990FF2101316846018507A97B
:10151000174801F073FA06216846C1810121017460
:10152000002141748174C17401750121417500214C
:10153000018302210173FF212D31C18203A90C48CF
:1015400001F0ECF9032168460173FF212D31C182BE
:1015500003A9074801F0E2F901210548FFF79EFFC2
:101560000121034801F0CEF90BB000BD5702000085
:1015700000C0024010B50446207B012802D120683B
:1015800002F0A8F9002020606060A060207310BD08
:1015900010B50246002301230EE05006400E0870ED
:1015A000D209002A05D00878802420430870491CFD
:1015B00001E0184610BD5B1C042BEEDD0020C0438B
:1015C000F8E770B504460E4600252068002814D1BF
:1015D00001202073304602F0C1FA20602068002804
:1015E0001CD000206060A66003E000202168485500
:1015F0006D1CA068A842F8D810E00220207303E018
:101600000020216848556D1CA068A842F8D8002029
:101610006060A068B04201D20020206070BD000070
:10162000FFB583B0119C0025002002900F27019088
:101630000598FEF7D7FD00B200900598002802D16A
:10164000012007B0F0BD0098801C381887B20C98B4
:10165000002801D0022005430E9800280FD0042056
:1016600005430E98FEF7BEFDC0B202900F98FEF73C
:10167000B9FD01460298001D0818C01987B20D98DF
:10168000002804D0012804D0022808D104E000BFBB
:1016900007E00C20054304E01420054301E002208C
:1016A000CFE700BF1098002801D0242005430398FD
:1016B000002802D00498002801D10320C1E7C020EF
:1016C00005430398FEF78EFD06460498FEF78AFD53
:1016D0003018001DC01987B239462046FFF771FF48
:1016E0002068002805D183A1864801F095FB0420DD
:1016F000A7E739462068FEF74CFD10216268501CB0
:1017000060602068815463682268D118781FFFF7F1
:101710003FFF00B201900198002804DA2046FFF74D
:1017200029FF05208DE76168019808186060002195
:101730006268501C60602068815404216268501CFB
:101740006060206881544D216268501C6060206890
:10175000815451216268501C60602068815454217A
:101760006268501C6060206881546268501C606030
:101770002068815404216268501C60602068815494
:101780006168481C606020684554FF210902069882
:10179000084001126268501C6060206881540698FD
:1017A000C1B26268501C606020688154FF21090248
:1017B0000098084001126268501C606020688154E3
:1017C0000098C1B26268501C6060206881546268F1
:1017D00021688818009A0599FEF70BFD616800984A
:1017E000081860600420284000283ED000260F988A
:1017F000002801D142A00F900E98FEF7F3FC86B2AC
:10180000FF200002304001126268501C60602068B6
:1018100081546268501C6060206886546268216848
:10182000881832460E99FEF7E4FC60688019606003
:101830000F98FEF7D7FC86B2FF200002304001125D
:101840006268501C6060206881546268501C60604F
:101850002068865462682168881832460F99FEF71E
:10186000C8FC60688019606000BF802028400028A4
:101870001CD00398FEF7B6FC86B2FF200002304071
:1018800001126268501C6060206881546268501CBC
:10189000606020688654626821688818324603991F
:1018A000FEF7A7FC60688019606000BF40202840F8
:1018B00000281CD00498FEF795FC86B2FF20000299
:1018C000304001126268501C606020688154626878
:1018D000501C60602068865462682168881832460F
:1018E0000499FEF786FC60688019606000BF0020E4
:1018F000A7E60000B7D6C5E4C4DAB4E6CAA7B0DCF0
:101900000000000000000440FFB583B017460C9CA7
:10191000002600200290019000250398002802D1A3
:10192000012007B0F0BD0CE0A8003858002801D114
:101930000220F6E7A9007858FEF754FC8619681CC7
:10194000C5B206988542EFDB069841004018801C1E
:10195000811902910299491D2046FFF732FE206845
:10196000002801D10320DCE782216268501C6060FE
:10197000206881546268206881180298FFF708FE89
:1019800000B201900198002804DA2046FFF7F2FD2A
:101990000420C6E76168019808186060FF21090209
:1019A0000398084001126268501C606020688154EE
:1019B0000398C1B26268501C6060206881540025A1
:1019C00027E0A9007858FEF70DFC0646FF2000022C
:1019D0003040010A6268501C60602068815462686F
:1019E000501C606020688654626820688318A800D4
:1019F000395832461846FEF7FCFB60688019606073
:101A00000498C1B26268501C606020688154681CF0
:101A1000C5B206988542D4DB002082E7F0B50446C3
:101A20000D462646012300201060002116E0775C59
:101A30007F067F0E5F431068C0191060705C8027BE
:101A40003840002801D1481CF0BDDB0101204005D1
:101A5000834202D30120C043F6E7491CA942E6DBDA
:101A60000020C043F0E701464878022801D0012059
:101A700070478878002802D08878012801D1C8787A
:101A8000F6E7FF20F4E70000FFB585B00D461446E9
:101A90001E46059800780007000F04900020039070
:101AA000082104980840029006210498084041103B
:101AB0000F98017003AA04210598401CFFF7AEFFA0
:101AC00005994018471C0398022804D30498C007BE
:101AD000C00F002802D0FF2009B0F0BD3878000206
:101AE0007978084320802088801C0399884201D996
:101AF000FF20F1E759A1B81CFEF756FB002801D0E2
:101B00000F20E9E70F980078002804D0012840D082
:101B100002287DD13EE00298002801D0FF20DBE7BB
:101B20002188481C02F01AF828602868002801D192
:101B3000FF20D1E72288511C2868FEF72AFB228863
:101B4000B91C2868FEF70CFB0398801E2188401AF8
:101B500081B20E9801800E990988481C01F0FEFFA1
:101B600030603068002804D1286801F0B3FEFF20FF
:101B7000B2E70E9A1288511C3068FEF70AFB0E98E5
:101B800002882088BB1CC11830680190FEF7E8FA73
:101B900053E000BF2088801C0399884201D9FF20B0
:101BA0009AE72088801C385C01022088C01C385CC1
:101BB0000143109801801098002801D1FF208BE785
:101BC0002188481C01F0CAFF28602868002801D13C
:101BD000FF2081E72288511C2868FEF7DAFA228864
:101BE000B91C2868FEF7BCFA0398001F2188401A28
:101BF00081B20E9801800E990988481C01F0AEFF51
:101C000030603068002806D1286801F063FE00E0EB
:101C100011E0FF2060E70E9A1288511C3068FEF731
:101C2000B8FA0E98028820883B1DC11830680190D0
:101C3000FEF796FA01E0FF204EE700BF2B21284671
:101C4000FEF7C6FA002805D123212846FEF7C0FA80
:101C5000002801D0FF203FE700203DE724637265A4
:101C600071000000F8B50446FF2720780511012D0A
:101C700001DB0E2D01DD3846F8BD032D26D10020F5
:101C800000906A460421601CFFF7C8FE0019461C3C
:101C90000098022804D32078C007C00F002801D084
:101CA000FF20E9E73078000271780843801C009932
:101CB000884201D9FF20DFE706A1B01CFEF774FAC5
:101CC000002801D00F2700E0032700E02F46384608
:101CD000D2E70000246372657100000070470000C5
:101CE000C206D20E01219140014A116070470000E6
:101CF00000E100E070B500240CE0002506E00020C3
:101D0000E900074A89180855681CC5B2802DF6DB22
:101D1000601CC4B2082CF0DB00F0F6F870BD0000C7
:101D20006408002010B50446002C03D10021A62031
:101D300000F0AAFA012C03D10021A72000F0A4FA98
:101D400010BD10B50446002C07D10021C82000F0BA
:101D50009BFA0021A12000F097FA012C07D1002165
:101D6000C02000F091FA0021A02000F08DFA10BDF3
:101D7000F8B514460B46CE17760FF6187605320ED8
:101D8000CE17760FF618F610F6008E1BF6B20096F8
:101D90000126009B9E40F5B2002C09D0C300114ED5
:101DA0009B199B5C2B43C6000E4FF619B35418E0E9
:101DB000C3000C4E9B199B5CDB43C600094FF61910
:101DC000B354C3003E469B199B5C2B43C600F619D7
:101DD000B354C3003E469B199B5CDB43C600F61917
:101DE000B354F8BD640800200EB5012149040098E1
:101DF000884340180090C91001988843401801900A
:101E00000123684607C8FEF779FE00220821012059
:101E1000FEF7ACFD002208210120FEF7A7FD0122FC
:101E2000BC213848FFF79CFABC213648FFF7EAFA94
:101E300010213448FFF792FAC82001F001FD10216B
:101E40003048FFF7DFFA0021FD2000F01DFA0021E5
:101E5000122000F019FA0021AE2000F015FA00213E
:101E6000D52000F011FA0021A02000F00DFA002189
:101E7000A82000F009FA00213F2000F005FA002117
:101E8000D32000F001FA0021084600F0FDF90021FE
:101E9000402000F0F9F90021A12000F0F5F900211F
:101EA000C82000F0F1F90021DA2000F0EDF900215E
:101EB000122000F0E9F90021812000F0E5F900216D
:101EC0007F2000F0E1F90021D92000F0DDF90021A8
:101ED000822000F0D9F90021DB2000F0D5F90021A3
:101EE000342000F0D1F90021A42000F0CDF9002128
:101EF000A62000F0C9F9FFF7FDFE0021AF2000F099
:101F0000C3F90EBD00200B4070B500241CE0214633
:101F1000B031C8B2002100F0B7F90021084600F046
:101F2000B3F90021102000F0AFF9002508E0E90026
:101F3000074A8918085D012100F0A6F9681CC5B29E
:101F4000802DF4DB601CC4B2082CE0DB70BD000007
:101F500064080020F7B582B00026002755E0002F66
:101F600009D104981023324618210090802000F0F7
:101F7000E5F8701CC6B20298864223D10020019079
:101F80001AE0012410E000250AE0E0001F49401893
:101F9000415D601EC0001D4A80184155681CC5B2D5
:101FA000082DF2DB601CC4B2902CECDBFFF7ACFF19
:101FB0000198401CC0B20190039801010198814230
:101FC000DFDC0026781CC7B2102F00D100270124C7
:101FD00010E000250AE0E0000C494018415D601E59
:101FE000C0000A4A80184155681CC5B2082DF2DBB2
:101FF000601CC4B2902CECDBFFF786FF044800881D
:10200000002802D0012005B0F0BDA8E76408002038
:1020100022080020FFB585B01C460598029006985E
:102020000190082C02D10620039017E02046E21709
:10203000520F1218D210E3175B0F1B18DB10DB00D6
:102040000094E31A01D0012300E00023D2182146B6
:10205000E30F5B185B105A43D2B203920798203803
:10206000C7B200255CE0082C05D1062078432F4933
:102070004018465D18E00C2C05D10C2078432C4903
:102080004018465D10E0102C04D138012949401851
:10209000465D09E0182C05D12420784326494018D4
:1020A000465D01E009B0F0BD002004901DE0F0079E
:1020B000C00F002805D00E9A06990598FFF758FE24
:1020C0000AE00E98002801D1012000E0002002461D
:1020D00006990598FFF74CFE76100698401CC0B292
:1020E00006900498401CC0B2049004980828DEDBD7
:1020F0000598401CC0B20590082C0DD0E10F0919BD
:102100004B10029A0599891A8B4205D102980590C5
:1021100001980830C0B2019001980690681CC5B2C1
:10212000039885429FDB00BFBCE70000243C000011
:102130004C3E0000C0420000B0480000FFB585B032
:10214000074616461C460297069801902046E2175D
:10215000520F1218D2102146E3175B0F5B18DB10E9
:10216000DB00E31A01D0012300E00023D218624310
:1021700092B20092002558E0102C05D170012D4933
:102180004018405D03901AE0182C06D14820704397
:1021900029494018405D039011E0202C05D1F00141
:1021A00026494018405D039009E0402C05D170029B
:1021B00023494018405D039001E009B0F0BD0020C4
:1021C000049020E00398C007C00F002805D03846CF
:1021D0000E9A0699FFF7CCFD0AE00E98002801D16F
:1021E000012000E00020024638460699FFF7C0FDB6
:1021F0000398401003900698401CC0B206900498C3
:10220000401CC0B2049004980828DBDB781CC7B2DD
:102210000298381AA04204D1029F01980830C0B237
:10222000019001980690681C85B200988542A3DB56
:1022300000BFC2E70C5600000C57000054570000C6
:10224000D4570000FFB581B0064614461D460A9FCC
:1022500012E0009722782B4630460299FFF7DAFE0B
:10226000082D02D1B01DC6B205E02846E90F0918B5
:1022700049108919CEB2641C2078202802DB20780E
:102280007E28E6DD05B0F0BD70B504460E46002E92
:1022900004D020211848FFF7B5F803E020211648A4
:1022A000FFF75CF880211448FFF758F8002518E084
:1022B00004211148FFF752F880202040002804D064
:1022C00008210D48FFF79EF803E008210A48FFF7B0
:1022D00045F804210848FFF795F86006040E681CCD
:1022E000C5B2082DE4DB80210348FFF78BF82021DD
:1022F0000148FFF787F870BD00200B4030B58BB068
:1023000000200790089009900A9001252BA32EA287
:1023100030A132A000F0B6FD07A800210291039180
:10232000049100912B0225A20191059026A129A0DC
:10233000FFF776F900283BD1089A91B20798FEF78B
:10234000CFFFFA20FEF7A4FE0446002C2CD0204636
:10235000FFF788FC022827D12046FFF784FB030003
:1023600000F0E3FD0604090D1115191D27A000F06A
:1023700089FD002517E02AA000F084FD13E02FA0BE
:1023800000F080FD0FE036A000F07CFD0BE03CA0EB
:1023900000F078FD07E043A000F074FD03E04CA0DE
:1023A00000F070FD00BF00BF07A8FFF7E3F802E0F0
:1023B0004EA000F067FD28460BB030BD31303732FB
:1023C0003038313335380000313233343536373830
:1023D0000000000035393234383900004F6E654E48
:1023E00065745F4465764C696E6B0D0A50524F49B7
:1023F000443A2025732C09415549463A2025732C2F
:102400000944455649443A25730D0A0054697073CE
:102410003A09C1ACBDD3B3C9B9A60D0A000000008A
:102420005741524E3A09C1ACBDD3CAA7B0DCA3BADA
:10243000D0ADD2E9B4EDCEF30D0A00005741524EB3
:102440003A09C1ACBDD3CAA7B0DCA3BAB7C7B7A815
:10245000B5C4636C69656E7469640D0A00000000A0
:102460005741524E3A09C1ACBDD3CAA7B0DCA3BA9A
:10247000B7FECEF1C6F7CAA7B0DC0D0A0000000017
:102480005741524E3A09C1ACBDD3CAA7B0DCA3BA7A
:10249000D3C3BBA7C3FBBBF2C3DCC2EBB4EDCEF32B
:1024A0000D0A00005741524E3A09C1ACBDD3CAA72C
:1024B000B0DCA3BAB7C7B7A8C1B4BDD328B1C8C8E8
:1024C000E7746F6B656EB7C7B7A8290D0A000000E7
:1024D0004552523A09C1ACBDD3CAA7B0DCA3BACEAB
:1024E000B4D6AAB4EDCEF30D0A0000005741524E07
:1024F0003A094D5154545F5061636B6574436F6E7C
:102500006E656374204661696C65640D0A000000A5
:10251000E0B5B4B00025FA20FEF7BAFD054643A0A9
:1025200000680D9000200B900A9041A0006809906F
:102530000020079005903FA000680490002D72D005
:102540000EA80FA910AA11AB00920191029012AA35
:1025500013A92846FFF798FA0746002F5BD10421FC
:102560002846FDF716FE002514A81199FDF755FE23
:102570000BAA0DA914A8FDF759FE0C900AAA04A9EC
:102580000C98FDF753FE0AAA04A90020FDF74EFEA1
:10259000064626600BAA0DA90020FDF747FE0C9009
:1025A00007AA09A90C98FDF741FE07AA09A900206E
:1025B000FDF73CFE089005AA04A90898FDF736FE31
:1025C00005AA04A90020FDF731FE06900698FDF744
:1025D00053FE20710BAA0DA90020FDF727FE0C90D9
:1025E00007AA09A90C98FDF721FE07AA09A900204E
:1025F000FDF71CFE089005AA04A90898FDF716FE31
:1026000005AA04A90020FDF711FE06900698FDF723
:1026100033FE607104E0002F02D007A000F032FC0E
:10262000FEF728FD00BF204634B0E0BD3B000000AF
:102630002C0000003A000000BDE2B0FCCAA7B0DCEC
:102640000D0A000070B504460D461646324629466E
:10265000204600F0CBF970BD70470000C1B2054ABA
:10266000116000BF03490969FF22013211400029AE
:10267000F8D070470000044070470000042806D1DD
:102680000649096904221143044A116105E003491E
:10269000096904229143014A1161704700E000E09A
:1026A000002803D10021094A91610EE0012806D1DA
:1026B0000649096901221143044A116105E00349F1
:1026C000096949084900014A1161704700E000E0CA
:1026D000002806D00649096902221143044A116103
:1026E00005E00349096902229143014A11617047DB
:1026F00000E000E0014948617047000000E000E0B0
:1027000000B585B00020019002900390049015A0C0
:1027100000F0B8FB01A801231A4A00210090142000
:10272000FFF7F2F8002817D1029A91B20198FEF74C
:10273000D7FD15A0029900F0A5FB6846017C16A004
:1027400000F0A0FB14A0039900F09CFB01A8FEF789
:1027500011FF002005B000BD11A000F093FB012087
:10276000F8E70000546970733A094F6E654E65745E
:102770005F5375627363726962654F726465720D4F
:102780000A0000002808002053656E64202564209C
:1027900042797465730D0A0025640D0A000000007B
:1027A0005741524E3A0953756273637269626520EC
:1027B0004661696C65640D0A000000007047000006
:1027C00010204B49C86001204A4908604A48006B04
:1027D000402108434849086300BF484880682728CB
:1027E000FBD14548406A0321890288434249486237
:1027F000084640680121C90208433F49486000BFBC
:102800003D4880680007C00F0028F9D03A4840686A
:10281000C008C000C01C3849486000BF3648406B43
:102820004007400F0328F9D135480068C008C000B0
:10283000401C3349086000202F4908620846406860
:10284000491588432C4948600846006889150843A3
:102850002949086008464068091508432649486028
:1028600000BF254880684007C00F0028F9D02248E3
:10287000006B402188432049086308460068891599
:1028800088431D49086003200006886108464068A7
:10289000491508431849486000BF174880688007F9
:1028A000C00F0028F9D016480068C008C000801C7E
:1028B0001349086000201049086208464068C008B3
:1028C000C000401C486000BF0B48406B4007400FF1
:1028D0000128F9D10A480068102108430849086016
:1028E000084600680121090308430549086070474C
:1028F00000810840008308400080084000A1064095
:1029000000020840002904D0026901231A43026131
:1029100003E002695208520002617047FCB50D786D
:10292000AD0006464036AC190D78AD005036AD19F5
:1029300001950D78AD001036AD1900950D786D0636
:102940002A0E03259540EF43274DA84203D10325C6
:102950009540EF4302E001259540EF43224DA84208
:1029600000D100BF056D3D400565436D3B401E4DE8
:10297000A84206D18D79CE797600354395402B4318
:1029800002E08D7995402B434365174DA84209D14C
:10299000C56E3D402B460D7A4E7A76003543954004
:1029A0002B43C3662568FF260836B5432560256896
:1029B0004E88354325604E89019D2E608E89009D8D
:1029C0002E60094DA84208D10D794E797600354325
:1029D0009540066D3543056504E0056D0E7996401A
:1029E00035430565FCBD000000C0024030B58D00D8
:1029F000044690342B191A6030BD00000B888822E1
:102A000013504B8884221350026803231B049A43FB
:102A10000260026801231B069A43026002688B6809
:102A20001A430260044A904202D10B798C2213505F
:102A30008A8982677047000000C002400EB50020FE
:102A400000900190029001210904009888434018E9
:102A5000009089000098884340180090091101985F
:102A60008843401801900123684607C8FEF746F8DE
:102A70000122172189010020FDF778FF002217218C
:102A800089012048FEF76CFC0022172189011D48AE
:102A9000FEF796FC0122172189011A48FEF786FCF1
:102AA00001220F210020FDF761FF00220F211548B0
:102AB000FEF756FC00220F211248FEF781FC01228E
:102AC0000F211048FEF772FC0122032109030E4872
:102AD000FEF746FC0022032109030B48FEF770FCB9
:102AE000032109030848FEF78DFC032189030648EA
:102AF000FEF734FCFEF7DEFC01210448FFF702FF7D
:102B00000EBD000000000B4000400B4000C0024022
:102B100010B520210E4800F0EBF8002816D00D4823
:102B20000088142802D300200A4908800848006859
:102B3000C1B2084802880088401C064B188006482D
:102B4000815401214902024800F046F810BD0000FE
:102B500000100040160800205008002010B5202169
:102B6000480600F0C5F8002817D00C480088FF2858
:102B700002D9002009490880012080070068C1B2FD
:102B8000064802880088401C044B18800448815481
:102B900001214902480500F01FF810BD220800205D
:102BA000E40C002010B52021094800F0A1F800280D
:102BB00008D0074800F0F6F8C4B2A52C02D10120D5
:102BC000044908702021024800F006F810BD0000FA
:102BD000000004401408002002690A4002617047A6
:102BE00000B587B000200190029003900121890375
:102BF0000298884340180290890001988843401841
:102C000001904900019888434018019049000198BB
:102C10008843401801904912029888434018029056
:102C200049100298884340180290012301A807C860
:102C3000FDF764FF002202212A48FEF7C1FB0022B3
:102C400020212948FEF7BCFB062201210846FDF79A
:102C50008DFE062202210120FDF788FE06221021AA
:102C60000020FDF783FE062220210020FDF77EFED6
:102C7000E12040020490FF21013168468182002159
:102C8000C1820183418304A9184800F03BF804A9DC
:102C90000120800700F036F81820FFF721F81720F0
:102CA000FFF71EF801221146104800F071F80122CA
:102CB0001146900700F06CF8012200210B4800F04B
:102CC00077F801221146094800F072F8012200212C
:102CD000900700F06DF801221146900700F068F8A7
:102CE00007B000BD00200B4000000B400000044076
:102CF000024610690840002801D0012070470020DA
:102D0000FCE7000070B504460D4660681C490840A9
:102D1000E9880843A9880843298908436989084341
:102D2000606001208007844207D11820FDF7CAFEA9
:102D300006462968FDF7FEF960621248844207D111
:102D40001A20FDF7BFFE06462968FDF7F3F9606219
:102D50000D48844207D11C20FDF7B4FE06462968C1
:102D6000FDF7E8F960620948844207D11E20FDF7AB
:102D7000A9FE06462968FDF7DDF9606270BD000016
:102D8000FCE0FFFF00000440001000400010044081
:102D9000002A03D0C3680B43C36002E0C3688B43BF
:102DA000C36070470146086880B270470160704791
:102DB00010B5002A05D0436810248C40234343609B
:102DC00004E0436810248C40A343436010BD0FB45B
:102DD00030B5CBB0054601AC50A80090FF21293199
:102DE00001A8009B4F9A00F071F8002000900BE0C2
:102DF0002178641C2846FFF7D9FF00BF80212846B0
:102E0000FFF776FF0028F9D020780028F0D14BB0EA
:102E100030BC08BC04B0184770B506460C46002507
:102E200005E0615D304600F01DF8681CC5B2605DCC
:102E30000028F6D170BDF8B507460C4615460026A9
:102E40000DE02178641C3846FFF7B0FF00BF8021F9
:102E50003846FFF74DFF0028F9D0701C86B2AE420D
:102E6000EFDBF8BD70B504460D4629462046FFF756
:102E70009DFF00BF80212046FFF73AFF0028F9D0D0
:102E800070BD00000FB410B503A9044B044A0298AA
:102E900000F028F910BC08BC04B01847C538000081
:102EA0000C0800200FB410B504A9074B02AA039820
:102EB00000F018F9044602A9002000F0BCFC2046EE
:102EC00010BC08BC04B01847373800007CB51D465C
:102ED00016460C0001D0611E00E000210191009017
:102EE000054B6A462946304600F0FCF8002C02D01B
:102EF000009A002111707CBD213800002021020CB5
:102F000001D010211046020A01D0104608390209EA
:102F100001D01046091F820801D01046891E4208C0
:102F200001D0881E7047081A704730B47446641E7A
:102F30002578641CAB4204D3635D5B00E31830BCAE
:102F400018471D46F8E70000004870473808002081
:102F500002E008C8121F08C1002AFAD17047704762
:102F6000002001E001C1121F002AFBD170470000C0
:102F7000F0B51FB486B00998089A030D00210243EA
:102F800014D05148514A181850430514119801287B
:102F900010981AD0281A401C00264D4F4D49009613
:102FA00001910490002812DA444211E011980124A2
:102FB00049A3012801D11098C1430698119A846051
:102FC0000360C26041600BB0F0BD4042E4E70446DC
:102FD000210500203F4A001C51410391029012E05C
:102FE000E00707D032463B4601990098FDF706FA04
:102FF0000191009032463B4610461946FDF7FEF916
:1030000006460F466410002CEAD10498039B002862
:10301000029A0999089806DAFDF7F0F9019B009ADF
:10302000FDF7ECF905E0FDF751FA019B009AFDF779
:103030004DFA04460E460022284BFDF7BFFA03D88E
:103040000020C043014607E00022254B20463146C0
:10305000FDF720F9FDF7C2FB102409E0002C0ADB84
:103060000A220023FDF7BEFA079B30321A55641E70
:1030700002460A43F2D11122641C079B121B1C1941
:10308000119B012B03D0012308430ED10AE0084312
:1030900004D0112010900020119077E71098151A95
:1030A0006D1E0BE01098824202DD00236D1C03E0D0
:1030B000824201DA00236D1E002BEED00698119992
:1030C0008260C16030C07EE701FCFFFF104D000050
:1030D000000014400000F03F300000000000F0430A
:1030E0000000E03FFFB597B0064600251BE225280B
:1030F00076D100242746F749049400E00443761C67
:1031000032780120203A90400842F7D130782A28BE
:103110000ED00222307801463039092916D8049998
:103120000A235943303940181443761C0490F1E7C0
:10313000189802C804911890002904DA012040036D
:1031400004434842049002200443761C30782E2821
:1031500014D1042004437078761C2A2809D11898C9
:10316000761C80C8189009E00A214F43303FC719E8
:10317000761C3078014630390929F5D930786C2829
:1031800010D006DC4C281AD068280ED06A2817D137
:1031900004E0742813D07A2812D110E001204005F1
:1031A00004430CE00121090501E0032109050C435A
:1031B0007178814203D1012000052418761C761C09
:1031C000307866280BD013DC58287DD009DC002825
:1031D0007BD04528F6D04628F4D047281AD1A9E15B
:1031E00018E0632835D0642870D0652812D1A1E199
:1031F00070286CD008DC6728F1D069287DD06E2853
:103200000DD06F2806D1BCE073282ED0752873D05E
:10321000782859D01A9A199990476D1C82E160025A
:10322000400F022809D003280DD0042818980168FF
:103230000DD00D60001D189074E11898EA17016810
:103240000D604A60F6E7189801680D80F2E70D708E
:10325000F0E718986A4601781172001D1890002056
:10326000507202A80090012005E0189802C818903A
:1032700000200091C04361070ED5002101E00199B3
:10328000491C0191B94213DA8142F8DB019A009995
:10329000895C0029F3D10BE0002101E00199491C70
:1032A00001918142FADB019A0099895C0029F5D1EC
:1032B000019904981A9B471A21463846199A00F03A
:1032C00099FA4019019903E051E030E115E050E02E
:1032D000451807E0009800990078491C00911A9A57
:1032E000199990470198401E0190401CF2D1214647
:1032F00038461A9B199A12E137E00A200021009003
:1033000001916002410F022907D0189A01CA189250
:10331000C2179446032908D00AE01898C01DC108B6
:10332000C90005C91891944607E000B2C217944637
:10333000042902D140B2C1178C460022614694454F
:1033400006DA0A460021404291418C462D2102E0D6
:10335000210504D52B216A461173012103E0E10701
:1033600001D02021F7E7029156E00A200AE0102060
:1033700008E0102000900021042004430191082758
:1033800003E008200021019100906002410F022912
:1033900007D0189A01CA189200229446032908D02F
:1033A00008E01898C01DC108C90005C918919446C5
:1033B00003E080B2042900D1C0B2002102912107AC
:1033C0002AD531780D91702906D0009A1021019BE1
:1033D0004A401A4305D00EE040216A46117301218C
:1033E00008E06146014306D030216A4611730D9909
:1033F000517302210291009A0821019B4A401A430D
:103400000AD16146014301D1610705D530216A46E1
:10341000117301217F1E02913178582904D02EA109
:103420000E910DA90D910DE030A1F9E76146019BC8
:10343000009AFDF7D7F80E9B8C469B5C0D9A521EA6
:103440000D92137061460143F0D10D9805A9081A39
:1034500020300190600703D501200004844300E080
:1034600001270198874201DD381A00E00020019908
:1034700000904118029809180498401A0490E0033B
:1034800006D421461A9B199A049800F0B3F94519FD
:10349000002706E003A81A9AC05D199990476D1C91
:1034A0007F1C02988742F5DBE0030CD521461A9B6E
:1034B000199A049800F09EF9451904E01A9A3020F0
:1034C000199990476D1C0099481E00900029F5DC61
:1034D0001FE000000928010030313233343536371F
:1034E0003839616263646566000000003031323350
:1034F00034353637383941424344454600000000F0
:103500000D980D990078491C0D911A9A19999047B8
:103510006D1C0199481E01900029F1DC4DE100F07D
:1035200059F94519761C3078002800D0DFE5284687
:103530001BB0F0BD600700D406271898C01DC10855
:10354000C90048680A680831C30FDB0718911900E1
:1035500001D09CA108E0210501D59BA104E0E10771
:1035600001D09AA100E09AA14300109130785B0845
:1035700065280CD006DC452809D046281DD04728F0
:1035800041D141E0662818D067283CD13CE00021B9
:10359000112F01DB112000E0781C0191009008A997
:1035A00011A8FFF7E5FC139905910021119A1592D6
:1035B0007F1C12980197009150E00120C0070390F2
:1035C0000120019008A9009711A8FFF7D1FC139AD8
:1035D000149905920022119B009212981593059A56
:1035E0000192002901D0104602E0791C4018019098
:1035F000381A01D5019804E04042401E0090781C22
:103600000190C01B029043E0012F00DA0127002146
:10361000112F01DD112000E038460191009008A92A
:1036200011A8FFF7A5FC13990591119A0021129892
:1036300015920091019721070CD40599B94201DB3D
:10364000019900E00191012904DD159A491E515CA0
:10365000302906D0B84201DA011D05DA01210291B4
:1036600015E00199491EEDE7002805DC0099411895
:1036700000910199091A03E0019A411C914200DD71
:1036800001910099401A401C02900120C00703904C
:10369000200706D402990198814202DB0020C04332
:1036A000029000206946C87707AF012103980337CD
:1036B000C907884224D0022011902B201290039831
:1036C00000280CDA404203902D20129007E00A21D6
:1036D0000398FCF72FFD30317F1E0390397011994C
:1036E000481E11900029F2DC03980028EFD1791EC2
:1036F000129808703078202108404530BF1E38707D
:1037000006A8C01BC01D039010980078002800D0A8
:103710000120019941180298C01709180398091847
:103720000498401A401E0490E00306D421461A9BD8
:10373000199A049800F05EF845191098007800284E
:1037400003D01A9A199990476D1CE00324D521469D
:103750001A9B199A049800F04DF845191CE000983E
:10376000002807DB00990598884203DD1598405C26
:10377000199901E0199930201A9A904700986D1C08
:10378000401C00900298401E0290002804D11A9A12
:103790002E20199990476D1C0199481E019000290F
:1037A000DDDC05E038781A9A7F1C199990476D1C6A
:1037B0000399481E03900029F4DC21461A9B199AAC
:1037C0000498ACE62D0000002B0000002000000053
:1037D00000000000F8B5044600251E461746880480
:1037E00004D405E039462020B0476D1C641EF9D58D
:1037F0002846F8BDFFB50446002581B01E46C80323
:1038000001D5302700E02027880404D505E038469C
:103810000399B0476D1C641EF9D5284605B0F0BD6C
:103820004A68002A06D00A68531C0B60107048686A
:10383000401E486070470A68531C0B601070704748
:1038400010B5044603E07D20C00000F007F82046D4
:10385000611E8CB20028F6D110BD000070B5044680
:103860000420C043FEF70AFF13490968C80813493A
:10387000FCF760FC0646FEF73DFF0020FEF728FF40
:103880000020FEF70DFF0120FEF70AFF002508E0EB
:1038900000BF0B4800690121090408400028F8D046
:1038A0006D1CA542F4D30120C043FEF7F9FE0020B1
:1038B000FEF7F6FE70BD00000808002040420F0031
:1038C00000E000E070B504460D462046FEF7C6FE57
:1038D00070BD000010B5002823D0124B0022001F3D
:1038E000196803E0814203D80A4649680029F9D1E2
:1038F000002A0AD01368841A9C4204D10068181860
:103900001060104602E0506000E01860002907D007
:1039100002680B1A934203D10B68D21802604968FF
:10392000416010BD3008002008B5FDF7A3FAFDF78F
:10393000A1FBCDE0042000F011F90446002C01D0D9
:103940000020206063480078002826D1FEF7D2F9D5
:103950000120082360A2102100900020FEF772FCD5
:103960000120082361A2202100900020FEF76AFCBC
:10397000012008235FA22E2100900020FEF762FCA8
:10398000FEF7C2FA7D200001FFF75AFF0122042151
:103990000820FEF7DFFA4F490870002C01D0002004
:1039A0002060FEF7A7F90120082357A2002100900C
:1039B0000846FEF747FCFEF7A7FA02E0FEF7A8FD6F
:1039C000044620680028F9D0206800287BD053A145
:1039D00054482268FFF766FA01200823514A102153
:1039E00000900020FEF72EFC14214E48FCF7D1FB7E
:1039F00022794DA14B48FFF755FA01200823494A87
:103A0000202100900020FEF71DFC14214548FCF702
:103A1000C0FB627947A14348FFF744FA012008231D
:103A2000404A302100900020FEF70CFC14213D4854
:103A3000FCF7AFFBFEF768FA26480078002842D072
:103A4000FDF7E2FC6420FFF7FBFEFDF777F824E0CA
:103A5000207900280FD0F8213A48FFF703FA00BF79
:103A6000394800780028FBD00020374908702079B9
:103A7000401E207111E0607900280ED0F9213148F4
:103A8000FFF7F0F900BF304800780028FBD0002095
:103A90002D4908706079401E607120790028D7D1C7
:103AA00060790028D4D10B490870FEF723F9012072
:103AB000082326A2102100900020FEF7C3FBFEF78A
:103AC00023FAFDF707F97D20C000FFF7B9FE00BF1C
:103AD00030E700000008002057656C636F6D6520BB
:103AE000746F205461694F78000000005374617452
:103AF000653A000057616974696E6720666F7220CD
:103B00004F726465722E00004865726520697320EB
:103B100061204F726465722100000000626F737350
:103B20003A2573003C0800204F72616E67653A25A4
:103B300064000000477265656E4F72616E67653A9A
:103B40002564000000000440140800204F726465E2
:103B5000722046696E69736821000000F0B50B3071
:103B6000C108C900144F0026144A0FE003688B42B5
:103B70000BD38B4205D95C1A4318456830C3083B08
:103B800000E04368136002C004E0021D10680028D2
:103B9000ECD13046002803D13868002801D000203D
:103BA000F0BD064A06481060064A121AD208D20032
:103BB00044C001203860D7E73408002030080020D6
:103BC000EC0D0020E80D002010B500220221044871
:103BD000FEF738FD002203210148FEF733FD10BD3A
:103BE00000C0024010B5002202210548FEF72AFD60
:103BF000FF22993203210248FEF724FD10BD000088
:103C000000C0024010B5FF22993202210448FEF79D
:103C100019FD002203210248FEF714FD10BD00002B
:103C200000C002400000000000000000002F000063
:103C300000000700070000147F147F1400242A7F6F
:103C40002A120062640813230036495522500000EE
:103C50000503000000001C224100000041221C005E
:103C60000014083E08140008083E0808000000A0E0
:103C700060000008080808080000606000000020DC
:103C800010080402003E5149453E0000427F4000BA
:103C9000004261514946002141454B310018141240
:103CA0007F10002745454539003C4A49493000010D
:103CB0007109050300364949493600064949291E5C
:103CC00000003636000000005636000000081422BE
:103CD00041000014141414140000412214080002BE
:103CE0000151090600324959513E007C1211127CE3
:103CF000007F49494936003E41414122007F414110
:103D0000221C007F49494941007F09090901003E01
:103D10004149497A007F0808087F0000417F41003F
:103D2000002040413F01007F08142241007F4040B5
:103D30004040007F020C027F007F0408107F003E9D
:103D40004141413E007F09090906003E4151215E83
:103D5000007F091929460046494949310001017F80
:103D60000101003F4040403F001F2040201F003F16
:103D70004038403F006314081463000708700807C8
:103D800000615149454300007F41410000552A55DB
:103D90002A55000041417F00000402010204004056
:103DA0004040404000000102040000205454547878
:103DB000007F484444380038444444200038444498
:103DC000487F00385454541800087E090102001836
:103DD000A4A4A47C007F080404780000447D400073
:103DE000004080847D00007F102844000000417F57
:103DF0004000007C04180478007C08040478003833
:103E00004444443800FC242424180018242418FCBA
:103E1000007C0804040800485454542000043F4423
:103E20004020003C4040207C001C2040201C003CE6
:103E30004030403C004428102844001CA0A0A07C36
:103E4000004464544C44141414141414000000006E
:103E500000000000000000000000FC000000000066
:103E600002000000000C020C020000000000000034
:103E700090D0BCD0BC900003000300001824FE4486
:103E80008C000302070201001824D8B04C80000304
:103E900000010201C038E438E00001020201020220
:103EA000080600000000000000000000000000F80C
:103EB0000402000000010204000204F800000004F3
:103EC000020100009060F860900000000100000016
:103ED0002020FC2020000000010000000000000065
:103EE0000000080600000000202020202000000024
:103EF00000000000000000000000000200000000C0
:103F00000080601C0200040300000000F8040404A8
:103F1000F8000102020201000008FC00000000029B
:103F20000302000018844424180003020202020065
:103F300008042424D80001020202010040B088FCD9
:103F400080000000000302003C242424C40001027D
:103F500002020100F824242CC00001020202010028
:103F60000C04E41C0400000003000000D8242424F6
:103F7000D80001020202010038444444F800000362
:103F8000020201000000100000000000020000001A
:103F90000000200000000000060000000020508803
:103FA0000402000000000102909090909000000038
:103FB0000000000000020488502000020100000000
:103FC0001804C4241800000002000000F804E4945F
:103FD000F80001020202020000E09CF080000203EF
:103FE0000000030204FC2424D800020302020100A2
:103FF000F80404040C0001020202010004FC0404A1
:10400000F80002030202010004FC24740C00020305
:104010000202030004FC24740C00020302000000EE
:10402000F0080444CC4000010202010004FC2020FE
:10403000FC040203000003020404FC040400020266
:1040400003020200000404FC04040604040300004C
:1040500004FC24D00C0402030200030204FC04004C
:104060000000020302020203FC3CC03CFC0003000F
:104070000300030004FC30C4FC040203020003003C
:10408000F8040404F80001020202010004FC2424E4
:104090001800020302000000F8848404F800010202
:1040A0000207050004FC24649800020302000302D6
:1040B000182424448C000302020201000C04FC04B6
:1040C0000C0000020302000004FC0000FC040001DC
:1040D00002020100047C80E01C04000003000000D8
:1040E0001CE03CE01C00000300030000049C609CFA
:1040F0000400020300030200041CE01C0400000290
:10410000030200000C84641C04000203020203008A
:104110000000FE020200000007040400000E30C090
:104120000000000000010200000202FE0000000486
:10413000040700000004020400000000000000006A
:10414000000000000000080808080808000002003D
:1041500000000000000000000040A0A0C00000011E
:104160000202030204FC2020C0000003020201003E
:1041700000C02020600000010202020000C02024D4
:10418000FC0000010202030200C0A0A0C000000168
:10419000020202000020F8242404000203020200AC
:1041A0000040A0A0602000070A0A0A0404FC2020A6
:1041B000C0000203020003020020E400000000022D
:1041C00003020000000020E40000080808070000C7
:1041D00004FC80E020200203020003020404FC002F
:1041E0000000020203020200E020E020C000030001
:1041F0000300030020E02020C000020302000302AD
:1042000000C02020C00000010202010020E02020A8
:10421000C000080F0A02010000C02020E0000001D9
:10422000020A0F0820E040202000020302000000E4
:104230000060A0A020000002020203000020F8207D
:10424000000000000102020020E00020E000000168
:104250000202030220E02080602000000301000031
:104260006080E08060000003000300002060806048
:10427000200002030003020020E0208060200808E4
:10428000070100000020A0602000000203020200DD
:10429000000020DE0200000000070400000000FF14
:1042A00000000000000F00000002DE2000000004FB
:1042B00007000000020102040402000000000000E8
:1042C00000000000000000000000000000000000EE
:1042D000000000F800000000000000333000000083
:1042E00000100C06100C060000000000000000008A
:1042F00040C07840C0784000043F04043F040400FC
:10430000007088FC08300000001820FF211E00000B
:10431000F008F000E018000000211C031E211E0020
:1043200000F00888700000001E21232419272110A6
:1043300010160E0000000000000000000000000049
:10434000000000E0180402000000000718204000F0
:1043500000020418E00000000040201807000000E0
:10436000404080F0804040000202010F0102020044
:10437000000000F0000000000101011F0101010028
:10438000000000000000000080B07000000000008D
:104390000000000000000000000101010101010116
:1043A00000000000000000000030300000000000AD
:1043B0000000000080601804006018060100000082
:1043C00000E010080810E000000F102020100F007F
:1043D000001010F8000000000020203F2020000006
:1043E000007008080888700000302824222130005E
:1043F00000300888884830000018202020110E0066
:104400000000C02010F8000000070424243F24000E
:1044100000F80888880808000019212020110E00E3
:1044200000E0108888180000000F112020110E00F5
:1044300000380808C83808000000003F00000000ED
:104440000070880808887000001C222121221C00AE
:1044500000E010080810E0000000312222110F00D7
:10446000000000C0C000000000000030300000006C
:1044700000000080000000000000806000000000DC
:1044800000008040201008000001020408102000F5
:104490004040404040404000040404040404040040
:1044A00000081020408000000020100804020100D5
:1044B000007048080808F0000000003036010000D5
:1044C000C030C828E810E0000718272423140B0088
:1044D0000000C038E0000000203C23020227382002
:1044E00008F8888888700000203F202020110E00E6
:1044F000C0300808080838000718202020100800DD
:1045000008F808080810E000203F202020100F00C5
:1045100008F88888E8081000203F20202320180091
:1045200008F88888E8081000203F200003000000F9
:10453000C03008080838000007182020221E02009A
:1045400008F808000008F808203F210101213F2059
:10455000000808F8080800000020203F2020000084
:1045600000000808F8080800C08080807F00000074
:1045700008F888C028180800203F200126382000AD
:1045800008F8080000000000203F20202020300014
:1045900008F8F800F8F80800203F003F003F20002E
:1045A00008F830C00008F808203F200007183F0036
:1045B000E01008080810E0000F10202020100F0065
:1045C00008F808080808F000203F21010101000058
:1045D000E01008080810E0000F18242438504F009D
:1045E00008F8888888887000203F2000030C30205D
:1045F00000708808080838000038202121221C009B
:10460000180808F8080818000000203F20000000E3
:1046100008F808000008F808001F202020201F00CC
:104620000878880000C83808000007380E0100002C
:10463000F80800F80008F800033C0700073C0300F6
:10464000081868808068180820302C03032C30205C
:104650000838C800C83808000000203F20000000CB
:1046600010080808C8380800203826212020180023
:10467000000000FE020202000000007F40404000F7
:10468000000C30C000000000000000010638C0002F
:1046900000020202FE000000004040407F000000D7
:1046A00000000402020204000000000000000000FC
:1046B00000000000000000008080808080808080FA
:1046C00000020204000000000000000000000000E2
:1046D00000008080808000000019242222223F20D8
:1046E00008F8008080000000003F112020110E001B
:1046F0000000008080800000000E112020201100AA
:10470000000000808088F800000E112020103F205B
:104710000000808080800000001F222222221300DF
:10472000008080F0888888180020203F202000002A
:104730000000808080808000006B949494936000DF
:1047400008F8008080800000203F210000203F20EA
:1047500000809898000000000020203F20200000EA
:10476000000000809898000000C08080807F0000DA
:1047700008F8000080808000203F24022D302000B7
:10478000000808F8000000000020203F2020000062
:104790008080808080808000203F20003F20003F7C
:1047A0008080008080800000203F210000203F208A
:1047B0000000808080800000001F202020201F003B
:1047C000808000808000000080FFA12020110E006A
:1047D0000000008080808000000E112020A0FF805B
:1047E000808080008080800020203F212000010008
:1047F000000080808080800000332424242419005D
:10480000008080E0808000000000001F2020000069
:104810008080000000808000001F202020103F20AA
:10482000808080000080808000010E30080601003A
:1048300080800080008080800F300C030C300F00DF
:1048400000808000808080000020312E0E3120000A
:10485000808080000080808080818E70180601003A
:1048600000808080808080000021302C2221300058
:1048700000000000807C020200000000003F404079
:1048800000000000FF00000000000000FF0000002A
:104890000002027C800000000040403F0000000059
:1048A00000060101020204040000000000000000F4
:1048B00000000000000000000000000000000000F8
:1048C00000000000000000000000000000000000E8
:1048D000000000000000000000F0F0F00000000008
:1048E0000000000000017F01000000000000000047
:1048F000001C1C1C0000000000008060301C8C604C
:10490000301C0C000000000000000000000000004F
:10491000000000000000000000000000000000E0B7
:104920000000000000E000000086E69F8686868684
:10493000E69F860000011F01010101011F01010026
:10494000000080C06020F820E0C0000000000307E5
:104950000C18FF70E18100000000070F10107F109D
:104960000F0700008060206080000000E020000051
:104970000F3020309F70DC371030C0000000100E68
:1049800003000718101807000000C02020E0C00036
:104990000000000080E01F38E88703C43C040000EA
:1049A000070F1810100B070D1010080000808C4C1A
:1049B00038000000000000000000000000000000BF
:1049C00000000000000000000000000000000000E7
:1049D00000000000000080E030080400000000003B
:1049E00000FEFF0100000000000000000000030FB7
:1049F0001820400000040830E080000000000000A3
:104A00000000000001FFFE00000000000040201830
:104A10000F03000000000000000000000000C000C4
:104A200000000000004266663C18FF183C666642C3
:104A30000000000000000300000000000000000073
:104A40000000800000000000001010101010FF1087
:104A50001010101000000000000003000000000013
:104A60000000000000000000000000000000000046
:104A7000000000000000000000808C4C38000000A6
:104A80000000000000000000000000000000000026
:104A90000010101010101010101010000000000076
:104AA0000000000000000000000000000000000006
:104AB00000000000000000000000000000000000F6
:104AC00000001C1C1C000000000000000000000092
:104AD00000000000E0380C000000000080701C03A3
:104AE000000000000060380E01000000000000001F
:104AF000000080C060202060C080000000FEFF0138
:104B00000000000001FFFE000001070E1810101841
:104B10000E0701000000808080C0E000000000005F
:104B20000000000000FFFF00000000000000101067
:104B3000101F1F1010100000008040202020206057
:104B4000C080000000030300804020381F070000E1
:104B5000001C1A1918181818181F00000080C0200F
:104B6000202060C080000000000303001010182FF8
:104B7000E780000000070F10101010180F0700004A
:104B8000000000000000C0E0F000000000C0B0889D
:104B9000868180FFFF808000000000000010101F51
:104BA0001F1010000000E060606060606060000046
:104BB00000003F1008080818F0E0000000070B1084
:104BC0001010101C0F030000000080C040202020A7
:104BD000E0C0000000FCFF211008080818F0E00009
:104BE0000001070C18101010080F03000000C0E0AF
:104BF0006060606060E06000000003000000E0189A
:104C00000700000000000000001F1F00000000005F
:104C10000080C0602020202060C080000087EF2C32
:104C20001818303068CF830000070F0810101010DC
:104C3000180F07000000C0C020202020C080000006
:104C4000001F3F604040402010FFFE0000000C1C91
:104C5000101010080F03000000000000000000000A
:104C60000000000000000000000E0E0E000000001A
:104C700000000000001C1C1C0000000000000000E0
:104C8000000000000000000000000000000C0C000C
:104C90000000000000000000005838000000000084
:104CA00000000000000000804020100000001028DC
:104CB000448201000000000000000000000001022A
:104CC00004081000000000000000000000000000C8
:104CD00000848484848484848484840000000000AC
:104CE00000000000000000000000102040800000D4
:104CF00000000000000000000000018244281000B5
:104D000000001008040201000000000000C0202084
:104D10001010101030E0C0000003030000F0100875
:104D20000C070300000000001C1C1C000000000019
:104D3000000000C0406020202040C00000FCFF01B7
:104D4000F00E03C1FE03807F0001070E0811111051
:104D5000110904020000000080E0E00000000000F3
:104D60000000807C4340477FF880000010181F102F
:104D700000000000131F1C1020E0E0202020206015
:104D8000C080000000FFFF10101010182FE78000F7
:104D9000101F1F1010101010180F0700000080C007
:104DA000402020202060E00000FCFF010000000007
:104DB000000001000001070E181010100804030085
:104DC00020E0E02020202040C080000000FFFF0005
:104DD0000000000001FFFE00101F1F101010180837
:104DE0000E07010020E0E02020202020206080002D
:104DF00000FFFF101010107C00000000101F1F109B
:104E0000101010101018060020E0E02020202020B4
:104E10006060800000FFFF101010107C0000010097
:104E2000101F1F100000000000000000000080C0E4
:104E30006020202040E0000000FCFF010000404016
:104E4000C0C140400001070E181010100F0F0000E5
:104E500020E0E0200000000020E0E02000FFFF1044
:104E60001010101010FFFF00101F1F100000000096
:104E7000101F1F100000202020E0E0202020000054
:104E80000000000000FFFF00000000000000101004
:104E9000101F1F101010000000000000202020E054
:104EA000E020202000000000000000FFFF000000C4
:104EB0000060E0808080C07F3F00000020E0E020B4
:104EC000000020A06020200000FFFF30187CE3C01D
:104ED00000000000101F1F10000001131F1C1810FD
:104EE00020E0E020000000000000000000FFFF00C4
:104EF0000000000000000000101F1F101010101014
:104F00001018060020E0E0E000000000E0E0E020F3
:104F100000FF013FFEC0E01E01FFFF00101F100058
:104F2000031F0300101F1F1020E0E0C0000000005E
:104F30000020E02000FF0003071C78E08000FF0055
:104F4000101F100000000000030F1F00000080C0B1
:104F500060202060C080000000FEFF010000000013
:104F600000FFFE000001070E181010180C070100CA
:104F700020E0E0202020202060C0800000FFFF20F3
:104F800020202020301F0F00101F1F1000000000E5
:104F900000000000000080C060202060C080000091
:104FA00000FEFF010000000000FFFE000001070EF0
:104FB0001111133C7C67210020E0E02020202020FC
:104FC00060C0800000FFFF101030F0D0080F070015
:104FD000101F1F10000000030F1C10100080C06085
:104FE000202020204040E00000070F0C181830302F
:104FF00060E08100001F0C0810101010180F07004F
:105000008060202020E0E02020206080010000005F
:1050100000FFFF000000000100000000101F1F1033
:105020000000000020E0E020000000000020E02060
:1050300000FFFF00000000000000FF0000070F1845
:1050400010101010100807002060E0E020000000A1
:1050500020E060200000077FF88000807C030000D3
:1050600000000000071F1C070000000020E0E020F7
:1050700000E0E0200020E0200007FFF8E01FFFFC38
:10508000E01F00000000031F0300011F03000000D9
:10509000002060E0A0000020E0602000000000038D
:1050A0008F7CF8C6010000000010181E13000117C5
:1050B0001F1810002060E0E02000000020E06020C9
:1050C000000001073EF8E018070000000000001093
:1050D000101F1F101000000000806020202020A062
:1050E000E0E0200000000000C0F03E0F03000000E0
:1050F00000101C1F171010101018060000000000F0
:1051000000FC0404040404000000000000FF000090
:105110000000000000000000007F404040404000D0
:10512000000010E00000000000000000000000008F
:10513000031C60800000000000000000000000036D
:105140000C70800000000404040404FC0000000053
:1051500000000000000000FF0000000000004040D0
:105160004040407F0000000000000010080C040CCC
:105170000810000000000000000000000000000017
:10518000000000000000000000000000000000001F
:10519000000000000000000000000000000000000F
:1051A00000000000808080808080808080808080FF
:1051B00000000004040808000000000000000000D7
:1051C00000000000000000000000000000000000DF
:1051D00000000000000000000000000000000000CF
:1051E000000098D844642424FCF80000000F1F1825
:1051F000101010081F1F10180020E0F00000000021
:10520000000000000000FFFF180804040CF8F00084
:1052100000001F0F18101010180F030000000000EE
:10522000000000000000000000E0F8180404043C46
:105230003800000000030F0C1010101008060000CA
:105240000000000000000020E0F0000000E0F81C7A
:1052500004040408FFFF000000030F1810101008DA
:105260001F0F080000000000000000000000000008
:105270000000E0F8484444444C7870000000030FFC
:105280000C181010100804000000000080C06020FE
:1052900020E0C00000040404FFFF04040404000034
:1052A000000010101F1F1010100000000000000070
:1052B0000000000000000000000070F88C04048C66
:1052C000F874040C007076CF8D8D8D89C8787000CD
:1052D0000020E0F000000000000000000000FFFFE0
:1052E00008040404FCF8000000101F1F1000001048
:1052F0001F1F1000000000000060600000000000A0
:105300000000040404FCFC00000000000000101079
:10531000101F1F10101000000000000000000060AF
:105320006000000000000000040404FCFC00000019
:105330000000C0C08080C07F3F0000000020E0F07F
:1053400000000000000000000000FFFF80C0F41C0F
:105350000404000000101F1F1100031F1C10100088
:105360000000202020E0F00000000000000000000D
:1053700000FFFF000000000000001010101F1F10B1
:1053800010100000000000000000000000000000FD
:1053900004FCFC0804FCFC0804FCFC00101F1F10AB
:1053A000001F1F10001F1F10000000000000000061
:1053B000000000000004FCFC08080404FCF80000E5
:1053C00000101F1F100000101F1F10000000000021
:1053D000000000000000000000E0F0180C04040CC5
:1053E00018F0E00000030F0C101010100C0F030059
:1053F0000000000000000000000000000004FCFCB1
:10540000080404040CF8F0000080FFFF88901010DE
:105410001C0F03000000000000000000000000005E
:1054200000E0F81C04040408F8FC000000030F1856
:1054300010109088FFFF80000000000000000000B6
:1054400000000000040404FCFC100804040C0C0020
:105450001010101F1F1010100000000000000000AE
:10546000000000000000000000003078CCC48484FC
:10547000840C1C0000001E1810101011190F0600DB
:105480000000000000C00000000000000004040450
:10549000FFFF040404000000000000000F1F1010B4
:1054A000100C0000000000000000000000000000E0
:1054B0000004FCFE00000004FCFE000000000F1FC2
:1054C000181010081F0F0800000000000000000066
:1054D0000000000000040C3CFCC40000C43C0C04B0
:1054E00000000000010F1E0E01000000000000007F
:1054F0000000000000000000043CFCC400E47CFC50
:1055000084807C040000071F070000071F070000BD
:105510000000000000000000000000000004041C67
:105520007CE4C0341C0404000010101C1601131F7E
:105530001C18100000000000000000000000000027
:1055400000040C3CFCC400C43C0404000000C08007
:10555000C1370E0100000000000000000000000044
:105560000000000000001C0404C4F47C1C040000C3
:105570000000101C1F17111010180E000000000072
:10558000000000F80C04000000000000001028EFEC
:1055900000000000000000000000003F604000002C
:1055A000000000000000FF000000000000000000FC
:1055B0000000FF0000000000000000000000FF00ED
:1055C000000000000000040CF800000000000000D3
:1055D00000000000EF281000000000000000406004
:1055E0003F0000000000000000180602020408103E
:1055F0002020300800000000000000000000000033
:10560000000000000000000000000000404454546E
:1056100054D4745F54D4545454444000042422128B
:105620001548847F08081512220404000040201E3B
:10563000101010FF101010101000000002020202E3
:10564000020202FF020202020202020000202020E7
:10565000A06000FF608040201800000020100806B5
:105660000140807F0001020408101000000000FECD
:10567000929292FE929292FE0000000044442425F1
:10568000140C04FF040C14252444440008042322B1
:10569000262A22FA242322262A02020001090909C5
:1056A0001969090949897D0909090100008060F823
:1056B000074020180F08C80808281800010000FF3C
:1056C00000100C0340807F00010618000202020255
:1056D0000202FE02024282020202020000000000F8
:1056E0000000FF0000000001060000000000F84973
:1056F0004A4C48F8484C4A49F80000001010131270
:10570000121212FF1212121213101000000000C029
:1057100080808080808080FC84808080808080C0C9
:10572000C0000000000000FF7F404040404040FFBC
:1057300040404040404040FF7F000000000000002B
:10574000000000000000007F70000000000000006A
:105750000000000000000000000000000000000049
:10576000000000FCF8000000000000000000000045
:105770000000000000000000FFFE02020202020220
:10578000020202FFFF020202020202020202FF0301
:1057900000000000000000001F1F040404040404B3
:1057A000040404FFFF0404040404040404041F00AC
:1057B00000000000000000000000000000000000E9
:1057C0000000007F3F00000000000000000000001B
:1057D00000000000000000000000000000000000C9
:1057E00000000000000000000000000000000000B9
:1057F00000F8F8F0F0702000000000000000000049
:105800000000000000000000000000000000000098
:105810000000000000000000000000008000000008
:105820000000000000000000000000000000000078
:1058300000FFFFFFFF00000000000000000000006C
:105840000000000000000000808000000000000058
:1058500000000000000000000000000000FFFFFE4C
:1058600006060606060606060606060606060606D8
:1058700006FFFFFFFF0606060606060606060606E4
:1058800006060606060606FFFFFFFF0702000000E9
:1058900000000000000000000000000000FFFFFF0B
:1058A00000000000000000000000000000000000F8
:1058B00000FFFFFFFF0000000000000000000000EC
:1058C00000000000000000FFFFFFFF0000000000DC
:1058D00000000000000000000000000000FFFFFFCB
:1058E0001818181818181818181818181818181838
:1058F00018FFFFFFFF18181818181818181818188C
:1059000018181818181818FFFFFFFF0000000000F3
:105910000000000000000000000000000201010083
:105920000000000000000000000000000000000077
:1059300000FFFFFFFF00000000000000000000006B
:105940000000000000000001010000000000000055
:105950000000000000000000000000000000000047
:105960000000000000000000000000000000000037
:1059700000FFFFFFFF00000000000000000000002B
:105980000000000000000000000000000000000017
:105990000000000000000000000000000000000007
:1059A00000000000000000000000000000000000F7
:1059B000001F1F0F0F00000000000000000000008B
:1059C00000000000000000000000000000000000D7
:1059D0000000000000404040404040404040414105
:1059E00041414140404040404040404040404040B4
:1059F000404040404005020202020202020202024E
:105A0000020202020220202020202020202020024A
:105A100002020202020290909090909010101010DA
:105A20001010101010101010101010101010101076
:105A3000020202020202888888888888080808080A
:105A400008080808080808080808080808080808D6
:105A50000202020240000000D55900002F64657662
:105A6000696365412F636F6D6D616E647300000043
:105A7000905A0000000000203C0800000C090000C3
:105A8000885C00003C080020AC090000602F00008A
:105A900040120003050911FF118905C300E000F061
:105AA00000F8000100083A4428FF11AA4400015000
:105AB0000B830138448292927401831120087C4444
:105AC000FF017D7D7D04410540047D01FF6E920153
:105AD00002613F033B01017E81419149F2010101D5
