:020000040000FA
:1000000020030020C100000069110000CD0B00009A
:10001000FFFFFFFFFFFFFFFFFFFFFFFFFFFFFFFFF0
:10002000FFFFFFFFFFFFFFFFFFFFFFFFB113000018
:10003000FFFFFFFFFFFFFFFF9113000019150000F6
:1000400003010000030100000301000003010000A0
:100050000301000003010000030100000301000090
:1000600003010000FFFFFFFF030100000301000088
:10007000030100000301000003010000FFFFFFFF78
:10008000FFFFFFFF03010000030100000301000068
:1000900003010000030100000301000061160000DD
:1000A000A916000003010000030100000301000085
:1000B0000301000003010000030100000301000030
:1000C0001048804710488047104800471048016991
:1000D000002910D1416900290DD1816900290AD177
:1000E000C169002907D1BFF34F8F0A490A48C86088
:1000F000BFF34F8FFEE77047FEE7FEE7FEE7FEE740
:10010000FEE7FEE7CD0000001D1500001D01000008
:100110000003084000ED00E00400FA0504488546AD
:1001200000F0F6FA0048004711240000C046C0461F
:100130002003002030B50B46014600202022012478
:1001400009E00D46D5409D4205D31D469540491B0B
:100150002546954040191546521E002DF1DC30BD54
:10016000D2B201E00270401C491EFBD2704700224F
:10017000F6E710B513460A4604461946FFF7F0FFA6
:10018000204610BD30B505462A460B4610781C782F
:10019000521C5B1C002801D0A042F7D0002C03D0D9
:1001A000002802D06D1CEFE7284630BDCAB2401EC1
:1001B0004178401C8A4202D00029F9D100207047C2
:1001C000421C0178401C0029FBD1801A704710B5F1
:1001D000044600E0401C0378002BFBD100E0401CEB
:1001E000521E04D30B78491C0370002BF7D1002159
:1001F0000170204610BD0000F0B507460846584083
:1002000087B0C00F049048000E46590040084908C6
:10021000BC1A884105D2384631461E4617460B4661
:1002200002465800400810434DD0300D0390400561
:100230005900400D490D0590401A0290402873DA8C
:1002400018030121000B090508430190049800924E
:10025000002806D01146019A4942002090410091A1
:100260000190029840210A1A0199009800F09CF927
:1002700005460C466B4607CB00F0B7F9C019714133
:10028000039A0E0D0023D71756401A467A4016439C
:1002900044D0049A002A2DD0029A012A039A15DC30
:1002A0001205C01A914101263605001C7141D20F7A
:1002B000059ED2070093019202962A46234600F03B
:1002C000B4F907B0F0BD38463146FAE71605234ABF
:1002D0000F46B218C01AB74101210905001C4F4151
:1002E00000187F41114618187941E20F10436D192B
:1002F000644113E0E2076D0815436408C207144324
:10030000039A01261205C01A91413605001C71415D
:10031000CE07400830434908C01851412A462346B9
:1003200000F076F9CDE7FFE7049801224000C117FD
:10033000121A00238B4104983146C417381AA14180
:10034000EEE730B40124E407634030BC54E730B436
:100350000124E407614030BC4EE700000000E0FFEC
:10036000F0B51FB488B00B9909980024484009994A
:10037000C00F490049080991C0070B990090490036
:1003800049080B9109990898A64608431CD00B9977
:100390000A98084318D0099801244000420D4800EB
:1003A000410D099824050003000B204309900B9888
:1003B0000003000B20430B9050181C4940180022EA
:1003C00001901446104605E0002001460DB0F0BD36
:1003D000032801DA034600E003239C46C11A0AAE53
:1003E0000AE05F0008ADED5B4F00F75B7D4300273F
:1003F000AA187C41491C5B1E6145F2DD410004AB3B
:100400005A522104120C0A43240C401C0828DFDB3A
:10041000019802900099704601910090059B049A02
:100420000799069800F001F9D0E700000DFCFFFFE6
:10043000F0B50C465C4085B0E40FE40703944C0033
:100440000026640859009446490802460296224351
:1004500021D062460A431ED06200570D4A000E03A7
:100460002303550D012402462C492405781B1B0B40
:10047000360B401823432643614600901C46501A11
:10048000B44103D30098401C009002E092180098F9
:100490005B41002803DA0020014605B0F0BD0020D2
:1004A000012109050746864611E064461D46141BD6
:1004B000B54106D36546521BB341744607430C430E
:1004C000A646CD0740084908284392185B410546D7
:1004D0000D43EAD11046184313D0604619465040E8
:1004E0007140084306D06046101AB34106D201227B
:1004F000002306E000220123DB0702E00122D243B1
:100500005310009874460105381C6141029C039DFC
:100510000019694100F07CF8BFE70000FD0300000E
:1005200010B5002904DB0124E40740428C41214638
:10053000002B04DB1C460123DB075242A3419942F6
:1005400000D1904210BD0000F0B51FB40646002057
:1005500082B005464024019100901BE0019922469B
:100560000F46304600F030F8049A059B801A9941F6
:1005700010D310461946224600F016F8361A8F415D
:100580000197224601200021009F00F00DF8381845
:100590004D4100902046641E0028DFDC019B00983E
:1005A0002946324607B0F0BD10B5202A04DB0146CB
:1005B000203A9140002010BD914020239C1A034610
:1005C000E3401943904010BD10B5202A04DB0846D3
:1005D000203AD040002110BD0B46D340D04020240B
:1005E000A21A91400843194610BD10B5202A06DB17
:1005F000CB170846203A1041C1170B4306E00B46C3
:100600001341D0402024A21A91400843194610BD3E
:1006100010B5002B08DA0024401C614192185B41A0
:100620001A4301D14008400010BDF0B51FB482B09C
:1006300005460C0003D0084601F0DAF902E001F0AB
:10064000D7F920300246009021462846FFF7ACFF3C
:10065000049B059A04460F4618431143084314D0DF
:10066000184610431BD0009840210A1A18460599D5
:10067000FFF7AAFF05460E46009A05990498FFF772
:1006800093FF084305D0012004E02046394607B017
:10069000F0BD0020C11705430E432C43374300999A
:1006A0000E986305401A7905E40A00220C43FD0AFE
:1006B0000A3002D500200146E9E701051019694119
:1006C0000C9C0D9D00196941FFF7A2FFDFE70000B8
:1006D0004A0009030123090B1B0519430A4B10B5F6
:1006E000520D9A4202DA0020014610BD064B343307
:1006F0009A4203DC9A1AFFF767FF10BD034BD2182A
:10070000FFF752FF10BD0000FF030000CDFBFFFF0D
:10071000064C0125064E05E0E36807CC2B430C3C54
:1007200098471034B442F7D3FFF7FCFCB424000020
:10073000D4240000F7B50B46009DED00154EAA1914
:10074000002000240027002120E000240027FF25AE
:100750008D401D40002D17D000200FE01D46C540E4
:1007600001268E403540002D07D086000F25B5406C
:100770002C438600029DB5402F43401C0828EDD332
:100780001568A5433D431560121D08310829DCDDBD
:10079000FEBD00002020024070B504461F48406B9B
:1007A0004607760F00F03EF82060330001F037F97D
:1007B000081605080B16160E12162068606010E069
:1007C000174860600DE0164860600AE00120C00331
:1007D000606006E07D200002606002E00020606052
:1007E00000BF00BF0D48056A052D02D360684009AF
:1007F00001E06068E840A0600848806A07210904B9
:100800000840050C072D04D10321A068FFF792FCD6
:1008100001E0A068E840E06070BD00000080084092
:1008200000127A00F0B517480068FF2701373840FA
:10083000040A1448C069C50F124840687F00384058
:10084000460A002E01D10020F0BD002C01D10E4837
:1008500000E00D480346012D01D11846F4E7094890
:1008600080690F27FF053840C10D002900D11021F4
:100870000448806903277F053840420D18464843E5
:10088000D040E1E70080084000127A007FB50446BE
:10089000601180000A49461800252E2C00D102253F
:1008A000E406E40E0321A14030680840E040451909
:1008B0006846FFF771FF0298E84004B070BD000081
:1008C000388008403FB50E4C606AE16A226B0446EE
:1008D000009DAC4320460C46019DAC432146144686
:1008E000029DAC432246002B05D0009C2043019C76
:1008F0002143029C2243024C6062E16222633FBDBD
:100900000080084010B5FF2101310348FFF72FFC9C
:1009100000200249088010BD2000002010000020A7
:1009200070B50546002400BF00F01CF9002812D164
:100930000EA11048FFF726FC0446002C0BD03A21EC
:100940002046FFF733FC0446002C02D0641C2046EE
:1009500070BD0020FCE7052001F0E6FC2846691E7A
:100960008DB20028E0D100BFF2E700004950442CCE
:10097000000000002000002010B5FF20F53001F03D
:10098000D3FCFFF7BFFF20A1214800F09AFF03E04E
:10099000FF20F53001F0C8FC1EA11FA000F096F862
:1009A0000028F5D11EA11A4800F08BFF03E0FF20BC
:1009B000F53001F0B9FC17A11CA000F087F8002861
:1009C000F5D11EA1124800F07CFF03E0FF20F530B6
:1009D00001F0AAFC1CA11EA000F078F80028F5D1B7
:1009E00023A10B4800F06DFF03E0FF20F53001F07C
:1009F0009BFC23A124A000F069F80028F5D12DA1CB
:100A0000034800F05EFF10BD312E2041540D0A0056
:100A1000000004404F4B000041540D0A000000004C
:100A2000322E2043574D4F44450D0A0041542B436D
:100A3000574D4F44453D310D0A000000332E2043F1
:100A4000574A41500D0A0000474F542049500000BA
:100A500041542B43574A41503D2232333333222CE9
:100A6000223232363638383838220D0A000000007B
:100A7000342E2043495053544152540D0A00000073
:100A8000434F4E4E4543540041542B434950535419
:100A90004152543D22544350222C223138332E32BD
:100AA00033302E34302E3339222C363030320D0A8A
:100AB00000000000352E204553503832363620498C
:100AC0006E6974204F4B0D0A00000000F8B5044613
:100AD0000D46C8262046FFF773FB87B23A462146EB
:100AE000F00600F022FF10E000F03CF8002809D1E9
:100AF00029460948FFF746FB002803D0FFF702FF0D
:100B00000020F8BD0A2001F00FFC3046711ECEB265
:100B10000028E9D10120F4E72000002030B589B099
:100B200004460D46FFF7EEFE2A4609A101A800F093
:100B300033FF0BA101A8FFF7C9FF002805D12A4602
:100B400021460120800700F0F0FE09B030BD000012
:100B500041542B43495053454E443D25640D0A00F2
:100B60003E0000000A480088002801D1012070479B
:100B70000748008807490988884203D100200449B2
:100B80000880F4E702480088024908800120EEE767
:100B90001000002012000020002A06D183680B43B9
:100BA0008360C3688B43C3600EE0012A06D1C3682B
:100BB0000B43C36083688B43836005E083688B438A
:100BC0008360C3688B43C3607047000000BF024866
:100BD00000680028FBD070470000002010B50446D4
:100BE000207B012802D1206801F0E8FB0020206072
:100BF0006060A060207310BD10B502460023012381
:100C00000EE05006400E0870D209002A05D0087880
:100C1000802420430870491C01E0184610BD5B1C6D
:100C2000042BEEDD0020C043F8E770B504460E4605
:100C300000252068002814D101202073304601F0DF
:100C4000F9FB2060206800281CD000206060A660AE
:100C500003E00020216848556D1CA068A842F8D820
:100C600010E00220207303E00020216848556D1C2D
:100C7000A068A842F8D800206060A068B04201D205
:100C80000020206070BD0000FFB583B0119C0025DE
:100C9000002002900F2701900598FFF791FA00B20B
:100CA00000900598002802D1012007B0F0BD0098FF
:100CB000801C381887B20C98002801D00220054308
:100CC0000E9800280FD0042005430E98FFF778FAFD
:100CD000C0B202900F98FFF773FA01460298001D08
:100CE0000818C01987B20D98002804D0012804D034
:100CF000022808D104E000BF07E00C20054304E00F
:100D00001420054301E00220CFE700BF109800281F
:100D100001D0242005430398002802D0049800281D
:100D200001D10320C1E7C02005430398FFF748FA2B
:100D300006460498FFF744FA3018001DC01987B220
:100D400039462046FFF771FF2068002805D183A1AE
:100D5000864800F0DBFD0420A7E739462068FFF74E
:100D600006FA10216268501C606020688154636834
:100D70002268D118781FFFF73FFF00B20190019859
:100D8000002804DA2046FFF729FF05208DE7616877
:100D900001980818606000216268501C606020683B
:100DA000815404216268501C6060206881544D2188
:100DB0006268501C60602068815451216268501C38
:100DC00060602068815454216268501C6060206813
:100DD00081546268501C60602068815404216268FC
:100DE000501C6060206881546168481C6060206805
:100DF0004554FF2109020698084001126268501C00
:100E00006060206881540698C1B26268501C6060BE
:100E100020688154FF21090200980840011262688D
:100E2000501C6060206881540098C1B26268501CF8
:100E3000606020688154626821688818009A05996A
:100E4000FFF7C5F961680098081860600420284021
:100E500000283ED000260F98002801D142A00F9014
:100E60000E98FFF7ADF986B2FF2000023040011264
:100E70006268501C6060206881546268501C606029
:100E80002068865462682168881832460E99FFF7F8
:100E90009EF96068801960600F98FFF791F986B23B
:100EA000FF200002304001126268501C6060206820
:100EB00081546268501C60602068865462682168B2
:100EC000881832460F99FFF782F9606880196060D0
:100ED00000BF8020284000281CD00398FFF770F93D
:100EE00086B2FF200002304001126268501C606030
:100EF000206881546268501C606020688654626873
:100F00002168881832460399FFF761F960688019F3
:100F1000606000BF4020284000281CD00498FFF7E4
:100F20004FF986B2FF200002304001126268501C67
:100F30006060206881546268501C6060206886543C
:100F400062682168881832460499FFF740F96068A2
:100F50008019606000BF0020A7E60000B7D6C5E496
:100F6000C4DAB4E6CAA7B0DC000000000000044008
:100F7000FFB583B017460C9C00260020029001901C
:100F800000250398002802D1012007B0F0BD0CE035
:100F9000A8003858002801D10220F6E7A9007858A7
:100FA000FFF70EF98619681CC5B206988542EFDB7B
:100FB000069841004018801C811902910299491D30
:100FC0002046FFF732FE2068002801D10320DCE72D
:100FD00082216268501C60602068815462682068C9
:100FE00081180298FFF708FE00B2019001980028CE
:100FF00004DA2046FFF7F2FD0420C6E76168019895
:1010000008186060FF210902039808400112626815
:10101000501C6060206881540398C1B26268501C03
:10102000606020688154002527E0A9007858FFF708
:10103000C7F80646FF2000023040010A6268501CD3
:101040006060206881546268501C6060206886542B
:10105000626820688318A800395832461846FFF79E
:10106000B6F86068801960600498C1B26268501C6C
:10107000606020688154681CC5B206988542D4DB44
:10108000002082E7F0B504460D46264601230020E5
:101090001060002116E0775C7F067F0E5F431068CA
:1010A000C0191060705C80273840002801D1481CAE
:1010B000F0BDDB0101204005834202D30120C04383
:1010C000F6E7491CA942E6DB0020C043F0E70146F1
:1010D0004878022801D0012070478878002802D083
:1010E0008878012801D1C878F6E7FF20F4E70000EE
:1010F000F8B50446FF2720780511012D01DB0E2DE0
:1011000001DD3846F8BD032D26D1002000906A4647
:101110000421601CFFF7B6FF0019461C0098022846
:1011200004D32078C007C00F002801D0FF20E9E7D2
:101130003078000271780843801C0099884201D9F8
:10114000FF20DFE706A1B01CFFF71CF8002801D044
:101150000F2700E0032700E02F463846D2E70000C3
:10116000246372657100000070470000C206D20E51
:1011700001219140014A11607047000000E100E048
:1011800030B58BB000200790089009900A90012597
:101190002BA32EA22FA131A000F0EEFB07A8002167
:1011A00002910391049100912B0225A201910590D7
:1011B00026A128A0FFF768FD00283BD1089A91B22C
:1011C0000798FFF7ABFCFA20FFF7AAFB0446002CB8
:1011D0002CD02046FFF78CFF022827D12046FFF7AE
:1011E00076FF030000F01BFC0604090D1115191D04
:1011F00026A000F0C1FB002517E029A000F0BCFBF1
:1012000013E02EA000F0B8FB0FE035A000F0B4FB17
:101210000BE03BA000F0B0FB07E042A000F0ACFB0D
:1012200003E04BA000F0A8FB00BF00BF07A8FFF73A
:10123000D5FC02E04DA000F09FFB28460BB030BD6E
:1012400031303638383336393937000031323334BB
:101250003536000035393234383900004F6E654E6E
:1012600065745F4465764C696E6B0D0A50524F4948
:10127000443A2025732C09415549463A2025732CC0
:101280000944455649443A25730D0A005469707360
:101290003A09C1ACBDD3B3C9B9A60D0A000000001C
:1012A0005741524E3A09C1ACBDD3CAA7B0DCA3BA6C
:1012B000D0ADD2E9B4EDCEF30D0A00005741524E45
:1012C0003A09C1ACBDD3CAA7B0DCA3BAB7C7B7A8A7
:1012D000B5C4636C69656E7469640D0A0000000032
:1012E0005741524E3A09C1ACBDD3CAA7B0DCA3BA2C
:1012F000B7FECEF1C6F7CAA7B0DC0D0A00000000A9
:101300005741524E3A09C1ACBDD3CAA7B0DCA3BA0B
:10131000D3C3BBA7C3FBBBF2C3DCC2EBB4EDCEF3BC
:101320000D0A00005741524E3A09C1ACBDD3CAA7BD
:10133000B0DCA3BAB7C7B7A8C1B4BDD328B1C8C879
:10134000E7746F6B656EB7C7B7A8290D0A00000078
:101350004552523A09C1ACBDD3CAA7B0DCA3BACE3C
:10136000B4D6AAB4EDCEF30D0A0000005741524E98
:101370003A094D5154545F5061636B6574436F6E0D
:101380006E656374204661696C65640D0A00000037
:1013900070470000C1B2054A116000BF03490969E6
:1013A000FF22013211400029F8D0704700000440AC
:1013B00070470000042806D1064909690422114338
:1013C000044A116105E00349096904229143014A75
:1013D0001161704700E000E0002803D10021094AB4
:1013E00091610EE0012806D10649096901221143E5
:1013F000044A116105E00349096949084900014AA5
:101400001161704700E000E0002806D00649096934
:1014100002221143044A116105E0034909690222CD
:101420009143014A1161704700E000E001494861C1
:101430007047000000E000E030B5A5B0002021902A
:10144000229023902490002400251AA000F094FA02
:10145000802101A8FEF78BFE21A801231D4A00214F
:1014600000901420FFF784FD00281ED11AA000F080
:1014700083FA229A91B22198FFF750FB17A0229984
:1014800000F07AFA19A0219900F076FA20A8017CE0
:1014900018A000F071FA17A0239900F06DFA21A8A6
:1014A000FFF79CFB002025B030BD14A000F064FACB
:1014B0000120F8E7546970733A094F6E654E657400
:1014C0005F5375627363726962654F726465720D12
:1014D0000A000000140000200D0A000053656E642D
:1014E0002025642042797465730D0A0025730D0A66
:1014F0000000000025640D0A000000005741524E14
:101500003A09537562736372696265204661696C5A
:1015100065640D0A000000007047000010204B4970
:10152000C86001204A4908604A48006B40210843CE
:101530004849086300BF484880682728FBD14548D0
:10154000406A03218902884342494862084640684C
:101550000121C90208433F49486000BF3D488068F7
:101560000007C00F0028F9D03A484068C008C00002
:10157000C01C3849486000BF3648406B4007400FE8
:101580000328F9D135480068C008C000401C334921
:10159000086000202F4908620846406849158843C2
:1015A0002C494860084600688915084329490860A5
:1015B00008464068091508432649486000BF254889
:1015C00080684007C00F0028F9D02248006B4021F6
:1015D00088432049086308460068891588431D49E7
:1015E00008600320000688610846406849150843E2
:1015F0001849486000BF174880688007C00F00285E
:10160000F9D016480068C008C000801C1349086063
:1016100000201049086208464068C008C000401C0D
:10162000486000BF0B48406B4007400F0128F9D1CC
:101630000A48006810210843084908600846006805
:1016400001210903084305490860704700810840EB
:10165000008308400080084000A1064000020840C6
:1016600010B52021480600F0BDF8002817D00C481E
:101670000088FF2802D9002009490880012080073E
:101680000068C1B2064802880088401C044B1880DC
:101690000448815401214902480500F01BF810BD9F
:1016A000100000202000002010B52021084800F084
:1016B00099F8002807D0064800F0EEF8C4B2214699
:1016C000034800F049F92021014800F003F810BD5B
:1016D0000000044002690A400261704700B587B00B
:1016E0000020019002900390012189030298884311
:1016F00040180290890001988843401801908900A1
:101700000198884340180190491202988843401874
:10171000029049100298884340180290012301A8C2
:1017200007C8FFF7CFF8002202212B48FFF734FA51
:10173000002220212948FFF72FFA0622012108461E
:10174000FEF7F8FF062202210120FEF7F3FF062232
:1017500010210020FEF7EEFF062220210020FEF7D8
:10176000E9FFE12040020490FF21013168468182B7
:101770000021C1820183418304A9194800F03CF88B
:1017800004A90120800700F037F81820FFF7EEFCCD
:101790001720FFF7EBFC01221146114800F072F808
:1017A00001221146900700F06DF8012200210C483B
:1017B00000F078F801221146094800F073F8012280
:1017C0000021900700F06EF801221146900700F00A
:1017D00069F807B000BD000000400B4000000B405E
:1017E00000000440024610690840002801D0012092
:1017F00070470020FCE7000070B504460D466068A5
:101800001C490840E9880843A988084329890843F6
:1018100069890843606001208007844207D118204D
:10182000FFF734F806462968FEF784FC6062124828
:10183000844207D11A20FFF729F806462968FEF7E7
:1018400079FC60620D48844207D11C20FFF71EF826
:1018500006462968FEF76EFC60620948844207D19B
:101860001E20FFF713F806462968FEF763FC606246
:1018700070BD0000FCE0FFFF0000044000100040CD
:1018800000100440002A03D0C3680B43C36002E089
:10189000C3688B43C36070470146086880B27047D5
:1018A0000160704710B5002A05D0436810248C40B1
:1018B0002343436004E0436810248C40A343436007
:1018C00010BD0FB430B5CBB0054601AC50A80090A8
:1018D000FF21293101A8009B4F9A00F071F80020E8
:1018E00000900BE02178641C2846FFF7D9FF00BF69
:1018F00080212846FFF776FF0028F9D020780028BD
:10190000F0D14BB030BC08BC04B0184770B50646E7
:101910000C46002505E0615D304600F01DF8681CAE
:10192000C5B2605D0028F6D170BDF8B507460C461B
:10193000154600260DE02178641C3846FFF7B0FFFD
:1019400000BF80213846FFF74DFF0028F9D0701CFA
:1019500086B2AE42EFDBF8BD70B504460D462946AF
:101960002046FFF79DFF00BF80212046FFF73AFF8A
:101970000028F9D070BD00000FB410B503A9044BC6
:10198000044A029800F022F910BC08BC04B01847C1
:10199000AD230000080000200FB410B504A9074BC8
:1019A00002AA039800F012F9044602A9002000F0F0
:1019B000B6FC204610BC08BC04B018471F2300002A
:1019C0007CB51D4616460C0001D0611E00E00021CA
:1019D00001910090054B6A462946304600F0F6F822
:1019E000002C02D0009A002111707CBD0923000058
:1019F0002021020C01D010211046020A01D010460D
:101A00000839020901D01046091F820801D010468A
:101A1000891E420801D0881E7047081A704730B4EA
:101A20007446641E2578641CAB4204D3635D5B007E
:101A3000E31830BC18471D46F8E702E008C8121F3B
:101A400008C1002AFAD170477047002001E001C1A7
:101A5000121F002AFBD17047F0B51FB486B0099859
:101A6000089A030D0021024314D05148514A181816
:101A7000504305141198012810981AD0281A401CB8
:101A800000264D4F4D49009601910490002812DA2E
:101A9000444211E01198012449A3012801D1109872
:101AA000C1430698119A84600360C26041600BB024
:101AB000F0BD4042E4E70446210500203F4A001CF7
:101AC00051410391029012E0E00707D032463B46B5
:101AD00001990098FEF744FC0191009032463B4684
:101AE00010461946FEF73CFC06460F466410002CD3
:101AF000EAD10498039B0028029A0999089806DA0B
:101B0000FEF72EFC019B009AFEF72AFC05E0FEF78B
:101B10008FFC019B009AFEF78BFC04460E460022C8
:101B2000284BFEF7FDFC03D80020C043014607E028
:101B30000022254B20463146FEF75EFBFEF7C8FD2E
:101B4000102409E0002C0ADB0A220023FEF7FCFC2B
:101B5000079B30321A55641E02460A43F2D1112205
:101B6000641C079B121B1C19119B012B03D0012322
:101B700008430ED10AE0084304D011201090002041
:101B8000119077E71098151A6D1E0BE0109882429D
:101B900002DD00236D1C03E0824201DA00236D1E8A
:101BA000002BEED0069811998260C16030C07EE7AC
:101BB00001FCFFFF104D0000000014400000F03F4A
:101BC000300000000000F0430000E03FFFB597B098
:101BD000064600251BE2252876D100242746F74932
:101BE000049400E00443761C32780120203A9040AF
:101BF0000842F7D130782A280ED0022230780146E8
:101C00003039092916D804990A2359433039401824
:101C10001443761C0490F1E7189802C804911890B8
:101C2000002904DA012040030443484204900220C2
:101C30000443761C30782E2814D104200443707895
:101C4000761C2A2809D11898761C80C8189009E0BB
:101C50000A214F43303FC719761C3078014630398E
:101C60000929F5D930786C2810D006DC4C281AD018
:101C700068280ED06A2817D104E0742813D07A2877
:101C800012D110E00120400504430CE001210905B8
:101C900001E0032109050C437178814203D1012041
:101CA00000052418761C761C307866280BD013DCCF
:101CB00058287DD009DC00287BD04528F6D046285E
:101CC000F4D047281AD1A9E118E0632835D0642858
:101CD00070D0652812D1A1E170286CD008DC67288B
:101CE000F1D069287DD06E280DD06F2806D1BCE0D8
:101CF00073282ED0752873D0782859D01A9A19993C
:101D000090476D1C82E16002400F022809D0032831
:101D10000DD00428189801680DD00D60001D189092
:101D200074E11898EA1701680D604A60F6E71898A0
:101D300001680D80F2E70D70F0E718986A460178A7
:101D40001172001D18900020507202A8009001200E
:101D500005E0189802C8189000200091C043610760
:101D60000ED5002101E00199491C0191B94213DA15
:101D70008142F8DB019A0099895C0029F3D10BE0DC
:101D8000002101E00199491C01918142FADB019A8D
:101D90000099895C0029F5D1019904981A9B471A8A
:101DA00021463846199A00F099FA4019019903E042
:101DB00051E030E115E050E0451807E00098009947
:101DC0000078491C00911A9A199990470198401E71
:101DD0000190401CF2D1214638461A9B199A12E113
:101DE00037E00A200021009001916002410F022992
:101DF00007D0189A01CA1892C2179446032908D02E
:101E00000AE01898C01DC108C90005C91891944678
:101E100007E000B2C2179446042902D140B2C117AC
:101E20008C4600226146944506DA0A46002140426B
:101E300091418C462D2102E0210504D52B216A46D3
:101E40001173012103E0E10701D02021F7E702919E
:101E500056E00A200AE0102008E01020009000213F
:101E6000042004430191082703E008200021019188
:101E700000906002410F022907D0189A01CA1892F7
:101E800000229446032908D008E01898C01DC10814
:101E9000C90005C91891944603E080B2042900D115
:101EA000C0B20021029121072AD531780D91702905
:101EB00006D0009A1021019B4A401A4305D00EE03B
:101EC00040216A461173012108E06146014306D0B2
:101ED00030216A4611730D99517302210291009AC3
:101EE0000821019B4A401A430AD16146014301D1AE
:101EF000610705D530216A46117301217F1E0291C9
:101F00003178582904D02EA10E910DA90D910DE024
:101F100030A1F9E76146019B009AFEF715FB0E9B85
:101F20008C469B5C0D9A521E0D92137061460143C4
:101F3000F0D10D9805A9081A20300190600703D54B
:101F400001200004844300E001270198874201DD5D
:101F5000381A00E0002001990090411802980918F1
:101F60000498401A0490E00306D421461A9B199A5B
:101F7000049800F0B3F94519002706E003A81A9A5F
:101F8000C05D199990476D1C7F1C02988742F5DB54
:101F9000E0030CD521461A9B199A049800F09EF98B
:101FA000451904E01A9A3020199990476D1C009940
:101FB000481E00900029F5DC1FE000000928010000
:101FC00030313233343536373839616263646566AF
:101FD0000000000030313233343536373839414271
:101FE00043444546000000000D980D990078491CB7
:101FF0000D911A9A199990476D1C0199481E0190EC
:102000000029F1DC4DE100F059F94519761C3078D2
:10201000002800D0DFE528461BB0F0BD600700D4E3
:1020200006271898C01DC108C90048680A68083109
:10203000C30FDB071891190001D09CA108E021050E
:1020400001D59BA104E0E10701D09AA100E09AA18B
:102050004300109130785B0865280CD006DC4528D9
:1020600009D046281DD0472841D141E0662818D024
:1020700067283CD13CE00021112F01DB112000E05A
:10208000781C0191009008A911A8FFF7E5FC1399AD
:1020900005910021119A15927F1C129801970091C9
:1020A00050E00120C00703900120019008A900978B
:1020B00011A8FFF7D1FC139A149905920022119BE5
:1020C000009212981593059A0192002901D01046AA
:1020D00002E0791C40180190381A01D5019804E0FB
:1020E0004042401E0090781C0190C01B029043E0CB
:1020F000012F00DA01270021112F01DD112000E05E
:1021000038460191009008A911A8FFF7A5FC139982
:102110000591119A002112981592009101972107BB
:102120000CD40599B94201DB019900E00191012924
:1021300004DD159A491E515C302906D0B84201DAF7
:10214000011D05DA0121029115E00199491EEDE713
:10215000002805DC0099411800910199091A03E053
:10216000019A411C914200DD01910099401A401CE6
:1021700002900120C0070390200706D4029901981D
:10218000814202DB0020C043029000206946C877EC
:1021900007AF012103980337C907884224D00220E2
:1021A00011902B201290039800280CDA40420390E3
:1021B0002D20129007E00A210398FDF7BBFF303174
:1021C0007F1E039039701199481E11900029F2DC8E
:1021D00003980028EFD1791E1298087030782021DA
:1021E00008404530BF1E387006A8C01BC01D0390B4
:1021F00010980078002800D0012001994118029819
:10220000C0170918039809180498401A401E049032
:10221000E00306D421461A9B199A049800F05EF850
:10222000451910980078002803D01A9A19999047F8
:102230006D1CE00324D521461A9B199A049800F0DE
:102240004DF845191CE00098002807DB0099059817
:10225000884203DD1598405C199901E019993020F6
:102260001A9A904700986D1C401C00900298401EDE
:102270000290002804D11A9A2E20199990476D1CBB
:102280000199481E01900029DDDC05E038781A9A92
:102290007F1C199990476D1C0399481E03900029D3
:1022A000F4DC21461A9B199A0498ACE62D00000034
:1022B0002B0000002000000000000000F8B50446DC
:1022C00000251E461746880404D405E03946202020
:1022D000B0476D1C641EF9D52846F8BDFFB504460D
:1022E000002581B01E46C80301D5302700E0202715
:1022F000880404D505E038460399B0476D1C641E78
:10230000F9D5284605B0F0BD4A68002A06D00A680B
:10231000531C0B6010704868401E486070470A6884
:10232000531C0B601070704710B5044603E07D200D
:10233000C00000F007F82046611E8CB20028F6D1DC
:1023400010BD000070B504460420C043FFF732F80A
:1023500013490968C8081349FDF7ECFE0646FFF764
:1023600065F80020FFF750F80020FFF735F801204E
:10237000FFF732F8002508E000BF0B480069012193
:10238000090408400028F8D06D1CA542F4D30120B0
:10239000C043FFF721F80020FFF71EF870BD0000D2
:1023A0000400002040420F0000E000E070B5044649
:1023B0000D462046FEF7EEFF70BD000010B5002868
:1023C00023D0124B0022001F196803E0814203D87A
:1023D0000A4649680029F9D1002A0AD01368841AEC
:1023E0009C4204D1006818181060104602E050604A
:1023F00000E01860002907D002680B1A934203D14D
:102400000B68D21802604968416010BD18000020B6
:10241000FFF764F9FEF7B0FAFEF7B2FE7D20000187
:10242000FFF782FF00BFFFF707F80128FBD000BFCE
:10243000FEE70000F0B50B30C108C900144F0026BC
:10244000144A0FE003688B420BD38B4205D95C1A08
:102450004318456830C3083B00E04368136002C07E
:1024600004E0021D10680028ECD13046002803D19A
:102470003868002801D00020F0BD064A06481060E8
:10248000064A121AD208D20044C001203860D7E7A9
:102490001C00002018000020240100202001002042
:1024A0002F646576696365412F636F6D6D616E643E
:1024B00073000000D4240000000000202000000071
:1024C0003A1A0000F424000020000020000300005D
:1024D0004A1A000000000000006CDC02000000004E
:1024E0000000000000000000A02400000000000028
:0424F00000000000E8
:04000005000000C136
:00000001FF
