:020000040000FA
:10000000880A0020C10000002D0200001D0200002F
:10001000FFFFFFFFFFFFFFFFFFFFFFFFFFFFFFFFF0
:10002000FFFFFFFFFFFFFFFFFFFFFFFF33080000A1
:10003000FFFFFFFFFFFFFFFF3108000095080000F2
:1000400003010000030100000301000003010000A0
:100050000301000003010000030100000301000090
:1000600003010000FFFFFFFF030100000301000088
:10007000030100000301000003010000FFFFFFFF78
:10008000FFFFFFFF03010000030100000301000068
:100090000301000003010000030100000301000050
:1000A0000301000003010000030100000301000040
:1000B0000301000003010000030100000301000030
:1000C0001048804710488047104800471048016991
:1000D000002910D1416900290DD1816900290AD177
:1000E000C169002907D1BFF34F8F0A490A48C86088
:1000F000BFF34F8FFEE77047FEE7FEE7FEE7FEE740
:10010000FEE7FEE7CD000000990800001D01000099
:100110000003084000ED00E00400FA0504488546AD
:1001200000F01EF800480047190A0000C046C0460B
:10013000880A002030B50B46014600202022012409
:1001400009E00D46D5409D4205D31D469540491B0B
:100150002546954040191546521E002DF1DC30BD54
:10016000064C0125064E05E0E36807CC2B430C3C0A
:1001700098471034B442F7D3FFF7D4FFFC290000AE
:100180001C2A000070B58C180578401C6B075B0FAB
:1001900001D10378401C2A1106D10278401C03E0EB
:1001A00006780E70401C491C5B1EF9D12B0705D444
:1001B0000023521E0DD40B70491CFAE70378401C33
:1001C000CB1A921C03E01D780D70491C5B1C521E5B
:1001D000F9D5A142D8D3002070BD0000F0B5084F7A
:1001E0007C6AFD6A3E6B84438D439643002B02D0AC
:1001F00004430D4316437C62FD623E63F0BD000084
:100200000080084081627047002A026801D00A43DA
:1002100000E08A430260704741627047024801680B
:100220000029FCD070470000000400207047000047
:1002300010B50021084C0A460020C3001B19401CC1
:10024000C0B25A548028F8D3491CC9B20829F3D344
:1002500000F0D6F810BD00000804002010B50028FA
:1002600006D0012803D10021A72000F0A7FA10BD75
:100270000021A620F9E710B500280AD0012807D1EF
:100280000021C02000F09AFA0021A02000F096FA88
:1002900010BD0021C82000F091FA0021A120F5E74F
:1002A00030B5CC084B075B0F01259D40EBB2074DE5
:1002B000C0004519C808285C002A01D0184302E094
:1002C000C0431843C043285530BD00000804002037
:1002D00070B503235B0418430123FFF77FFF414DF3
:1002E000012213212846FFF78FFF03263E4CB60359
:1002F000012231462046FFF787FF13212846FFF7EA
:100300008BFF31462046FFF787FF0125AD032946C5
:100310002046FFF777FFC82000F041FB2946204622
:10032000FFF77AFF0021FD2000F048FA002112209B
:1003300000F044FA0021AE2000F040FA0021D52060
:1003400000F03CFA0021A02000F038FA0021A8209B
:1003500000F034FA00213F2000F030FA0021D320D1
:1003600000F02CFA0021084600F028FA0021402075
:1003700000F024FA0021A12000F020FA0021C8207A
:1003800000F01CFA0021DA2000F018FA00211220F7
:1003900000F014FA0021812000F010FA00217F20E3
:1003A00000F00CFA0021D92000F008FA0021822088
:1003B00000F004FA0021DB2000F000FA00213420D4
:1003C00000F0FCF90021A42000F0F8F90021A6209B
:1003D00000F0F4F9FFF72CFF0021AF2000F0EEF958
:1003E00070BD000000200B4000400B400346012080
:1003F00000E058430A46491EC9B2002AF9D17047A5
:1004000070B5104E00252846B030C0B2002100F073
:10041000D5F90021084600F0D1F90021102000F0A4
:10042000CDF90024E0008019405D012100F0C6F9FB
:10043000641CE4B2802CF5D36D1CEDB2082DE2D320
:1004400070BD000008040020F7B5002582B02C46DE
:100450000498009010232A461821802000F0B0F85C
:100460006D1CEDB2029885421BD103980025060150
:1004700014E00121184A0020CB009A181718135CC9
:10048000203F401CC0B23B760828F7D3491CC9B2B4
:100490009029EFD3FFF7B4FF6D1CEDB2AE42E8D860
:1004A0000025641CE4B2102C00D100240A4B012169
:1004B0000020CA00D2181718165C203F401CC0B29A
:1004C0003E760828F7D3491CC9B29029F0D3FFF72C
:1004D00097FF002CC6D1BBE708040020FFB585B00C
:1004E000059803900698019058081E460290082B24
:1004F0000DD0F108700700D0012008180299484378
:10050000C0B2203A0490D0B20025009048E0062006
:10051000F7E7082E10D00C2E13D0102E16D0182E60
:1005200041D100982421484321494018445D0027C7
:10053000E0070FD00E9A11E00098062148431D49AC
:10054000F3E700980C2148431B49EEE700981B494C
:100550000001EAE70E98002827D0002206990598A6
:10056000FFF79EFE06987F1C401C6408C0B2FFB2D5
:100570000690082FDCD30598401CC0B20590082EC9
:100580000AD00399411A0298814205D10398059037
:1005900001980830C0B2019001986D1CEDB2069030
:1005A00004988542B5D309B0F0BD0122D6E700001A
:1005B00078180000EC0B0000140E000088120000F8
:1005C000FFB583B0039801900498D90800901E46A7
:1005D000580700D00120081870430025029045E01C
:1005E000102E0FD0182E11D0202E15D0402E40D115
:1005F0000598214940024018445D0027E00710D0CB
:100600000C9A12E005981D494001F4E7059848212D
:1006100048431949C839EEE705981749C0018039A0
:10062000E9E70C98002817D0002204990398FFF7F7
:1006300037FE04987F1C401C6408C0B2FFB20490CF
:10064000082FDBD303980199401CC0B20390401AD5
:10065000B04203D0009806E00122E6E7009803913B
:100660000830C0B200906D1CADB204900298854273
:10067000B6D307B0F0BD0000FC270000D425000071
:10068000FFB581B00A9800251F46082800D1022531
:10069000002446081DE0381B401EC1B20A20FFF7A7
:1006A000A5FE01460398FFF745FD0A21FFF742FD2D
:1006B0000B980029009010D03031CAB270190199FE
:1006C000604340180A9BC0B20299FFF707FF641C01
:1006D000E4B2BC42DFD305B0F0BD701901996043AC
:1006E0004018C0B230220A9BEEE7FFB586B006463E
:1006F0000F46002004910090D9080196580700D0B9
:10070000012008180990002032E0002029E000991B
:100710000F98455C481C80B200240090E80701D087
:10072000109A03E01098002828D00022394630465D
:10073000FFF7B6FD7F1C641C6D08E4B2FFB2082C05
:10074000ECD3761C0198F6B2311A0898814204D194
:100750000498019E0830C0B204900598049F401C84
:10076000C0B2089905908842D1D30298401CC0B20B
:10077000099902908842C8D30AB0F0BD0122D5E79A
:10078000FFB581B01E46154604465F080BE00A9887
:100790000090334620460299FFF7A0FE082E09D0AC
:1007A0003819C4B26D1C2A78104620385E28EED95C
:1007B00005B0F0BDA41DE4B2F4E70000F8B50127D0
:1007C0000546FF0300291848394602D0FFF724FDEB
:1007D00001E0FFF717FD154E10213046FFF712FD1F
:1007E000002401213046FFF70DFD280604D5022123
:1007F0003046FFF711FD03E002213046FFF702FD0E
:1008000001213046FFF708FD6806641C050EE4B2BE
:10081000082CE6D310213046FFF7FEFC394602488B
:10082000FFF7FAFCF8BD000000400B4000200B4031
:1008300070477047042204490428086902D0904395
:10084000086170471043FBE700E000E0074900281B
:1008500006D00128086906D04008400008617047AA
:1008600000208861704701221043F7E700E000E0B4
:10087000044902220028086901D0104300E0904397
:100880000861704700E000E00149486170470000DE
:1008900000E000E070470000F0B534491020C86067
:1008A0003349012008603348016B40242143016330
:1008B00031498A68272AFCD1416A03229202914376
:1008C000416241680122D202114341608168C90836
:1008D000C907FBD04168C908C900C91C4160416B08
:1008E0004907490F0329FAD1244B1968C908C900DF
:1008F000491C19600025056241685E15B1434160DD
:1009000001689F153943016041681A151143416020
:1009100081688908C907FBD0016BA14301630168A5
:10092000B943016003210906816141683143416097
:1009300081684908C907FBD01968C908C900891C22
:10094000196005624168C908C900491C4160416BD2
:100950004907490F0129FAD1186810210843186086
:100960001868090208431860F0BD000000810840C3
:10097000008308400080084000A1064000020840B3
:1009800002E008C8121F08C1002AFAD17047704758
:10099000002001E001C1121F002AFBD1704770B591
:1009A0007D250446ED0002E0284600F007F82046C9
:1009B000641EA4B20028F7D170BD000010B5044633
:1009C0000420C043FFF736FF114810490068FFF7C5
:1009D000B1FBFFF759FF0020FFF74AFF0020FFF7A8
:1009E00035FF0120FFF732FF00210A4A03E01369B7
:1009F000D803FCD5491CA142F9D30120C043FFF71D
:100A000025FF0020FFF722FF10BD000000127A0032
:100A10000404002000E000E01CB52025FFF758FC8E
:100A20000020FFF71BFC0020FFF725FC624F01248C
:100A3000FF26F536002140238022084600970194C6
:100A4000FFF753FEFFF7DCFC3046FFF7A8FFFFF788
:100A5000EFFB00221023114610460094FFF7B0FD73
:100A600010230122002112200094FFF7A9FD10237A
:100A70000222002124200094FFF7A2FD102303226C
:100A8000002136200094FFF79BFD10230422002153
:100A900048200094FFF794FD1023052200215A20DE
:100AA0000094FFF78DFD1023062200216C20009496
:100AB000FFF786FD102341A2194608200094FFF796
:100AC0005FFE102341A2202114200094FFF758FE5E
:100AD000102341A2302100200094FFF751FE102383
:100AE0003FA230213F200094FFF74AFE302110231F
:100AF0002A4608460094FFF7F1FC6D1CEDB27E2DEE
:100B000000D920251020009003232A46302101948B
:100B10006720FFF7B5FDFFF773FC3046FFF73FFF97
:100B2000FFF786FB00221023114610460094FFF7C2
:100B300047FD00221823114610200094FFF740FDC6
:100B400020230022142118200094FFF739FD4023B0
:100B50000022114618460094FFF732FDFFF750FCC3
:100B60003046FFF71CFFFFF763FB002108231EA29E
:100B700008460094FFF704FE0C231BA20821002066
:100B80000094FFF7FDFD102317A21421002000940C
:100B9000FFF7F6FD182314A2242100200094FFF78C
:100BA000EFFDFFF72DFC3046FFF7F9FE012204218F
:100BB0000B20FFF749FC3DE7000000205A484F4E4C
:100BC000474A494E475955414E00000032303134B2
:100BD0002F30352F3031000041534349493A00004E
:100BE000434F44453A0000004142430000000000EA
:100BF00000000000002F00000000070007000014A4
:100C00007F147F1400242A7F2A12006264081323B1
:100C100000364955225000000503000000001C2248
:100C20004100000041221C000014083E0814000886
:100C3000083E0808000000A0600000080808080836
:100C4000000060600000002010080402003E5149CE
:100C5000453E0000427F400000426151494600216C
:100C600041454B31001814127F1000274545453986
:100C7000003C4A49493000017109050300364949E1
:100C8000493600064949291E00003636000000009A
:100C900056360000000814224100001414141414E5
:100CA000000041221408000201510906003249598E
:100CB000513E007C1211127C007F49494936003EAA
:100CC00041414122007F4141221C007F4949494165
:100CD000007F09090901003E4149497A007F08085F
:100CE000087F0000417F4100002040413F01007F1C
:100CF00008142241007F40404040007F020C027FE8
:100D0000007F0408107F003E4141413E007F0909F9
:100D10000906003E4151215E007F0919294600461F
:100D2000494949310001017F0101003F4040403FF6
:100D3000001F2040201F003F4038403F0063140840
:100D4000146300070870080700615149454300001B
:100D50007F41410000552A552A55000041417F003E
:100D60000004020102040040404040400000010233
:100D70000400002054545478007F4844443800381C
:100D80004444442000384444487F003854545418A4
:100D900000087E0901020018A4A4A47C007F0804B6
:100DA00004780000447D4000004080847D00007F86
:100DB000102844000000417F4000007C04180478A3
:100DC000007C0804047800384444443800FC24249F
:100DD00024180018242418FC007C08040408004887
:100DE0005454542000043F444020003C4040207CA8
:100DF000001C2040201C003C4030403C0044281097
:100E00002844001CA0A0A07C004464544C4414144A
:100E10001414141400000000000000000000000082
:100E20000000FC000000000002000000000C020CAA
:100E3000020000000000000090D0BCD0BC90000375
:100E4000000300001824FE448C0003020702010086
:100E50001824D8B04C80000300010201C038E438E7
:100E6000E00001020201020208060000000000008A
:100E700000000000000000F804020000000102046D
:100E8000000204F800000004020100009060F86015
:100E900090000000010000002020FC202000000045
:100EA0000100000000000000000008060000000033
:100EB0002020202020000000000000000000000092
:100EC00000000002000000000080601C020004031B
:100ED00000000000F8040404F8000102020201000E
:100EE0000008FC00000000020302000018844424F3
:100EF000180003020202020008042424D8000102A0
:100F00000202010040B088FC8000000000030200E3
:100F10003C242424C400010202020100F824242CF1
:100F2000C0000102020201000C04E41C04000000E5
:100F300003000000D8242424D8000102020201008A
:100F400038444444F800000302020100000010008D
:100F5000000000000200000000002000000000006F
:100F6000060000000020508804020000000001027A
:100F70009090909090000000000000000002048813
:100F800050200002010000001804C42418000000D2
:100F900002000000F804E494F800010202020200DA
:100FA00000E09CF0800002030000030204FC242403
:100FB000D800020302020100F80404040C0001023C
:100FC0000202010004FC0404F80002030202010012
:100FD00004FC24740C0002030202030004FC2474C9
:100FE0000C00020302000000F0080444CC400001A1
:100FF0000202010004FC2020FC04020300000302A2
:101000000404FC040400020203020200000404FCC5
:10101000040406040403000004FC24D00C040203AE
:101020000200030204FC04000000020302020203A7
:10103000FC3CC03CFC0003000300030004FC30C483
:10104000FC04020302000300F8040404F800010297
:101050000202010004FC2424180002030200000024
:10106000F8848404F80001020207050004FC2464EB
:101070009800020302000302182424448C00030297
:10108000020201000C04FC040C0000020302000038
:1010900004FC0000FC04000102020100047C80E06A
:1010A0001C040000030000001CE03CE01C000003E6
:1010B00000030000049C609C040002030003020083
:1010C000041CE01C04000002030200000C84641CE9
:1010D00004000203020203000000FE0202000000FE
:1010E00007040400000E30C00000000000010200F0
:1010F000000202FE000000040407000000040204D5
:1011000000000000000000000000000000000808CF
:1011100008080808000002000000000000000000AD
:101120000040A0A0C00000010202030204FC202035
:10113000C00000030202010000C020206000000186
:101140000202020000C02024FC000001020203028F
:1011500000C0A0A0C0000001020202000020F8248C
:1011600024040002030202000040A0A06020000747
:101170000A0A0A0404FC2020C00002030200030241
:101180000020E4000000000203020000000020E450
:10119000000008080807000004FC80E0202002038B
:1011A000020003020404FC00000002020302020029
:1011B000E020E020C00003000300030020E0202026
:1011C000C00002030200030200C02020C000000192
:1011D0000202010020E02020C000080F0A020100E6
:1011E00000C02020E0000001020A0F0820E040209B
:1011F00020000203020000000060A0A02000000206
:10120000020203000020F82000000000010202009A
:1012100020E00020E00000010202030220E0208024
:1012200060200000030100006080E0806000000397
:101230000003000020608060200002030003020021
:1012400020E0208060200808070100000020A06046
:101250002000000203020200000020DE0200000065
:1012600000070400000000FF00000000000F000065
:101270000002DE200000000407000000020102045A
:101280000402000000000000000000000000000058
:101290000000000000000000000000F80000000056
:1012A000000000333000000000100C06100C060097
:1012B000000000000000000040C07840C0784000FE
:1012C000043F04043F040400007088FC0830000060
:1012D000001820FF211E0000F008F000E0180000B8
:1012E00000211C031E211E0000F008887000000071
:1012F0001E2123241927211010160E0000000000C3
:101300000000000000000000000000E018040200DF
:10131000000000071820400000020418E000000050
:101320000040201807000000404080F0804040004E
:101330000202010F01020200000000F000000000A4
:101340000101011F01010100000000000000000078
:1013500080B07000000000000000000000000000ED
:101360000001010101010101000000000000000076
:101370000030300000000000000000008060180411
:10138000006018060100000000E010080810E000EE
:10139000000F102020100F00001010F800000000B7
:1013A0000020203F202000000070080808887000FE
:1013B000003028242221300000300888884830007E
:1013C0000018202020110E000000C02010F800009E
:1013D00000070424243F240000F808888808080037
:1013E0000019212020110E0000E01088881800004C
:1013F000000F112020110E0000380808C83808001E
:101400000000003F0000000000708808088870009D
:10141000001C222121221C0000E010080810E0001E
:101420000000312222110F00000000C0C0000000A7
:1014300000000030300000000000008000000000CC
:1014400000008060000000000000804020100800C4
:10145000000102040810200040404040404040008D
:101460000404040404040400000810204080000068
:101470000020100804020100007048080808F0006D
:101480000000003036010000C030C828E810E0003D
:101490000718272423140B000000C038E0000000C8
:1014A000203C23020227382008F888888870000032
:1014B000203F202020110E00C03008080808380006
:1014C000071820202010080008F808080810E0007D
:1014D000203F202020100F0008F88888E80810001E
:1014E000203F20202320180008F88888E8081000F2
:1014F000203F200003000000C0300808083800002A
:1015000007182020221E020008F808000008F8082A
:10151000203F210101213F20000808F808080000B1
:101520000020203F2020000000000808F8080800E4
:10153000C08080807F00000008F888C0281808005C
:10154000203F20012638200008F808000000000095
:10155000203F20202020300008F8F800F8F808008C
:10156000203F003F003F200008F830C00008F80886
:10157000203F200007183F00E01008080810E00096
:101580000F10202020100F0008F808080808F000AD
:10159000203F210101010000E01008080810E000D0
:1015A0000F18242438504F0008F888888888700065
:1015B000203F2000030C3020007088080808380005
:1015C0000038202121221C00180808F808081800FB
:1015D0000000203F2000000008F808000008F8087C
:1015E000001F202020201F000878880000C838082D
:1015F000000007380E010000F80800F80008F800A5
:10160000033C0700073C030008186880806818083E
:1016100020302C03032C30200838C800C8380800BC
:101620000000203F2000000010080808C83808000B
:101630002038262120201800000000FE02020200AF
:101640000000007F40404000000C30C0000000005F
:10165000000000010638C00000020202FE00000087
:10166000004040407F00000000000402020204002D
:10167000000000000000000000000000000000006A
:101680008080808080808080000202040000000052
:10169000000000000000000000008080808000004A
:1016A0000019242222223F2008F800808000000038
:1016B000003F112020110E000000008080800000FB
:1016C000000E112020201100000000808088F8000A
:1016D000000E112020103F2000008080808000003C
:1016E000001F222222221300008080F088888818A0
:1016F0000020203F202000000000808080808000AB
:10170000006B94949493600008F80080808000003F
:10171000203F210000203F2000809898000000001A
:101720000020203F2020000000000080989800004A
:1017300000C08080807F000008F80000808080006A
:10174000203F24022D302000000808F8000000008F
:101750000020203F2020000080808080808080004A
:10176000203F20003F20003F8080008080800000DC
:10177000203F210000203F2000008080808000006A
:10178000001F202020201F0080800080800000009B
:1017900080FFA12020110E000000008080808000CA
:1017A000000E112020A0FF808080800080808000BB
:1017B00020203F21200001000000808080808000E8
:1017C0000033242424241900008080E0808000005D
:1017D0000000001F202000008080000000808000AA
:1017E000001F202020103F2080808000008080800B
:1017F00000010E300806010080800080008080809B
:101800000F300C030C300F000080800080808000BF
:101810000020312E0E3120008080800000808080EA
:1018200080818E701806010000808080808080009A
:101830000021302C2221300000000000807C0202B8
:1018400000000000003F404000000000FF000000DA
:1018500000000000FF0000000002027C8000000089
:101860000040403F000000000006010102020404A5
:101870000000000000000000000000000000000068
:101880000000000000000000000000000000000058
:101890000000000000000000000000000000000048
:1018A00000F0F0F0000000000000000000017F01E7
:1018B0000000000000000000001C1C1C00000000D4
:1018C00000008060301C8C60301C0C0000000000A8
:1018D0000000000000000000000000000000000008
:1018E00000000000000000E00000000000E0000038
:1018F0000086E69F86868686E69F860000011F0199
:10190000010101011F010100000080C06020F820DA
:10191000E0C00000000003070C18FF70E181000028
:101920000000070F10107F100F070000806020607C
:1019300080000000E02000000F3020309F70DC3776
:101940001030C0000000100E030007181018070028
:101950000000C02020E0C0000000000080E01F3830
:10196000E88703C43C040000070F1810100B070D94
:101970001010080000808C4C3800000000000000AF
:101980000000000000000000000000000000000057
:10199000000000000000000000000000000080E0E7
:1019A000300804000000000000FEFF0100000000FD
:1019B000000000000000030F182040000004083061
:1019C000E0800000000000000000000001FFFE00B9
:1019D00000000000004020180F030000000000007D
:1019E000000000000000C000000000000042666629
:1019F0003C18FF183C66664200000000000003002F
:101A00000000000000000000000080000000000056
:101A1000001010101010FF10101010100000000027
:101A200000000300000000000000000000000000B3
:101A300000000000000000000000000000000000A6
:101A400000808C4C38000000000000000000000006
:101A50000000000000000000001010101010101016
:101A60001010100000000000000000000000000046
:101A70000000000000000000000000000000000066
:101A8000000000000000000000001C1C1C00000002
:101A9000000000000000000000000000E0380C0022
:101AA0000000000080701C03000000000060380E81
:101AB0000100000000000000000080C060202060E5
:101AC000C080000000FEFF010000000001FFFE00DA
:101AD0000001070E181010180E070100000080808A
:101AE00080C0E000000000000000000000FFFF00D8
:101AF0000000000000001010101F1F101010000048
:101B00000080402020202060C080000000030300EF
:101B1000804020381F070000001C1A1918181818D8
:101B2000181F00000080C020202060C0800000003E
:101B3000000303001010182FE780000000070F10AB
:101B4000101010180F070000000000000000C0E097
:101B5000F000000000C0B088868180FFFF80800018
:101B6000000000000010101F1F1010000000E060B7
:101B7000606060606060000000003F1008080818A6
:101B8000F0E0000000070B101010101C0F03000005
:101B9000000080C040202020E0C0000000FCFF21A9
:101BA0001008080818F0E0000001070C18101010C9
:101BB000080F03000000C0E06060606060E060004B
:101BC000000003000000E018070000000000000013
:101BD000001F1F00000000000080C06020202020A7
:101BE00060C080000087EF2C1818303068CF830069
:101BF00000070F0810101010180F07000000C0C0D9
:101C000020202020C0800000001F3F604040402076
:101C100010FFFE0000000C1C101010080F03000045
:101C200000000000000000000000000000000000B4
:101C3000000E0E0E0000000000000000001C1C1C26
:101C40000000000000000000000000000000000094
:101C500000000000000C0C0000000000000000006C
:101C60000058380000000000000000000000008064
:101C700040201000000010284482010000000000F5
:101C80000000000000000102040810000000000035
:101C900000000000000000000084848484848484A8
:101CA00084848400000000000000000000000000A8
:101CB0000000102040800000000000000000000034
:101CC00000000182442810000000100804020100F6
:101CD0000000000000C020201010101030E0C000F4
:101CE0000003030000F010080C07030000000000D0
:101CF0001C1C1C0000000000000000C040602020F0
:101D00002040C00000FCFF01F00E03C1FE03807FF5
:101D10000001070E08111110110904020000000053
:101D200080E0E000000000000000807C4340477F2E
:101D3000F880000010181F1000000000131F1C1076
:101D400020E0E02020202060C080000000FFFF1085
:101D5000101010182FE78000101F1F101010101007
:101D6000180F0700000080C0402020202060E00005
:101D700000FCFF0100000000000001000001070E50
:101D8000181010100804030020E0E020202020405C
:101D9000C080000000FFFF000000000001FFFE0007
:101DA000101F1F10101018080E07010020E0E0207F
:101DB000202020202060800000FFFF101010107CE9
:101DC00000000000101F1F10101010101018060047
:101DD00020E0E020202020206060800000FFFF1035
:101DE0001010107C00000100101F1F1000000000E8
:101DF00000000000000080C06020202040E00000C3
:101E000000FCFF0100004040C0C140400001070E3F
:101E1000181010100F0F000020E0E020000000005C
:101E200020E0E02000FFFF101010101010FFFF0056
:101E3000101F1F1000000000101F1F1000002020A6
:101E400020E0E020202000000000000000FFFF0054
:101E50000000000000001010101F1F1010100000E4
:101E600000000000202020E0E020202000000000F2
:101E7000000000FFFF0000000060E0808080C07F65
:101E80003F00000020E0E020000020A060202000B3
:101E900000FFFF30187CE3C000000000101F1F107F
:101EA000000001131F1C181020E0E02000000000BB
:101EB0000000000000FFFF00000000000000000024
:101EC000101F1F10101010101018060020E0E0E086
:101ED00000000000E0E0E02000FF013FFEC0E01E47
:101EE00001FFFF00101F1000031F0300101F1F1031
:101EF00020E0E0C0000000000020E02000FF000320
:101F0000071C78E08000FF00101F10000000000098
:101F1000030F1F00000080C060202060C080000010
:101F200000FEFF010000000000FFFE000001070EA0
:101F3000181010180C07010020E0E02020202020BD
:101F400060C0800000FFFF2020202020301F0F00F5
:101F5000101F1F100000000000000000000080C0E3
:101F600060202060C080000000FEFF010000000033
:101F700000FFFE000001070E1111133C7C672100D9
:101F800020E0E0202020202060C0800000FFFF1023
:101F90001030F0D0080F0700101F1F1000000003C2
:101FA0000F1C10100080C060202020204040E00066
:101FB00000070F0C1818303060E08100001F0C087B
:101FC00010101010180F07008060202020E0E02083
:101FD000202060800100000000FFFF0000000001E1
:101FE00000000000101F1F100000000020E0E02093
:101FF000000000000020E02000FFFF0000000000C3
:102000000000FF0000070F18101010101008070044
:102010002060E0E02000000020E060200000077F5A
:10202000F88000807C03000000000000071F1C07F0
:102030000000000020E0E02000E0E0200020E020A0
:102040000007FFF8E01FFFFCE01F00000000031F77
:102050000300011F03000000002060E0A00000203A
:10206000E0602000000000038F7CF8C60100000043
:102070000010181E130001171F1810002060E0E068
:102080002000000020E06020000001073EF8E0187A
:102090000700000000000010101F1F1010000000BB
:1020A00000806020202020A0E0E020000000000050
:1020B000C0F03E0F0300000000101C1F171010108E
:1020C000101806000000000000FC040404040400D2
:1020D0000000000000FF0000000000000000000001
:1020E000007F404040404000000010E00000000041
:1020F0000000000000000000031C608000000000E1
:1021000000000000000000030C70800000000404C8
:10211000040404FC0000000000000000000000FFB8
:1021200000000000000040404040407F00000000F0
:1021300000000010080C040C081000000000000053
:10214000000000000000000000000000000000008F
:10215000000000000000000000000000000000007F
:10216000000000000000000000000000808080806F
:102170008080808080808080000000040408080047
:10218000000000000000000000000000000000004F
:10219000000000000000000000000000000000003F
:1021A0000000000000000000000098D844642424CF
:1021B000FCF80000000F1F18101010081F1F101847
:1021C0000020E0F000000000000000000000FFFF21
:1021D000180804040CF8F00000001F0F181010106D
:1021E000180F0300000000000000000000000000C5
:1021F00000E0F8180404043C3800000000030F0C51
:102200001010101008060000000000000000002060
:10221000E0F0000000E0F81C04040408FFFF0000E8
:1022200000030F18101010081F0F08000000000016
:1022300000000000000000000000E0F848444444B2
:102240004C7870000000030F0C18101010080400E8
:102250000000000080C0602020E0C00000040404F2
:10226000FFFF040404040000000010101F1F1010E2
:10227000100000000000000000000000000000004E
:10228000000070F88C04048CF874040C007076CF95
:102290008D8D8D89C87870000020E0F0000000006E
:1022A000000000000000FFFF08040404FCF8000028
:1022B00000101F1F100000101F1F10000000000062
:1022C00000606000000000000000040404FCFC004A
:1022D0000000000000001010101F1F101010000060
:1022E000000000000000006060000000000000002E
:1022F000040404FCFC0000000000C0C08080C07F1B
:102300003F0000000020E0F000000000000000009E
:102310000000FFFF80C0F41C0404000000101F1F19
:102320001100031F1C1010000000202020E0F0000E
:10233000000000000000000000FFFF00000000009F
:1023400000001010101F1F101010000000000000EF
:10235000000000000000000004FCFC0804FCFC0875
:1023600004FCFC00101F1F10001F1F10001F1F1077
:102370000000000000000000000000000004FCFC61
:1023800008080404FCF8000000101F1F10000010D3
:102390001F1F1000000000000000000000000000EF
:1023A00000E0F0180C04040C18F0E00000030F0C1F
:1023B000101010100C0F03000000000000000000BF
:1023C000000000000004FCFC080404040CF8F00009
:1023D0000080FFFF889010101C0F03000000000019
:1023E000000000000000000000E0F81C04040408E5
:1023F000F8FC000000030F1810109088FFFF800009
:10240000000000000000000000000000040404FCC4
:10241000FC100804040C0C001010101F1F101010EA
:1024200000000000000000000000000000000000AC
:1024300000003078CCC48484840C1C0000001E187A
:1024400010101011190F06000000000000C000005D
:102450000000000000040404FFFF04040400000066
:10246000000000000F1F1010100C00000000000002
:1024700000000000000000000004FCFE000000045A
:10248000FCFE000000000F1F181010081F0F0800AE
:1024900000000000000000000000000000040C3CF0
:1024A000FCC40000C43C0C0400000000010F1E0E20
:1024B000010000000000000000000000000000001B
:1024C000043CFCC400E47CFC84807C040000071F06
:1024D000070000071F0700000000000000000000C8
:1024E000000000000004041C7CE4C0341C04040050
:1024F0000010101C1601131F1C1810000000000013
:10250000000000000000000000040C3CFCC400C4FB
:102510003C0404000000C080C1370E010000000030
:1025200000000000000000000000000000001C048B
:1025300004C4F47C1C0400000000101C1F171110C0
:1025400010180E0000000000000000F80C0400004D
:1025500000000000001028EF000000000000000054
:102560000000003F60400000000000000000FF008D
:1025700000000000000000000000FF00000000005C
:10258000000000000000FF00000000000000040C3C
:10259000F80000000000000000000000EF2810001C
:1025A00000000000000040603F000000000000004C
:1025B0000018060202040810202030080000000065
:1025C000000000000000000000000000000000000B
:1025D000000000000000F010101010FF101010108C
:1025E000F000000000000F04040404FF04040404CD
:1025F0000F0000004040405F555555755555555FDB
:10260000404040000040200F094989790909090F1D
:102610002040000000FE02424ACA4A4ACA4A4A42D0
:1026200002FE000000FF40504C4340404F50505CC1
:1026300040FF00000000F888888888FF8888888824
:10264000F800000000001F080808087F88888888B4
:102650009F80F00080828282828282E2A2928A86B9
:1026600082808000000000000040807F00000000A9
:1026700000000000101010FF109008888888FF8864
:10268000888808000444827F01808040432C102801
:10269000468180000010101010D030FF30D0121C86
:1026A0001010000010080402010000FF00000102E9
:1026B0000408100004040484E43C2724242424E4B3
:1026C0000404040004020100FF0909090949897F83
:1026D0000000000000FE225A8600FE929292929222
:1026E000FE00000000FF04080700FF4020030C1458
:1026F000224140000080402018068000071820403A
:10270000800000000100207028262120202438604D
:102710000001010000101292929292929212120203
:10272000FE0000000000003F101010103F0040802D
:102730007F000000000000C080808080808080FCDE
:1027400084808080808080C0C0000000000000FF86
:102750007F404040404040FF40404040404040FFBC
:102760007F00000000000000000000000000007F6B
:1027700070000000000000000000000000000000E9
:102780000000000000000000000000FCF800000055
:102790000000000000000000000000000000000039
:1027A000FFFE020202020202020202FFFF02020216
:1027B000020202020202FF0300000000000000000B
:1027C0001F1F040404040404040404FFFF0404049D
:1027D0000404040404041F000000000000000000C2
:1027E00000000000000000000000007F3F0000002B
:1027F00000000000000000000000000000000000D9
:1028000000000000000000000000000000000000C8
:10281000000000000000000000F8F8F0F070200058
:1028200000000000000000000000000000000000A8
:102830000000000000000000000000000000000098
:102840000000000080000000000000000000000008
:10285000000000000000000000FFFFFFFF0000007C
:102860000000000000000000000000000000000068
:102870008080000000000000000000000000000058
:102880000000000000FFFFFE06060606060606061C
:10289000060606060606060606FFFFFFFF060606F4
:1028A000060606060606060606060606060606FFCF
:1028B000FFFFFF0702000000000000000000000012
:1028C0000000000000FFFFFF00000000000000000B
:1028D000000000000000000000FFFFFFFF000000FC
:1028E000000000000000000000000000000000FFE9
:1028F000FFFFFF00000000000000000000000000DB
:102900000000000000FFFFFF18181818181818180A
:10291000181818181818181818FFFFFFFF1818189B
:10292000181818181818181818181818181818FF40
:10293000FFFFFF000000000000000000000000009A
:102940000000000002010100000000000000000083
:10295000000000000000000000FFFFFFFF0000007B
:102960000000000000000000000000000000000166
:102970000100000000000000000000000000000056
:102980000000000000000000000000000000000047
:10299000000000000000000000FFFFFFFF0000003B
:1029A0000000000000000000000000000000000027
:1029B0000000000000000000000000000000000017
:1029C0000000000000000000000000000000000007
:1029D0000000000000000000001F1F0F0F0000009B
:1029E00000000000000000000000000000000000E7
:1029F0000000000000000000000000001C2A000091
:102A0000000000200804000084010000402B0000AA
:102A100008040020800600009009000011100A033D
:102A2000050911FF118905C312E012F072F8073D84
:102A30004428FF11AA44700B830138448292927497
:102A4000018328087C44FF017D7D7D044905647D68
:102A500001FF9A0102818A010B013669419949FA05
:102A60000101011D38083F3F0303F31311011E014B
:102A7000F1116181312D816111F1393B4141072C07
:102A800001C1211EAB21C114390139360738D333B6
:102A900003033F3F23E0E06A7FA81A7FBF4C06187C
:102AA000060A213640407F40401C1F204001AB20D9
:102AB0001F14113A600E6C300C034601361C0707D8
:102AC000060178090404048444444484071C0484F3
:102AD000C405790E09110A79112940034107072617
:102AE00010181412112E0F1010100F0F331F102674
:102AF000081012120D22186B0D120A5929590701DC
:102B0000605A8001013D20087F030C300C037F25B3
:102B100038545458257C04047805223C40407C17E6
:102B2000FFAAAAAA28080A2CFF681E26494949328A
:102B3000101D020408100F4104006CDC02000000AC
:04000005000000C136
:00000001FF
